{
  "address": "0x5BFFC5303719f0dC6050a2D8042936714109985f",
  "abi": [
    {
      "inputs": [
        {
          "internalType": "address",
          "name": "account",
          "type": "address"
        }
      ],
      "name": "tierOf",
      "outputs": [
        {
          "internalType": "uint256",
          "name": "tier",
          "type": "uint256"
        }
      ],
      "stateMutability": "pure",
      "type": "function"
    }
  ],
  "transactionHash": "0x18564f5f92e3433e5edb181f7da247438e360893a730a22af21bc7cf718a93f7",
  "args": [],
  "numDeployments": 1,
  "solcInputHash": "ebb5f54f65cdb54946fa40b3124d0220",
  "bytecode": "0x608060405234801561001057600080fd5b5060b48061001f6000396000f3fe6080604052348015600f57600080fd5b506004361060285760003560e01c8063c8f74bb814602d575b600080fd5b603e60383660046050565b50600090565b60405190815260200160405180910390f35b600060208284031215606157600080fd5b81356001600160a01b0381168114607757600080fd5b939250505056fea2646970667358221220198af31521c8cfda70f47ea61139d5113b469dcbc7985882699402b476d0401f64736f6c63430008120033",
  "devdoc": {
    "author": "Lila Rest (lila@ledgity.com)",
    "custom:security-contact": "security@ledgity.com",
    "kind": "dev",
    "methods": {
      "tierOf(address)": {
        "details": "Dummy tierOf() function that always return that the given account is not ellgible to any LDY staking tier.",
        "params": {
          "account": "@"
        }
      }
    },
    "title": "LDYStaking",
    "version": 1
  },
  "userdoc": {
    "kind": "user",
    "methods": {},
    "notice": "This contract will replace the LDYStaking contract in L-Tokens contracts until the $LDY token is available and the real LDYStaking contract is deployed so. This contract only implements tierOf() function of LDYStaking as it is the only one the LToken contract relies on.",
    "version": 1
  },
  "storageLayout": {
    "storage": [],
    "types": null
  }
}