{
  "address": "0x2Bb79F621518BbA45dA5Ec57BC885C4686A60De9",
  "abi": [
    {
      "inputs": [
        {
          "internalType": "address",
          "name": "lTokenAddress_",
          "type": "address"
        },
        {
          "internalType": "uint256",
          "name": "maxDistributedLDY_",
          "type": "uint256"
        },
        {
          "internalType": "uint256",
          "name": "lockedHardCap_",
          "type": "uint256"
        },
        {
          "internalType": "uint8",
          "name": "minLockDuration_",
          "type": "uint8"
        },
        {
          "internalType": "uint8",
          "name": "maxLockDuration_",
          "type": "uint8"
        },
        {
          "internalType": "uint8",
          "name": "vestingDuration_",
          "type": "uint8"
        }
      ],
      "stateMutability": "nonpayable",
      "type": "constructor"
    },
    {
      "anonymous": false,
      "inputs": [
        {
          "indexed": true,
          "internalType": "address",
          "name": "account",
          "type": "address"
        },
        {
          "indexed": false,
          "internalType": "uint256",
          "name": "amount",
          "type": "uint256"
        },
        {
          "indexed": false,
          "internalType": "uint8",
          "name": "duration",
          "type": "uint8"
        }
      ],
      "name": "Lock",
      "type": "event"
    },
    {
      "anonymous": false,
      "inputs": [
        {
          "indexed": true,
          "internalType": "address",
          "name": "previousOwner",
          "type": "address"
        },
        {
          "indexed": true,
          "internalType": "address",
          "name": "newOwner",
          "type": "address"
        }
      ],
      "name": "OwnershipTransferStarted",
      "type": "event"
    },
    {
      "anonymous": false,
      "inputs": [
        {
          "indexed": true,
          "internalType": "address",
          "name": "previousOwner",
          "type": "address"
        },
        {
          "indexed": true,
          "internalType": "address",
          "name": "newOwner",
          "type": "address"
        }
      ],
      "name": "OwnershipTransferred",
      "type": "event"
    },
    {
      "anonymous": false,
      "inputs": [
        {
          "indexed": false,
          "internalType": "address",
          "name": "account",
          "type": "address"
        }
      ],
      "name": "Paused",
      "type": "event"
    },
    {
      "anonymous": false,
      "inputs": [
        {
          "indexed": false,
          "internalType": "address",
          "name": "account",
          "type": "address"
        }
      ],
      "name": "Unpaused",
      "type": "event"
    },
    {
      "inputs": [],
      "name": "acceptOwnership",
      "outputs": [],
      "stateMutability": "nonpayable",
      "type": "function"
    },
    {
      "inputs": [
        {
          "internalType": "address",
          "name": "",
          "type": "address"
        }
      ],
      "name": "accountsLocks",
      "outputs": [
        {
          "internalType": "uint240",
          "name": "amount",
          "type": "uint240"
        },
        {
          "internalType": "uint8",
          "name": "duration",
          "type": "uint8"
        },
        {
          "internalType": "bool",
          "name": "hasUnlocked",
          "type": "bool"
        },
        {
          "internalType": "uint216",
          "name": "claimedRewards",
          "type": "uint216"
        },
        {
          "internalType": "uint40",
          "name": "lockEndTimestamp",
          "type": "uint40"
        }
      ],
      "stateMutability": "view",
      "type": "function"
    },
    {
      "inputs": [
        {
          "internalType": "address",
          "name": "account",
          "type": "address"
        }
      ],
      "name": "availableToClaim",
      "outputs": [
        {
          "internalType": "uint256",
          "name": "",
          "type": "uint256"
        }
      ],
      "stateMutability": "view",
      "type": "function"
    },
    {
      "inputs": [],
      "name": "claimPhaseStartTimestamp",
      "outputs": [
        {
          "internalType": "uint256",
          "name": "",
          "type": "uint256"
        }
      ],
      "stateMutability": "view",
      "type": "function"
    },
    {
      "inputs": [],
      "name": "claimRewards",
      "outputs": [],
      "stateMutability": "nonpayable",
      "type": "function"
    },
    {
      "inputs": [
        {
          "internalType": "address",
          "name": "account",
          "type": "address"
        }
      ],
      "name": "eligibleRewardsOf",
      "outputs": [
        {
          "internalType": "uint256",
          "name": "",
          "type": "uint256"
        }
      ],
      "stateMutability": "view",
      "type": "function"
    },
    {
      "inputs": [],
      "name": "endDepositPhase",
      "outputs": [],
      "stateMutability": "nonpayable",
      "type": "function"
    },
    {
      "inputs": [],
      "name": "hasClaimPhaseStarted",
      "outputs": [
        {
          "internalType": "bool",
          "name": "",
          "type": "bool"
        }
      ],
      "stateMutability": "view",
      "type": "function"
    },
    {
      "inputs": [],
      "name": "hasDepositPhaseEnded",
      "outputs": [
        {
          "internalType": "bool",
          "name": "",
          "type": "bool"
        }
      ],
      "stateMutability": "view",
      "type": "function"
    },
    {
      "inputs": [],
      "name": "hasRecoveryPhaseStarted",
      "outputs": [
        {
          "internalType": "bool",
          "name": "",
          "type": "bool"
        }
      ],
      "stateMutability": "view",
      "type": "function"
    },
    {
      "inputs": [],
      "name": "instantUnlock",
      "outputs": [],
      "stateMutability": "nonpayable",
      "type": "function"
    },
    {
      "inputs": [],
      "name": "lToken",
      "outputs": [
        {
          "internalType": "contract LToken",
          "name": "",
          "type": "address"
        }
      ],
      "stateMutability": "view",
      "type": "function"
    },
    {
      "inputs": [],
      "name": "ldyToken",
      "outputs": [
        {
          "internalType": "contract IERC20",
          "name": "",
          "type": "address"
        }
      ],
      "stateMutability": "view",
      "type": "function"
    },
    {
      "inputs": [
        {
          "internalType": "uint256",
          "name": "amount",
          "type": "uint256"
        },
        {
          "internalType": "uint8",
          "name": "duration",
          "type": "uint8"
        }
      ],
      "name": "lock",
      "outputs": [],
      "stateMutability": "nonpayable",
      "type": "function"
    },
    {
      "inputs": [],
      "name": "lockedHardCap",
      "outputs": [
        {
          "internalType": "uint256",
          "name": "",
          "type": "uint256"
        }
      ],
      "stateMutability": "view",
      "type": "function"
    },
    {
      "inputs": [],
      "name": "maxDistributedLDY",
      "outputs": [
        {
          "internalType": "uint256",
          "name": "",
          "type": "uint256"
        }
      ],
      "stateMutability": "view",
      "type": "function"
    },
    {
      "inputs": [],
      "name": "maxLockDuration",
      "outputs": [
        {
          "internalType": "uint8",
          "name": "",
          "type": "uint8"
        }
      ],
      "stateMutability": "view",
      "type": "function"
    },
    {
      "inputs": [],
      "name": "maxWeight",
      "outputs": [
        {
          "internalType": "uint256",
          "name": "",
          "type": "uint256"
        }
      ],
      "stateMutability": "view",
      "type": "function"
    },
    {
      "inputs": [],
      "name": "minLockDuration",
      "outputs": [
        {
          "internalType": "uint8",
          "name": "",
          "type": "uint8"
        }
      ],
      "stateMutability": "view",
      "type": "function"
    },
    {
      "inputs": [],
      "name": "owner",
      "outputs": [
        {
          "internalType": "address",
          "name": "",
          "type": "address"
        }
      ],
      "stateMutability": "view",
      "type": "function"
    },
    {
      "inputs": [],
      "name": "pause",
      "outputs": [],
      "stateMutability": "nonpayable",
      "type": "function"
    },
    {
      "inputs": [],
      "name": "paused",
      "outputs": [
        {
          "internalType": "bool",
          "name": "",
          "type": "bool"
        }
      ],
      "stateMutability": "view",
      "type": "function"
    },
    {
      "inputs": [],
      "name": "pendingOwner",
      "outputs": [
        {
          "internalType": "address",
          "name": "",
          "type": "address"
        }
      ],
      "stateMutability": "view",
      "type": "function"
    },
    {
      "inputs": [],
      "name": "processUnlockRequests",
      "outputs": [],
      "stateMutability": "nonpayable",
      "type": "function"
    },
    {
      "inputs": [
        {
          "internalType": "address",
          "name": "tokenAddress",
          "type": "address"
        },
        {
          "internalType": "uint256",
          "name": "amount",
          "type": "uint256"
        }
      ],
      "name": "recoverERC20",
      "outputs": [],
      "stateMutability": "nonpayable",
      "type": "function"
    },
    {
      "inputs": [],
      "name": "renounceOwnership",
      "outputs": [],
      "stateMutability": "nonpayable",
      "type": "function"
    },
    {
      "inputs": [],
      "name": "requestUnlock",
      "outputs": [],
      "stateMutability": "payable",
      "type": "function"
    },
    {
      "inputs": [
        {
          "internalType": "address",
          "name": "ldyTokenAddress",
          "type": "address"
        }
      ],
      "name": "setLDYToken",
      "outputs": [],
      "stateMutability": "nonpayable",
      "type": "function"
    },
    {
      "inputs": [],
      "name": "startClaimPhase",
      "outputs": [],
      "stateMutability": "nonpayable",
      "type": "function"
    },
    {
      "inputs": [],
      "name": "startRecoveryPhase",
      "outputs": [],
      "stateMutability": "nonpayable",
      "type": "function"
    },
    {
      "inputs": [],
      "name": "totalLocked",
      "outputs": [
        {
          "internalType": "uint256",
          "name": "",
          "type": "uint256"
        }
      ],
      "stateMutability": "view",
      "type": "function"
    },
    {
      "inputs": [
        {
          "internalType": "address",
          "name": "newOwner",
          "type": "address"
        }
      ],
      "name": "transferOwnership",
      "outputs": [],
      "stateMutability": "nonpayable",
      "type": "function"
    },
    {
      "inputs": [],
      "name": "underlyingToken",
      "outputs": [
        {
          "internalType": "contract IERC20",
          "name": "",
          "type": "address"
        }
      ],
      "stateMutability": "view",
      "type": "function"
    },
    {
      "inputs": [
        {
          "internalType": "uint256",
          "name": "",
          "type": "uint256"
        }
      ],
      "name": "unlockRequests",
      "outputs": [
        {
          "internalType": "address",
          "name": "",
          "type": "address"
        }
      ],
      "stateMutability": "view",
      "type": "function"
    },
    {
      "inputs": [],
      "name": "unlockRequestsCursor",
      "outputs": [
        {
          "internalType": "uint256",
          "name": "",
          "type": "uint256"
        }
      ],
      "stateMutability": "view",
      "type": "function"
    },
    {
      "inputs": [],
      "name": "unpause",
      "outputs": [],
      "stateMutability": "nonpayable",
      "type": "function"
    },
    {
      "inputs": [],
      "name": "vestingDuration",
      "outputs": [
        {
          "internalType": "uint8",
          "name": "",
          "type": "uint8"
        }
      ],
      "stateMutability": "view",
      "type": "function"
    }
  ],
  "transactionHash": "0xb5a81f8866729118794e06c9adc1d93ed55875686f69ea2aed7f7eabf809b9fd",
  "args": [
    "0x1e1B0bB6C182eFD7d64cdAbbF3A3E315dE26E259",
    "1125000000000000000000000",
    "4000000000000",
    3,
    12,
    6
  ],
  "numDeployments": 1,
  "solcInputHash": "289d96c4eee8f123d72afd6fe6bc7791",
  "bytecode": "0x6101806040523480156200001257600080fd5b50604051620024943803806200249483398101604081905262000035916200022d565b620000403362000186565b6001805460ff60a01b1916815560ff841610156200008b5760405162461bcd60e51b8152602060048201526003602482015262261b9960e91b60448201526064015b60405180910390fd5b8160ff168360ff161115620000c95760405162461bcd60e51b81526020600482015260036024820152624c373360e81b604482015260640162000082565b6001600160a01b03861661012081905260408051636f307dc360e01b81529051636f307dc3916004808201926020929091908290030181865afa15801562000115573d6000803e3d6000fd5b505050506040513d601f19601f820116820180604052508101906200013b91906200029f565b6001600160a01b03166101405260a0849052608085905260ff80841660c05282811660e081905290821661010052620001759085620002c6565b6101605250620002f2945050505050565b600180546001600160a01b0319169055620001ad81620001b0602090811b620017cb17901c565b50565b600080546001600160a01b038381166001600160a01b0319831681178455604051919092169283917f8be0079c531659141344cd1fd0a4f28419497f9722a3daafe3b4186f6b6457e09190a35050565b6001600160a01b0381168114620001ad57600080fd5b805160ff811681146200022857600080fd5b919050565b60008060008060008060c087890312156200024757600080fd5b8651620002548162000200565b6020880151604089015191975095509350620002736060880162000216565b9250620002836080880162000216565b91506200029360a0880162000216565b90509295509295509295565b600060208284031215620002b257600080fd5b8151620002bf8162000200565b9392505050565b8082028115828204841417620002ec57634e487b7160e01b600052601160045260246000fd5b92915050565b60805160a05160c05160e051610100516101205161014051610160516120be620003d6600039600081816106b301528181611740015261177101526000818161043a015281816110460152818161136301528181611398015281816114e1015261159201526000818161023101528181610c9601528181610fdd015281816113ba01526113f50152600081816103d401528181610816015261090301526000818161067f0152818161093701526111300152600081816106e701526110ff01526000818161054b015261118d0152600081816102a4015261179601526120be6000f3fe60806040526004361061021a5760003560e01c8063747dbf06116101235780639c3857a7116100ab578063e30c39781161006f578063e30c397814610709578063ed75a3ab14610727578063eddd21431461073d578063f2fde38b14610752578063fe98988a1461077257600080fd5b80639c3857a714610643578063a1568d4b14610658578063a16cdbb11461066d578063a8b0bb83146106a1578063d6a298e9146106d557600080fd5b80638980f11f116100f25780638980f11f146105b15780638acc764e146105d15780638da5cb5b146105e65780638f6a32a214610604578063998e42421461062357600080fd5b8063747dbf061461053957806379ba50971461056d578063828ed046146105825780638456cb591461059c57600080fd5b8063276a5699116101a6578063568914121161017557806356891412146104bb57806356e19a2c146104d15780635c975abb146104d95780635fd6218914610504578063715018a61461052457600080fd5b8063276a56991461045c57806330de5b3c14610471578063372500ab146104915780633f4ba83a146104a657600080fd5b80630da45188116101ed5780630da451881461038c57806312f60d3c146103ac5780631514617e146103c257806321ed3195146104085780632495a5991461042857600080fd5b8063010ee1841461021f578063085defc4146102705780630b441d6f146102925780630beea97a146102d4575b600080fd5b34801561022b57600080fd5b506102537f000000000000000000000000000000000000000000000000000000000000000081565b6040516001600160a01b0390911681526020015b60405180910390f35b34801561027c57600080fd5b5061029061028b366004611dfa565b610792565b005b34801561029e57600080fd5b506102c67f000000000000000000000000000000000000000000000000000000000000000081565b604051908152602001610267565b3480156102e057600080fd5b506103436102ef366004611dfa565b600360205260009081526040902080546001909101546001600160f01b0382169160ff600160f01b8204811692600160f81b90920416906001600160d81b0381169064ffffffffff600160d81b9091041685565b604080516001600160f01b03909616865260ff9094166020860152911515928401929092526001600160d81b03909116606083015264ffffffffff16608082015260a001610267565b34801561039857600080fd5b506102c66103a7366004611dfa565b6107ff565b3480156103b857600080fd5b506102c660065481565b3480156103ce57600080fd5b506103f67f000000000000000000000000000000000000000000000000000000000000000081565b60405160ff9091168152602001610267565b34801561041457600080fd5b50600254610253906001600160a01b031681565b34801561043457600080fd5b506102537f000000000000000000000000000000000000000000000000000000000000000081565b34801561046857600080fd5b506102906108b1565b34801561047d57600080fd5b5061025361048c366004611e15565b610a20565b34801561049d57600080fd5b50610290610a4a565b3480156104b257600080fd5b50610290610b07565b3480156104c757600080fd5b506102c660045481565b610290610b19565b3480156104e557600080fd5b50600154600160a01b900460ff165b6040519015158152602001610267565b34801561051057600080fd5b506005546104f49062010000900460ff1681565b34801561053057600080fd5b50610290610cff565b34801561054557600080fd5b506102c67f000000000000000000000000000000000000000000000000000000000000000081565b34801561057957600080fd5b50610290610d11565b34801561058e57600080fd5b506005546104f49060ff1681565b3480156105a857600080fd5b50610290610d88565b3480156105bd57600080fd5b506102906105cc366004611e2e565b610d98565b3480156105dd57600080fd5b50610290610e97565b3480156105f257600080fd5b506000546001600160a01b0316610253565b34801561061057600080fd5b506005546104f490610100900460ff1681565b34801561062f57600080fd5b5061029061063e366004611e58565b61106f565b34801561064f57600080fd5b5061029061145f565b34801561066457600080fd5b506102906115da565b34801561067957600080fd5b506103f67f000000000000000000000000000000000000000000000000000000000000000081565b3480156106ad57600080fd5b506102c67f000000000000000000000000000000000000000000000000000000000000000081565b3480156106e157600080fd5b506103f67f000000000000000000000000000000000000000000000000000000000000000081565b34801561071557600080fd5b506001546001600160a01b0316610253565b34801561073357600080fd5b506102c660085481565b34801561074957600080fd5b506102906115f1565b34801561075e57600080fd5b5061029061076d366004611dfa565b61168a565b34801561077e57600080fd5b506102c661078d366004611dfa565b6116fb565b61079a61181b565b600554610100900460ff16156107dd5760405162461bcd60e51b8152602060048201526003602482015262130dcd60ea1b60448201526064015b60405180910390fd5b600280546001600160a01b0319166001600160a01b0392909216919091179055565b60008061080b836116fb565b9050600061083f60ff7f00000000000000000000000000000000000000000000000000000000000000001662278d00611ea4565b90506000600654426108519190611ec1565b90508181111561085e5750805b60008261086b8386611ea4565b6108759190611ed4565b6001600160a01b0387166000908152600360205260409020600101549091506108a7906001600160d81b031682611ec1565b9695505050505050565b6108b961181b565b600554610100900460ff166108f65760405162461bcd60e51b81526020600482015260036024820152624c373960e81b60448201526064016107d4565b6276a700600061092c60ff7f00000000000000000000000000000000000000000000000000000000000000001662278d00611ea4565b9050600061096060ff7f00000000000000000000000000000000000000000000000000000000000000001662278d00611ea4565b9050600083836006546109739190611ef6565b61097d9190611ef6565b9050804210156109b55760405162461bcd60e51b815260206004820152600360248201526204c38360ec1b60448201526064016107d4565b600084836006546109c69190611ef6565b6109d09190611ef6565b905080421015610a085760405162461bcd60e51b81526020600482015260036024820152624c383160e81b60448201526064016107d4565b50506005805462ff0000191662010000179055505050565b60078181548110610a3057600080fd5b6000918252602090912001546001600160a01b0316905081565b610a52611875565b600554610100900460ff16610a8f5760405162461bcd60e51b81526020600482015260036024820152624c383760e81b60448201526064016107d4565b6000610a9a336107ff565b33600090815260036020526040812060010180549293508392909190610aca9084906001600160d81b0316611f09565b82546001600160d81b039182166101009390930a928302919092021990911617905550600254610b04906001600160a01b031633836118c2565b50565b610b0f61181b565b610b17611925565b565b610b21611875565b3360009081526003602052604090206001015442600160d81b90910464ffffffffff161115610b785760405162461bcd60e51b81526020600482015260036024820152620986c760eb1b60448201526064016107d4565b33600090815260036020526040902054600160f81b900460ff1615610bc55760405162461bcd60e51b81526020600482015260036024820152624c363960e81b60448201526064016107d4565b336000908152600360205260409020546001600160f01b0316610c105760405162461bcd60e51b815260206004820152600360248201526204c37360ec1b60448201526064016107d4565b336000818152600360205260409081902080546001600160f81b0316600160f81b17815560078054600181019091557fa66cc928b5edb82af9bd49922954155ab7b0942694bea4ce44661d9a8736c6880180546001600160a01b031916909317909255905490516313dccf3d60e31b81526001600160f01b0390911660048201819052907f00000000000000000000000000000000000000000000000000000000000000006001600160a01b031690639ee679e89034906024016000604051808303818588803b158015610ce357600080fd5b505af1158015610cf7573d6000803e3d6000fd5b505050505050565b610d0761181b565b610b17600061197a565b60015433906001600160a01b03168114610d7f5760405162461bcd60e51b815260206004820152602960248201527f4f776e61626c6532537465703a2063616c6c6572206973206e6f7420746865206044820152683732bb9037bbb732b960b91b60648201526084016107d4565b610b048161197a565b610d9061181b565b610b17611993565b610da061181b565b60055462010000900460ff16610dde5760405162461bcd60e51b8152602060048201526003602482015262261c1960e91b60448201526064016107d4565b6040516370a0823160e01b8152306004820152829082906001600160a01b038316906370a0823190602401602060405180830381865afa158015610e26573d6000803e3d6000fd5b505050506040513d601f19601f82011682018060405250810190610e4a9190611f30565b1015610e7e5760405162461bcd60e51b81526020600482015260036024820152624c383360e81b60448201526064016107d4565b610e926001600160a01b03821633846118c2565b505050565b610e9f611875565b3360009081526003602052604090206001015442600160d81b90910464ffffffffff161115610ef65760405162461bcd60e51b81526020600482015260036024820152620986c760eb1b60448201526064016107d4565b33600090815260036020526040902054600160f81b900460ff1615610f435760405162461bcd60e51b81526020600482015260036024820152624c363960e81b60448201526064016107d4565b336000908152600360205260409020546001600160f01b0316610f8e5760405162461bcd60e51b815260206004820152600360248201526204c37360ec1b60448201526064016107d4565b33600090815260036020526040908190208054600160f81b6001600160f81b038216179091559051634134bee960e01b81526001600160f01b0390911660048201819052906001600160a01b037f00000000000000000000000000000000000000000000000000000000000000001690634134bee990602401600060405180830381600087803b15801561102157600080fd5b505af1158015611035573d6000803e3d6000fd5b50610b049250506001600160a01b037f000000000000000000000000000000000000000000000000000000000000000016905033836118c2565b611077611875565b60055460ff16156110b05760405162461bcd60e51b8152602060048201526003602482015262130e0d60ea1b60448201526064016107d4565b33600090815260036020526040902054600160f81b900460ff16156110fd5760405162461bcd60e51b81526020600482015260036024820152624c373160e81b60448201526064016107d4565b7f000000000000000000000000000000000000000000000000000000000000000060ff168160ff161015801561115957507f000000000000000000000000000000000000000000000000000000000000000060ff168160ff1611155b61118b5760405162461bcd60e51b81526020600482015260036024820152624c383560e81b60448201526064016107d4565b7f0000000000000000000000000000000000000000000000000000000000000000826004546111ba9190611ef6565b11156111ee5760405162461bcd60e51b8152602060048201526003602482015262261c1b60e91b60448201526064016107d4565b33600090815260036020526040812080548492906112169084906001600160f01b0316611f49565b92506101000a8154816001600160f01b0302191690836001600160f01b03160217905550816004600082825461124c9190611ef6565b90915550503360009081526003602052604081205460ff600160f01b909104811691908316821161127d578261127f565b815b336000908152600360205260409020805460ff60f01b1916600160f01b60ff8416908102919091179091559091506112ba9062278d00611f69565b6112cb9064ffffffffff1642611ef6565b3360008181526003602052604090819020600101805464ffffffffff94909416600160d81b026001600160d81b039094169390931790925590517f111750799d4c0d4634f6bcaaeb8596889f0c1c9c36ae900df00617890266ac5990611340908790859091825260ff16602082015260400190565b60405180910390a2836000036113565750505050565b61138b6001600160a01b037f0000000000000000000000000000000000000000000000000000000000000000163330876119d6565b6113df6001600160a01b037f0000000000000000000000000000000000000000000000000000000000000000167f000000000000000000000000000000000000000000000000000000000000000086611a14565b60405163b6b55f2560e01b8152600481018590527f00000000000000000000000000000000000000000000000000000000000000006001600160a01b03169063b6b55f2590602401600060405180830381600087803b15801561144157600080fd5b505af1158015611455573d6000803e3d6000fd5b5050505050505050565b61146761181b565b6008545b6007548110156115d55761afc85a106115d55760006007828154811061149357611493611f92565b60009182526020808320909101546001600160a01b031680835260039091526040909120549091506001600160f01b031681156115c1576040516370a0823160e01b815230600482015281907f00000000000000000000000000000000000000000000000000000000000000006001600160a01b0316906370a0823190602401602060405180830381865afa158015611530573d6000803e3d6000fd5b505050506040513d601f19601f820116820180604052508101906115549190611f30565b1015611561575050600855565b6007838154811061157457611574611f92565b600091825260209091200180546001600160a01b03191690556115c17f00000000000000000000000000000000000000000000000000000000000000006001600160a01b031683836118c2565b826115cb81611fa8565b935050505061146b565b600855565b6115e261181b565b6005805460ff19166001179055565b6115f961181b565b600554610100900460ff16156116375760405162461bcd60e51b8152602060048201526003602482015262261b9b60e91b60448201526064016107d4565b6002546001600160a01b03166116755760405162461bcd60e51b81526020600482015260036024820152624c373760e81b60448201526064016107d4565b6005805461ff00191661010017905542600655565b61169261181b565b600180546001600160a01b0383166001600160a01b031990911681179091556116c36000546001600160a01b031690565b6001600160a01b03167f38d16b8cac22d99fc7c124b9cd0de2d3fa1faef420bfe791d8c362d765e2270060405160405180910390a350565b6001600160a01b03811660009081526003602052604081205481906117339060ff600160f01b820416906001600160f01b0316611fc1565b6001600160f01b031690507f000000000000000000000000000000000000000000000000000000000000000060000361176f5750600092915050565b7f00000000000000000000000000000000000000000000000000000000000000006117ba827f0000000000000000000000000000000000000000000000000000000000000000611ea4565b6117c49190611ed4565b9392505050565b600080546001600160a01b038381166001600160a01b0319831681178455604051919092169283917f8be0079c531659141344cd1fd0a4f28419497f9722a3daafe3b4186f6b6457e09190a35050565b6000546001600160a01b03163314610b175760405162461bcd60e51b815260206004820181905260248201527f4f776e61626c653a2063616c6c6572206973206e6f7420746865206f776e657260448201526064016107d4565b600154600160a01b900460ff1615610b175760405162461bcd60e51b815260206004820152601060248201526f14185d5cd8589b194e881c185d5cd95960821b60448201526064016107d4565b6040516001600160a01b038316602482015260448101829052610e9290849063a9059cbb60e01b906064015b60408051601f198184030181529190526020810180516001600160e01b03166001600160e01b031990931692909217909152611b29565b61192d611bfe565b6001805460ff60a01b191690557f5db9ee0a495bf2e6ff9c91a7834c1ba4fdd244a5e8aa4e537bd38aeae4b073aa335b6040516001600160a01b03909116815260200160405180910390a1565b600180546001600160a01b0319169055610b04816117cb565b61199b611875565b6001805460ff60a01b1916600160a01b1790557f62e78cea01bee320cd4e420270b5ea74000d11b0c9f74754ebdbfc544b05a25861195d3390565b6040516001600160a01b0380851660248301528316604482015260648101829052611a0e9085906323b872dd60e01b906084016118ee565b50505050565b801580611a8e5750604051636eb1769f60e11b81523060048201526001600160a01b03838116602483015284169063dd62ed3e90604401602060405180830381865afa158015611a68573d6000803e3d6000fd5b505050506040513d601f19601f82011682018060405250810190611a8c9190611f30565b155b611af95760405162461bcd60e51b815260206004820152603660248201527f5361666545524332303a20617070726f76652066726f6d206e6f6e2d7a65726f60448201527520746f206e6f6e2d7a65726f20616c6c6f77616e636560501b60648201526084016107d4565b6040516001600160a01b038316602482015260448101829052610e9290849063095ea7b360e01b906064016118ee565b6000611b7e826040518060400160405280602081526020017f5361666545524332303a206c6f772d6c6576656c2063616c6c206661696c6564815250856001600160a01b0316611c4e9092919063ffffffff16565b9050805160001480611b9f575080806020019051810190611b9f9190611ff3565b610e925760405162461bcd60e51b815260206004820152602a60248201527f5361666545524332303a204552433230206f7065726174696f6e20646964206e6044820152691bdd081cdd58d8d9595960b21b60648201526084016107d4565b600154600160a01b900460ff16610b175760405162461bcd60e51b815260206004820152601460248201527314185d5cd8589b194e881b9bdd081c185d5cd95960621b60448201526064016107d4565b6060611c5d8484600085611c65565b949350505050565b606082471015611cc65760405162461bcd60e51b815260206004820152602660248201527f416464726573733a20696e73756666696369656e742062616c616e636520666f6044820152651c8818d85b1b60d21b60648201526084016107d4565b600080866001600160a01b03168587604051611ce29190612039565b60006040518083038185875af1925050503d8060008114611d1f576040519150601f19603f3d011682016040523d82523d6000602084013e611d24565b606091505b5091509150611d3587838387611d40565b979650505050505050565b60608315611daf578251600003611da8576001600160a01b0385163b611da85760405162461bcd60e51b815260206004820152601d60248201527f416464726573733a2063616c6c20746f206e6f6e2d636f6e747261637400000060448201526064016107d4565b5081611c5d565b611c5d8383815115611dc45781518083602001fd5b8060405162461bcd60e51b81526004016107d49190612055565b80356001600160a01b0381168114611df557600080fd5b919050565b600060208284031215611e0c57600080fd5b6117c482611dde565b600060208284031215611e2757600080fd5b5035919050565b60008060408385031215611e4157600080fd5b611e4a83611dde565b946020939093013593505050565b60008060408385031215611e6b57600080fd5b82359150602083013560ff81168114611e8357600080fd5b809150509250929050565b634e487b7160e01b600052601160045260246000fd5b8082028115828204841417611ebb57611ebb611e8e565b92915050565b81810381811115611ebb57611ebb611e8e565b600082611ef157634e487b7160e01b600052601260045260246000fd5b500490565b80820180821115611ebb57611ebb611e8e565b6001600160d81b03818116838216019080821115611f2957611f29611e8e565b5092915050565b600060208284031215611f4257600080fd5b5051919050565b6001600160f01b03818116838216019080821115611f2957611f29611e8e565b64ffffffffff818116838216028082169190828114611f8a57611f8a611e8e565b505092915050565b634e487b7160e01b600052603260045260246000fd5b600060018201611fba57611fba611e8e565b5060010190565b6001600160f01b03828116828216818102831692918115828504821417611fea57611fea611e8e565b50505092915050565b60006020828403121561200557600080fd5b815180151581146117c457600080fd5b60005b83811015612030578181015183820152602001612018565b50506000910152565b6000825161204b818460208701612015565b9190910192915050565b6020815260008251806020840152612074816040850160208701612015565b601f01601f1916919091016040019291505056fea2646970667358221220a5179b17a2339dc849fd2a3fe45683ff5f9445fb0e12d679c8bd39c17d761df164736f6c63430008120033",
  "devdoc": {
    "author": "Lila Rest (https://lila.rest)",
    "custom:security-contact": "security@ledgity.comsecurity@ledgity.com",
    "details": "Intuition  Lifecycle of a lockdrop pool is composed by 3 main phases: 1) Deposit: During this phase, users can lock their underlying tokens. 2) Claim: During this phase, users can claim their LDY rewards. 3) Recovery: During this phase, owner can recover remaining ERC20 on the contract.  Transitioning between two phases is manually triggered by contract's owner. To ensure fair usage of this power and prevent potential misuse: - the Recovery phase cannot start before 3 months after the end of rewards vesting, - the Recovery phase cannot start before 3 months after the maximum lock end.  Finally, note that this contract proxies main L-Token contract's functions: - lock() --> deposit() - instantUnlock() --> instantWithdrawal() - requestUnlock() --> requestWithdrawal() This design enables users to interact with the PreMining contract in a similar fashion to the L-Token contract. Definitions: - Locker: An account that has locked underlying tokens in the pool. ",
    "events": {
      "Paused(address)": {
        "details": "Emitted when the pause is triggered by `account`."
      },
      "Unpaused(address)": {
        "details": "Emitted when the pause is lifted by `account`."
      }
    },
    "kind": "dev",
    "methods": {
      "acceptOwnership()": {
        "details": "The new owner accepts the ownership transfer."
      },
      "availableToClaim(address)": {
        "details": "This function considers vesting and already claimed rewards.",
        "params": {
          "account": "The account to compute the available rewards of."
        },
        "returns": {
          "_0": "The amount of LDY rewards available to claim."
        }
      },
      "constructor": {
        "params": {
          "lTokenAddress_": "Address of the L-Token contract to use.",
          "lockedHardCap_": "Maximum total amount of L-Tokens that can be locked.",
          "maxDistributedLDY_": "Amount of LDY to be distributed to lockers.",
          "maxLockDuration_": "Maximum possible lock duration (in months).",
          "minLockDuration_": "Minimum possible lock duration (in months).",
          "vestingDuration_": "Duration of LDY rewards vesting (in months)."
        }
      },
      "eligibleRewardsOf(address)": {
        "details": "Note: This function neither considers vesting nor already claimed rewards.",
        "params": {
          "account": "The account to compute the eligible rewards of."
        },
        "returns": {
          "_0": "The total amount of LDY rewards that the account is eligible to."
        }
      },
      "instantUnlock()": {
        "details": "In order to save some gas and time to users, frontends should propose this function to users only when it has been verified that it will not revert. They should propose the requestUnlock() function otherwise."
      },
      "lock(uint256,uint8)": {
        "details": "This function proxies LToken.deposit()Lockers can extend their lock duration by calling this function again with a greater duration and 0 as amount.",
        "params": {
          "amount": "Amount of underlying tokens to lock.",
          "duration": "Duration of the lock (in months)."
        }
      },
      "owner()": {
        "details": "Returns the address of the current owner."
      },
      "paused()": {
        "details": "Returns true if the contract is paused, and false otherwise."
      },
      "pendingOwner()": {
        "details": "Returns the address of the pending owner."
      },
      "recoverERC20(address,uint256)": {
        "params": {
          "amount": "The amount of token to recover.",
          "tokenAddress": "The address of the token to recover."
        }
      },
      "renounceOwnership()": {
        "details": "Leaves the contract without owner. It will not be possible to call `onlyOwner` functions. Can only be called by the current owner. NOTE: Renouncing ownership will leave the contract without an owner, thereby disabling any functionality that is only available to the owner."
      },
      "requestUnlock()": {
        "details": "The sender must attach 0.003 ETH to pre-pay the future processing gas fees paid by the withdrawer wallet."
      },
      "setLDYToken(address)": {
        "details": "As the first Ledgity Yield lockdrop campaigns will start before the LDY TGE, this function allows the contract's owner to set the LDY token address once it becomes available.",
        "params": {
          "ldyTokenAddress": "Address of the LDY token contract."
        }
      },
      "transferOwnership(address)": {
        "details": "Starts the ownership transfer of the contract to a new account. Replaces the pending transfer if there is one. Can only be called by the current owner."
      }
    },
    "title": "PreMining",
    "version": 1
  },
  "userdoc": {
    "events": {
      "Lock(address,uint256,uint8)": {
        "notice": "Emitted to inform about a new lock/deposit."
      }
    },
    "kind": "user",
    "methods": {
      "accountsLocks(address)": {
        "notice": "Holds lockers' participations informations."
      },
      "availableToClaim(address)": {
        "notice": "Computes the amount of LDY rewards available to claim for a given account."
      },
      "claimPhaseStartTimestamp()": {
        "notice": "Holds the timestamp at which the Claim phase started."
      },
      "claimRewards()": {
        "notice": "Allows the caller to claim its available LDY rewards."
      },
      "constructor": {
        "notice": "This constructor function etches the lockdrop terms in immutable states. Ensuring that those terms cannot be modified after deployment."
      },
      "eligibleRewardsOf(address)": {
        "notice": "Compute the total amount of LDY rewards that a given account is eligible to."
      },
      "endDepositPhase()": {
        "notice": "Closes the Deposit phase. After calling this function, account won't be able to lock additional underlying tokens anymore."
      },
      "hasClaimPhaseStarted()": {
        "notice": "Holds whether the Claim phase has started."
      },
      "hasDepositPhaseEnded()": {
        "notice": "Holds whether the Deposit phase has ended."
      },
      "hasRecoveryPhaseStarted()": {
        "notice": "Holds whether the Recovery phase has started."
      },
      "instantUnlock()": {
        "notice": "Allows the caller to instaneously unlock its locked amount of underlying tokens."
      },
      "lToken()": {
        "notice": "Holds a reference to the locked L-Token contract."
      },
      "ldyToken()": {
        "notice": "Holds a reference to the LDY token contract."
      },
      "lock(uint256,uint8)": {
        "notice": "Allows locking a specified amount of underlying tokens for a given duration. By locking, an account became eligible to a portion of the distributed LDY rewards."
      },
      "lockedHardCap()": {
        "notice": "Holds the maximum total amount of L-Tokens that can be locked."
      },
      "maxDistributedLDY()": {
        "notice": "Holds the amount of LDY to be distributed to lockers."
      },
      "maxLockDuration()": {
        "notice": "Holds the maximum possible lock duration (in months)."
      },
      "maxWeight()": {
        "notice": "Holds the max pool weight."
      },
      "minLockDuration()": {
        "notice": "Holds the minimum possible lock duration (in months)."
      },
      "pause()": {
        "notice": "Public implementation of Pausable's pausing and unpausing functions, but restricted to contract's owner."
      },
      "processUnlockRequests()": {
        "notice": "Processes queued unlock requests until there is else no more requests, else not enough underlying tokens to continue."
      },
      "recoverERC20(address,uint256)": {
        "notice": "Recovers a specified amount of a given token address. Will revert if recovery phase has not started yet or if the contract doesn't hold enough tokens."
      },
      "requestUnlock()": {
        "notice": "Allows the call to request for the unlocking of its locked amount of underlying tokens. The request will be automatically processed later."
      },
      "setLDYToken(address)": {
        "notice": "Updates the LDY token contract address."
      },
      "startClaimPhase()": {
        "notice": "Opens the Claim phase. After calling this function, lockers will be able to start claiming their LDY rewards."
      },
      "startRecoveryPhase()": {
        "notice": "Opens the Recovery phase. After calling this function, the contract owner will be able to recover remaining ERC20 tokens on the contract. Note that this won't close the Claim phase and lockers will still be able to claim their LDY rewards."
      },
      "totalLocked()": {
        "notice": "Holds the total amount of locked underlying tokens."
      },
      "underlyingToken()": {
        "notice": "Holds a reference to the L-Token underlying stablecoin."
      },
      "unlockRequests(uint256)": {
        "notice": "Holds an ordered queue of accounts that requested to unlock their tokens."
      },
      "unlockRequestsCursor()": {
        "notice": "Holds the index of the first request in the queue (a.k.a, next one to be processed)."
      },
      "vestingDuration()": {
        "notice": "Holds the duration of LDY rewards vesting (in months)."
      }
    },
    "notice": "PreMining pool contract, allowing accounts to lock underlying tokens in a  pre-defined L-Token contract, over a given duration (in months), in exchange of  vested LDY rewards. ",
    "version": 1
  },
  "storageLayout": {
    "storage": [
      {
        "astId": 2904,
        "contract": "contracts/src/PreMining.sol:PreMining",
        "label": "_owner",
        "offset": 0,
        "slot": "0",
        "type": "t_address"
      },
      {
        "astId": 3017,
        "contract": "contracts/src/PreMining.sol:PreMining",
        "label": "_pendingOwner",
        "offset": 0,
        "slot": "1",
        "type": "t_address"
      },
      {
        "astId": 3110,
        "contract": "contracts/src/PreMining.sol:PreMining",
        "label": "_paused",
        "offset": 20,
        "slot": "1",
        "type": "t_bool"
      },
      {
        "astId": 6941,
        "contract": "contracts/src/PreMining.sol:PreMining",
        "label": "ldyToken",
        "offset": 0,
        "slot": "2",
        "type": "t_contract(IERC20)3865"
      },
      {
        "astId": 6947,
        "contract": "contracts/src/PreMining.sol:PreMining",
        "label": "accountsLocks",
        "offset": 0,
        "slot": "3",
        "type": "t_mapping(t_address,t_struct(AccountLock)6911_storage)"
      },
      {
        "astId": 6950,
        "contract": "contracts/src/PreMining.sol:PreMining",
        "label": "totalLocked",
        "offset": 0,
        "slot": "4",
        "type": "t_uint256"
      },
      {
        "astId": 6953,
        "contract": "contracts/src/PreMining.sol:PreMining",
        "label": "hasDepositPhaseEnded",
        "offset": 0,
        "slot": "5",
        "type": "t_bool"
      },
      {
        "astId": 6956,
        "contract": "contracts/src/PreMining.sol:PreMining",
        "label": "hasClaimPhaseStarted",
        "offset": 1,
        "slot": "5",
        "type": "t_bool"
      },
      {
        "astId": 6959,
        "contract": "contracts/src/PreMining.sol:PreMining",
        "label": "hasRecoveryPhaseStarted",
        "offset": 2,
        "slot": "5",
        "type": "t_bool"
      },
      {
        "astId": 6962,
        "contract": "contracts/src/PreMining.sol:PreMining",
        "label": "claimPhaseStartTimestamp",
        "offset": 0,
        "slot": "6",
        "type": "t_uint256"
      },
      {
        "astId": 6966,
        "contract": "contracts/src/PreMining.sol:PreMining",
        "label": "unlockRequests",
        "offset": 0,
        "slot": "7",
        "type": "t_array(t_address)dyn_storage"
      },
      {
        "astId": 6969,
        "contract": "contracts/src/PreMining.sol:PreMining",
        "label": "unlockRequestsCursor",
        "offset": 0,
        "slot": "8",
        "type": "t_uint256"
      }
    ],
    "types": {
      "t_address": {
        "encoding": "inplace",
        "label": "address",
        "numberOfBytes": "20"
      },
      "t_array(t_address)dyn_storage": {
        "base": "t_address",
        "encoding": "dynamic_array",
        "label": "address[]",
        "numberOfBytes": "32"
      },
      "t_bool": {
        "encoding": "inplace",
        "label": "bool",
        "numberOfBytes": "1"
      },
      "t_contract(IERC20)3865": {
        "encoding": "inplace",
        "label": "contract IERC20",
        "numberOfBytes": "20"
      },
      "t_mapping(t_address,t_struct(AccountLock)6911_storage)": {
        "encoding": "mapping",
        "key": "t_address",
        "label": "mapping(address => struct PreMining.AccountLock)",
        "numberOfBytes": "32",
        "value": "t_struct(AccountLock)6911_storage"
      },
      "t_struct(AccountLock)6911_storage": {
        "encoding": "inplace",
        "label": "struct PreMining.AccountLock",
        "members": [
          {
            "astId": 6902,
            "contract": "contracts/src/PreMining.sol:PreMining",
            "label": "amount",
            "offset": 0,
            "slot": "0",
            "type": "t_uint240"
          },
          {
            "astId": 6904,
            "contract": "contracts/src/PreMining.sol:PreMining",
            "label": "duration",
            "offset": 30,
            "slot": "0",
            "type": "t_uint8"
          },
          {
            "astId": 6906,
            "contract": "contracts/src/PreMining.sol:PreMining",
            "label": "hasUnlocked",
            "offset": 31,
            "slot": "0",
            "type": "t_bool"
          },
          {
            "astId": 6908,
            "contract": "contracts/src/PreMining.sol:PreMining",
            "label": "claimedRewards",
            "offset": 0,
            "slot": "1",
            "type": "t_uint216"
          },
          {
            "astId": 6910,
            "contract": "contracts/src/PreMining.sol:PreMining",
            "label": "lockEndTimestamp",
            "offset": 27,
            "slot": "1",
            "type": "t_uint40"
          }
        ],
        "numberOfBytes": "64"
      },
      "t_uint216": {
        "encoding": "inplace",
        "label": "uint216",
        "numberOfBytes": "27"
      },
      "t_uint240": {
        "encoding": "inplace",
        "label": "uint240",
        "numberOfBytes": "30"
      },
      "t_uint256": {
        "encoding": "inplace",
        "label": "uint256",
        "numberOfBytes": "32"
      },
      "t_uint40": {
        "encoding": "inplace",
        "label": "uint40",
        "numberOfBytes": "5"
      },
      "t_uint8": {
        "encoding": "inplace",
        "label": "uint8",
        "numberOfBytes": "1"
      }
    }
  }
}