{
  "address": "0x4Ef07549078673e98b16D9C9c2D1319117A166Ab",
  "abi": [
    {
      "inputs": [],
      "stateMutability": "nonpayable",
      "type": "constructor"
    },
    {
      "anonymous": false,
      "inputs": [
        {
          "indexed": false,
          "internalType": "address",
          "name": "previousAdmin",
          "type": "address"
        },
        {
          "indexed": false,
          "internalType": "address",
          "name": "newAdmin",
          "type": "address"
        }
      ],
      "name": "AdminChanged",
      "type": "event"
    },
    {
      "anonymous": false,
      "inputs": [
        {
          "indexed": true,
          "internalType": "address",
          "name": "beacon",
          "type": "address"
        }
      ],
      "name": "BeaconUpgraded",
      "type": "event"
    },
    {
      "anonymous": false,
      "inputs": [
        {
          "indexed": false,
          "internalType": "uint8",
          "name": "version",
          "type": "uint8"
        }
      ],
      "name": "Initialized",
      "type": "event"
    },
    {
      "anonymous": false,
      "inputs": [
        {
          "indexed": true,
          "internalType": "address",
          "name": "previousOwner",
          "type": "address"
        },
        {
          "indexed": true,
          "internalType": "address",
          "name": "newOwner",
          "type": "address"
        }
      ],
      "name": "OwnershipTransferred",
      "type": "event"
    },
    {
      "anonymous": false,
      "inputs": [
        {
          "indexed": false,
          "internalType": "address",
          "name": "account",
          "type": "address"
        }
      ],
      "name": "Paused",
      "type": "event"
    },
    {
      "anonymous": false,
      "inputs": [
        {
          "indexed": false,
          "internalType": "address",
          "name": "account",
          "type": "address"
        }
      ],
      "name": "Unpaused",
      "type": "event"
    },
    {
      "anonymous": false,
      "inputs": [
        {
          "indexed": true,
          "internalType": "address",
          "name": "implementation",
          "type": "address"
        }
      ],
      "name": "Upgraded",
      "type": "event"
    },
    {
      "inputs": [],
      "name": "globalOwner",
      "outputs": [
        {
          "internalType": "address",
          "name": "",
          "type": "address"
        }
      ],
      "stateMutability": "view",
      "type": "function"
    },
    {
      "inputs": [
        {
          "internalType": "address",
          "name": "globalOwner_",
          "type": "address"
        }
      ],
      "name": "initialize",
      "outputs": [],
      "stateMutability": "nonpayable",
      "type": "function"
    },
    {
      "inputs": [],
      "name": "owner",
      "outputs": [
        {
          "internalType": "address",
          "name": "",
          "type": "address"
        }
      ],
      "stateMutability": "view",
      "type": "function"
    },
    {
      "inputs": [],
      "name": "pause",
      "outputs": [],
      "stateMutability": "nonpayable",
      "type": "function"
    },
    {
      "inputs": [],
      "name": "paused",
      "outputs": [
        {
          "internalType": "bool",
          "name": "",
          "type": "bool"
        }
      ],
      "stateMutability": "view",
      "type": "function"
    },
    {
      "inputs": [],
      "name": "proxiableUUID",
      "outputs": [
        {
          "internalType": "bytes32",
          "name": "",
          "type": "bytes32"
        }
      ],
      "stateMutability": "view",
      "type": "function"
    },
    {
      "inputs": [],
      "name": "renounceOwnership",
      "outputs": [],
      "stateMutability": "view",
      "type": "function"
    },
    {
      "inputs": [
        {
          "internalType": "address",
          "name": "newOwner",
          "type": "address"
        }
      ],
      "name": "transferOwnership",
      "outputs": [],
      "stateMutability": "view",
      "type": "function"
    },
    {
      "inputs": [],
      "name": "unpause",
      "outputs": [],
      "stateMutability": "nonpayable",
      "type": "function"
    },
    {
      "inputs": [
        {
          "internalType": "address",
          "name": "newImplementation",
          "type": "address"
        }
      ],
      "name": "upgradeTo",
      "outputs": [],
      "stateMutability": "nonpayable",
      "type": "function"
    },
    {
      "inputs": [
        {
          "internalType": "address",
          "name": "newImplementation",
          "type": "address"
        },
        {
          "internalType": "bytes",
          "name": "data",
          "type": "bytes"
        }
      ],
      "name": "upgradeToAndCall",
      "outputs": [],
      "stateMutability": "payable",
      "type": "function"
    }
  ],
  "transactionHash": "0x16e8699cc7c633b43523b6ca79c08291885ee22f28881b98704887c5fa370b9b",
  "args": [],
  "numDeployments": 1,
  "solcInputHash": "1d9f98e9f73009a42653e1abaf15e178",
  "bytecode": "0x60a06040523060805234801561001457600080fd5b5061001d610022565b6100e1565b600054610100900460ff161561008e5760405162461bcd60e51b815260206004820152602760248201527f496e697469616c697a61626c653a20636f6e747261637420697320696e697469604482015266616c697a696e6760c81b606482015260840160405180910390fd5b60005460ff908116146100df576000805460ff191660ff9081179091556040519081527f7f26b83ff96e1f2b6a682f133852f6798a09c465da95921460cefb38474024989060200160405180910390a15b565b608051610fc3610118600039600081816101f50152818161023e015281816102d80152818161031801526103940152610fc36000f3fe60806040526004361061009c5760003560e01c8063715018a611610064578063715018a6146101365780638456cb591461014b5780638da5cb5b14610160578063c4d66de81461018d578063f2fde38b146101ad578063f762e734146101cd57600080fd5b80633659cfe6146100a15780633f4ba83a146100c35780634f1ef286146100d857806352d1902d146100eb5780635c975abb14610113575b600080fd5b3480156100ad57600080fd5b506100c16100bc366004610cc3565b6101eb565b005b3480156100cf57600080fd5b506100c16102bc565b6100c16100e6366004610cf6565b6102ce565b3480156100f757600080fd5b50610100610387565b6040519081526020015b60405180910390f35b34801561011f57600080fd5b5060fc5460ff16604051901515815260200161010a565b34801561014257600080fd5b506100c1610435565b34801561015757600080fd5b506100c161046b565b34801561016c57600080fd5b5061017561047b565b6040516001600160a01b03909116815260200161010a565b34801561019957600080fd5b506100c16101a8366004610cc3565b6104ee565b3480156101b957600080fd5b506100c16101c8366004610cc3565b610610565b3480156101d957600080fd5b5060c9546001600160a01b0316610175565b6001600160a01b037f000000000000000000000000000000000000000000000000000000000000000016300361023c5760405162461bcd60e51b815260040161023390610dba565b60405180910390fd5b7f00000000000000000000000000000000000000000000000000000000000000006001600160a01b031661026e610645565b6001600160a01b0316146102945760405162461bcd60e51b815260040161023390610e06565b61029d81610661565b604080516000808252602082019092526102b991839190610669565b50565b6102c46107d9565b6102cc610838565b565b6001600160a01b037f00000000000000000000000000000000000000000000000000000000000000001630036103165760405162461bcd60e51b815260040161023390610dba565b7f00000000000000000000000000000000000000000000000000000000000000006001600160a01b0316610348610645565b6001600160a01b03161461036e5760405162461bcd60e51b815260040161023390610e06565b61037782610661565b61038382826001610669565b5050565b6000306001600160a01b037f000000000000000000000000000000000000000000000000000000000000000016146104225760405162461bcd60e51b815260206004820152603860248201527f555550535570677261646561626c653a206d757374206e6f742062652063616c6044820152771b1959081d1a1c9bdd59da0819195b1959d85d1958d85b1b60421b6064820152608401610233565b50600080516020610f4783398151915290565b61043d6107d9565b60405162461bcd60e51b81526020600482015260036024820152624c363560e81b6044820152606401610233565b6104736107d9565b6102cc61088a565b60c95460408051638da5cb5b60e01b815290516000926001600160a01b031691638da5cb5b9160048083019260209291908290030181865afa1580156104c5573d6000803e3d6000fd5b505050506040513d601f19601f820116820180604052508101906104e99190610e52565b905090565b600054610100900460ff161580801561050e5750600054600160ff909116105b806105285750303b158015610528575060005460ff166001145b61058b5760405162461bcd60e51b815260206004820152602e60248201527f496e697469616c697a61626c653a20636f6e747261637420697320616c72656160448201526d191e481a5b9a5d1a585b1a5e995960921b6064820152608401610233565b6000805460ff1916600117905580156105ae576000805461ff0019166101001790555b6105b7826108c7565b6105bf6108f7565b6105c7610926565b8015610383576000805461ff0019169055604051600181527f7f26b83ff96e1f2b6a682f133852f6798a09c465da95921460cefb38474024989060200160405180910390a15050565b6106186107d9565b60405162461bcd60e51b8152602060048201526002602482015261098760f31b6044820152606401610233565b600080516020610f47833981519152546001600160a01b031690565b6102b96107d9565b7f4910fdfa16fed3260ed0e7147f7cc6da11a60208b5b9406d12a635614ffd91435460ff16156106a15761069c8361094d565b505050565b826001600160a01b03166352d1902d6040518163ffffffff1660e01b8152600401602060405180830381865afa9250505080156106fb575060408051601f3d908101601f191682019092526106f891810190610e6f565b60015b61075e5760405162461bcd60e51b815260206004820152602e60248201527f45524331393637557067726164653a206e657720696d706c656d656e7461746960448201526d6f6e206973206e6f74205555505360901b6064820152608401610233565b600080516020610f4783398151915281146107cd5760405162461bcd60e51b815260206004820152602960248201527f45524331393637557067726164653a20756e737570706f727465642070726f786044820152681a58589b195555525160ba1b6064820152608401610233565b5061069c8383836109e9565b336107e261047b565b6001600160a01b0316146102cc5760405162461bcd60e51b815260206004820181905260248201527f4f776e61626c653a2063616c6c6572206973206e6f7420746865206f776e65726044820152606401610233565b610840610a14565b60fc805460ff191690557f5db9ee0a495bf2e6ff9c91a7834c1ba4fdd244a5e8aa4e537bd38aeae4b073aa335b6040516001600160a01b03909116815260200160405180910390a1565b610892610a5d565b60fc805460ff191660011790557f62e78cea01bee320cd4e420270b5ea74000d11b0c9f74754ebdbfc544b05a25861086d3390565b600054610100900460ff166108ee5760405162461bcd60e51b815260040161023390610e88565b6102b981610aa3565b600054610100900460ff1661091e5760405162461bcd60e51b815260040161023390610e88565b6102cc610aec565b600054610100900460ff166102cc5760405162461bcd60e51b815260040161023390610e88565b6001600160a01b0381163b6109ba5760405162461bcd60e51b815260206004820152602d60248201527f455243313936373a206e657720696d706c656d656e746174696f6e206973206e60448201526c1bdd08184818dbdb9d1c9858dd609a1b6064820152608401610233565b600080516020610f4783398151915280546001600160a01b0319166001600160a01b0392909216919091179055565b6109f283610b1f565b6000825111806109ff5750805b1561069c57610a0e8383610b5f565b50505050565b60fc5460ff166102cc5760405162461bcd60e51b815260206004820152601460248201527314185d5cd8589b194e881b9bdd081c185d5cd95960621b6044820152606401610233565b60fc5460ff16156102cc5760405162461bcd60e51b815260206004820152601060248201526f14185d5cd8589b194e881c185d5cd95960821b6044820152606401610233565b600054610100900460ff16610aca5760405162461bcd60e51b815260040161023390610e88565b60c980546001600160a01b0319166001600160a01b0392909216919091179055565b600054610100900460ff16610b135760405162461bcd60e51b815260040161023390610e88565b60fc805460ff19169055565b610b288161094d565b6040516001600160a01b038216907fbc7cd75a20ee27fd9adebab32041f755214dbc6bffa90cc0225b39da2e5c2d3b90600090a250565b6060610b848383604051806060016040528060278152602001610f6760279139610b8b565b9392505050565b6060600080856001600160a01b031685604051610ba89190610ef7565b600060405180830381855af49150503d8060008114610be3576040519150601f19603f3d011682016040523d82523d6000602084013e610be8565b606091505b5091509150610bf986838387610c03565b9695505050505050565b60608315610c72578251600003610c6b576001600160a01b0385163b610c6b5760405162461bcd60e51b815260206004820152601d60248201527f416464726573733a2063616c6c20746f206e6f6e2d636f6e74726163740000006044820152606401610233565b5081610c7c565b610c7c8383610c84565b949350505050565b815115610c945781518083602001fd5b8060405162461bcd60e51b81526004016102339190610f13565b6001600160a01b03811681146102b957600080fd5b600060208284031215610cd557600080fd5b8135610b8481610cae565b634e487b7160e01b600052604160045260246000fd5b60008060408385031215610d0957600080fd5b8235610d1481610cae565b9150602083013567ffffffffffffffff80821115610d3157600080fd5b818501915085601f830112610d4557600080fd5b813581811115610d5757610d57610ce0565b604051601f8201601f19908116603f01168101908382118183101715610d7f57610d7f610ce0565b81604052828152886020848701011115610d9857600080fd5b8260208601602083013760006020848301015280955050505050509250929050565b6020808252602c908201527f46756e6374696f6e206d7573742062652063616c6c6564207468726f7567682060408201526b19195b1959d85d1958d85b1b60a21b606082015260800190565b6020808252602c908201527f46756e6374696f6e206d7573742062652063616c6c6564207468726f7567682060408201526b6163746976652070726f787960a01b606082015260800190565b600060208284031215610e6457600080fd5b8151610b8481610cae565b600060208284031215610e8157600080fd5b5051919050565b6020808252602b908201527f496e697469616c697a61626c653a20636f6e7472616374206973206e6f74206960408201526a6e697469616c697a696e6760a81b606082015260800190565b60005b83811015610eee578181015183820152602001610ed6565b50506000910152565b60008251610f09818460208701610ed3565b9190910192915050565b6020815260008251806020840152610f32816040850160208701610ed3565b601f01601f1916919091016040019291505056fe360894a13ba1a3210667c828492db98dca3e2076cc3735a920a3ca505d382bbc416464726573733a206c6f772d6c6576656c2064656c65676174652063616c6c206661696c6564a2646970667358221220728238acc100e5a0f49d0586499a41bf3458739841c6aac64a2a1fed860dbb3364736f6c63430008120033",
  "devdoc": {
    "author": "Lila Rest (https://lila.rest)",
    "custom:security-contact": "security@ledgity.comsecurity@ledgity.com",
    "details": "Specifically, some contracts within the codebase inherit from the GlobalPausableUpgradeable abstract contract. This provides them with an overriden paused() function that retrieves the pause state from this contract instead.For further details, see \"GlobalPause\" section of whitepaper.",
    "events": {
      "AdminChanged(address,address)": {
        "details": "Emitted when the admin account has changed."
      },
      "BeaconUpgraded(address)": {
        "details": "Emitted when the beacon is changed."
      },
      "Initialized(uint8)": {
        "details": "Triggered when the contract has been initialized or reinitialized."
      },
      "Paused(address)": {
        "details": "Emitted when the pause is triggered by `account`."
      },
      "Unpaused(address)": {
        "details": "Emitted when the pause is lifted by `account`."
      },
      "Upgraded(address)": {
        "details": "Emitted when the implementation is upgraded."
      }
    },
    "kind": "dev",
    "methods": {
      "constructor": {
        "custom:oz-upgrades-unsafe-allow": "constructor",
        "details": "See: https://docs.openzeppelin.com/contracts/4.x/api/proxy#Initializable-_disableInitializers--"
      },
      "globalOwner()": {
        "returns": {
          "_0": "The address of the GlobalOwner contract."
        }
      },
      "initialize(address)": {
        "details": "See: https://docs.openzeppelin.com/contracts/4.x/upgradeable",
        "params": {
          "globalOwner_": "The address of the GlobalOwner contract."
        }
      },
      "owner()": {
        "returns": {
          "_0": "The address of the owner"
        }
      },
      "pause()": {
        "details": "Public implementation of PausableUpgradeable's pausing and unpausing functions but restricted to contract's owner."
      },
      "paused()": {
        "details": "Returns true if the contract is paused, and false otherwise."
      },
      "proxiableUUID()": {
        "details": "Implementation of the ERC1822 {proxiableUUID} function. This returns the storage slot used by the implementation. It is used to validate the implementation's compatibility when performing an upgrade. IMPORTANT: A proxy pointing at a proxiable contract should not be considered proxiable itself, because this risks bricking a proxy that upgrades to it, by delegating to itself until out of gas. Thus it is critical that this function revert if invoked through a proxy. This is guaranteed by the `notDelegated` modifier."
      },
      "upgradeTo(address)": {
        "custom:oz-upgrades-unsafe-allow-reachable": "delegatecall",
        "details": "Upgrade the implementation of the proxy to `newImplementation`. Calls {_authorizeUpgrade}. Emits an {Upgraded} event."
      },
      "upgradeToAndCall(address,bytes)": {
        "custom:oz-upgrades-unsafe-allow-reachable": "delegatecall",
        "details": "Upgrade the implementation of the proxy to `newImplementation`, and subsequently execute the function call encoded in `data`. Calls {_authorizeUpgrade}. Emits an {Upgraded} event."
      }
    },
    "title": "GlobalPause",
    "version": 1
  },
  "userdoc": {
    "kind": "user",
    "methods": {
      "constructor": {
        "notice": "Prevents implementation contract from being initialized as recommended by OpenZeppelin."
      },
      "globalOwner()": {
        "notice": "Retrieves the address of GlobalOwner contract."
      },
      "initialize(address)": {
        "notice": "Initializer function of the contract. It replaces the constructor() function in the context of upgradeable contracts."
      },
      "owner()": {
        "notice": "Override of OwnableUpgradeable.owner() that retrieves the owner's address from the GlobalOwner contract instead."
      },
      "renounceOwnership()": {
        "notice": "Override of OwnableUpgradeable.renounceOwnership() that always reverts. Ownership is managed by the GlobalOwner contract and must be modified there."
      },
      "transferOwnership(address)": {
        "notice": "Override of OwnableUpgradeable.transferOwnership() that always reverts. Ownership is managed by the GlobalOwner contract and must be modified there."
      }
    },
    "notice": "Holds a global pause state shared by all contracts of the Ledgity Yield codebase.",
    "version": 1
  },
  "storageLayout": {
    "storage": [
      {
        "astId": 609,
        "contract": "contracts/src/GlobalPause.sol:GlobalPause",
        "label": "_initialized",
        "offset": 0,
        "slot": "0",
        "type": "t_uint8"
      },
      {
        "astId": 612,
        "contract": "contracts/src/GlobalPause.sol:GlobalPause",
        "label": "_initializing",
        "offset": 1,
        "slot": "0",
        "type": "t_bool"
      },
      {
        "astId": 591,
        "contract": "contracts/src/GlobalPause.sol:GlobalPause",
        "label": "__gap",
        "offset": 0,
        "slot": "1",
        "type": "t_array(t_uint256)50_storage"
      },
      {
        "astId": 906,
        "contract": "contracts/src/GlobalPause.sol:GlobalPause",
        "label": "__gap",
        "offset": 0,
        "slot": "51",
        "type": "t_array(t_uint256)50_storage"
      },
      {
        "astId": 2869,
        "contract": "contracts/src/GlobalPause.sol:GlobalPause",
        "label": "__gap",
        "offset": 0,
        "slot": "101",
        "type": "t_array(t_uint256)50_storage"
      },
      {
        "astId": 116,
        "contract": "contracts/src/GlobalPause.sol:GlobalPause",
        "label": "_owner",
        "offset": 0,
        "slot": "151",
        "type": "t_address"
      },
      {
        "astId": 236,
        "contract": "contracts/src/GlobalPause.sol:GlobalPause",
        "label": "__gap",
        "offset": 0,
        "slot": "152",
        "type": "t_array(t_uint256)49_storage"
      },
      {
        "astId": 8986,
        "contract": "contracts/src/GlobalPause.sol:GlobalPause",
        "label": "_globalOwner",
        "offset": 0,
        "slot": "201",
        "type": "t_contract(GlobalOwner)5028"
      },
      {
        "astId": 9070,
        "contract": "contracts/src/GlobalPause.sol:GlobalPause",
        "label": "__gap",
        "offset": 0,
        "slot": "202",
        "type": "t_array(t_uint256)50_storage"
      },
      {
        "astId": 928,
        "contract": "contracts/src/GlobalPause.sol:GlobalPause",
        "label": "_paused",
        "offset": 0,
        "slot": "252",
        "type": "t_bool"
      },
      {
        "astId": 1033,
        "contract": "contracts/src/GlobalPause.sol:GlobalPause",
        "label": "__gap",
        "offset": 0,
        "slot": "253",
        "type": "t_array(t_uint256)49_storage"
      }
    ],
    "types": {
      "t_address": {
        "encoding": "inplace",
        "label": "address",
        "numberOfBytes": "20"
      },
      "t_array(t_uint256)49_storage": {
        "base": "t_uint256",
        "encoding": "inplace",
        "label": "uint256[49]",
        "numberOfBytes": "1568"
      },
      "t_array(t_uint256)50_storage": {
        "base": "t_uint256",
        "encoding": "inplace",
        "label": "uint256[50]",
        "numberOfBytes": "1600"
      },
      "t_bool": {
        "encoding": "inplace",
        "label": "bool",
        "numberOfBytes": "1"
      },
      "t_contract(GlobalOwner)5028": {
        "encoding": "inplace",
        "label": "contract GlobalOwner",
        "numberOfBytes": "20"
      },
      "t_uint256": {
        "encoding": "inplace",
        "label": "uint256",
        "numberOfBytes": "32"
      },
      "t_uint8": {
        "encoding": "inplace",
        "label": "uint8",
        "numberOfBytes": "1"
      }
    }
  }
}