{
  "address": "0xFFF42672fb476afe698142A9B6211b772b89b8Ee",
  "abi": [
    {
      "inputs": [],
      "stateMutability": "nonpayable",
      "type": "constructor"
    },
    {
      "anonymous": false,
      "inputs": [
        {
          "indexed": false,
          "internalType": "address",
          "name": "previousAdmin",
          "type": "address"
        },
        {
          "indexed": false,
          "internalType": "address",
          "name": "newAdmin",
          "type": "address"
        }
      ],
      "name": "AdminChanged",
      "type": "event"
    },
    {
      "anonymous": false,
      "inputs": [
        {
          "indexed": true,
          "internalType": "address",
          "name": "beacon",
          "type": "address"
        }
      ],
      "name": "BeaconUpgraded",
      "type": "event"
    },
    {
      "anonymous": false,
      "inputs": [
        {
          "indexed": false,
          "internalType": "uint8",
          "name": "version",
          "type": "uint8"
        }
      ],
      "name": "Initialized",
      "type": "event"
    },
    {
      "anonymous": false,
      "inputs": [
        {
          "indexed": false,
          "internalType": "uint256",
          "name": "rewardAmount",
          "type": "uint256"
        },
        {
          "indexed": false,
          "internalType": "uint256",
          "name": "rewardPerSec",
          "type": "uint256"
        }
      ],
      "name": "NotifiedRewardAmount",
      "type": "event"
    },
    {
      "anonymous": false,
      "inputs": [
        {
          "indexed": true,
          "internalType": "address",
          "name": "previousOwner",
          "type": "address"
        },
        {
          "indexed": true,
          "internalType": "address",
          "name": "newOwner",
          "type": "address"
        }
      ],
      "name": "OwnershipTransferred",
      "type": "event"
    },
    {
      "anonymous": false,
      "inputs": [
        {
          "indexed": false,
          "internalType": "address",
          "name": "account",
          "type": "address"
        }
      ],
      "name": "Paused",
      "type": "event"
    },
    {
      "anonymous": false,
      "inputs": [
        {
          "indexed": true,
          "internalType": "address",
          "name": "user",
          "type": "address"
        },
        {
          "indexed": false,
          "internalType": "uint256",
          "name": "stakeIndex",
          "type": "uint256"
        },
        {
          "indexed": false,
          "internalType": "uint256",
          "name": "reward",
          "type": "uint256"
        }
      ],
      "name": "RewardPaid",
      "type": "event"
    },
    {
      "anonymous": false,
      "inputs": [
        {
          "indexed": true,
          "internalType": "address",
          "name": "user",
          "type": "address"
        },
        {
          "indexed": false,
          "internalType": "uint256",
          "name": "stakeIndex",
          "type": "uint256"
        },
        {
          "indexed": false,
          "internalType": "uint256",
          "name": "amount",
          "type": "uint256"
        }
      ],
      "name": "Staked",
      "type": "event"
    },
    {
      "anonymous": false,
      "inputs": [
        {
          "indexed": false,
          "internalType": "address",
          "name": "account",
          "type": "address"
        }
      ],
      "name": "Unpaused",
      "type": "event"
    },
    {
      "anonymous": false,
      "inputs": [
        {
          "indexed": true,
          "internalType": "address",
          "name": "user",
          "type": "address"
        },
        {
          "indexed": false,
          "internalType": "uint256",
          "name": "stakeIndex",
          "type": "uint256"
        },
        {
          "indexed": false,
          "internalType": "uint256",
          "name": "amount",
          "type": "uint256"
        }
      ],
      "name": "Unstaked",
      "type": "event"
    },
    {
      "anonymous": false,
      "inputs": [
        {
          "indexed": true,
          "internalType": "address",
          "name": "implementation",
          "type": "address"
        }
      ],
      "name": "Upgraded",
      "type": "event"
    },
    {
      "inputs": [
        {
          "internalType": "address",
          "name": "account",
          "type": "address"
        },
        {
          "internalType": "uint256",
          "name": "stakeIndex",
          "type": "uint256"
        }
      ],
      "name": "earned",
      "outputs": [
        {
          "internalType": "uint256",
          "name": "",
          "type": "uint256"
        }
      ],
      "stateMutability": "view",
      "type": "function"
    },
    {
      "inputs": [],
      "name": "finishAt",
      "outputs": [
        {
          "internalType": "uint256",
          "name": "",
          "type": "uint256"
        }
      ],
      "stateMutability": "view",
      "type": "function"
    },
    {
      "inputs": [
        {
          "internalType": "address",
          "name": "account",
          "type": "address"
        }
      ],
      "name": "getEarnedUser",
      "outputs": [
        {
          "internalType": "uint256[]",
          "name": "",
          "type": "uint256[]"
        }
      ],
      "stateMutability": "view",
      "type": "function"
    },
    {
      "inputs": [
        {
          "internalType": "uint256",
          "name": "stakeIndex",
          "type": "uint256"
        }
      ],
      "name": "getReward",
      "outputs": [],
      "stateMutability": "nonpayable",
      "type": "function"
    },
    {
      "inputs": [
        {
          "internalType": "address",
          "name": "account",
          "type": "address"
        }
      ],
      "name": "getUserStakes",
      "outputs": [
        {
          "components": [
            {
              "internalType": "uint256",
              "name": "stakedAmount",
              "type": "uint256"
            },
            {
              "internalType": "uint256",
              "name": "unStakeAt",
              "type": "uint256"
            },
            {
              "internalType": "uint256",
              "name": "duration",
              "type": "uint256"
            },
            {
              "internalType": "uint256",
              "name": "rewardPerTokenPaid",
              "type": "uint256"
            },
            {
              "internalType": "uint256",
              "name": "rewards",
              "type": "uint256"
            }
          ],
          "internalType": "struct LDYStaking.StakingInfo[]",
          "name": "",
          "type": "tuple[]"
        }
      ],
      "stateMutability": "view",
      "type": "function"
    },
    {
      "inputs": [],
      "name": "globalBlacklist",
      "outputs": [
        {
          "internalType": "address",
          "name": "",
          "type": "address"
        }
      ],
      "stateMutability": "view",
      "type": "function"
    },
    {
      "inputs": [],
      "name": "globalOwner",
      "outputs": [
        {
          "internalType": "address",
          "name": "",
          "type": "address"
        }
      ],
      "stateMutability": "view",
      "type": "function"
    },
    {
      "inputs": [],
      "name": "globalPause",
      "outputs": [
        {
          "internalType": "address",
          "name": "",
          "type": "address"
        }
      ],
      "stateMutability": "view",
      "type": "function"
    },
    {
      "inputs": [
        {
          "internalType": "address",
          "name": "",
          "type": "address"
        }
      ],
      "name": "highTierAccounts",
      "outputs": [
        {
          "internalType": "bool",
          "name": "",
          "type": "bool"
        }
      ],
      "stateMutability": "view",
      "type": "function"
    },
    {
      "inputs": [
        {
          "internalType": "address",
          "name": "globalOwner_",
          "type": "address"
        },
        {
          "internalType": "address",
          "name": "globalPause_",
          "type": "address"
        },
        {
          "internalType": "address",
          "name": "globalBlacklist_",
          "type": "address"
        },
        {
          "internalType": "address",
          "name": "stakeRewardToken_",
          "type": "address"
        },
        {
          "internalType": "uint256[]",
          "name": "stakeDurations_",
          "type": "uint256[]"
        },
        {
          "internalType": "uint256",
          "name": "stakeDurationForPerks_",
          "type": "uint256"
        },
        {
          "internalType": "uint256",
          "name": "stakeAmountForPerks_",
          "type": "uint256"
        }
      ],
      "name": "initialize",
      "outputs": [],
      "stateMutability": "nonpayable",
      "type": "function"
    },
    {
      "inputs": [],
      "name": "lastTimeRewardApplicable",
      "outputs": [
        {
          "internalType": "uint256",
          "name": "",
          "type": "uint256"
        }
      ],
      "stateMutability": "view",
      "type": "function"
    },
    {
      "inputs": [],
      "name": "lastUpdateTime",
      "outputs": [
        {
          "internalType": "uint256",
          "name": "",
          "type": "uint256"
        }
      ],
      "stateMutability": "view",
      "type": "function"
    },
    {
      "inputs": [
        {
          "internalType": "uint256",
          "name": "amount",
          "type": "uint256"
        }
      ],
      "name": "notifyRewardAmount",
      "outputs": [],
      "stateMutability": "nonpayable",
      "type": "function"
    },
    {
      "inputs": [],
      "name": "owner",
      "outputs": [
        {
          "internalType": "address",
          "name": "",
          "type": "address"
        }
      ],
      "stateMutability": "view",
      "type": "function"
    },
    {
      "inputs": [],
      "name": "paused",
      "outputs": [
        {
          "internalType": "bool",
          "name": "",
          "type": "bool"
        }
      ],
      "stateMutability": "view",
      "type": "function"
    },
    {
      "inputs": [],
      "name": "proxiableUUID",
      "outputs": [
        {
          "internalType": "bytes32",
          "name": "",
          "type": "bytes32"
        }
      ],
      "stateMutability": "view",
      "type": "function"
    },
    {
      "inputs": [
        {
          "internalType": "address",
          "name": "tokenAddress",
          "type": "address"
        },
        {
          "internalType": "uint256",
          "name": "amount",
          "type": "uint256"
        }
      ],
      "name": "recoverERC20",
      "outputs": [],
      "stateMutability": "nonpayable",
      "type": "function"
    },
    {
      "inputs": [],
      "name": "renounceOwnership",
      "outputs": [],
      "stateMutability": "view",
      "type": "function"
    },
    {
      "inputs": [],
      "name": "rewardPerToken",
      "outputs": [
        {
          "internalType": "uint256",
          "name": "",
          "type": "uint256"
        }
      ],
      "stateMutability": "view",
      "type": "function"
    },
    {
      "inputs": [],
      "name": "rewardPerTokenStored",
      "outputs": [
        {
          "internalType": "uint256",
          "name": "",
          "type": "uint256"
        }
      ],
      "stateMutability": "view",
      "type": "function"
    },
    {
      "inputs": [],
      "name": "rewardRatePerSec",
      "outputs": [
        {
          "internalType": "uint256",
          "name": "",
          "type": "uint256"
        }
      ],
      "stateMutability": "view",
      "type": "function"
    },
    {
      "inputs": [],
      "name": "rewardsDuration",
      "outputs": [
        {
          "internalType": "uint256",
          "name": "",
          "type": "uint256"
        }
      ],
      "stateMutability": "view",
      "type": "function"
    },
    {
      "inputs": [
        {
          "internalType": "uint256",
          "name": "duration",
          "type": "uint256"
        }
      ],
      "name": "setRewardsDuration",
      "outputs": [],
      "stateMutability": "nonpayable",
      "type": "function"
    },
    {
      "inputs": [
        {
          "internalType": "uint256",
          "name": "amount",
          "type": "uint256"
        },
        {
          "internalType": "uint8",
          "name": "stakeDurationIndex",
          "type": "uint8"
        }
      ],
      "name": "stake",
      "outputs": [],
      "stateMutability": "nonpayable",
      "type": "function"
    },
    {
      "inputs": [],
      "name": "stakeAmountForPerks",
      "outputs": [
        {
          "internalType": "uint256",
          "name": "",
          "type": "uint256"
        }
      ],
      "stateMutability": "view",
      "type": "function"
    },
    {
      "inputs": [],
      "name": "stakeDurationForPerks",
      "outputs": [
        {
          "internalType": "uint256",
          "name": "",
          "type": "uint256"
        }
      ],
      "stateMutability": "view",
      "type": "function"
    },
    {
      "inputs": [
        {
          "internalType": "uint256",
          "name": "",
          "type": "uint256"
        }
      ],
      "name": "stakeDurations",
      "outputs": [
        {
          "internalType": "uint256",
          "name": "",
          "type": "uint256"
        }
      ],
      "stateMutability": "view",
      "type": "function"
    },
    {
      "inputs": [],
      "name": "stakeRewardToken",
      "outputs": [
        {
          "internalType": "contract IERC20Upgradeable",
          "name": "",
          "type": "address"
        }
      ],
      "stateMutability": "view",
      "type": "function"
    },
    {
      "inputs": [
        {
          "internalType": "address",
          "name": "account",
          "type": "address"
        }
      ],
      "name": "tierOf",
      "outputs": [
        {
          "internalType": "uint256",
          "name": "tier",
          "type": "uint256"
        }
      ],
      "stateMutability": "view",
      "type": "function"
    },
    {
      "inputs": [],
      "name": "totalStaked",
      "outputs": [
        {
          "internalType": "uint256",
          "name": "",
          "type": "uint256"
        }
      ],
      "stateMutability": "view",
      "type": "function"
    },
    {
      "inputs": [
        {
          "internalType": "address",
          "name": "newOwner",
          "type": "address"
        }
      ],
      "name": "transferOwnership",
      "outputs": [],
      "stateMutability": "view",
      "type": "function"
    },
    {
      "inputs": [
        {
          "internalType": "uint256",
          "name": "amount",
          "type": "uint256"
        },
        {
          "internalType": "uint256",
          "name": "stakeIndex",
          "type": "uint256"
        }
      ],
      "name": "unstake",
      "outputs": [],
      "stateMutability": "nonpayable",
      "type": "function"
    },
    {
      "inputs": [
        {
          "internalType": "address",
          "name": "newImplementation",
          "type": "address"
        }
      ],
      "name": "upgradeTo",
      "outputs": [],
      "stateMutability": "nonpayable",
      "type": "function"
    },
    {
      "inputs": [
        {
          "internalType": "address",
          "name": "newImplementation",
          "type": "address"
        },
        {
          "internalType": "bytes",
          "name": "data",
          "type": "bytes"
        }
      ],
      "name": "upgradeToAndCall",
      "outputs": [],
      "stateMutability": "payable",
      "type": "function"
    },
    {
      "inputs": [
        {
          "internalType": "address",
          "name": "",
          "type": "address"
        },
        {
          "internalType": "uint256",
          "name": "",
          "type": "uint256"
        }
      ],
      "name": "userStakingInfo",
      "outputs": [
        {
          "internalType": "uint256",
          "name": "stakedAmount",
          "type": "uint256"
        },
        {
          "internalType": "uint256",
          "name": "unStakeAt",
          "type": "uint256"
        },
        {
          "internalType": "uint256",
          "name": "duration",
          "type": "uint256"
        },
        {
          "internalType": "uint256",
          "name": "rewardPerTokenPaid",
          "type": "uint256"
        },
        {
          "internalType": "uint256",
          "name": "rewards",
          "type": "uint256"
        }
      ],
      "stateMutability": "view",
      "type": "function"
    }
  ],
  "transactionHash": "0x33785ece579b1470af6c6a48c964631fd8ab0ba459b8de74d03bafdbb09b5339",
  "args": [],
  "numDeployments": 2,
  "solcInputHash": "c8300f1cd6a8c81a83ee050186e6d667",
  "bytecode": "0x60a0604052306080523480156200001557600080fd5b506200002062000030565b6200002a62000030565b620000f1565b600054610100900460ff16156200009d5760405162461bcd60e51b815260206004820152602760248201527f496e697469616c697a61626c653a20636f6e747261637420697320696e697469604482015266616c697a696e6760c81b606482015260840160405180910390fd5b60005460ff90811614620000ef576000805460ff191660ff9081179091556040519081527f7f26b83ff96e1f2b6a682f133852f6798a09c465da95921460cefb38474024989060200160405180910390a15b565b608051612c3562000129600039600081816109ab015281816109eb01528181610dd901528181610e190152610ea80152612c356000f3fe6080604052600436106102045760003560e01c80638980f11f11610118578063cc1a378f116100a0578063df136d651161006f578063df136d65146105c6578063f12d54d8146105dd578063f2fde38b146105fc578063f6c356501461061c578063f762e7341461063d57600080fd5b8063cc1a378f1461055a578063cd3daf9d1461057a578063cedaf6391461058f578063de3e3eff146105a657600080fd5b80639e2c8a5b116100e75780639e2c8a5b146104bb578063bddff592146104db578063c66120f4146104f2578063c8f33c9114610523578063c8f74bb81461053a57600080fd5b80638980f11f1461044f5780638da5cb5b1461046f57806398645a1f146104845780639b602f0a146104a457600080fd5b806352d1902d1161019b5780637b2cca381161016a5780637b2cca38146103965780637c2edb16146103c357806380faa57d146103f6578063817b1cd21461040b578063842e29811461042257600080fd5b806352d1902d146103305780635c975abb1461034557806367d3b4881461036a578063715018a61461038157600080fd5b8063386a9525116101d7578063386a9525146102b85780633c6b16ab146102dd5780633e491d47146102fd5780634f1ef2861461031d57600080fd5b806304d978f11461020957806310087fb1146102565780631c4b774b146102785780633659cfe614610298575b600080fd5b34801561021557600080fd5b506102296102243660046125b0565b61065b565b604080519586526020860194909452928401919091526060830152608082015260a0015b60405180910390f35b34801561026257600080fd5b506102766102713660046125dc565b6106aa565b005b34801561028457600080fd5b50610276610293366004612612565b6108ee565b3480156102a457600080fd5b506102766102b336600461262b565b6109a1565b3480156102c457600080fd5b506102cf61022e5481565b60405190815260200161024d565b3480156102e957600080fd5b506102766102f8366004612612565b610a7d565b34801561030957600080fd5b506102cf6103183660046125b0565b610cff565b61027661032b36600461268f565b610dcf565b34801561033c57600080fd5b506102cf610e9b565b34801561035157600080fd5b5061035a610f4e565b604051901515815260200161024d565b34801561037657600080fd5b506102cf61022f5481565b34801561038d57600080fd5b50610276610fc2565b3480156103a257600080fd5b506103b66103b136600461262b565b610ff8565b60405161024d9190612737565b3480156103cf57600080fd5b50610161546001600160a01b03165b6040516001600160a01b03909116815260200161024d565b34801561040257600080fd5b506102cf6110a6565b34801561041757600080fd5b506102cf6102335481565b34801561042e57600080fd5b5061044261043d36600461262b565b6110b5565b60405161024d919061277b565b34801561045b57600080fd5b5061027661046a3660046125b0565b61115d565b34801561047b57600080fd5b506103de611254565b34801561049057600080fd5b5061027661049f3660046127e9565b6112c2565b3480156104b057600080fd5b506102cf61022c5481565b3480156104c757600080fd5b506102766104d63660046128ee565b61141a565b3480156104e757600080fd5b506102cf6102315481565b3480156104fe57600080fd5b5061035a61050d36600461262b565b6102356020526000908152604090205460ff1681565b34801561052f57600080fd5b506102cf6102305481565b34801561054657600080fd5b506102cf61055536600461262b565b6118aa565b34801561056657600080fd5b50610276610575366004612612565b6118dc565b34801561058657600080fd5b506102cf61193c565b34801561059b57600080fd5b506102cf61022b5481565b3480156105b257600080fd5b506102cf6105c1366004612612565b6119a3565b3480156105d257600080fd5b506102cf6102325481565b3480156105e957600080fd5b5061012e546001600160a01b03166103de565b34801561060857600080fd5b5061027661061736600461262b565b6119c5565b34801561062857600080fd5b5061022a546103de906001600160a01b031681565b34801561064957600080fd5b5060fb546001600160a01b03166103de565b610234602052816000526040600020818154811061067857600080fd5b600091825260209091206005909102018054600182015460028301546003840154600490940154929550909350919085565b6106b26119fa565b6106ba611a55565b336106c481611a9f565b156106ea5760405162461bcd60e51b81526004016106e190612910565b60405180910390fd5b6000831161070a5760405162461bcd60e51b81526004016106e19061292c565b61022d5461071a90600190612966565b8260ff1611156107655760405162461bcd60e51b81526020600482015260166024820152751a5b9d985b1a59081cdd185ada5b99c81c195c9a5bd960521b60448201526064016106e1565b610770600080611b0f565b600061022d8360ff168154811061078957610789612979565b9060005260206000200154905060006040518060a0016040528086815260200183426107b5919061298f565b81526020018381526020016102325481526020016000815250905061022b5482101580156107e6575061022c548510155b156108075733600090815261023560205260409020805460ff191660011790555b33600081815261023460209081526040808320805460018082018355828652848620885160059093020191825593870151818501559186015160028301556060860151600383015560808601516004909201919091559282529154909161086d91612966565b9050856102336000828254610882919061298f565b909155505061022a546108a0906001600160a01b0316333089611bd4565b604080518281526020810188905233917f1449c6dd7851abc30abf37f57715f492010519147cc2652fbc38202c18a6ee90910160405180910390a2505050506108ea60016101f855565b5050565b6108f66119fa565b3361090081611a9f565b1561091d5760405162461bcd60e51b81526004016106e190612910565b61092882600161298f565b3360009081526102346020526040902054101561097c5760405162461bcd60e51b81526020600482015260126024820152710d2dcecc2d8d2c840e6e8c2d6ca92dcc8caf60731b60448201526064016106e1565b610987335b83611b0f565b610992335b83611c45565b5061099e60016101f855565b50565b6001600160a01b037f00000000000000000000000000000000000000000000000000000000000000001630036109e95760405162461bcd60e51b81526004016106e1906129a2565b7f00000000000000000000000000000000000000000000000000000000000000006001600160a01b0316610a32600080516020612bb9833981519152546001600160a01b031690565b6001600160a01b031614610a585760405162461bcd60e51b81526004016106e1906129ee565b610a6181611d2d565b6040805160008082526020820190925261099e91839190611d35565b610a85611ea0565b600061022e5411610ad85760405162461bcd60e51b815260206004820152601b60248201527f72657761726473206475726174696f6e206973206e6f7420736574000000000060448201526064016106e1565b60008111610af85760405162461bcd60e51b81526004016106e19061292c565b610b03600080611b0f565b61022f544210610b245761022e54610b1b9082612a3a565b61023155610b64565b6000610231544261022f54610b399190612966565b610b439190612a5c565b61022e54909150610b54828461298f565b610b5e9190612a3a565b61023155505b60006102315411610ba95760405162461bcd60e51b815260206004820152600f60248201526e07265776172642072617465203d203608c1b60448201526064016106e1565b61022e546102335461022a546040516370a0823160e01b815230600482015284916001600160a01b0316906370a0823190602401602060405180830381865afa158015610bfa573d6000803e3d6000fd5b505050506040513d601f19601f82011682018060405250810190610c1e9190612a73565b610c28919061298f565b610c329190612966565b610c3c9190612a3a565b610231541115610c8e5760405162461bcd60e51b815260206004820152601760248201527f72657761726420616d6f756e74203e2062616c616e636500000000000000000060448201526064016106e1565b61022e54610c9c904261298f565b61022f554261023055610cbe3361022a546001600160a01b0316903084611bd4565b610231546040805183815260208101929092527fc3ed9e2a55e03c1173986e2799c70b4a5654ed43739f79f1ad3833683dad9f7f910160405180910390a150565b6001600160a01b038216600090815261023460205260408120805482919084908110610d2d57610d2d612979565b90600052602060002090600502016040518060a00160405290816000820154815260200160018201548152602001600282015481526020016003820154815260200160048201548152505090506000670de0b6b3a76400008260600151610d9261193c565b610d9c9190612966565b8351610da89190612a5c565b610db29190612a3a565b9050816080015181610dc4919061298f565b925050505b92915050565b6001600160a01b037f0000000000000000000000000000000000000000000000000000000000000000163003610e175760405162461bcd60e51b81526004016106e1906129a2565b7f00000000000000000000000000000000000000000000000000000000000000006001600160a01b0316610e60600080516020612bb9833981519152546001600160a01b031690565b6001600160a01b031614610e865760405162461bcd60e51b81526004016106e1906129ee565b610e8f82611d2d565b6108ea82826001611d35565b6000306001600160a01b037f00000000000000000000000000000000000000000000000000000000000000001614610f3b5760405162461bcd60e51b815260206004820152603860248201527f555550535570677261646561626c653a206d757374206e6f742062652063616c60448201527f6c6564207468726f7567682064656c656761746563616c6c000000000000000060648201526084016106e1565b50600080516020612bb983398151915290565b61012e5460408051635c975abb60e01b815290516000926001600160a01b031691635c975abb9160048083019260209291908290030181865afa158015610f99573d6000803e3d6000fd5b505050506040513d601f19601f82011682018060405250810190610fbd9190612a8c565b905090565b610fca611ea0565b60405162461bcd60e51b81526020600482015260036024820152624c363560e81b60448201526064016106e1565b6001600160a01b038116600090815261023460205260408120546060918167ffffffffffffffff81111561102e5761102e612648565b604051908082528060200260200182016040528015611057578160200160208202803683370190505b50905060005b8281101561109e5761106f8582610cff565b82828151811061108157611081612979565b60209081029190910101528061109681612aae565b91505061105d565b509392505050565b6000610fbd61022f5442611eff565b6001600160a01b038116600090815261023460209081526040808320805482518185028101850190935280835260609492939192909184015b8282101561115257838290600052602060002090600502016040518060a001604052908160008201548152602001600182015481526020016002820154815260200160038201548152602001600482015481525050815260200190600101906110ee565b505050509050919050565b611165611ea0565b6000811161119b5760405162461bcd60e51b815260206004820152600360248201526204c31360ec1b60448201526064016106e1565b6040516370a0823160e01b8152306004820152829082906001600160a01b038316906370a0823190602401602060405180830381865afa1580156111e3573d6000803e3d6000fd5b505050506040513d601f19601f820116820180604052508101906112079190612a73565b101561123b5760405162461bcd60e51b81526020600482015260036024820152624c313160e81b60448201526064016106e1565b61124f6001600160a01b0382163384611f18565b505050565b60fb5460408051638da5cb5b60e01b815290516000926001600160a01b031691638da5cb5b9160048083019260209291908290030181865afa15801561129e573d6000803e3d6000fd5b505050506040513d601f19601f82011682018060405250810190610fbd9190612ac7565b600054610100900460ff16158080156112e25750600054600160ff909116105b806112fc5750303b1580156112fc575060005460ff166001145b61135f5760405162461bcd60e51b815260206004820152602e60248201527f496e697469616c697a61626c653a20636f6e747261637420697320616c72656160448201526d191e481a5b9a5d1a585b1a5e995960921b60648201526084016106e1565b6000805460ff191660011790558015611382576000805461ff0019166101001790555b61138d888888611f48565b61022a80546001600160a01b0319166001600160a01b03871617905583516113bd9061022d90602087019061253b565b5061022b83905561022c8290558015611410576000805461ff0019169055604051600181527f7f26b83ff96e1f2b6a682f133852f6798a09c465da95921460cefb38474024989060200160405180910390a15b5050505050505050565b6114226119fa565b3361142c81611a9f565b156114495760405162461bcd60e51b81526004016106e190612910565b600083116114695760405162461bcd60e51b81526004016106e19061292c565b61147482600161298f565b336000908152610234602052604090205410156114c85760405162461bcd60e51b81526020600482015260126024820152710d2dcecc2d8d2c840e6e8c2d6ca92dcc8caf60731b60448201526064016106e1565b336000908152610234602052604090208054839081106114ea576114ea612979565b90600052602060002090600502016001015442101561155f5760405162461bcd60e51b815260206004820152602b60248201527f6e6f7420616c6c6f77656420756e7374616b696e6720696e207468652073746160448201526a1ada5b99c81c195c9a5bd960aa1b60648201526084016106e1565b3360009081526102346020526040902080548390811061158157611581612979565b9060005260206000209060050201600001548311156115d85760405162461bcd60e51b81526020600482015260136024820152721a5b9cdd59999a58da595b9d08185b5bdd5b9d606a1b60448201526064016106e1565b6115e133610981565b8261023360008282546115f49190612966565b90915550503360009081526102346020526040902080548491908490811061161e5761161e612979565b9060005260206000209060050201600001600082825461163e9190612966565b909155505061022b543360009081526102346020526040902080548490811061166957611669612979565b906000526020600020906005020160020154101580156116be575061022c54336000908152610234602052604090208054849081106116aa576116aa612979565b906000526020600020906005020160000154105b156116dc5733600090815261023560205260409020805460ff191690555b336000908152610234602052604090208054839081106116fe576116fe612979565b90600052602060002090600502016000015460000361184b576117203361098c565b33600090815261023460205260409020805461173e90600190612966565b8154811061174e5761174e612979565b906000526020600020906005020161023460006117683390565b6001600160a01b03166001600160a01b03168152602001908152602001600020838154811061179957611799612979565b9060005260206000209060050201600082015481600001556001820154816001015560028201548160020155600382015481600301556004820154816004015590505061023460006117e83390565b6001600160a01b03166001600160a01b0316815260200190815260200160002080548061181757611817612ae4565b6000828152602081206005600019909301928302018181556001810182905560028101829055600381018290556004015590555b6118633361022a546001600160a01b03169085611f18565b604080518381526020810185905233917f7fc4727e062e336010f2c282598ef5f14facb3de68cf8195c2f23e1454b2b74e910160405180910390a2506108ea60016101f855565b6001600160a01b0381166000908152610235602052604081205460ff16156118d457506003919050565b506000919050565b6118e4611ea0565b4261022f54106119365760405162461bcd60e51b815260206004820152601f60248201527f726577617264206475726174696f6e206973206e6f742066696e69736865640060448201526064016106e1565b61022e55565b60006102335460000361195157506102325490565b61023354610230546119616110a6565b61196b9190612966565b610231546119799190612a5c565b61198b90670de0b6b3a7640000612a5c565b6119959190612a3a565b61023254610fbd919061298f565b61022d81815481106119b457600080fd5b600091825260209091200154905081565b6119cd611ea0565b60405162461bcd60e51b8152602060048201526002602482015261098760f31b60448201526064016106e1565b60026101f85403611a4d5760405162461bcd60e51b815260206004820152601f60248201527f5265656e7472616e637947756172643a207265656e7472616e742063616c6c0060448201526064016106e1565b60026101f855565b611a5d610f4e565b15611a9d5760405162461bcd60e51b815260206004820152601060248201526f14185d5cd8589b194e881c185d5cd95960821b60448201526064016106e1565b565b6101615460405163fe575a8760e01b81526001600160a01b038381166004830152600092169063fe575a8790602401602060405180830381865afa158015611aeb573d6000803e3d6000fd5b505050506040513d601f19601f82011682018060405250810190610dc99190612a8c565b611b1761193c565b61023255611b236110a6565b610230556001600160a01b038216156108ea57611b408282610cff565b6001600160a01b038316600090815261023460205260409020805483908110611b6b57611b6b612979565b906000526020600020906005020160040181905550610232546102346000846001600160a01b03166001600160a01b031681526020019081526020016000208281548110611bbb57611bbb612979565b9060005260206000209060050201600301819055505050565b6040516001600160a01b0380851660248301528316604482015260648101829052611c3f9085906323b872dd60e01b906084015b60408051601f198184030181529190526020810180516001600160e01b03166001600160e01b031990931692909217909152611fa2565b50505050565b6001600160a01b038216600090815261023460205260408120805483908110611c7057611c70612979565b9060005260206000209060050201600401549050600081111561124f576001600160a01b038316600090815261023460205260408120805484908110611cb857611cb8612979565b600091825260209091206004600590920201015561022a54611ce4906001600160a01b03168483611f18565b60408051838152602081018390526001600160a01b038516917fd6f2c8500df5b44f11e9e48b91ff9f1b9d81bc496d55570c2b1b75bf65243f51910160405180910390a2505050565b61099e611ea0565b7f4910fdfa16fed3260ed0e7147f7cc6da11a60208b5b9406d12a635614ffd91435460ff1615611d685761124f83612077565b826001600160a01b03166352d1902d6040518163ffffffff1660e01b8152600401602060405180830381865afa925050508015611dc2575060408051601f3d908101601f19168201909252611dbf91810190612a73565b60015b611e255760405162461bcd60e51b815260206004820152602e60248201527f45524331393637557067726164653a206e657720696d706c656d656e7461746960448201526d6f6e206973206e6f74205555505360901b60648201526084016106e1565b600080516020612bb98339815191528114611e945760405162461bcd60e51b815260206004820152602960248201527f45524331393637557067726164653a20756e737570706f727465642070726f786044820152681a58589b195555525160ba1b60648201526084016106e1565b5061124f838383612113565b33611ea9611254565b6001600160a01b031614611a9d5760405162461bcd60e51b815260206004820181905260248201527f4f776e61626c653a2063616c6c6572206973206e6f7420746865206f776e657260448201526064016106e1565b600081831115611f0f5781611f11565b825b9392505050565b6040516001600160a01b03831660248201526044810182905261124f90849063a9059cbb60e01b90606401611c08565b600054610100900460ff16611f6f5760405162461bcd60e51b81526004016106e190612afa565b611f77612138565b611f808361215f565b611f8861218f565b611f91826121be565b611f9a81612208565b61124f612138565b6000611ff7826040518060400160405280602081526020017f5361666545524332303a206c6f772d6c6576656c2063616c6c206661696c6564815250856001600160a01b03166122529092919063ffffffff16565b90508051600014806120185750808060200190518101906120189190612a8c565b61124f5760405162461bcd60e51b815260206004820152602a60248201527f5361666545524332303a204552433230206f7065726174696f6e20646964206e6044820152691bdd081cdd58d8d9595960b21b60648201526084016106e1565b6001600160a01b0381163b6120e45760405162461bcd60e51b815260206004820152602d60248201527f455243313936373a206e657720696d706c656d656e746174696f6e206973206e60448201526c1bdd08184818dbdb9d1c9858dd609a1b60648201526084016106e1565b600080516020612bb983398151915280546001600160a01b0319166001600160a01b0392909216919091179055565b61211c83612269565b6000825111806121295750805b1561124f57611c3f83836122a9565b600054610100900460ff16611a9d5760405162461bcd60e51b81526004016106e190612afa565b600054610100900460ff166121865760405162461bcd60e51b81526004016106e190612afa565b61099e816122ce565b600054610100900460ff166121b65760405162461bcd60e51b81526004016106e190612afa565b611a9d612317565b600054610100900460ff166121e55760405162461bcd60e51b81526004016106e190612afa565b61012e80546001600160a01b0319166001600160a01b0392909216919091179055565b600054610100900460ff1661222f5760405162461bcd60e51b81526004016106e190612afa565b61016180546001600160a01b0319166001600160a01b0392909216919091179055565b6060612261848460008561234a565b949350505050565b61227281612077565b6040516001600160a01b038216907fbc7cd75a20ee27fd9adebab32041f755214dbc6bffa90cc0225b39da2e5c2d3b90600090a250565b6060611f118383604051806060016040528060278152602001612bd960279139612425565b600054610100900460ff166122f55760405162461bcd60e51b81526004016106e190612afa565b60fb80546001600160a01b0319166001600160a01b0392909216919091179055565b600054610100900460ff1661233e5760405162461bcd60e51b81526004016106e190612afa565b6097805460ff19169055565b6060824710156123ab5760405162461bcd60e51b815260206004820152602660248201527f416464726573733a20696e73756666696369656e742062616c616e636520666f6044820152651c8818d85b1b60d21b60648201526084016106e1565b600080866001600160a01b031685876040516123c79190612b69565b60006040518083038185875af1925050503d8060008114612404576040519150601f19603f3d011682016040523d82523d6000602084013e612409565b606091505b509150915061241a8783838761249d565b979650505050505050565b6060600080856001600160a01b0316856040516124429190612b69565b600060405180830381855af49150503d806000811461247d576040519150601f19603f3d011682016040523d82523d6000602084013e612482565b606091505b50915091506124938683838761249d565b9695505050505050565b6060831561250c578251600003612505576001600160a01b0385163b6125055760405162461bcd60e51b815260206004820152601d60248201527f416464726573733a2063616c6c20746f206e6f6e2d636f6e747261637400000060448201526064016106e1565b5081612261565b61226183838151156125215781518083602001fd5b8060405162461bcd60e51b81526004016106e19190612b85565b828054828255906000526020600020908101928215612576579160200282015b8281111561257657825182559160200191906001019061255b565b50612582929150612586565b5090565b5b808211156125825760008155600101612587565b6001600160a01b038116811461099e57600080fd5b600080604083850312156125c357600080fd5b82356125ce8161259b565b946020939093013593505050565b600080604083850312156125ef57600080fd5b82359150602083013560ff8116811461260757600080fd5b809150509250929050565b60006020828403121561262457600080fd5b5035919050565b60006020828403121561263d57600080fd5b8135611f118161259b565b634e487b7160e01b600052604160045260246000fd5b604051601f8201601f1916810167ffffffffffffffff8111828210171561268757612687612648565b604052919050565b600080604083850312156126a257600080fd5b82356126ad8161259b565b915060208381013567ffffffffffffffff808211156126cb57600080fd5b818601915086601f8301126126df57600080fd5b8135818111156126f1576126f1612648565b612703601f8201601f1916850161265e565b9150808252878482850101111561271957600080fd5b80848401858401376000848284010152508093505050509250929050565b6020808252825182820181905260009190848201906040850190845b8181101561276f57835183529284019291840191600101612753565b50909695505050505050565b602080825282518282018190526000919060409081850190868401855b828110156127dc5781518051855286810151878601528581015186860152606080820151908601526080908101519085015260a09093019290850190600101612798565b5091979650505050505050565b600080600080600080600060e0888a03121561280457600080fd5b873561280f8161259b565b96506020888101356128208161259b565b965060408901356128308161259b565b955060608901356128408161259b565b9450608089013567ffffffffffffffff8082111561285d57600080fd5b818b0191508b601f83011261287157600080fd5b81358181111561288357612883612648565b8060051b915061289484830161265e565b818152918301840191848101908e8411156128ae57600080fd5b938501935b838510156128cc578435825293850193908501906128b3565b9b9e9a9d50989b979a9960a0890135995060c090980135979650505050505050565b6000806040838503121561290157600080fd5b50508035926020909101359150565b6020808252600290820152614c3960f01b604082015260600190565b6020808252600a90820152690616d6f756e74203d20360b41b604082015260600190565b634e487b7160e01b600052601160045260246000fd5b81810381811115610dc957610dc9612950565b634e487b7160e01b600052603260045260246000fd5b80820180821115610dc957610dc9612950565b6020808252602c908201527f46756e6374696f6e206d7573742062652063616c6c6564207468726f7567682060408201526b19195b1959d85d1958d85b1b60a21b606082015260800190565b6020808252602c908201527f46756e6374696f6e206d7573742062652063616c6c6564207468726f7567682060408201526b6163746976652070726f787960a01b606082015260800190565b600082612a5757634e487b7160e01b600052601260045260246000fd5b500490565b8082028115828204841417610dc957610dc9612950565b600060208284031215612a8557600080fd5b5051919050565b600060208284031215612a9e57600080fd5b81518015158114611f1157600080fd5b600060018201612ac057612ac0612950565b5060010190565b600060208284031215612ad957600080fd5b8151611f118161259b565b634e487b7160e01b600052603160045260246000fd5b6020808252602b908201527f496e697469616c697a61626c653a20636f6e7472616374206973206e6f74206960408201526a6e697469616c697a696e6760a81b606082015260800190565b60005b83811015612b60578181015183820152602001612b48565b50506000910152565b60008251612b7b818460208701612b45565b9190910192915050565b6020815260008251806020840152612ba4816040850160208701612b45565b601f01601f1916919091016040019291505056fe360894a13ba1a3210667c828492db98dca3e2076cc3735a920a3ca505d382bbc416464726573733a206c6f772d6c6576656c2064656c65676174652063616c6c206661696c6564a26469706673582212209d0c2da28201e00f0a099670d6cddc88ea1d0d195ca6e1cafdd63f2676dc78ed64736f6c63430008120033",
  "devdoc": {
    "custom:security-contact": "security@ledgity.comsecurity@ledgity.com",
    "details": "This contract implements tierOf() function from LDYStaking as it's the only one the LToken contract relies on.",
    "events": {
      "AdminChanged(address,address)": {
        "details": "Emitted when the admin account has changed."
      },
      "BeaconUpgraded(address)": {
        "details": "Emitted when the beacon is changed."
      },
      "Initialized(uint8)": {
        "details": "Triggered when the contract has been initialized or reinitialized."
      },
      "NotifiedRewardAmount(uint256,uint256)": {
        "params": {
          "rewardAmount": "Reward amount added by admin.",
          "rewardPerSec": "RewardRatePerSec updated."
        }
      },
      "Paused(address)": {
        "details": "Emitted when the pause is triggered by `account`."
      },
      "RewardPaid(address,uint256,uint256)": {
        "params": {
          "reward": "Reward token amount",
          "stakeIndex": "User staking pool index",
          "user": "User address"
        }
      },
      "Staked(address,uint256,uint256)": {
        "params": {
          "amount": "Staked amount",
          "stakeIndex": "Latest index of user staking pool",
          "user": "User address"
        }
      },
      "Unpaused(address)": {
        "details": "Emitted when the pause is lifted by `account`."
      },
      "Unstaked(address,uint256,uint256)": {
        "params": {
          "amount": "Staked amount",
          "stakeIndex": "User staking pool index",
          "user": "User address"
        }
      },
      "Upgraded(address)": {
        "details": "Emitted when the implementation is upgraded."
      }
    },
    "kind": "dev",
    "methods": {
      "constructor": {
        "custom:oz-upgrades-unsafe-allow": "constructor"
      },
      "earned(address,uint256)": {
        "params": {
          "account": "Address of the user.",
          "stakeIndex": "Index of the stakePool"
        },
        "returns": {
          "_0": "Return earned amounts"
        }
      },
      "getEarnedUser(address)": {
        "params": {
          "account": "Address of the user."
        },
        "returns": {
          "_0": "Return earned rewards array for a user."
        }
      },
      "getReward(uint256)": {
        "details": "Emits a `RewardPaid` event upon successful reward claim.",
        "params": {
          "stakeIndex": "The index of user staking pool."
        }
      },
      "getUserStakes(address)": {
        "params": {
          "account": "The address of user."
        },
        "returns": {
          "_0": "StakingInfo array."
        }
      },
      "globalBlacklist()": {
        "returns": {
          "_0": "The address of the GlobalBlacklist contract."
        }
      },
      "globalOwner()": {
        "returns": {
          "_0": "The address of the GlobalOwner contract."
        }
      },
      "globalPause()": {
        "returns": {
          "_0": "The address of the GlobalPause contract."
        }
      },
      "initialize(address,address,address,address,uint256[],uint256,uint256)": {
        "details": "This function is intended for setting initial values for the contract's state variables.",
        "params": {
          "globalBlacklist_": "The address of the GlobalBlacklist contract.",
          "globalOwner_": "The address of the GlobalOwner contract.",
          "globalPause_": "The address of the GlobalPause contract.",
          "stakeAmountForPerks_": "Minimal staking amount for perks.",
          "stakeDurationForPerks_": "Minimal staking duration for perks.",
          "stakeDurations_": "Available Staking Durations.",
          "stakeRewardToken_": "The address of stake and reward token(LDY token)."
        }
      },
      "lastTimeRewardApplicable()": {
        "returns": {
          "_0": "Timestamp of the most recent rewards calculation."
        }
      },
      "notifyRewardAmount(uint256)": {
        "details": "Only callable by owner.",
        "params": {
          "amount": "The amount of reward to be distributed."
        }
      },
      "owner()": {
        "returns": {
          "_0": "The address of the owner"
        }
      },
      "paused()": {
        "returns": {
          "_0": "Whether the contract is paused or not."
        }
      },
      "proxiableUUID()": {
        "details": "Implementation of the ERC1822 {proxiableUUID} function. This returns the storage slot used by the implementation. It is used to validate the implementation's compatibility when performing an upgrade. IMPORTANT: A proxy pointing at a proxiable contract should not be considered proxiable itself, because this risks bricking a proxy that upgrades to it, by delegating to itself until out of gas. Thus it is critical that this function revert if invoked through a proxy. This is guaranteed by the `notDelegated` modifier."
      },
      "recoverERC20(address,uint256)": {
        "params": {
          "amount": "The amount of token to recover.",
          "tokenAddress": "The address of the token to recover."
        }
      },
      "rewardPerToken()": {
        "returns": {
          "_0": "Current reward per token."
        }
      },
      "setRewardsDuration(uint256)": {
        "details": "Only callable by owner, and setting available only after rewards period.",
        "params": {
          "duration": "The nmew rewards duration in seconds."
        }
      },
      "stake(uint256,uint8)": {
        "details": "Emits a `Staked` event upon successful staking.",
        "params": {
          "amount": "The amount of tokens to stake.",
          "stakeDurationIndex": "The Index of stakeDurations array."
        }
      },
      "tierOf(address)": {
        "details": "tierOf() function that always return that the given account is not elligible to any LDY staking tier, except if the account is in the highTierAccounts mapping.",
        "params": {
          "account": "The account to check the tier of."
        }
      },
      "unstake(uint256,uint256)": {
        "details": "Emits a `Unstaked` event upon successful withdrawal. On full withdrawal, userStakingInfo removes stake pool for stakeIndex.",
        "params": {
          "amount": "The amount of tokens to withdraw.",
          "stakeIndex": "The index of user staking pool"
        }
      },
      "upgradeTo(address)": {
        "custom:oz-upgrades-unsafe-allow-reachable": "delegatecall",
        "details": "Upgrade the implementation of the proxy to `newImplementation`. Calls {_authorizeUpgrade}. Emits an {Upgraded} event."
      },
      "upgradeToAndCall(address,bytes)": {
        "custom:oz-upgrades-unsafe-allow-reachable": "delegatecall",
        "details": "Upgrade the implementation of the proxy to `newImplementation`, and subsequently execute the function call encoded in `data`. Calls {_authorizeUpgrade}. Emits an {Upgraded} event."
      }
    },
    "stateVariables": {
      "highTierAccounts": {
        "details": "This is notably used to allow PreMining contracts to benefit from 0% withdrawal fees in L-Tokens contracts, when accounts unlock their funds."
      }
    },
    "title": "LDYStaking",
    "version": 1
  },
  "userdoc": {
    "events": {
      "NotifiedRewardAmount(uint256,uint256)": {
        "notice": "Emitted when admin add rewards."
      },
      "RewardPaid(address,uint256,uint256)": {
        "notice": "Emitted when users claim rewards"
      },
      "Staked(address,uint256,uint256)": {
        "notice": "Emitted when users stake token"
      },
      "Unstaked(address,uint256,uint256)": {
        "notice": "Emitted when users unstake token"
      }
    },
    "kind": "user",
    "methods": {
      "earned(address,uint256)": {
        "notice": "Calculate the user's stake pool earnings"
      },
      "finishAt()": {
        "notice": "Timestamp of when the rewards finish."
      },
      "getEarnedUser(address)": {
        "notice": "Get the earned rewards array for a user."
      },
      "getReward(uint256)": {
        "notice": "Claim pending rewards."
      },
      "getUserStakes(address)": {
        "notice": "Get User Stake Data."
      },
      "globalBlacklist()": {
        "notice": "Retrieves the address of GlobalBlacklist contract."
      },
      "globalOwner()": {
        "notice": "Retrieves the address of GlobalOwner contract."
      },
      "globalPause()": {
        "notice": "Retrieves the address of GlobalPause contract."
      },
      "highTierAccounts(address)": {
        "notice": "Holds a mapping of addresses that default to the highest staking tier."
      },
      "initialize(address,address,address,address,uint256[],uint256,uint256)": {
        "notice": "Initializes the contract and sets the initial state variables. This is called by the proxy and should only be called once."
      },
      "lastTimeRewardApplicable()": {
        "notice": "Get the last time when rewards were applicable for the specified reward token."
      },
      "lastUpdateTime()": {
        "notice": "Timestamp of the reward updated."
      },
      "notifyRewardAmount(uint256)": {
        "notice": "Notify the contract about the amount of rewards to be distributed and update reward parameters."
      },
      "owner()": {
        "notice": "Override of OwnableUpgradeable.owner() that retrieves the owner's address from the GlobalOwner contract instead."
      },
      "paused()": {
        "notice": "Override of PausableUpgradeable.pause() that retrieves the pause state from the GlobalPause contract instead."
      },
      "recoverERC20(address,uint256)": {
        "notice": "Recovers a specified amount of a given token address. Will fail if the contract doesn't hold enough tokens."
      },
      "renounceOwnership()": {
        "notice": "Override of OwnableUpgradeable.renounceOwnership() that always reverts. Ownership is managed by the GlobalOwner contract and must be modified there."
      },
      "rewardPerToken()": {
        "notice": "Calculate the reward per token for a given reward token."
      },
      "rewardPerTokenStored()": {
        "notice": "Reward per token stored, sum of (reward rate * dt * 1e18 / total supply)."
      },
      "rewardRatePerSec()": {
        "notice": "Reward per second(total rewards / duration)."
      },
      "rewardsDuration()": {
        "notice": "Duration of the rewards (in seconds)."
      },
      "setRewardsDuration(uint256)": {
        "notice": "Update Rewards Duration."
      },
      "stake(uint256,uint8)": {
        "notice": "Staked tokens cannot be withdrawn during the stakeDuration period and are eligible to claim rewards."
      },
      "stakeAmountForPerks()": {
        "notice": "Minimal stake amount for perks."
      },
      "stakeDurationForPerks()": {
        "notice": "Minimal stake duration for perks."
      },
      "stakeDurations(uint256)": {
        "notice": "Stake durations."
      },
      "stakeRewardToken()": {
        "notice": "Stake and Reward token."
      },
      "totalStaked()": {
        "notice": "Total staked amounts."
      },
      "transferOwnership(address)": {
        "notice": "Override of OwnableUpgradeable.transferOwnership() that always reverts. Ownership is managed by the GlobalOwner contract and must be modified there."
      },
      "unstake(uint256,uint256)": {
        "notice": "Withdraw staked tokens after stakeDuration has passed."
      },
      "userStakingInfo(address,uint256)": {
        "notice": "User stakingInfo map, user address => array of the staking info"
      }
    },
    "version": 1
  },
  "storageLayout": {
    "storage": [
      {
        "astId": 609,
        "contract": "contracts/src/LDYStaking.sol:LDYStaking",
        "label": "_initialized",
        "offset": 0,
        "slot": "0",
        "type": "t_uint8"
      },
      {
        "astId": 612,
        "contract": "contracts/src/LDYStaking.sol:LDYStaking",
        "label": "_initializing",
        "offset": 1,
        "slot": "0",
        "type": "t_bool"
      },
      {
        "astId": 591,
        "contract": "contracts/src/LDYStaking.sol:LDYStaking",
        "label": "__gap",
        "offset": 0,
        "slot": "1",
        "type": "t_array(t_uint256)50_storage"
      },
      {
        "astId": 906,
        "contract": "contracts/src/LDYStaking.sol:LDYStaking",
        "label": "__gap",
        "offset": 0,
        "slot": "51",
        "type": "t_array(t_uint256)50_storage"
      },
      {
        "astId": 2869,
        "contract": "contracts/src/LDYStaking.sol:LDYStaking",
        "label": "__gap",
        "offset": 0,
        "slot": "101",
        "type": "t_array(t_uint256)50_storage"
      },
      {
        "astId": 928,
        "contract": "contracts/src/LDYStaking.sol:LDYStaking",
        "label": "_paused",
        "offset": 0,
        "slot": "151",
        "type": "t_bool"
      },
      {
        "astId": 1033,
        "contract": "contracts/src/LDYStaking.sol:LDYStaking",
        "label": "__gap",
        "offset": 0,
        "slot": "152",
        "type": "t_array(t_uint256)49_storage"
      },
      {
        "astId": 116,
        "contract": "contracts/src/LDYStaking.sol:LDYStaking",
        "label": "_owner",
        "offset": 0,
        "slot": "201",
        "type": "t_address"
      },
      {
        "astId": 236,
        "contract": "contracts/src/LDYStaking.sol:LDYStaking",
        "label": "__gap",
        "offset": 0,
        "slot": "202",
        "type": "t_array(t_uint256)49_storage"
      },
      {
        "astId": 7922,
        "contract": "contracts/src/LDYStaking.sol:LDYStaking",
        "label": "_globalOwner",
        "offset": 0,
        "slot": "251",
        "type": "t_contract(GlobalOwner)4308"
      },
      {
        "astId": 8006,
        "contract": "contracts/src/LDYStaking.sol:LDYStaking",
        "label": "__gap",
        "offset": 0,
        "slot": "252",
        "type": "t_array(t_uint256)50_storage"
      },
      {
        "astId": 8024,
        "contract": "contracts/src/LDYStaking.sol:LDYStaking",
        "label": "_globalPause",
        "offset": 0,
        "slot": "302",
        "type": "t_contract(GlobalPause)4384"
      },
      {
        "astId": 8083,
        "contract": "contracts/src/LDYStaking.sol:LDYStaking",
        "label": "__gap",
        "offset": 0,
        "slot": "303",
        "type": "t_array(t_uint256)50_storage"
      },
      {
        "astId": 8097,
        "contract": "contracts/src/LDYStaking.sol:LDYStaking",
        "label": "_globalBlacklist",
        "offset": 0,
        "slot": "353",
        "type": "t_contract(GlobalBlacklist)4261"
      },
      {
        "astId": 8171,
        "contract": "contracts/src/LDYStaking.sol:LDYStaking",
        "label": "__gap",
        "offset": 0,
        "slot": "354",
        "type": "t_array(t_uint256)50_storage"
      },
      {
        "astId": 9190,
        "contract": "contracts/src/LDYStaking.sol:LDYStaking",
        "label": "__gap",
        "offset": 0,
        "slot": "404",
        "type": "t_array(t_uint256)50_storage"
      },
      {
        "astId": 9281,
        "contract": "contracts/src/LDYStaking.sol:LDYStaking",
        "label": "__gap",
        "offset": 0,
        "slot": "454",
        "type": "t_array(t_uint256)50_storage"
      },
      {
        "astId": 1048,
        "contract": "contracts/src/LDYStaking.sol:LDYStaking",
        "label": "_status",
        "offset": 0,
        "slot": "504",
        "type": "t_uint256"
      },
      {
        "astId": 1117,
        "contract": "contracts/src/LDYStaking.sol:LDYStaking",
        "label": "__gap",
        "offset": 0,
        "slot": "505",
        "type": "t_array(t_uint256)49_storage"
      },
      {
        "astId": 4418,
        "contract": "contracts/src/LDYStaking.sol:LDYStaking",
        "label": "stakeRewardToken",
        "offset": 0,
        "slot": "554",
        "type": "t_contract(IERC20Upgradeable)1808"
      },
      {
        "astId": 4421,
        "contract": "contracts/src/LDYStaking.sol:LDYStaking",
        "label": "stakeDurationForPerks",
        "offset": 0,
        "slot": "555",
        "type": "t_uint256"
      },
      {
        "astId": 4424,
        "contract": "contracts/src/LDYStaking.sol:LDYStaking",
        "label": "stakeAmountForPerks",
        "offset": 0,
        "slot": "556",
        "type": "t_uint256"
      },
      {
        "astId": 4428,
        "contract": "contracts/src/LDYStaking.sol:LDYStaking",
        "label": "stakeDurations",
        "offset": 0,
        "slot": "557",
        "type": "t_array(t_uint256)dyn_storage"
      },
      {
        "astId": 4431,
        "contract": "contracts/src/LDYStaking.sol:LDYStaking",
        "label": "rewardsDuration",
        "offset": 0,
        "slot": "558",
        "type": "t_uint256"
      },
      {
        "astId": 4434,
        "contract": "contracts/src/LDYStaking.sol:LDYStaking",
        "label": "finishAt",
        "offset": 0,
        "slot": "559",
        "type": "t_uint256"
      },
      {
        "astId": 4437,
        "contract": "contracts/src/LDYStaking.sol:LDYStaking",
        "label": "lastUpdateTime",
        "offset": 0,
        "slot": "560",
        "type": "t_uint256"
      },
      {
        "astId": 4440,
        "contract": "contracts/src/LDYStaking.sol:LDYStaking",
        "label": "rewardRatePerSec",
        "offset": 0,
        "slot": "561",
        "type": "t_uint256"
      },
      {
        "astId": 4443,
        "contract": "contracts/src/LDYStaking.sol:LDYStaking",
        "label": "rewardPerTokenStored",
        "offset": 0,
        "slot": "562",
        "type": "t_uint256"
      },
      {
        "astId": 4446,
        "contract": "contracts/src/LDYStaking.sol:LDYStaking",
        "label": "totalStaked",
        "offset": 0,
        "slot": "563",
        "type": "t_uint256"
      },
      {
        "astId": 4453,
        "contract": "contracts/src/LDYStaking.sol:LDYStaking",
        "label": "userStakingInfo",
        "offset": 0,
        "slot": "564",
        "type": "t_mapping(t_address,t_array(t_struct(StakingInfo)4414_storage)dyn_storage)"
      },
      {
        "astId": 4492,
        "contract": "contracts/src/LDYStaking.sol:LDYStaking",
        "label": "highTierAccounts",
        "offset": 0,
        "slot": "565",
        "type": "t_mapping(t_address,t_bool)"
      }
    ],
    "types": {
      "t_address": {
        "encoding": "inplace",
        "label": "address",
        "numberOfBytes": "20"
      },
      "t_array(t_struct(StakingInfo)4414_storage)dyn_storage": {
        "base": "t_struct(StakingInfo)4414_storage",
        "encoding": "dynamic_array",
        "label": "struct LDYStaking.StakingInfo[]",
        "numberOfBytes": "32"
      },
      "t_array(t_uint256)49_storage": {
        "base": "t_uint256",
        "encoding": "inplace",
        "label": "uint256[49]",
        "numberOfBytes": "1568"
      },
      "t_array(t_uint256)50_storage": {
        "base": "t_uint256",
        "encoding": "inplace",
        "label": "uint256[50]",
        "numberOfBytes": "1600"
      },
      "t_array(t_uint256)dyn_storage": {
        "base": "t_uint256",
        "encoding": "dynamic_array",
        "label": "uint256[]",
        "numberOfBytes": "32"
      },
      "t_bool": {
        "encoding": "inplace",
        "label": "bool",
        "numberOfBytes": "1"
      },
      "t_contract(GlobalBlacklist)4261": {
        "encoding": "inplace",
        "label": "contract GlobalBlacklist",
        "numberOfBytes": "20"
      },
      "t_contract(GlobalOwner)4308": {
        "encoding": "inplace",
        "label": "contract GlobalOwner",
        "numberOfBytes": "20"
      },
      "t_contract(GlobalPause)4384": {
        "encoding": "inplace",
        "label": "contract GlobalPause",
        "numberOfBytes": "20"
      },
      "t_contract(IERC20Upgradeable)1808": {
        "encoding": "inplace",
        "label": "contract IERC20Upgradeable",
        "numberOfBytes": "20"
      },
      "t_mapping(t_address,t_array(t_struct(StakingInfo)4414_storage)dyn_storage)": {
        "encoding": "mapping",
        "key": "t_address",
        "label": "mapping(address => struct LDYStaking.StakingInfo[])",
        "numberOfBytes": "32",
        "value": "t_array(t_struct(StakingInfo)4414_storage)dyn_storage"
      },
      "t_mapping(t_address,t_bool)": {
        "encoding": "mapping",
        "key": "t_address",
        "label": "mapping(address => bool)",
        "numberOfBytes": "32",
        "value": "t_bool"
      },
      "t_struct(StakingInfo)4414_storage": {
        "encoding": "inplace",
        "label": "struct LDYStaking.StakingInfo",
        "members": [
          {
            "astId": 4405,
            "contract": "contracts/src/LDYStaking.sol:LDYStaking",
            "label": "stakedAmount",
            "offset": 0,
            "slot": "0",
            "type": "t_uint256"
          },
          {
            "astId": 4407,
            "contract": "contracts/src/LDYStaking.sol:LDYStaking",
            "label": "unStakeAt",
            "offset": 0,
            "slot": "1",
            "type": "t_uint256"
          },
          {
            "astId": 4409,
            "contract": "contracts/src/LDYStaking.sol:LDYStaking",
            "label": "duration",
            "offset": 0,
            "slot": "2",
            "type": "t_uint256"
          },
          {
            "astId": 4411,
            "contract": "contracts/src/LDYStaking.sol:LDYStaking",
            "label": "rewardPerTokenPaid",
            "offset": 0,
            "slot": "3",
            "type": "t_uint256"
          },
          {
            "astId": 4413,
            "contract": "contracts/src/LDYStaking.sol:LDYStaking",
            "label": "rewards",
            "offset": 0,
            "slot": "4",
            "type": "t_uint256"
          }
        ],
        "numberOfBytes": "160"
      },
      "t_uint256": {
        "encoding": "inplace",
        "label": "uint256",
        "numberOfBytes": "32"
      },
      "t_uint8": {
        "encoding": "inplace",
        "label": "uint8",
        "numberOfBytes": "1"
      }
    }
  }
}