{
  "address": "0x508c8530a9c87439Ff82AE3dFA070BCdEBf0715b",
  "abi": [
    {
      "inputs": [
        {
          "internalType": "address",
          "name": "_stakeRewardToken",
          "type": "address"
        },
        {
          "internalType": "uint256[]",
          "name": "_stakeDurations",
          "type": "uint256[]"
        },
        {
          "internalType": "uint256",
          "name": "_stakeDurationForPerks",
          "type": "uint256"
        },
        {
          "internalType": "uint256",
          "name": "_stakeAmountForPerks",
          "type": "uint256"
        }
      ],
      "stateMutability": "nonpayable",
      "type": "constructor"
    },
    {
      "anonymous": false,
      "inputs": [
        {
          "indexed": true,
          "internalType": "address",
          "name": "previousOwner",
          "type": "address"
        },
        {
          "indexed": true,
          "internalType": "address",
          "name": "newOwner",
          "type": "address"
        }
      ],
      "name": "OwnershipTransferStarted",
      "type": "event"
    },
    {
      "anonymous": false,
      "inputs": [
        {
          "indexed": true,
          "internalType": "address",
          "name": "previousOwner",
          "type": "address"
        },
        {
          "indexed": true,
          "internalType": "address",
          "name": "newOwner",
          "type": "address"
        }
      ],
      "name": "OwnershipTransferred",
      "type": "event"
    },
    {
      "anonymous": false,
      "inputs": [
        {
          "indexed": false,
          "internalType": "address",
          "name": "account",
          "type": "address"
        }
      ],
      "name": "Paused",
      "type": "event"
    },
    {
      "anonymous": false,
      "inputs": [
        {
          "indexed": true,
          "internalType": "address",
          "name": "user",
          "type": "address"
        },
        {
          "indexed": false,
          "internalType": "uint256",
          "name": "stakeNumber",
          "type": "uint256"
        },
        {
          "indexed": false,
          "internalType": "uint256",
          "name": "reward",
          "type": "uint256"
        }
      ],
      "name": "RewardPaid",
      "type": "event"
    },
    {
      "anonymous": false,
      "inputs": [
        {
          "indexed": true,
          "internalType": "address",
          "name": "user",
          "type": "address"
        },
        {
          "indexed": false,
          "internalType": "uint256",
          "name": "stakeNumber",
          "type": "uint256"
        },
        {
          "indexed": false,
          "internalType": "uint256",
          "name": "amount",
          "type": "uint256"
        }
      ],
      "name": "Staked",
      "type": "event"
    },
    {
      "anonymous": false,
      "inputs": [
        {
          "indexed": false,
          "internalType": "address",
          "name": "account",
          "type": "address"
        }
      ],
      "name": "Unpaused",
      "type": "event"
    },
    {
      "anonymous": false,
      "inputs": [
        {
          "indexed": true,
          "internalType": "address",
          "name": "user",
          "type": "address"
        },
        {
          "indexed": false,
          "internalType": "uint256",
          "name": "stakeNumber",
          "type": "uint256"
        },
        {
          "indexed": false,
          "internalType": "uint256",
          "name": "amount",
          "type": "uint256"
        }
      ],
      "name": "Unstaked",
      "type": "event"
    },
    {
      "inputs": [],
      "name": "StakeAmountForPerks",
      "outputs": [
        {
          "internalType": "uint256",
          "name": "",
          "type": "uint256"
        }
      ],
      "stateMutability": "view",
      "type": "function"
    },
    {
      "inputs": [],
      "name": "StakeDurationForPerks",
      "outputs": [
        {
          "internalType": "uint256",
          "name": "",
          "type": "uint256"
        }
      ],
      "stateMutability": "view",
      "type": "function"
    },
    {
      "inputs": [
        {
          "internalType": "uint256",
          "name": "",
          "type": "uint256"
        }
      ],
      "name": "StakeDurations",
      "outputs": [
        {
          "internalType": "uint256",
          "name": "",
          "type": "uint256"
        }
      ],
      "stateMutability": "view",
      "type": "function"
    },
    {
      "inputs": [],
      "name": "Token",
      "outputs": [
        {
          "internalType": "contract IERC20",
          "name": "",
          "type": "address"
        }
      ],
      "stateMutability": "view",
      "type": "function"
    },
    {
      "inputs": [],
      "name": "acceptOwnership",
      "outputs": [],
      "stateMutability": "nonpayable",
      "type": "function"
    },
    {
      "inputs": [
        {
          "internalType": "address",
          "name": "_account",
          "type": "address"
        },
        {
          "internalType": "uint256",
          "name": "_stakeNumber",
          "type": "uint256"
        }
      ],
      "name": "earned",
      "outputs": [
        {
          "internalType": "uint256",
          "name": "",
          "type": "uint256"
        }
      ],
      "stateMutability": "view",
      "type": "function"
    },
    {
      "inputs": [],
      "name": "finishAt",
      "outputs": [
        {
          "internalType": "uint256",
          "name": "",
          "type": "uint256"
        }
      ],
      "stateMutability": "view",
      "type": "function"
    },
    {
      "inputs": [
        {
          "internalType": "uint256",
          "name": "_stakeNumber",
          "type": "uint256"
        }
      ],
      "name": "getReward",
      "outputs": [],
      "stateMutability": "nonpayable",
      "type": "function"
    },
    {
      "inputs": [
        {
          "internalType": "address",
          "name": "_user",
          "type": "address"
        }
      ],
      "name": "getUserStakes",
      "outputs": [
        {
          "components": [
            {
              "internalType": "uint256",
              "name": "stakedAmount",
              "type": "uint256"
            },
            {
              "internalType": "uint256",
              "name": "unStakeAt",
              "type": "uint256"
            },
            {
              "internalType": "uint256",
              "name": "duration",
              "type": "uint256"
            },
            {
              "internalType": "uint256",
              "name": "rewardPerTokenPaid",
              "type": "uint256"
            },
            {
              "internalType": "uint256",
              "name": "rewards",
              "type": "uint256"
            }
          ],
          "internalType": "struct LDYStaking.StakingInfo[]",
          "name": "",
          "type": "tuple[]"
        }
      ],
      "stateMutability": "view",
      "type": "function"
    },
    {
      "inputs": [
        {
          "internalType": "address",
          "name": "",
          "type": "address"
        }
      ],
      "name": "highTierAccounts",
      "outputs": [
        {
          "internalType": "bool",
          "name": "",
          "type": "bool"
        }
      ],
      "stateMutability": "view",
      "type": "function"
    },
    {
      "inputs": [],
      "name": "lastTimeRewardApplicable",
      "outputs": [
        {
          "internalType": "uint256",
          "name": "",
          "type": "uint256"
        }
      ],
      "stateMutability": "view",
      "type": "function"
    },
    {
      "inputs": [],
      "name": "lastUpdateTime",
      "outputs": [
        {
          "internalType": "uint256",
          "name": "",
          "type": "uint256"
        }
      ],
      "stateMutability": "view",
      "type": "function"
    },
    {
      "inputs": [
        {
          "internalType": "uint256",
          "name": "_amount",
          "type": "uint256"
        }
      ],
      "name": "notifyRewardAmount",
      "outputs": [],
      "stateMutability": "nonpayable",
      "type": "function"
    },
    {
      "inputs": [],
      "name": "owner",
      "outputs": [
        {
          "internalType": "address",
          "name": "",
          "type": "address"
        }
      ],
      "stateMutability": "view",
      "type": "function"
    },
    {
      "inputs": [],
      "name": "pause",
      "outputs": [],
      "stateMutability": "nonpayable",
      "type": "function"
    },
    {
      "inputs": [],
      "name": "paused",
      "outputs": [
        {
          "internalType": "bool",
          "name": "",
          "type": "bool"
        }
      ],
      "stateMutability": "view",
      "type": "function"
    },
    {
      "inputs": [],
      "name": "pendingOwner",
      "outputs": [
        {
          "internalType": "address",
          "name": "",
          "type": "address"
        }
      ],
      "stateMutability": "view",
      "type": "function"
    },
    {
      "inputs": [],
      "name": "renounceOwnership",
      "outputs": [],
      "stateMutability": "nonpayable",
      "type": "function"
    },
    {
      "inputs": [],
      "name": "rewardPerToken",
      "outputs": [
        {
          "internalType": "uint256",
          "name": "",
          "type": "uint256"
        }
      ],
      "stateMutability": "view",
      "type": "function"
    },
    {
      "inputs": [],
      "name": "rewardPerTokenStored",
      "outputs": [
        {
          "internalType": "uint256",
          "name": "",
          "type": "uint256"
        }
      ],
      "stateMutability": "view",
      "type": "function"
    },
    {
      "inputs": [],
      "name": "rewardRatePerSec",
      "outputs": [
        {
          "internalType": "uint256",
          "name": "",
          "type": "uint256"
        }
      ],
      "stateMutability": "view",
      "type": "function"
    },
    {
      "inputs": [],
      "name": "rewardsDuration",
      "outputs": [
        {
          "internalType": "uint256",
          "name": "",
          "type": "uint256"
        }
      ],
      "stateMutability": "view",
      "type": "function"
    },
    {
      "inputs": [
        {
          "internalType": "uint256",
          "name": "_duration",
          "type": "uint256"
        }
      ],
      "name": "setRewardsDuration",
      "outputs": [],
      "stateMutability": "nonpayable",
      "type": "function"
    },
    {
      "inputs": [
        {
          "internalType": "uint256",
          "name": "_amount",
          "type": "uint256"
        },
        {
          "internalType": "uint8",
          "name": "_stakePeriodIndex",
          "type": "uint8"
        }
      ],
      "name": "stake",
      "outputs": [],
      "stateMutability": "nonpayable",
      "type": "function"
    },
    {
      "inputs": [
        {
          "internalType": "address",
          "name": "account",
          "type": "address"
        }
      ],
      "name": "tierOf",
      "outputs": [
        {
          "internalType": "uint256",
          "name": "tier",
          "type": "uint256"
        }
      ],
      "stateMutability": "view",
      "type": "function"
    },
    {
      "inputs": [],
      "name": "totalStaked",
      "outputs": [
        {
          "internalType": "uint256",
          "name": "",
          "type": "uint256"
        }
      ],
      "stateMutability": "view",
      "type": "function"
    },
    {
      "inputs": [
        {
          "internalType": "address",
          "name": "newOwner",
          "type": "address"
        }
      ],
      "name": "transferOwnership",
      "outputs": [],
      "stateMutability": "nonpayable",
      "type": "function"
    },
    {
      "inputs": [],
      "name": "unpause",
      "outputs": [],
      "stateMutability": "nonpayable",
      "type": "function"
    },
    {
      "inputs": [
        {
          "internalType": "uint256",
          "name": "_amount",
          "type": "uint256"
        },
        {
          "internalType": "uint256",
          "name": "_stakeNumber",
          "type": "uint256"
        }
      ],
      "name": "unstake",
      "outputs": [],
      "stateMutability": "nonpayable",
      "type": "function"
    },
    {
      "inputs": [
        {
          "internalType": "address",
          "name": "",
          "type": "address"
        },
        {
          "internalType": "uint256",
          "name": "",
          "type": "uint256"
        }
      ],
      "name": "userStakingInfo",
      "outputs": [
        {
          "internalType": "uint256",
          "name": "stakedAmount",
          "type": "uint256"
        },
        {
          "internalType": "uint256",
          "name": "unStakeAt",
          "type": "uint256"
        },
        {
          "internalType": "uint256",
          "name": "duration",
          "type": "uint256"
        },
        {
          "internalType": "uint256",
          "name": "rewardPerTokenPaid",
          "type": "uint256"
        },
        {
          "internalType": "uint256",
          "name": "rewards",
          "type": "uint256"
        }
      ],
      "stateMutability": "view",
      "type": "function"
    }
  ],
  "transactionHash": "0x29f0e1a4734d4be7378fc5f3ffcc9888fc96f8726408b25f307c6ec306130142",
  "args": [
    "0x3AB39A3B53f316e2e4d4fdCaEdB0FD405C68dca7",
    [
      2678400,
      16070400,
      32140800,
      64281600,
      96422400
    ],
    32140800,
    "1000000000000000000000"
  ],
  "numDeployments": 1,
  "solcInputHash": "ab6ace8593d01ad2725eb58000f79d3e",
  "bytecode": "0x60e06040523480156200001157600080fd5b5060405162001f1738038062001f1783398101604081905262000034916200017a565b6200003f3362000083565b60016002556003805460ff191690556001600160a01b038416608052825162000070906004906020860190620000fd565b5060a09190915260c05250620002759050565b600180546001600160a01b0319169055620000aa81620000ad602090811b6200123017901c565b50565b600080546001600160a01b038381166001600160a01b0319831681178455604051919092169283917f8be0079c531659141344cd1fd0a4f28419497f9722a3daafe3b4186f6b6457e09190a35050565b8280548282559060005260206000209081019282156200013b579160200282015b828111156200013b5782518255916020019190600101906200011e565b50620001499291506200014d565b5090565b5b808211156200014957600081556001016200014e565b634e487b7160e01b600052604160045260246000fd5b600080600080608085870312156200019157600080fd5b84516001600160a01b0381168114620001a957600080fd5b602086810151919550906001600160401b0380821115620001c957600080fd5b818801915088601f830112620001de57600080fd5b815181811115620001f357620001f362000164565b8060051b604051601f19603f830116810181811085821117156200021b576200021b62000164565b60405291825284820192508381018501918b8311156200023a57600080fd5b938501935b828510156200025a578451845293850193928501926200023f565b60408b01516060909b0151999c909b50975050505050505050565b60805160a05160c051611c33620002e460003960008181610345015281816105bc0152610eaf015260008181610410015281816105910152610e500152600081816103750152818161068b01528181610819015281816108f70152818161106301526114e00152611c336000f3fe608060405234801561001057600080fd5b50600436106101da5760003560e01c80638456cb5911610104578063c8f33c91116100a2578063df136d6511610071578063df136d65146103f1578063e30c3978146103fa578063ed2441831461040b578063f2fde38b1461043257600080fd5b8063c8f33c91146103ba578063c8f74bb8146103c3578063cc1a378f146103d6578063cd3daf9d146103e957600080fd5b8063a75b085c116100de578063a75b085c14610340578063bddff59214610367578063c241267614610370578063c66120f41461039757600080fd5b80638456cb59146103005780638da5cb5b146103085780639e2c8a5b1461032d57600080fd5b80635c975abb1161017c5780637c7993ac1161014b5780637c7993ac146102bc57806380faa57d146102cf578063817b1cd2146102d7578063842e2981146102e057600080fd5b80635c975abb1461028c57806367d3b488146102a3578063715018a6146102ac57806379ba5097146102b457600080fd5b8063386a9525116101b8578063386a9525146102475780633c6b16ab1461025e5780633e491d47146102715780633f4ba83a1461028457600080fd5b806304d978f1146101df57806310087fb11461021f5780631c4b774b14610234575b600080fd5b6101f26101ed366004611966565b610445565b604080519586526020860194909452928401919091526060830152608082015260a0015b60405180910390f35b61023261022d366004611990565b610493565b005b6102326102423660046119c6565b6106ff565b61025060055481565b604051908152602001610216565b61023261026c3660046119c6565b610787565b61025061027f366004611966565b6109e9565b610232610ab8565b60035460ff165b6040519015158152602001610216565b61025060065481565b610232610aca565b610232610adc565b6102506102ca3660046119c6565b610b53565b610250610b74565b610250600a5481565b6102f36102ee3660046119df565b610b87565b60405161021691906119fa565b610232610c2e565b6000546001600160a01b03165b6040516001600160a01b039091168152602001610216565b61023261033b366004611a68565b610c3e565b6102507f000000000000000000000000000000000000000000000000000000000000000081565b61025060085481565b6103157f000000000000000000000000000000000000000000000000000000000000000081565b6102936103a53660046119df565b600c6020526000908152604090205460ff1681565b61025060075481565b6102506103d13660046119df565b6110cf565b6102326103e43660046119c6565b611100565b61025061115e565b61025060095481565b6001546001600160a01b0316610315565b6102507f000000000000000000000000000000000000000000000000000000000000000081565b6102326104403660046119df565b6111bf565b600b602052816000526040600020818154811061046157600080fd5b600091825260209091206005909102018054600182015460028301546003840154600490940154929550909350919085565b61049b611280565b6104a36112d7565b600082116104cc5760405162461bcd60e51b81526004016104c390611a8a565b60405180910390fd5b6004546104db90600190611ac4565b8160ff1611156105265760405162461bcd60e51b81526020600482015260166024820152751a5b9d985b1a59081cdd185ada5b99c81c195c9a5bd960521b60448201526064016104c3565b61053160008061131d565b600060048260ff168154811061054957610549611ad7565b9060005260206000200154905060006040518060a0016040528085815260200183426105759190611aed565b81526020018381526020016009548152602001600081525090507f000000000000000000000000000000000000000000000000000000000000000082101580156105df57507f00000000000000000000000000000000000000000000000000000000000000008410155b156105ff57336000908152600c60205260409020805460ff191660011790555b336000818152600b60209081526040808320805460018181018355828652848620885160059093020191825593870151818501559186015160028301556060860151600383015560808601516004909201919091559282529154909161066491611ac4565b905084600a60008282546106789190611aed565b909155506106b390506001600160a01b037f0000000000000000000000000000000000000000000000000000000000000000163330886113dd565b604080518281526020810187905233917f1449c6dd7851abc30abf37f57715f492010519147cc2652fbc38202c18a6ee90910160405180910390a25050506106fb6001600255565b5050565b610707611280565b610712816001611aed565b336000908152600b602052604090205410156107665760405162461bcd60e51b815260206004820152601360248201527234b73b30b634b21039ba30b5b2a73ab6b132b960691b60448201526064016104c3565b610770338261131d565b61077a338261144e565b6107846001600255565b50565b61078f611551565b6000600554116107e15760405162461bcd60e51b815260206004820152601b60248201527f72657761726473206475726174696f6e206973206e6f7420736574000000000060448201526064016104c3565b600081116108015760405162461bcd60e51b81526004016104c390611a8a565b61080c60008061131d565b6108416001600160a01b037f0000000000000000000000000000000000000000000000000000000000000000163330846113dd565b600654421061085f576005546108579082611b00565b60085561089b565b6000600854426006546108729190611ac4565b61087c9190611b22565b60055490915061088c8284611aed565b6108969190611b00565b600855505b6000600854116108df5760405162461bcd60e51b815260206004820152600f60248201526e07265776172642072617465203d203608c1b60448201526064016104c3565b600a546040516370a0823160e01b81523060048201527f00000000000000000000000000000000000000000000000000000000000000006001600160a01b0316906370a0823190602401602060405180830381865afa158015610946573d6000803e3d6000fd5b505050506040513d601f19601f8201168201806040525081019061096a9190611b39565b6109749190611ac4565b6005546008546109849190611b22565b11156109d25760405162461bcd60e51b815260206004820152601760248201527f72657761726420616d6f756e74203e2062616c616e636500000000000000000060448201526064016104c3565b6005546109df9042611aed565b6006555042600755565b6001600160a01b0382166000908152600b60205260408120805482919084908110610a1657610a16611ad7565b90600052602060002090600502016040518060a00160405290816000820154815260200160018201548152602001600282015481526020016003820154815260200160048201548152505090506000670de0b6b3a76400008260600151610a7b61115e565b610a859190611ac4565b8351610a919190611b22565b610a9b9190611b00565b9050816080015181610aad9190611aed565b925050505b92915050565b610ac0611551565b610ac86115ab565b565b610ad2611551565b610ac860006115fd565b60015433906001600160a01b03168114610b4a5760405162461bcd60e51b815260206004820152602960248201527f4f776e61626c6532537465703a2063616c6c6572206973206e6f7420746865206044820152683732bb9037bbb732b960b91b60648201526084016104c3565b610784816115fd565b60048181548110610b6357600080fd5b600091825260209091200154905081565b6000610b8260065442611616565b905090565b6001600160a01b0381166000908152600b60209081526040808320805482518185028101850190935280835260609492939192909184015b82821015610c2357838290600052602060002090600502016040518060a00160405290816000820154815260200160018201548152602001600282015481526020016003820154815260200160048201548152505081526020019060010190610bbf565b505050509050919050565b610c36611551565b610ac861162f565b610c46611280565b60008211610c665760405162461bcd60e51b81526004016104c390611a8a565b610c71816001611aed565b336000908152600b60205260409020541015610cc55760405162461bcd60e51b815260206004820152601360248201527234b73b30b634b21039ba30b5b2a73ab6b132b960691b60448201526064016104c3565b336000908152600b60205260409020805482908110610ce657610ce6611ad7565b906000526020600020906005020160010154421015610d5b5760405162461bcd60e51b815260206004820152602b60248201527f6e6f7420616c6c6f77656420756e7374616b696e6720696e207468652073746160448201526a1ada5b99c81c195c9a5bd960aa1b60648201526084016104c3565b336000908152600b60205260409020805482908110610d7c57610d7c611ad7565b906000526020600020906005020160000154821115610dd35760405162461bcd60e51b81526020600482015260136024820152721a5b9cdd59999a58da595b9d08185b5bdd5b9d606a1b60448201526064016104c3565b610ddd338261131d565b81600a6000828254610def9190611ac4565b9091555050336000908152600b60205260409020805483919083908110610e1857610e18611ad7565b90600052602060002090600502016000016000828254610e389190611ac4565b9091555050336000908152600b6020526040902080547f0000000000000000000000000000000000000000000000000000000000000000919083908110610e8157610e81611ad7565b90600052602060002090600502016002015410158015610ef45750336000908152600b6020526040902080547f0000000000000000000000000000000000000000000000000000000000000000919083908110610ee057610ee0611ad7565b906000526020600020906005020160000154105b15610f1157336000908152600c60205260409020805460ff191690555b336000908152600b60205260409020805482908110610f3257610f32611ad7565b90600052602060002090600502016000015460000361105657610f55338261144e565b336000908152600b602052604090208054610f7290600190611ac4565b81548110610f8257610f82611ad7565b9060005260206000209060050201600b6000336001600160a01b03166001600160a01b031681526020019081526020016000208281548110610fc657610fc6611ad7565b6000918252602080832084546005909302019182556001808501549083015560028085015490830155600380850154908301556004938401549390910192909255338152600b9091526040902080548061102257611022611b52565b6000828152602081206005600019909301928302018181556001810182905560028101829055600381018290556004015590555b61108a6001600160a01b037f000000000000000000000000000000000000000000000000000000000000000016338461166c565b604080518281526020810184905233917f7fc4727e062e336010f2c282598ef5f14facb3de68cf8195c2f23e1454b2b74e910160405180910390a26106fb6001600255565b6001600160a01b0381166000908152600c602052604081205460ff16156110f857506003919050565b506000919050565b611108611551565b42600654106111595760405162461bcd60e51b815260206004820152601f60248201527f726577617264206475726174696f6e206973206e6f742066696e69736865640060448201526064016104c3565b600555565b6000600a54600003611171575060095490565b600a5460075461117f610b74565b6111899190611ac4565b6008546111969190611b22565b6111a890670de0b6b3a7640000611b22565b6111b29190611b00565b600954610b829190611aed565b6111c7611551565b600180546001600160a01b0383166001600160a01b031990911681179091556111f86000546001600160a01b031690565b6001600160a01b03167f38d16b8cac22d99fc7c124b9cd0de2d3fa1faef420bfe791d8c362d765e2270060405160405180910390a350565b600080546001600160a01b038381166001600160a01b0319831681178455604051919092169283917f8be0079c531659141344cd1fd0a4f28419497f9722a3daafe3b4186f6b6457e09190a35050565b60028054036112d15760405162461bcd60e51b815260206004820152601f60248201527f5265656e7472616e637947756172643a207265656e7472616e742063616c6c0060448201526064016104c3565b60028055565b60035460ff1615610ac85760405162461bcd60e51b815260206004820152601060248201526f14185d5cd8589b194e881c185d5cd95960821b60448201526064016104c3565b61132561115e565b600955611330610b74565b6007556001600160a01b038216156106fb5761134c82826109e9565b6001600160a01b0383166000908152600b6020526040902080548390811061137657611376611ad7565b906000526020600020906005020160040181905550600954600b6000846001600160a01b03166001600160a01b0316815260200190815260200160002082815481106113c4576113c4611ad7565b9060005260206000209060050201600301819055505050565b6040516001600160a01b03808516602483015283166044820152606481018290526114489085906323b872dd60e01b906084015b60408051601f198184030181529190526020810180516001600160e01b03166001600160e01b03199093169290921790915261169c565b50505050565b6001600160a01b0382166000908152600b6020526040812080548390811061147857611478611ad7565b9060005260206000209060050201600401549050600081111561154c576001600160a01b0383166000908152600b602052604081208054849081106114bf576114bf611ad7565b60009182526020909120600460059092020101556115076001600160a01b037f000000000000000000000000000000000000000000000000000000000000000016848361166c565b60408051838152602081018390526001600160a01b038516917fd6f2c8500df5b44f11e9e48b91ff9f1b9d81bc496d55570c2b1b75bf65243f51910160405180910390a25b505050565b6000546001600160a01b03163314610ac85760405162461bcd60e51b815260206004820181905260248201527f4f776e61626c653a2063616c6c6572206973206e6f7420746865206f776e657260448201526064016104c3565b6115b3611771565b6003805460ff191690557f5db9ee0a495bf2e6ff9c91a7834c1ba4fdd244a5e8aa4e537bd38aeae4b073aa335b6040516001600160a01b03909116815260200160405180910390a1565b600180546001600160a01b031916905561078481611230565b6000818311156116265781611628565b825b9392505050565b6116376112d7565b6003805460ff191660011790557f62e78cea01bee320cd4e420270b5ea74000d11b0c9f74754ebdbfc544b05a2586115e03390565b6040516001600160a01b03831660248201526044810182905261154c90849063a9059cbb60e01b90606401611411565b60006116f1826040518060400160405280602081526020017f5361666545524332303a206c6f772d6c6576656c2063616c6c206661696c6564815250856001600160a01b03166117ba9092919063ffffffff16565b90508051600014806117125750808060200190518101906117129190611b68565b61154c5760405162461bcd60e51b815260206004820152602a60248201527f5361666545524332303a204552433230206f7065726174696f6e20646964206e6044820152691bdd081cdd58d8d9595960b21b60648201526084016104c3565b60035460ff16610ac85760405162461bcd60e51b815260206004820152601460248201527314185d5cd8589b194e881b9bdd081c185d5cd95960621b60448201526064016104c3565b60606117c984846000856117d1565b949350505050565b6060824710156118325760405162461bcd60e51b815260206004820152602660248201527f416464726573733a20696e73756666696369656e742062616c616e636520666f6044820152651c8818d85b1b60d21b60648201526084016104c3565b600080866001600160a01b0316858760405161184e9190611bae565b60006040518083038185875af1925050503d806000811461188b576040519150601f19603f3d011682016040523d82523d6000602084013e611890565b606091505b50915091506118a1878383876118ac565b979650505050505050565b6060831561191b578251600003611914576001600160a01b0385163b6119145760405162461bcd60e51b815260206004820152601d60248201527f416464726573733a2063616c6c20746f206e6f6e2d636f6e747261637400000060448201526064016104c3565b50816117c9565b6117c983838151156119305781518083602001fd5b8060405162461bcd60e51b81526004016104c39190611bca565b80356001600160a01b038116811461196157600080fd5b919050565b6000806040838503121561197957600080fd5b6119828361194a565b946020939093013593505050565b600080604083850312156119a357600080fd5b82359150602083013560ff811681146119bb57600080fd5b809150509250929050565b6000602082840312156119d857600080fd5b5035919050565b6000602082840312156119f157600080fd5b6116288261194a565b602080825282518282018190526000919060409081850190868401855b82811015611a5b5781518051855286810151878601528581015186860152606080820151908601526080908101519085015260a09093019290850190600101611a17565b5091979650505050505050565b60008060408385031215611a7b57600080fd5b50508035926020909101359150565b6020808252600a90820152690616d6f756e74203d20360b41b604082015260600190565b634e487b7160e01b600052601160045260246000fd5b81810381811115610ab257610ab2611aae565b634e487b7160e01b600052603260045260246000fd5b80820180821115610ab257610ab2611aae565b600082611b1d57634e487b7160e01b600052601260045260246000fd5b500490565b8082028115828204841417610ab257610ab2611aae565b600060208284031215611b4b57600080fd5b5051919050565b634e487b7160e01b600052603160045260246000fd5b600060208284031215611b7a57600080fd5b8151801515811461162857600080fd5b60005b83811015611ba5578181015183820152602001611b8d565b50506000910152565b60008251611bc0818460208701611b8a565b9190910192915050565b6020815260008251806020840152611be9816040850160208701611b8a565b601f01601f1916919091016040019291505056fea26469706673582212200127b1e93835cfa6b66b410c9abe4e15c2bfb12232491600f9314dc67c9badf464736f6c63430008120033",
  "devdoc": {
    "custom:security-contact": "security@ledgity.comsecurity@ledgity.com",
    "details": "This contract implements tierOf() function from LDYStaking as it's the only one the LToken contract relies on.",
    "events": {
      "Paused(address)": {
        "details": "Emitted when the pause is triggered by `account`."
      },
      "Unpaused(address)": {
        "details": "Emitted when the pause is lifted by `account`."
      }
    },
    "kind": "dev",
    "methods": {
      "acceptOwnership()": {
        "details": "The new owner accepts the ownership transfer."
      },
      "owner()": {
        "details": "Returns the address of the current owner."
      },
      "paused()": {
        "details": "Returns true if the contract is paused, and false otherwise."
      },
      "pendingOwner()": {
        "details": "Returns the address of the pending owner."
      },
      "renounceOwnership()": {
        "details": "Leaves the contract without owner. It will not be possible to call `onlyOwner` functions. Can only be called by the current owner. NOTE: Renouncing ownership will leave the contract without an owner, thereby disabling any functionality that is only available to the owner."
      },
      "tierOf(address)": {
        "details": "tierOf() function that always return that the given account is not elligible to any LDY staking tier, except if the account is in the highTierAccounts mapping.",
        "params": {
          "account": "The account to check the tier of."
        }
      },
      "transferOwnership(address)": {
        "details": "Starts the ownership transfer of the contract to a new account. Replaces the pending transfer if there is one. Can only be called by the current owner."
      }
    },
    "stateVariables": {
      "highTierAccounts": {
        "details": "This is notably used to allow PreMining contracts to benefit from 0% withdrawal fees in L-Tokens contracts, when accounts unlock their funds."
      }
    },
    "title": "LDYStaking",
    "version": 1
  },
  "userdoc": {
    "kind": "user",
    "methods": {
      "highTierAccounts(address)": {
        "notice": "Holds a mapping of addresses that default to the highest staking tier."
      }
    },
    "version": 1
  },
  "storageLayout": {
    "storage": [
      {
        "astId": 2904,
        "contract": "contracts/src/LDYStaking.sol:LDYStaking",
        "label": "_owner",
        "offset": 0,
        "slot": "0",
        "type": "t_address"
      },
      {
        "astId": 3017,
        "contract": "contracts/src/LDYStaking.sol:LDYStaking",
        "label": "_pendingOwner",
        "offset": 0,
        "slot": "1",
        "type": "t_address"
      },
      {
        "astId": 3211,
        "contract": "contracts/src/LDYStaking.sol:LDYStaking",
        "label": "_status",
        "offset": 0,
        "slot": "2",
        "type": "t_uint256"
      },
      {
        "astId": 3110,
        "contract": "contracts/src/LDYStaking.sol:LDYStaking",
        "label": "_paused",
        "offset": 0,
        "slot": "3",
        "type": "t_bool"
      },
      {
        "astId": 5091,
        "contract": "contracts/src/LDYStaking.sol:LDYStaking",
        "label": "StakeDurations",
        "offset": 0,
        "slot": "4",
        "type": "t_array(t_uint256)dyn_storage"
      },
      {
        "astId": 5093,
        "contract": "contracts/src/LDYStaking.sol:LDYStaking",
        "label": "rewardsDuration",
        "offset": 0,
        "slot": "5",
        "type": "t_uint256"
      },
      {
        "astId": 5095,
        "contract": "contracts/src/LDYStaking.sol:LDYStaking",
        "label": "finishAt",
        "offset": 0,
        "slot": "6",
        "type": "t_uint256"
      },
      {
        "astId": 5097,
        "contract": "contracts/src/LDYStaking.sol:LDYStaking",
        "label": "lastUpdateTime",
        "offset": 0,
        "slot": "7",
        "type": "t_uint256"
      },
      {
        "astId": 5099,
        "contract": "contracts/src/LDYStaking.sol:LDYStaking",
        "label": "rewardRatePerSec",
        "offset": 0,
        "slot": "8",
        "type": "t_uint256"
      },
      {
        "astId": 5101,
        "contract": "contracts/src/LDYStaking.sol:LDYStaking",
        "label": "rewardPerTokenStored",
        "offset": 0,
        "slot": "9",
        "type": "t_uint256"
      },
      {
        "astId": 5103,
        "contract": "contracts/src/LDYStaking.sol:LDYStaking",
        "label": "totalStaked",
        "offset": 0,
        "slot": "10",
        "type": "t_uint256"
      },
      {
        "astId": 5109,
        "contract": "contracts/src/LDYStaking.sol:LDYStaking",
        "label": "userStakingInfo",
        "offset": 0,
        "slot": "11",
        "type": "t_mapping(t_address,t_array(t_struct(StakingInfo)5081_storage)dyn_storage)"
      },
      {
        "astId": 5138,
        "contract": "contracts/src/LDYStaking.sol:LDYStaking",
        "label": "highTierAccounts",
        "offset": 0,
        "slot": "12",
        "type": "t_mapping(t_address,t_bool)"
      }
    ],
    "types": {
      "t_address": {
        "encoding": "inplace",
        "label": "address",
        "numberOfBytes": "20"
      },
      "t_array(t_struct(StakingInfo)5081_storage)dyn_storage": {
        "base": "t_struct(StakingInfo)5081_storage",
        "encoding": "dynamic_array",
        "label": "struct LDYStaking.StakingInfo[]",
        "numberOfBytes": "32"
      },
      "t_array(t_uint256)dyn_storage": {
        "base": "t_uint256",
        "encoding": "dynamic_array",
        "label": "uint256[]",
        "numberOfBytes": "32"
      },
      "t_bool": {
        "encoding": "inplace",
        "label": "bool",
        "numberOfBytes": "1"
      },
      "t_mapping(t_address,t_array(t_struct(StakingInfo)5081_storage)dyn_storage)": {
        "encoding": "mapping",
        "key": "t_address",
        "label": "mapping(address => struct LDYStaking.StakingInfo[])",
        "numberOfBytes": "32",
        "value": "t_array(t_struct(StakingInfo)5081_storage)dyn_storage"
      },
      "t_mapping(t_address,t_bool)": {
        "encoding": "mapping",
        "key": "t_address",
        "label": "mapping(address => bool)",
        "numberOfBytes": "32",
        "value": "t_bool"
      },
      "t_struct(StakingInfo)5081_storage": {
        "encoding": "inplace",
        "label": "struct LDYStaking.StakingInfo",
        "members": [
          {
            "astId": 5072,
            "contract": "contracts/src/LDYStaking.sol:LDYStaking",
            "label": "stakedAmount",
            "offset": 0,
            "slot": "0",
            "type": "t_uint256"
          },
          {
            "astId": 5074,
            "contract": "contracts/src/LDYStaking.sol:LDYStaking",
            "label": "unStakeAt",
            "offset": 0,
            "slot": "1",
            "type": "t_uint256"
          },
          {
            "astId": 5076,
            "contract": "contracts/src/LDYStaking.sol:LDYStaking",
            "label": "duration",
            "offset": 0,
            "slot": "2",
            "type": "t_uint256"
          },
          {
            "astId": 5078,
            "contract": "contracts/src/LDYStaking.sol:LDYStaking",
            "label": "rewardPerTokenPaid",
            "offset": 0,
            "slot": "3",
            "type": "t_uint256"
          },
          {
            "astId": 5080,
            "contract": "contracts/src/LDYStaking.sol:LDYStaking",
            "label": "rewards",
            "offset": 0,
            "slot": "4",
            "type": "t_uint256"
          }
        ],
        "numberOfBytes": "160"
      },
      "t_uint256": {
        "encoding": "inplace",
        "label": "uint256",
        "numberOfBytes": "32"
      }
    }
  }
}