{
  "address": "0x2c0F4C6127693C688ff4b8794fdB22FfB235cd87",
  "abi": [
    {
      "anonymous": false,
      "inputs": [
        {
          "indexed": false,
          "internalType": "uint16",
          "name": "newAPRUD7x3",
          "type": "uint16"
        }
      ],
      "name": "APRChangeEvent",
      "type": "event"
    },
    {
      "anonymous": false,
      "inputs": [
        {
          "indexed": true,
          "internalType": "int256",
          "name": "id",
          "type": "int256"
        },
        {
          "indexed": true,
          "internalType": "address",
          "name": "account",
          "type": "address"
        },
        {
          "indexed": true,
          "internalType": "enum LToken.Action",
          "name": "action",
          "type": "uint8"
        },
        {
          "indexed": false,
          "internalType": "uint256",
          "name": "amount",
          "type": "uint256"
        },
        {
          "indexed": false,
          "internalType": "uint256",
          "name": "amountAfterFees",
          "type": "uint256"
        },
        {
          "indexed": false,
          "internalType": "enum LToken.Status",
          "name": "newStatus",
          "type": "uint8"
        },
        {
          "indexed": false,
          "internalType": "int256",
          "name": "newId",
          "type": "int256"
        }
      ],
      "name": "ActivityEvent",
      "type": "event"
    },
    {
      "anonymous": false,
      "inputs": [
        {
          "indexed": false,
          "internalType": "address",
          "name": "previousAdmin",
          "type": "address"
        },
        {
          "indexed": false,
          "internalType": "address",
          "name": "newAdmin",
          "type": "address"
        }
      ],
      "name": "AdminChanged",
      "type": "event"
    },
    {
      "anonymous": false,
      "inputs": [
        {
          "indexed": true,
          "internalType": "address",
          "name": "owner",
          "type": "address"
        },
        {
          "indexed": true,
          "internalType": "address",
          "name": "spender",
          "type": "address"
        },
        {
          "indexed": false,
          "internalType": "uint256",
          "name": "value",
          "type": "uint256"
        }
      ],
      "name": "Approval",
      "type": "event"
    },
    {
      "anonymous": false,
      "inputs": [
        {
          "indexed": true,
          "internalType": "address",
          "name": "beacon",
          "type": "address"
        }
      ],
      "name": "BeaconUpgraded",
      "type": "event"
    },
    {
      "anonymous": false,
      "inputs": [
        {
          "indexed": false,
          "internalType": "uint8",
          "name": "version",
          "type": "uint8"
        }
      ],
      "name": "Initialized",
      "type": "event"
    },
    {
      "anonymous": false,
      "inputs": [
        {
          "indexed": true,
          "internalType": "address",
          "name": "account",
          "type": "address"
        },
        {
          "indexed": false,
          "internalType": "uint256",
          "name": "balanceBefore",
          "type": "uint256"
        },
        {
          "indexed": false,
          "internalType": "uint256",
          "name": "rewards",
          "type": "uint256"
        }
      ],
      "name": "MintedRewardsEvent",
      "type": "event"
    },
    {
      "anonymous": false,
      "inputs": [
        {
          "indexed": true,
          "internalType": "address",
          "name": "previousOwner",
          "type": "address"
        },
        {
          "indexed": true,
          "internalType": "address",
          "name": "newOwner",
          "type": "address"
        }
      ],
      "name": "OwnershipTransferred",
      "type": "event"
    },
    {
      "anonymous": false,
      "inputs": [
        {
          "indexed": false,
          "internalType": "address",
          "name": "account",
          "type": "address"
        }
      ],
      "name": "Paused",
      "type": "event"
    },
    {
      "anonymous": false,
      "inputs": [
        {
          "indexed": false,
          "internalType": "uint256",
          "name": "newTVL",
          "type": "uint256"
        }
      ],
      "name": "TVLChangeEvent",
      "type": "event"
    },
    {
      "anonymous": false,
      "inputs": [
        {
          "indexed": true,
          "internalType": "address",
          "name": "from",
          "type": "address"
        },
        {
          "indexed": true,
          "internalType": "address",
          "name": "to",
          "type": "address"
        },
        {
          "indexed": false,
          "internalType": "uint256",
          "name": "value",
          "type": "uint256"
        }
      ],
      "name": "Transfer",
      "type": "event"
    },
    {
      "anonymous": false,
      "inputs": [
        {
          "indexed": false,
          "internalType": "address",
          "name": "account",
          "type": "address"
        }
      ],
      "name": "Unpaused",
      "type": "event"
    },
    {
      "anonymous": false,
      "inputs": [
        {
          "indexed": true,
          "internalType": "address",
          "name": "implementation",
          "type": "address"
        }
      ],
      "name": "Upgraded",
      "type": "event"
    },
    {
      "inputs": [
        {
          "internalType": "address",
          "name": "owner",
          "type": "address"
        },
        {
          "internalType": "address",
          "name": "spender",
          "type": "address"
        }
      ],
      "name": "allowance",
      "outputs": [
        {
          "internalType": "uint256",
          "name": "",
          "type": "uint256"
        }
      ],
      "stateMutability": "view",
      "type": "function"
    },
    {
      "inputs": [
        {
          "internalType": "address",
          "name": "spender",
          "type": "address"
        },
        {
          "internalType": "uint256",
          "name": "amount",
          "type": "uint256"
        }
      ],
      "name": "approve",
      "outputs": [
        {
          "internalType": "bool",
          "name": "",
          "type": "bool"
        }
      ],
      "stateMutability": "nonpayable",
      "type": "function"
    },
    {
      "inputs": [
        {
          "internalType": "address",
          "name": "account",
          "type": "address"
        }
      ],
      "name": "balanceOf",
      "outputs": [
        {
          "internalType": "uint256",
          "name": "",
          "type": "uint256"
        }
      ],
      "stateMutability": "view",
      "type": "function"
    },
    {
      "inputs": [
        {
          "internalType": "uint256",
          "name": "requestId",
          "type": "uint256"
        }
      ],
      "name": "cancelWithdrawalRequest",
      "outputs": [],
      "stateMutability": "nonpayable",
      "type": "function"
    },
    {
      "inputs": [],
      "name": "claimFees",
      "outputs": [],
      "stateMutability": "nonpayable",
      "type": "function"
    },
    {
      "inputs": [],
      "name": "decimals",
      "outputs": [
        {
          "internalType": "uint8",
          "name": "",
          "type": "uint8"
        }
      ],
      "stateMutability": "view",
      "type": "function"
    },
    {
      "inputs": [
        {
          "internalType": "address",
          "name": "spender",
          "type": "address"
        },
        {
          "internalType": "uint256",
          "name": "subtractedValue",
          "type": "uint256"
        }
      ],
      "name": "decreaseAllowance",
      "outputs": [
        {
          "internalType": "bool",
          "name": "",
          "type": "bool"
        }
      ],
      "stateMutability": "nonpayable",
      "type": "function"
    },
    {
      "inputs": [
        {
          "internalType": "uint256",
          "name": "amount",
          "type": "uint256"
        }
      ],
      "name": "deposit",
      "outputs": [],
      "stateMutability": "nonpayable",
      "type": "function"
    },
    {
      "inputs": [
        {
          "internalType": "address",
          "name": "account",
          "type": "address"
        },
        {
          "internalType": "uint256",
          "name": "amount",
          "type": "uint256"
        }
      ],
      "name": "depositFor",
      "outputs": [
        {
          "internalType": "bool",
          "name": "",
          "type": "bool"
        }
      ],
      "stateMutability": "pure",
      "type": "function"
    },
    {
      "inputs": [],
      "name": "feesRateUD7x3",
      "outputs": [
        {
          "internalType": "uint32",
          "name": "",
          "type": "uint32"
        }
      ],
      "stateMutability": "view",
      "type": "function"
    },
    {
      "inputs": [
        {
          "internalType": "uint256",
          "name": "",
          "type": "uint256"
        }
      ],
      "name": "frozenRequests",
      "outputs": [
        {
          "internalType": "address",
          "name": "account",
          "type": "address"
        },
        {
          "internalType": "uint96",
          "name": "amount",
          "type": "uint96"
        }
      ],
      "stateMutability": "view",
      "type": "function"
    },
    {
      "inputs": [],
      "name": "fund",
      "outputs": [
        {
          "internalType": "address",
          "name": "",
          "type": "address"
        }
      ],
      "stateMutability": "view",
      "type": "function"
    },
    {
      "inputs": [],
      "name": "getAPR",
      "outputs": [
        {
          "internalType": "uint16",
          "name": "",
          "type": "uint16"
        }
      ],
      "stateMutability": "view",
      "type": "function"
    },
    {
      "inputs": [],
      "name": "getExpectedRetained",
      "outputs": [
        {
          "internalType": "uint256",
          "name": "amount",
          "type": "uint256"
        }
      ],
      "stateMutability": "view",
      "type": "function"
    },
    {
      "inputs": [
        {
          "internalType": "address",
          "name": "account",
          "type": "address"
        },
        {
          "internalType": "uint256",
          "name": "amount",
          "type": "uint256"
        }
      ],
      "name": "getWithdrawnAmountAndFees",
      "outputs": [
        {
          "internalType": "uint256",
          "name": "withdrawnAmount",
          "type": "uint256"
        },
        {
          "internalType": "uint256",
          "name": "fees",
          "type": "uint256"
        }
      ],
      "stateMutability": "view",
      "type": "function"
    },
    {
      "inputs": [],
      "name": "globalBlacklist",
      "outputs": [
        {
          "internalType": "address",
          "name": "",
          "type": "address"
        }
      ],
      "stateMutability": "view",
      "type": "function"
    },
    {
      "inputs": [],
      "name": "globalOwner",
      "outputs": [
        {
          "internalType": "address",
          "name": "",
          "type": "address"
        }
      ],
      "stateMutability": "view",
      "type": "function"
    },
    {
      "inputs": [],
      "name": "globalPause",
      "outputs": [
        {
          "internalType": "address",
          "name": "",
          "type": "address"
        }
      ],
      "stateMutability": "view",
      "type": "function"
    },
    {
      "inputs": [
        {
          "internalType": "address",
          "name": "spender",
          "type": "address"
        },
        {
          "internalType": "uint256",
          "name": "addedValue",
          "type": "uint256"
        }
      ],
      "name": "increaseAllowance",
      "outputs": [
        {
          "internalType": "bool",
          "name": "",
          "type": "bool"
        }
      ],
      "stateMutability": "nonpayable",
      "type": "function"
    },
    {
      "inputs": [
        {
          "internalType": "address",
          "name": "globalOwner_",
          "type": "address"
        },
        {
          "internalType": "address",
          "name": "globalPause_",
          "type": "address"
        },
        {
          "internalType": "address",
          "name": "globalBlacklist_",
          "type": "address"
        },
        {
          "internalType": "address",
          "name": "ldyStaking_",
          "type": "address"
        },
        {
          "internalType": "address",
          "name": "underlyingToken",
          "type": "address"
        }
      ],
      "name": "initialize",
      "outputs": [],
      "stateMutability": "nonpayable",
      "type": "function"
    },
    {
      "inputs": [
        {
          "internalType": "uint256",
          "name": "amount",
          "type": "uint256"
        }
      ],
      "name": "instantWithdrawal",
      "outputs": [],
      "stateMutability": "nonpayable",
      "type": "function"
    },
    {
      "inputs": [],
      "name": "invested",
      "outputs": [
        {
          "internalType": "contract IERC20Upgradeable",
          "name": "",
          "type": "address"
        }
      ],
      "stateMutability": "view",
      "type": "function"
    },
    {
      "inputs": [],
      "name": "ldyStaking",
      "outputs": [
        {
          "internalType": "contract LDYStaking",
          "name": "",
          "type": "address"
        }
      ],
      "stateMutability": "view",
      "type": "function"
    },
    {
      "inputs": [
        {
          "internalType": "address",
          "name": "listenerContract",
          "type": "address"
        }
      ],
      "name": "listenToTransfers",
      "outputs": [],
      "stateMutability": "nonpayable",
      "type": "function"
    },
    {
      "inputs": [],
      "name": "name",
      "outputs": [
        {
          "internalType": "string",
          "name": "",
          "type": "string"
        }
      ],
      "stateMutability": "view",
      "type": "function"
    },
    {
      "inputs": [],
      "name": "owner",
      "outputs": [
        {
          "internalType": "address",
          "name": "",
          "type": "address"
        }
      ],
      "stateMutability": "view",
      "type": "function"
    },
    {
      "inputs": [],
      "name": "paused",
      "outputs": [
        {
          "internalType": "bool",
          "name": "",
          "type": "bool"
        }
      ],
      "stateMutability": "view",
      "type": "function"
    },
    {
      "inputs": [
        {
          "internalType": "uint256",
          "name": "requestId",
          "type": "uint256"
        }
      ],
      "name": "processBigQueuedRequest",
      "outputs": [],
      "stateMutability": "nonpayable",
      "type": "function"
    },
    {
      "inputs": [],
      "name": "processQueuedRequests",
      "outputs": [],
      "stateMutability": "nonpayable",
      "type": "function"
    },
    {
      "inputs": [],
      "name": "proxiableUUID",
      "outputs": [
        {
          "internalType": "bytes32",
          "name": "",
          "type": "bytes32"
        }
      ],
      "stateMutability": "view",
      "type": "function"
    },
    {
      "inputs": [
        {
          "internalType": "address",
          "name": "account",
          "type": "address"
        }
      ],
      "name": "realBalanceOf",
      "outputs": [
        {
          "internalType": "uint256",
          "name": "",
          "type": "uint256"
        }
      ],
      "stateMutability": "view",
      "type": "function"
    },
    {
      "inputs": [],
      "name": "realTotalSupply",
      "outputs": [
        {
          "internalType": "uint256",
          "name": "",
          "type": "uint256"
        }
      ],
      "stateMutability": "view",
      "type": "function"
    },
    {
      "inputs": [
        {
          "internalType": "address",
          "name": "tokenAddress",
          "type": "address"
        },
        {
          "internalType": "uint256",
          "name": "amount",
          "type": "uint256"
        }
      ],
      "name": "recoverERC20",
      "outputs": [],
      "stateMutability": "nonpayable",
      "type": "function"
    },
    {
      "inputs": [],
      "name": "recoverUnderlying",
      "outputs": [],
      "stateMutability": "nonpayable",
      "type": "function"
    },
    {
      "inputs": [],
      "name": "renounceOwnership",
      "outputs": [],
      "stateMutability": "view",
      "type": "function"
    },
    {
      "inputs": [
        {
          "internalType": "uint256",
          "name": "amount",
          "type": "uint256"
        }
      ],
      "name": "repatriate",
      "outputs": [],
      "stateMutability": "nonpayable",
      "type": "function"
    },
    {
      "inputs": [
        {
          "internalType": "uint256",
          "name": "amount",
          "type": "uint256"
        }
      ],
      "name": "requestWithdrawal",
      "outputs": [],
      "stateMutability": "payable",
      "type": "function"
    },
    {
      "inputs": [],
      "name": "retentionRateUD7x3",
      "outputs": [
        {
          "internalType": "uint32",
          "name": "",
          "type": "uint32"
        }
      ],
      "stateMutability": "view",
      "type": "function"
    },
    {
      "inputs": [
        {
          "internalType": "address",
          "name": "",
          "type": "address"
        }
      ],
      "name": "rewardsRedirectsFromTo",
      "outputs": [
        {
          "internalType": "address",
          "name": "",
          "type": "address"
        }
      ],
      "stateMutability": "view",
      "type": "function"
    },
    {
      "inputs": [
        {
          "internalType": "address",
          "name": "",
          "type": "address"
        },
        {
          "internalType": "uint256",
          "name": "",
          "type": "uint256"
        }
      ],
      "name": "rewardsRedirectsToFrom",
      "outputs": [
        {
          "internalType": "address",
          "name": "",
          "type": "address"
        }
      ],
      "stateMutability": "view",
      "type": "function"
    },
    {
      "inputs": [
        {
          "internalType": "uint16",
          "name": "aprUD7x3",
          "type": "uint16"
        }
      ],
      "name": "setAPR",
      "outputs": [],
      "stateMutability": "nonpayable",
      "type": "function"
    },
    {
      "inputs": [
        {
          "internalType": "uint32",
          "name": "feesRateUD7x3_",
          "type": "uint32"
        }
      ],
      "name": "setFeesRate",
      "outputs": [],
      "stateMutability": "nonpayable",
      "type": "function"
    },
    {
      "inputs": [
        {
          "internalType": "address payable",
          "name": "fund_",
          "type": "address"
        }
      ],
      "name": "setFund",
      "outputs": [],
      "stateMutability": "nonpayable",
      "type": "function"
    },
    {
      "inputs": [
        {
          "internalType": "address",
          "name": "ldyStakingAddress",
          "type": "address"
        }
      ],
      "name": "setLDYStaking",
      "outputs": [],
      "stateMutability": "nonpayable",
      "type": "function"
    },
    {
      "inputs": [
        {
          "internalType": "uint32",
          "name": "retentionRateUD7x3_",
          "type": "uint32"
        }
      ],
      "name": "setRetentionRate",
      "outputs": [],
      "stateMutability": "nonpayable",
      "type": "function"
    },
    {
      "inputs": [
        {
          "internalType": "address payable",
          "name": "withdrawer_",
          "type": "address"
        }
      ],
      "name": "setWithdrawer",
      "outputs": [],
      "stateMutability": "nonpayable",
      "type": "function"
    },
    {
      "inputs": [
        {
          "internalType": "address",
          "name": "from",
          "type": "address"
        },
        {
          "internalType": "address",
          "name": "to",
          "type": "address"
        }
      ],
      "name": "startRewardsRedirection",
      "outputs": [],
      "stateMutability": "nonpayable",
      "type": "function"
    },
    {
      "inputs": [
        {
          "internalType": "address",
          "name": "from",
          "type": "address"
        },
        {
          "internalType": "address",
          "name": "to",
          "type": "address"
        }
      ],
      "name": "stopRewardsRedirection",
      "outputs": [],
      "stateMutability": "nonpayable",
      "type": "function"
    },
    {
      "inputs": [],
      "name": "symbol",
      "outputs": [
        {
          "internalType": "string",
          "name": "",
          "type": "string"
        }
      ],
      "stateMutability": "view",
      "type": "function"
    },
    {
      "inputs": [],
      "name": "totalQueued",
      "outputs": [
        {
          "internalType": "uint256",
          "name": "",
          "type": "uint256"
        }
      ],
      "stateMutability": "view",
      "type": "function"
    },
    {
      "inputs": [],
      "name": "totalSupply",
      "outputs": [
        {
          "internalType": "uint256",
          "name": "",
          "type": "uint256"
        }
      ],
      "stateMutability": "view",
      "type": "function"
    },
    {
      "inputs": [
        {
          "internalType": "address",
          "name": "to",
          "type": "address"
        },
        {
          "internalType": "uint256",
          "name": "amount",
          "type": "uint256"
        }
      ],
      "name": "transfer",
      "outputs": [
        {
          "internalType": "bool",
          "name": "",
          "type": "bool"
        }
      ],
      "stateMutability": "nonpayable",
      "type": "function"
    },
    {
      "inputs": [
        {
          "internalType": "address",
          "name": "from",
          "type": "address"
        },
        {
          "internalType": "address",
          "name": "to",
          "type": "address"
        },
        {
          "internalType": "uint256",
          "name": "amount",
          "type": "uint256"
        }
      ],
      "name": "transferFrom",
      "outputs": [
        {
          "internalType": "bool",
          "name": "",
          "type": "bool"
        }
      ],
      "stateMutability": "nonpayable",
      "type": "function"
    },
    {
      "inputs": [
        {
          "internalType": "address",
          "name": "newOwner",
          "type": "address"
        }
      ],
      "name": "transferOwnership",
      "outputs": [],
      "stateMutability": "view",
      "type": "function"
    },
    {
      "inputs": [
        {
          "internalType": "uint256",
          "name": "",
          "type": "uint256"
        }
      ],
      "name": "transfersListeners",
      "outputs": [
        {
          "internalType": "contract ITransfersListener",
          "name": "",
          "type": "address"
        }
      ],
      "stateMutability": "view",
      "type": "function"
    },
    {
      "inputs": [],
      "name": "unclaimedFees",
      "outputs": [
        {
          "internalType": "uint256",
          "name": "",
          "type": "uint256"
        }
      ],
      "stateMutability": "view",
      "type": "function"
    },
    {
      "inputs": [],
      "name": "underlying",
      "outputs": [
        {
          "internalType": "contract IERC20Upgradeable",
          "name": "",
          "type": "address"
        }
      ],
      "stateMutability": "view",
      "type": "function"
    },
    {
      "inputs": [
        {
          "internalType": "address",
          "name": "listenerContract",
          "type": "address"
        }
      ],
      "name": "unlistenToTransfers",
      "outputs": [],
      "stateMutability": "nonpayable",
      "type": "function"
    },
    {
      "inputs": [
        {
          "internalType": "address",
          "name": "account",
          "type": "address"
        }
      ],
      "name": "unmintedRewardsOf",
      "outputs": [
        {
          "internalType": "uint256",
          "name": "",
          "type": "uint256"
        }
      ],
      "stateMutability": "view",
      "type": "function"
    },
    {
      "inputs": [
        {
          "internalType": "address",
          "name": "newImplementation",
          "type": "address"
        }
      ],
      "name": "upgradeTo",
      "outputs": [],
      "stateMutability": "nonpayable",
      "type": "function"
    },
    {
      "inputs": [
        {
          "internalType": "address",
          "name": "newImplementation",
          "type": "address"
        },
        {
          "internalType": "bytes",
          "name": "data",
          "type": "bytes"
        }
      ],
      "name": "upgradeToAndCall",
      "outputs": [],
      "stateMutability": "payable",
      "type": "function"
    },
    {
      "inputs": [],
      "name": "usableUnderlyings",
      "outputs": [
        {
          "internalType": "uint256",
          "name": "",
          "type": "uint256"
        }
      ],
      "stateMutability": "view",
      "type": "function"
    },
    {
      "inputs": [
        {
          "internalType": "address",
          "name": "account",
          "type": "address"
        },
        {
          "internalType": "uint256",
          "name": "amount",
          "type": "uint256"
        }
      ],
      "name": "withdrawTo",
      "outputs": [
        {
          "internalType": "bool",
          "name": "",
          "type": "bool"
        }
      ],
      "stateMutability": "pure",
      "type": "function"
    },
    {
      "inputs": [
        {
          "internalType": "uint256",
          "name": "",
          "type": "uint256"
        }
      ],
      "name": "withdrawalQueue",
      "outputs": [
        {
          "internalType": "address",
          "name": "account",
          "type": "address"
        },
        {
          "internalType": "uint96",
          "name": "amount",
          "type": "uint96"
        }
      ],
      "stateMutability": "view",
      "type": "function"
    },
    {
      "inputs": [],
      "name": "withdrawalQueueCursor",
      "outputs": [
        {
          "internalType": "uint256",
          "name": "",
          "type": "uint256"
        }
      ],
      "stateMutability": "view",
      "type": "function"
    },
    {
      "inputs": [],
      "name": "withdrawer",
      "outputs": [
        {
          "internalType": "address payable",
          "name": "",
          "type": "address"
        }
      ],
      "stateMutability": "view",
      "type": "function"
    }
  ],
  "transactionHash": "0x955ba074bd053323c2b4f40656de56b929e8e91e983915ebad67a83b64dfd535",
  "args": [],
  "numDeployments": 1,
  "solcInputHash": "15c81200c85905d33a34abc672a45266",
  "bytecode": "0x60a0604052306080523480156200001557600080fd5b506200002062000026565b620000e7565b600054610100900460ff1615620000935760405162461bcd60e51b815260206004820152602760248201527f496e697469616c697a61626c653a20636f6e747261637420697320696e697469604482015266616c697a696e6760c81b606482015260840160405180910390fd5b60005460ff90811614620000e5576000805460ff191660ff9081179091556040519081527f7f26b83ff96e1f2b6a682f133852f6798a09c465da95921460cefb38474024989060200160405180910390a15b565b608051615f916200011f60003960008181611462015281816114a2015281816118fd0152818161193d01526119d00152615f916000f3fe6080604052600436106103d95760003560e01c80638980f11f116101fd578063c822adda11610118578063dd62ed3e116100ab578063ef356a791161007a578063ef356a7914610b96578063f12d54d814610bab578063f2fde38b14610bca578063f762e73414610bea578063f94ce2c214610c0957600080fd5b8063dd62ed3e14610b11578063ee1335d114610b31578063ee153c4f14610b51578063ef2591af14610b7157600080fd5b8063d038875c116100e7578063d038875c14610a8d578063d039981b14610ac7578063d294f09314610ae7578063db84faac14610afc57600080fd5b8063c822adda14610a05578063c89d5b8b14610a25578063cafb220214610a4d578063cdc1842414610a6c57600080fd5b8063a457c2d711610190578063b2de2a431161015f578063b2de2a431461097a578063b60d42881461098f578063b6b55f25146109b0578063bacd609e146109d057600080fd5b8063a457c2d7146108fa578063a64c91cc1461091a578063a8f763201461093a578063a9059cbb1461095a57600080fd5b806395d89b41116101cc57806395d89b411461089257806399a03c70146108a75780639c271975146108c75780639ee679e8146108e757600080fd5b80638980f11f146108065780638d8e6bd7146108265780638da5cb5b1461085d57806392e5ced71461087257600080fd5b80634134bee9116102f85780636d3a4ac81161028b578063734d82871161025a578063734d8287146107795780637594d0b51461079057806375a5652b146107a75780637c2edb16146107c75780638370e1f7146107e657600080fd5b80636d3a4ac8146107055780636f307dc31461072557806370a0823114610744578063715018a61461076457600080fd5b806353ac4b66116102c757806353ac4b661461067257806353d3a42f146106895780635c975abb146106d05780635f0e8e37146106e557600080fd5b80634134bee91461060a57806345b05d091461062a5780634f1ef2861461064a57806352d1902d1461065d57600080fd5b806323b872dd116103705780633659cfe61161033f5780633659cfe614610571578063391d85ec1461059157806339509351146105ca5780633e7ae353146105ea57600080fd5b806323b872dd146104f55780632a1b8b1c146105155780632f4f21e21461052a578063313ce5671461054a57600080fd5b80631459457a116103ac5780631459457a1461047b57806318160ddd1461049b5780631c19be6d146104be578063205c2878146104d557600080fd5b806306fdde03146103de578063095ea7b3146104095780630d174c24146104395780630e21750f1461045b575b600080fd5b3480156103ea57600080fd5b506103f3610c29565b604051610400919061549e565b60405180910390f35b34801561041557600080fd5b506104296104243660046154e6565b610cbb565b6040519015158152602001610400565b34801561044557600080fd5b50610459610454366004615512565b610cd5565b005b34801561046757600080fd5b50610459610476366004615512565b610d41565b34801561048757600080fd5b5061045961049636600461552f565b610da8565b3480156104a757600080fd5b506104b061100c565b604051908152602001610400565b3480156104ca57600080fd5b506104b06102fe5481565b3480156104e157600080fd5b506104296104f03660046154e6565b611037565b34801561050157600080fd5b506104296105103660046155a0565b611068565b34801561052157600080fd5b5061045961108e565b34801561053657600080fd5b506104296105453660046154e6565b61141d565b34801561055657600080fd5b5061055f61144e565b60405160ff9091168152602001610400565b34801561057d57600080fd5b5061045961058c366004615512565b611458565b34801561059d57600080fd5b506102f9546105b2906001600160a01b031681565b6040516001600160a01b039091168152602001610400565b3480156105d657600080fd5b506104296105e53660046154e6565b611537565b3480156105f657600080fd5b506105b26106053660046154e6565b611559565b34801561061657600080fd5b506104596106253660046155e1565b611592565b34801561063657600080fd5b506104596106453660046155e1565b611786565b610459610658366004615692565b6118f3565b34801561066957600080fd5b506104b06119c3565b34801561067e57600080fd5b506104b06102fd5481565b34801561069557600080fd5b506106a96106a43660046155e1565b611a76565b604080516001600160a01b0390931683526001600160601b03909116602083015201610400565b3480156106dc57600080fd5b50610429611ab2565b3480156106f157600080fd5b50610459610700366004615512565b611abc565b34801561071157600080fd5b50610459610720366004615735565b611c13565b34801561073157600080fd5b506102c6546001600160a01b03166105b2565b34801561075057600080fd5b506104b061075f366004615512565b611cc4565b34801561077057600080fd5b50610459611ce2565b34801561078557600080fd5b506104b06102fc5481565b34801561079c57600080fd5b506104b06103005481565b3480156107b357600080fd5b506104596107c23660046155e1565b611d18565b3480156107d357600080fd5b50610193546001600160a01b03166105b2565b3480156107f257600080fd5b506104596108013660046155e1565b6120d4565b34801561081257600080fd5b506104596108213660046154e6565b612258565b34801561083257600080fd5b506105b2610841366004615512565b610291602052600090815260409020546001600160a01b031681565b34801561086957600080fd5b506105b26122bd565b34801561087e57600080fd5b5061045961088d366004615752565b61232c565b34801561089e57600080fd5b506103f3612563565b3480156108b357600080fd5b506104b06108c2366004615512565b612572565b3480156108d357600080fd5b506104596108e2366004615512565b612590565b6104596108f53660046155e1565b6125eb565b34801561090657600080fd5b506104296109153660046154e6565b612952565b34801561092657600080fd5b50610459610935366004615512565b6129d8565b34801561094657600080fd5b50610459610955366004615752565b612a03565b34801561096657600080fd5b506104296109753660046154e6565b612d39565b34801561098657600080fd5b50610459612d47565b34801561099b57600080fd5b506102fb546105b2906001600160a01b031681565b3480156109bc57600080fd5b506104596109cb3660046155e1565b612e30565b3480156109dc57600080fd5b506109f06109eb3660046154e6565b612f87565b60408051928352602083019190915201610400565b348015610a1157600080fd5b506106a9610a203660046155e1565b6130a3565b348015610a3157600080fd5b50610a3a6130b4565b60405161ffff9091168152602001610400565b348015610a5957600080fd5b5061028e546001600160a01b03166105b2565b348015610a7857600080fd5b506102fa546105b2906001600160a01b031681565b348015610a9957600080fd5b506102fb54610ab290600160a01b900463ffffffff1681565b60405163ffffffff9091168152602001610400565b348015610ad357600080fd5b506104b0610ae2366004615512565b61312c565b348015610af357600080fd5b50610459613139565b348015610b0857600080fd5b506104b06131fa565b348015610b1d57600080fd5b506104b0610b2c366004615752565b613281565b348015610b3d57600080fd5b50610459610b4c36600461579d565b6132ac565b348015610b5d57600080fd5b506105b2610b6c3660046155e1565b613319565b348015610b7d57600080fd5b506102fb54610ab290600160c01b900463ffffffff1681565b348015610ba257600080fd5b506104b0613344565b348015610bb757600080fd5b50610160546001600160a01b03166105b2565b348015610bd657600080fd5b50610459610be5366004615512565b61334f565b348015610bf657600080fd5b5061012d546001600160a01b03166105b2565b348015610c1557600080fd5b50610459610c2436600461579d565b613384565b6060609a8054610c38906157ba565b80601f0160208091040260200160405190810160405280929190818152602001828054610c64906157ba565b8015610cb15780601f10610c8657610100808354040283529160200191610cb1565b820191906000526020600020905b815481529060010190602001808311610c9457829003601f168201915b5050505050905090565b600033610cc98185856133f1565b60019150505b92915050565b610cdd613515565b6001600160a01b038116610d1e5760405162461bcd60e51b81526020600482015260036024820152624c363360e81b60448201526064015b60405180910390fd5b6102fa80546001600160a01b0319166001600160a01b0392909216919091179055565b610d49613515565b6001600160a01b038116610d855760405162461bcd60e51b8152602060048201526003602482015262130d8d60ea1b6044820152606401610d15565b6102fb80546001600160a01b0319166001600160a01b0392909216919091179055565b600054610100900460ff1615808015610dc85750600054600160ff909116105b80610de25750303b158015610de2575060005460ff166001145b610e455760405162461bcd60e51b815260206004820152602e60248201527f496e697469616c697a61626c653a20636f6e747261637420697320616c72656160448201526d191e481a5b9a5d1a585b1a5e995960921b6064820152608401610d15565b6000805460ff191660011790558015610e68576000805461ff0019166101001790555b6000826001600160a01b03166395d89b416040518163ffffffff1660e01b8152600401600060405180830381865afa158015610ea8573d6000803e3d6000fd5b505050506040513d6000823e601f3d908101601f19168201604052610ed091908101906157ee565b9050610f1d87878784604051602001610ee99190615865565b60405160208183030381529060405285604051602001610f099190615895565b604051602081830303815290604052613576565b610f26836135ba565b610f2f306135ea565b6102f980546001600160a01b0319166001600160a01b0386161790556102fb805467ffffffffffffffff60a01b19166509c40000004b60a21b179055610f736122bd565b6102fa80546001600160a01b0319166001600160a01b0392909216919091179055610f9c6122bd565b6102fb80546001600160a01b0319166001600160a01b0392909216919091179055508015611004576000805461ff0019169055604051600181527f7f26b83ff96e1f2b6a682f133852f6798a09c465da95921460cefb38474024989060200160405180910390a15b505050505050565b60006102fc546102fd5461101e613344565b61102891906158d4565b61103291906158d4565b905090565b60405162461bcd60e51b81526020600482015260036024820152624c343560e81b6044820152600090606401610d15565b600033611076858285613694565b61108185858561370e565b60019150505b9392505050565b6102fa546001600160a01b0316336001600160a01b0316146110d85760405162461bcd60e51b81526020600482015260036024820152624c333960e81b6044820152606401610d15565b6110e06138ca565b610300546102ff5460009182915b808210156113c05761afc85a106113c05760006102ff8381548110611115576111156158e7565b6000918252602091829020604080518082019091529101546001600160a01b038116808352600160a01b9091046001600160601b0316928201929092529150156113ad57805161116490613912565b156111e6576102ff838154811061117d5761117d6158e7565b60009182526020808320909101829055610301805460018101825592528251908301516001600160601b0316600160a01b026001600160a01b0391909116177fe78f8e39db67a8c6e0d54c288efc6f296f5d558bc028138a8476c9b97f6fcaa4909101556113ad565b60026111f06131fa565b6111fa91906158fd565b81602001516001600160601b031611156112c65760208101516102ff5460405160019233928792600080516020615f3c833981519152926112419290918291600391615941565b60405180910390a46102ff838154811061125d5761125d6158e7565b600091825260208083209091018290556102ff805460018101825592528251908301516001600160601b0316600160a01b026001600160a01b0391909116177f5a4a1f748f8cfa795b59cdc37192794ee567e6029e925719381be08d7ccaf4ec909101556113ad565b6000806112e4836000015184602001516001600160601b0316612f87565b91509150856102fe546112f79190615975565b821115611306575050506113c0565b61131081886158d4565b965061131c82876158d4565b9550600183600001516001600160a01b031686600080516020615f3c83398151915286602001518660026000196040516113599493929190615988565b60405180910390a46102ff8581548110611375576113756158e7565b600091825260208220015582516113aa908361139a6102c6546001600160a01b031690565b6001600160a01b03169190613982565b50505b826113b7816159ac565b935050506110ee565b836102fc60008282546113d391906158d4565b92505081905550826102fe60008282546113ed9190615975565b909155506113fd905084846158d4565b6102fd600082825461140f9190615975565b909155505050610300555050565b60405162461bcd60e51b8152602060048201526003602482015262261a1b60e91b6044820152600090606401610d15565b60006110326139e5565b6001600160a01b037f00000000000000000000000000000000000000000000000000000000000000001630036114a05760405162461bcd60e51b8152600401610d15906159c5565b7f00000000000000000000000000000000000000000000000000000000000000006001600160a01b03166114e9600080516020615ef5833981519152546001600160a01b031690565b6001600160a01b03161461150f5760405162461bcd60e51b8152600401610d1590615a11565b61151881613a5b565b6040805160008082526020820190925261153491839190613a63565b50565b600033610cc981858561154a8383613281565b61155491906158d4565b6133f1565b610292602052816000526040600020818154811061157657600080fd5b6000918252602090912001546001600160a01b03169150829050565b61159a6138ca565b336115a481613912565b156115c15760405162461bcd60e51b8152600401610d1590615a5d565b6115ca33611cc4565b8211156115ff5760405162461bcd60e51b815260206004820152600360248201526209868760eb1b6044820152606401610d15565b60006102fe54836102fd5461161491906158d4565b6102f95491101591506000906002906001600160a01b031663c8f74bb8336040516001600160e01b031960e084901b1681526001600160a01b039091166004820152602401602060405180830381865afa158015611676573d6000803e3d6000fd5b505050506040513d601f19601f8201168201806040525081019061169a9190615a79565b101580156116ab57506102fe548411155b905081806116b65750805b6116e85760405162461bcd60e51b81526020600482015260036024820152624c343960e81b6044820152606401610d15565b6000806116f53387612f87565b91509150806102fc600082825461170c91906158d4565b92505081905550816102fe60008282546117269190615975565b9091555060019050336001600160a01b0316600019600080516020615f3c833981519152898660026000196040516117619493929190615a92565b60405180910390a46117733382613bce565b61177d3383613d15565b50505050505050565b61178e6138ca565b3361179881613912565b156117b55760405162461bcd60e51b8152600401610d1590615a5d565b60006102ff83815481106117cb576117cb6158e7565b6000918252602091829020604080518082019091529101546001600160a01b038116808352600160a01b9091046001600160601b0316928201929092529150336001600160a01b0316146118475760405162461bcd60e51b81526020600482015260036024820152624c353760e81b6044820152606401610d15565b80602001516001600160601b03166102fd60008282546118679190615975565b90915550506102ff805484908110611881576118816158e7565b6000918252602082200155600181600001516001600160a01b031684600080516020615f3c8339815191528460200151856020015160016000196040516118cb9493929190615941565b60405180910390a46118ee816000015182602001516001600160601b0316613d42565b505050565b6001600160a01b037f000000000000000000000000000000000000000000000000000000000000000016300361193b5760405162461bcd60e51b8152600401610d15906159c5565b7f00000000000000000000000000000000000000000000000000000000000000006001600160a01b0316611984600080516020615ef5833981519152546001600160a01b031690565b6001600160a01b0316146119aa5760405162461bcd60e51b8152600401610d1590615a11565b6119b382613a5b565b6119bf82826001613a63565b5050565b6000306001600160a01b037f00000000000000000000000000000000000000000000000000000000000000001614611a635760405162461bcd60e51b815260206004820152603860248201527f555550535570677261646561626c653a206d757374206e6f742062652063616c60448201527f6c6564207468726f7567682064656c656761746563616c6c00000000000000006064820152608401610d15565b50600080516020615ef583398151915290565b6103018181548110611a8757600080fd5b6000918252602090912001546001600160a01b0381169150600160a01b90046001600160601b031682565b6000611032613e17565b611ac4613515565b610302546000199060005b81811015611b2957836001600160a01b03166103028281548110611af557611af56158e7565b6000918252602090912001546001600160a01b031603611b1757809250611b29565b80611b21816159ac565b915050611acf565b506000198213611b615760405162461bcd60e51b8152602060048201526003602482015262261a1960e91b6044820152606401610d15565b610302611b6f600183615975565b81548110611b7f57611b7f6158e7565b60009182526020909120015461030280546001600160a01b039092169184908110611bac57611bac6158e7565b9060005260206000200160006101000a8154816001600160a01b0302191690836001600160a01b03160217905550610302805480611bec57611bec615aad565b600082815260209020810160001990810180546001600160a01b0319169055019055505050565b611c1b613515565b60405163433e3bad60e11b8152610290600482015261ffff82166024820152739b508ABEbB61a0C24d28A728BB45834e440e47619063867c775a9060440160006040518083038186803b158015611c7157600080fd5b505af4158015611c85573d6000803e3d6000fd5b505060405161ffff841681527f3d6d63f501ae621a01c729938fb4428a25138835257943d6b56c49b402ba36329250602001905060405180910390a150565b6000611ccf8261312c565b611cd883612572565b610ccf91906158d4565b611cea613515565b60405162461bcd60e51b81526020600482015260036024820152624c363560e81b6044820152606401610d15565b6102fb546001600160a01b0316336001600160a01b031614611d625760405162461bcd60e51b815260206004820152600360248201526204c34360ec1b6044820152606401610d15565b611d6a6138ca565b60006102ff8281548110611d8057611d806158e7565b6000918252602091829020604080518082019091529101546001600160a01b038116808352600160a01b9091046001600160601b0316928201929092529150611df15760405162461bcd60e51b8152602060048201526003602482015262261b1b60e91b6044820152606401610d15565b8051611dfc90613912565b15611e2f5760405162461bcd60e51b815260206004820152600360248201526204c35360ec1b6044820152606401610d15565b6002611e396131fa565b611e4391906158fd565b81602001516001600160601b031611611e845760405162461bcd60e51b81526020600482015260036024820152624c353160e81b6044820152606401610d15565b600080611ea2836000015184602001516001600160601b0316612f87565b915091506000611ebb6102c6546001600160a01b031690565b6102fb546040516370a0823160e01b81526001600160a01b0391821660048201529116906370a0823190602401602060405180830381865afa158015611f05573d6000803e3d6000fd5b505050506040513d601f19601f82011682018060405250810190611f299190615a79565b9050806102fe54611f3a91906158d4565b831115611f6f5760405162461bcd60e51b8152602060048201526003602482015262261a9960e91b6044820152606401610d15565b816102fc6000828254611f8291906158d4565b9250508190555083602001516001600160601b03166102fd6000828254611fa99190615975565b9091555050610300548503611fcf576103008054906000611fc9836159ac565b91905055505b600184600001516001600160a01b031686600080516020615f3c833981519152876020015187600260001960405161200a9493929190615988565b60405180910390a46102ff8581548110612026576120266158e7565b600091825260208220015580831161206857612063338551856120526102c6546001600160a01b031690565b6001600160a01b0316929190613e86565b6120c5565b60006120748285615975565b9050806102fe60008282546120899190615975565b909155506120a99050338651846120526102c6546001600160a01b031690565b84516120c3908261139a6102c6546001600160a01b031690565b505b6120cd613ebe565b5050505050565b6102fb546001600160a01b0316336001600160a01b03161461211e5760405162461bcd60e51b815260206004820152600360248201526204c34360ec1b6044820152606401610d15565b6121266138ca565b6102c6546001600160a01b03166102fb546040516370a0823160e01b81526001600160a01b0391821660048201529116906370a0823190602401602060405180830381865afa15801561217d573d6000803e3d6000fd5b505050506040513d601f19601f820116820180604052508101906121a19190615a79565b8111156121d65760405162461bcd60e51b81526020600482015260036024820152620986a760eb1b6044820152606401610d15565b6000816102fe546121e791906158d4565b90506121f16131fa565b8111156122265760405162461bcd60e51b81526020600482015260036024820152624c353960e81b6044820152606401610d15565b816102fe600082825461223991906158d4565b909155506119bf90503330846120526102c6546001600160a01b031690565b612260613515565b6102c6546001600160a01b03166001600160a01b0316826001600160a01b0316036122b35760405162461bcd60e51b81526020600482015260036024820152624c343360e81b6044820152606401610d15565b6119bf8282613f27565b61012d5460408051638da5cb5b60e01b815290516000926001600160a01b031691638da5cb5b9160048083019260209291908290030181865afa158015612308573d6000803e3d6000fd5b505050506040513d601f19601f820116820180604052508101906110329190615ac3565b6123346138ca565b8161233e81613912565b1561235b5760405162461bcd60e51b8152600401610d1590615a5d565b8161236581613912565b156123825760405162461bcd60e51b8152600401610d1590615a5d565b6001600160a01b038481166000908152610291602052604090205416156123d15760405162461bcd60e51b8152602060048201526003602482015262261b1960e91b6044820152606401610d15565b6001600160a01b03841661240d5760405162461bcd60e51b815260206004820152600360248201526226189960e91b6044820152606401610d15565b6001600160a01b0383166124495760405162461bcd60e51b81526020600482015260036024820152624c313360e81b6044820152606401610d15565b826001600160a01b0316846001600160a01b0316036124905760405162461bcd60e51b8152602060048201526003602482015262130c4d60ea1b6044820152606401610d15565b6124986122bd565b6001600160a01b0316336001600160a01b031614806124bf5750336001600160a01b038516145b6124f15760405162461bcd60e51b81526020600482015260036024820152624c313560e81b6044820152606401610d15565b6124fc846001614019565b612507836001614019565b50506001600160a01b039182166000818152610291602090815260408083208054969095166001600160a01b03199687168117909555938252610292815292812080546001810182559082529290209091018054909216179055565b6060609b8054610c38906157ba565b6001600160a01b038116600090815260976020526040812054610ccf565b612598613515565b61030280546001810182556000919091527f552430c2010355dda19e8bae437f75cfb136cb8d667c4c0867367db21eee69b60180546001600160a01b0319166001600160a01b0392909216919091179055565b6125f36138ca565b336125fd81613912565b1561261a5760405162461bcd60e51b8152600401610d1590615a5d565b61262333611cc4565b8211156126585760405162461bcd60e51b81526020600482015260036024820152624c353360e81b6044820152606401610d15565b6001600160601b038211156126955760405162461bcd60e51b8152602060048201526003602482015262130d4d60ea1b6044820152606401610d15565b34660aa87bee538000146126d15760405162461bcd60e51b81526020600482015260036024820152624c353560e81b6044820152606401610d15565b600060405180604001604052806126e53390565b6001600160a01b0390811682526001600160601b0386166020909201919091526102f9549192506000916002911663c8f74bb8336040516001600160e01b031960e084901b1681526001600160a01b039091166004820152602401602060405180830381865afa15801561275d573d6000803e3d6000fd5b505050506040513d601f19601f820116820180604052508101906127819190615a79565b101580156127925750600061030054115b156128005761030080549060006127a883615ae0565b9190505550610300549050816102ff82815481106127c8576127c86158e7565b6000918252602091829020835193909201516001600160601b0316600160a01b026001600160a01b039093169290921791015561286a565b6102ff8054600181810183556000839052845160208601516001600160601b0316600160a01b026001600160a01b03909116177f5a4a1f748f8cfa795b59cdc37192794ee567e6029e925719381be08d7ccaf4ec9092019190915590546128679190615975565b90505b836102fd600082825461287d91906158d4565b9091555060019050336001600160a01b031682600080516020615f3c833981519152878860006000196040516128b69493929190615a92565b60405180910390a46128c83385613bce565b6102fa546040516000916001600160a01b03169034908381818185875af1925050503d8060008114612916576040519150601f19603f3d011682016040523d82523d6000602084013e61291b565b606091505b50509050806120cd5760405162461bcd60e51b8152602060048201526003602482015262261a9b60e91b6044820152606401610d15565b600033816129608286613281565b9050838110156129c05760405162461bcd60e51b815260206004820152602560248201527f45524332303a2064656372656173656420616c6c6f77616e63652062656c6f77604482015264207a65726f60d81b6064820152608401610d15565b6129cd82868684036133f1565b506001949350505050565b6129e0613515565b6102f980546001600160a01b0319166001600160a01b0392909216919091179055565b612a0b6138ca565b81612a1581613912565b15612a325760405162461bcd60e51b8152600401610d1590615a5d565b81612a3c81613912565b15612a595760405162461bcd60e51b8152600401610d1590615a5d565b6001600160a01b038416612a955760405162461bcd60e51b815260206004820152600360248201526226189b60e91b6044820152606401610d15565b6001600160a01b038316612ad15760405162461bcd60e51b81526020600482015260036024820152624c313760e81b6044820152606401610d15565b612ad96122bd565b6001600160a01b0316336001600160a01b03161480612b005750336001600160a01b038516145b612b325760405162461bcd60e51b815260206004820152600360248201526209862760eb1b6044820152606401610d15565b6001600160a01b0384811660009081526102916020526040902054811690841614612b855760405162461bcd60e51b81526020600482015260036024820152624c313960e81b6044820152606401610d15565b612b90846001614019565b612b9b836001614019565b60001960005b6001600160a01b03851660009081526102926020526040902054811015612c26576001600160a01b0385811660009081526102926020526040902080549188169183908110612bf257612bf26158e7565b6000918252602090912001546001600160a01b031603612c1457809150612c26565b80612c1e816159ac565b915050612ba1565b506000811215612c3857612c38615af7565b6001600160a01b0380861660009081526102916020908152604080832080546001600160a01b031916905592871682526102929052208054612c7c90600190615975565b81548110612c8c57612c8c6158e7565b60009182526020808320909101546001600160a01b0387811684526102929092526040909220805491909216919083908110612cca57612cca6158e7565b600091825260208083209190910180546001600160a01b0319166001600160a01b03948516179055918616815261029290915260409020805480612d1057612d10615aad565b600082815260209020810160001990810180546001600160a01b03191690550190555050505050565b600033610cc981858561370e565b612d4f613515565b60006102fe54612d686102c6546001600160a01b031690565b6040516370a0823160e01b81523060048201526001600160a01b0391909116906370a0823190602401602060405180830381865afa158015612dae573d6000803e3d6000fd5b505050506040513d601f19601f82011682018060405250810190612dd29190615a79565b612ddc9190615975565b905060008111612e145760405162461bcd60e51b8152602060048201526003602482015262130d0d60ea1b6044820152606401610d15565b611534612e2a6102c6546001600160a01b031690565b82613f27565b612e386138ca565b33612e4281613912565b15612e5f5760405162461bcd60e51b8152600401610d1590615a5d565b81612e736102c6546001600160a01b031690565b6001600160a01b03166370a08231336040516001600160e01b031960e084901b1681526001600160a01b039091166004820152602401602060405180830381865afa158015612ec6573d6000803e3d6000fd5b505050506040513d601f19601f82011682018060405250810190612eea9190615a79565b1015612f1e5760405162461bcd60e51b81526020600482015260036024820152624c343760e81b6044820152606401610d15565b816102fe6000828254612f3191906158d4565b9091555060009050336001600160a01b0316600019600080516020615f3c83398151915285866002600019604051612f6c9493929190615a92565b60405180910390a4612f7e33836140ee565b506119bf613ebe565b6102f95460405163191ee97760e31b81526001600160a01b03848116600483015260009283926002929091169063c8f74bb890602401602060405180830381865afa158015612fda573d6000803e3d6000fd5b505050506040513d601f19601f82011682018060405250810190612ffe9190615a79565b1061300e5750819050600061309c565b600061302b61302661028e546001600160a01b031690565b61416f565b9050600061303985836141dc565b6102fb5490915060009061305a90600160a01b900463ffffffff168461421a565b90506000613069606485614246565b6130738385615b0d565b61307d91906158fd565b90506130898185614274565b94506130958588615975565b9550505050505b9250929050565b6102ff8181548110611a8757600080fd5b60405163106d64cf60e31b81526102906004820152600090739b508ABEbB61a0C24d28A728BB45834e440e47619063836b267890602401602060405180830381865af4158015613108573d6000803e3d6000fd5b505050506040513d601f19601f820116820180604052508101906110329190615b24565b6000610ccf8260016142ab565b613141613515565b60006102fc541161317a5760405162461bcd60e51b815260206004820152600360248201526204c36360ec1b6044820152606401610d15565b6102fc546102fe5410156131b65760405162461bcd60e51b81526020600482015260036024820152624c363160e81b6044820152606401610d15565b6102fc546102fe60008282546131cc9190615975565b90915550506102fc805460009091556115346131e66122bd565b8261139a6102c6546001600160a01b031690565b60008061321361302661028e546001600160a01b031690565b9050600061322861322261100c565b836141dc565b6102fb5490915060009061324990600160c01b900463ffffffff168461421a565b90506000613258606485614246565b6132628385615b0d565b61326c91906158fd565b90506132788185614274565b94505050505090565b6001600160a01b03918216600090815260986020908152604080832093909416825291909152205490565b6132b4613515565b614e2063ffffffff821611156132f25760405162461bcd60e51b815260206004820152600360248201526209870760eb1b6044820152606401610d15565b6102fb805463ffffffff909216600160a01b0263ffffffff60a01b19909216919091179055565b610302818154811061332a57600080fd5b6000918252602090912001546001600160a01b0316905081565b600061103260995490565b613357613515565b60405162461bcd60e51b8152602060048201526002602482015261098760f31b6044820152606401610d15565b61338c613515565b61271063ffffffff821611156133ca5760405162461bcd60e51b81526020600482015260036024820152624c343160e81b6044820152606401610d15565b6102fb805463ffffffff909216600160c01b0263ffffffff60c01b19909216919091179055565b6001600160a01b0383166134535760405162461bcd60e51b8152602060048201526024808201527f45524332303a20617070726f76652066726f6d20746865207a65726f206164646044820152637265737360e01b6064820152608401610d15565b6001600160a01b0382166134b45760405162461bcd60e51b815260206004820152602260248201527f45524332303a20617070726f766520746f20746865207a65726f206164647265604482015261737360f01b6064820152608401610d15565b6001600160a01b0383811660008181526098602090815260408083209487168084529482529182902085905590518481527f8c5be1e5ebec7d5bd14f71427d1e84f3dd0314c0f7b2291e5b200ac8c7c3b925910160405180910390a3505050565b3361351e6122bd565b6001600160a01b0316146135745760405162461bcd60e51b815260206004820181905260248201527f4f776e61626c653a2063616c6c6572206973206e6f7420746865206f776e65726044820152606401610d15565b565b600054610100900460ff1661359d5760405162461bcd60e51b8152600401610d1590615b41565b6135a8858585614811565b6135b2828261486b565b6120cd61489c565b600054610100900460ff166135e15760405162461bcd60e51b8152600401610d1590615b41565b611534816148c3565b600054610100900460ff166136115760405162461bcd60e51b8152600401610d1590615b41565b61028e80546001600160a01b0319166001600160a01b03831617905560405163433e3bad60e11b8152610290600482015260006024820152739b508ABEbB61a0C24d28A728BB45834e440e47619063867c775a9060440160006040518083038186803b15801561368057600080fd5b505af41580156120cd573d6000803e3d6000fd5b60006136a08484613281565b9050600019811461370857818110156136fb5760405162461bcd60e51b815260206004820152601d60248201527f45524332303a20696e73756666696369656e7420616c6c6f77616e63650000006044820152606401610d15565b61370884848484036133f1565b50505050565b6001600160a01b0383166137725760405162461bcd60e51b815260206004820152602560248201527f45524332303a207472616e736665722066726f6d20746865207a65726f206164604482015264647265737360d81b6064820152608401610d15565b6001600160a01b0382166137d45760405162461bcd60e51b815260206004820152602360248201527f45524332303a207472616e7366657220746f20746865207a65726f206164647260448201526265737360e81b6064820152608401610d15565b6137df838383614965565b6001600160a01b038316600090815260976020526040902054818110156138575760405162461bcd60e51b815260206004820152602660248201527f45524332303a207472616e7366657220616d6f756e7420657863656564732062604482015265616c616e636560d01b6064820152608401610d15565b6001600160a01b0380851660008181526097602052604080822086860390559286168082529083902080548601905591517fddf252ad1be2c89b69c2b068fc378daa952ba7f163c4a11628f55a4df523b3ef906138b79086815260200190565b60405180910390a36137088484846149a4565b6138d2611ab2565b156135745760405162461bcd60e51b815260206004820152601060248201526f14185d5cd8589b194e881c185d5cd95960821b6044820152606401610d15565b6101935460405163fe575a8760e01b81526001600160a01b038381166004830152600092169063fe575a8790602401602060405180830381865afa15801561395e573d6000803e3d6000fd5b505050506040513d601f19601f82011682018060405250810190610ccf9190615b8c565b6040516001600160a01b0383166024820152604481018290526118ee90849063a9059cbb60e01b906064015b60408051601f198184030181529190526020810180516001600160e01b03166001600160e01b031990931692909217909152614aad565b6102c6546040805163313ce56760e01b815290516000926001600160a01b03169163313ce5679160048083019260209291908290030181865afa925050508015613a4c575060408051601f3d908101601f19168201909252613a4991810190615bae565b60015b613a565750601290565b919050565b611534613515565b7f4910fdfa16fed3260ed0e7147f7cc6da11a60208b5b9406d12a635614ffd91435460ff1615613a96576118ee83614b82565b826001600160a01b03166352d1902d6040518163ffffffff1660e01b8152600401602060405180830381865afa925050508015613af0575060408051601f3d908101601f19168201909252613aed91810190615a79565b60015b613b535760405162461bcd60e51b815260206004820152602e60248201527f45524331393637557067726164653a206e657720696d706c656d656e7461746960448201526d6f6e206973206e6f74205555505360901b6064820152608401610d15565b600080516020615ef58339815191528114613bc25760405162461bcd60e51b815260206004820152602960248201527f45524331393637557067726164653a20756e737570706f727465642070726f786044820152681a58589b195555525160ba1b6064820152608401610d15565b506118ee838383614c1e565b6001600160a01b038216613c2e5760405162461bcd60e51b815260206004820152602160248201527f45524332303a206275726e2066726f6d20746865207a65726f206164647265736044820152607360f81b6064820152608401610d15565b613c3a82600083614965565b6001600160a01b03821660009081526097602052604090205481811015613cae5760405162461bcd60e51b815260206004820152602260248201527f45524332303a206275726e20616d6f756e7420657863656564732062616c616e604482015261636560f01b6064820152608401610d15565b6001600160a01b03831660008181526097602090815260408083208686039055609980548790039055518581529192917fddf252ad1be2c89b69c2b068fc378daa952ba7f163c4a11628f55a4df523b3ef910160405180910390a36118ee836000846149a4565b6000613d213383613bce565b6102c654613d39906001600160a01b03168484613982565b50600192915050565b6001600160a01b038216613d985760405162461bcd60e51b815260206004820152601f60248201527f45524332303a206d696e7420746f20746865207a65726f2061646472657373006044820152606401610d15565b613da460008383614965565b8060996000828254613db691906158d4565b90915550506001600160a01b0382166000818152609760209081526040808320805486019055518481527fddf252ad1be2c89b69c2b068fc378daa952ba7f163c4a11628f55a4df523b3ef910160405180910390a36119bf600083836149a4565b6101605460408051635c975abb60e01b815290516000926001600160a01b031691635c975abb9160048083019260209291908290030181865afa158015613e62573d6000803e3d6000fd5b505050506040513d601f19601f820116820180604052508101906110329190615b8c565b6040516001600160a01b03808516602483015283166044820152606481018290526137089085906323b872dd60e01b906084016139ae565b6000613ec86131fa565b9050806102fe5411613ed75750565b6000816102fe54613ee89190615975565b9050806102fe6000828254613efd9190615975565b90915550506102fb546119bf906001600160a01b03168261139a6102c6546001600160a01b031690565b613f2f613515565b60008111613f655760405162461bcd60e51b815260206004820152600360248201526204c31360ec1b6044820152606401610d15565b6040516370a0823160e01b8152306004820152829082906001600160a01b038316906370a0823190602401602060405180830381865afa158015613fad573d6000803e3d6000fd5b505050506040513d601f19601f82011682018060405250810190613fd19190615a79565b10156140055760405162461bcd60e51b81526020600482015260036024820152624c313160e81b6044820152606401610d15565b6118ee6001600160a01b0382163384613982565b6102935460ff1615614029575050565b6001600160a01b038216600090815261028f602052604090205464ffffffffff428116911603614057575050565b6001600160a01b0380831660009081526102916020526040902054168015614083576118ee8183614019565b600061408f84846142ab565b905080156140e557610293805460ff1916600117905560006140b18583614c43565b610293805460ff191690559050806140e3576001600160a01b038516600090815261028f602052604090206003018290555b505b61370884614c9a565b60003330810361414c5760405162461bcd60e51b815260206004820152602360248201527f4552433230577261707065723a20777261707065722063616e2774206465706f6044820152621cda5d60ea1b6064820152608401610d15565b6102c654614165906001600160a01b0316823086613e86565b610cc98484613d42565b6000816001600160a01b031663313ce5676040518163ffffffff1660e01b8152600401602060405180830381865afa1580156141af573d6000803e3d6000fd5b505050506040513d601f19601f820116820180604052508101906141d39190615bae565b60ff1692915050565b6000600382101561420e576141f2826006615975565b6141fd90600a615cb5565b6142079084615b0d565b9050610ccf565b611087836103e8615b0d565b6000600382101561423157614207836103e8615b0d565b61423c82600a615cb5565b6110879084615b0d565b6000600382101561425e5761420783620f4240615b0d565b6142698260036158d4565b61423c90600a615cb5565b6000600382101561429f5761428a826006615975565b61429590600a615cb5565b61420790846158fd565b6110876103e8846158fd565b6001600160a01b038216600090815261028f602090815260408083208151608081018352815464ffffffffff16818401908152835180850190945260018301548452600283015463ffffffff1684860152606082019390935291825260030154918101919091528161431c85614dfc565b82515190915064ffffffffff161580614333575080155b1561434357600092505050610ccf565b815160200151604051630b27cfb160e31b8152600090739b508ABEbB61a0C24d28A728BB45834e440e47619063593e7d889061438790610290908690600401615cc1565b6040805180830381865af41580156143a3573d6000803e3d6000fd5b505050506040513d601f19601f820116820180604052508101906143c79190615ce5565b60405163038255fd60e11b81526102906004820152909150600090739b508ABEbB61a0C24d28A728BB45834e440e476190630704abfa906024016040805180830381865af415801561441d573d6000803e3d6000fd5b505050506040513d601f19601f820116820180604052508101906144419190615d30565b905084602001519550739b508ABEbB61a0C24d28A728BB45834e440e4761634ead0c5384836040518363ffffffff1660e01b8152600401614483929190615d5c565b602060405180830381865af41580156144a0573d6000803e3d6000fd5b505050506040513d601f19601f820116820180604052508101906144c49190615b8c565b6147d557604051633e1e5c5360e11b8152600090739b508ABEbB61a0C24d28A728BB45834e440e476190637c3cb8a690614502908790600401615d90565b6040805180830381865af415801561451e573d6000803e3d6000fd5b505050506040513d601f19601f820116820180604052508101906145429190615d30565b604051630b27cfb160e31b8152909150600090739b508ABEbB61a0C24d28A728BB45834e440e47619063593e7d889061458390610290908690600401615cc1565b6040805180830381865af415801561459f573d6000803e3d6000fd5b505050506040513d601f19601f820116820180604052508101906145c39190615ce5565b875151602082015186519293506145f1928c6145e05760006145e2565b8b5b6145ec908b6158d4565b614ea5565b6145fb90896158d4565b97505b819450809350739b508ABEbB61a0C24d28A728BB45834e440e4761634ead0c5386856040518363ffffffff1660e01b815260040161463d929190615d5c565b602060405180830381865af415801561465a573d6000803e3d6000fd5b505050506040513d601f19601f8201168201806040525081019061467e9190615b8c565b6147a857604051633e1e5c5360e11b8152739b508ABEbB61a0C24d28A728BB45834e440e476190637c3cb8a6906146b9908890600401615d90565b6040805180830381865af41580156146d5573d6000803e3d6000fd5b505050506040513d601f19601f820116820180604052508101906146f99190615d30565b604051630b27cfb160e31b8152909250739b508ABEbB61a0C24d28A728BB45834e440e47619063593e7d889061473790610290908690600401615cc1565b6040805180830381865af4158015614753573d6000803e3d6000fd5b505050506040513d601f19601f820116820180604052508101906147779190615ce5565b90506147978460200151826020015186600001518c6145e05760006145e2565b6147a190896158d4565b97506145fe565b6147c284602001514286600001518c6145e05760006145e2565b6147cc90896158d4565b97505050614806565b84515182516147f9919042908a6147ed5760006147ef565b895b6145ec90896158d4565b61480390876158d4565b95505b505050505092915050565b600054610100900460ff166148385760405162461bcd60e51b8152600401610d1590615b41565b61484061489c565b61484983614f91565b614851614fc1565b61485a82614ff0565b6148638161503a565b6118ee61489c565b600054610100900460ff166148925760405162461bcd60e51b8152600401610d1590615b41565b6119bf8282615084565b600054610100900460ff166135745760405162461bcd60e51b8152600401610d1590615b41565b600054610100900460ff166148ea5760405162461bcd60e51b8152600401610d1590615b41565b306001600160a01b038216036149425760405162461bcd60e51b815260206004820152601e60248201527f4552433230577261707065723a2063616e6e6f742073656c66207772617000006044820152606401610d15565b6102c680546001600160a01b0319166001600160a01b0392909216919091179055565b6149708383836150c4565b6001600160a01b0383161561498a5761498a836001614019565b6001600160a01b038216156118ee576118ee826001614019565b6001600160a01b03831615806149c157506001600160a01b038216155b15614a01577f980f7e6fb44009001d533a10bc3bd558b4efe22dcb4888bca4767aa93c71ce1f6149ef61100c565b60405190815260200160405180910390a15b60005b61030254811015613708576103028181548110614a2357614a236158e7565b600091825260209091200154604051636e0d037d60e11b81526001600160a01b0386811660048301528581166024830152604482018590529091169063dc1a06fa90606401600060405180830381600087803b158015614a8257600080fd5b505af1158015614a96573d6000803e3d6000fd5b505050508080614aa5906159ac565b915050614a04565b6000614b02826040518060400160405280602081526020017f5361666545524332303a206c6f772d6c6576656c2063616c6c206661696c6564815250856001600160a01b03166151259092919063ffffffff16565b9050805160001480614b23575080806020019051810190614b239190615b8c565b6118ee5760405162461bcd60e51b815260206004820152602a60248201527f5361666545524332303a204552433230206f7065726174696f6e20646964206e6044820152691bdd081cdd58d8d9595960b21b6064820152608401610d15565b6001600160a01b0381163b614bef5760405162461bcd60e51b815260206004820152602d60248201527f455243313936373a206e657720696d706c656d656e746174696f6e206973206e60448201526c1bdd08184818dbdb9d1c9858dd609a1b6064820152608401610d15565b600080516020615ef583398151915280546001600160a01b0319166001600160a01b0392909216919091179055565b614c2783615134565b600082511180614c345750805b156118ee576137088383615174565b6000826001600160a01b03167f05a71d417f891ba4b7a94b48d1b1f4b59b070921cba593b3c72a05a5587a78a9614c7985612572565b60408051918252602082018690520160405180910390a2613d398383613d42565b6001600160a01b038116600090815261028f602052604090819020805464ffffffffff19164264ffffffffff161790555163038255fd60e11b81526102906004820152739b508ABEbB61a0C24d28A728BB45834e440e476190630704abfa906024016040805180830381865af4158015614d18573d6000803e3d6000fd5b505050506040513d601f19601f82011682018060405250810190614d3c9190615d30565b6001600160a01b038216600090815261028f602090815260408220835160018201559201516002909201805463ffffffff191663ffffffff909316929092179091555b6001600160a01b038216600090815261029260205260409020548110156119bf576001600160a01b0382166000908152610292602052604090208054614dea919083908110614dd057614dd06158e7565b6000918252602090912001546001600160a01b0316614c9a565b80614df4816159ac565b915050614d7f565b6000614e0782615199565b614e1190826158d4565b905060005b6001600160a01b03831660009081526102926020526040902054811015614e9f576001600160a01b0383166000908152610292602052604090208054614e81919083908110614e6757614e676158e7565b6000918252602090912001546001600160a01b0316614dfc565b614e8b90836158d4565b915080614e97816159ac565b915050614e16565b50919050565b600080614ebe61302661028e546001600160a01b031690565b90506000614edc614ecf8888615dad565b64ffffffffff1683614246565b90506000614eee6301e1338084614246565b614ef9600185614246565b614f039084615b0d565b614f0d91906158fd565b90506000614f1f8761ffff168561421a565b90506000614f2e600186614246565b614f388385615b0d565b614f4291906158fd565b90506000614f5088876141dc565b90506000614f5f606488614246565b614f698484615b0d565b614f7391906158fd565b9050614f7f8188614274565b9750505050505050505b949350505050565b600054610100900460ff16614fb85760405162461bcd60e51b8152600401610d1590615b41565b611534816151a4565b600054610100900460ff16614fe85760405162461bcd60e51b8152600401610d1590615b41565b6135746151ee565b600054610100900460ff166150175760405162461bcd60e51b8152600401610d1590615b41565b61016080546001600160a01b0319166001600160a01b0392909216919091179055565b600054610100900460ff166150615760405162461bcd60e51b8152600401610d1590615b41565b61019380546001600160a01b0319166001600160a01b0392909216919091179055565b600054610100900460ff166150ab5760405162461bcd60e51b8152600401610d1590615b41565b609a6150b78382615e18565b50609b6118ee8282615e18565b6150cc6138ca565b826150d681613912565b156150f35760405162461bcd60e51b8152600401610d1590615a5d565b826150fd81613912565b1561511a5760405162461bcd60e51b8152600401610d1590615a5d565b6120cd858585615221565b6060614f898484600085615289565b61513d81614b82565b6040516001600160a01b038216907fbc7cd75a20ee27fd9adebab32041f755214dbc6bffa90cc0225b39da2e5c2d3b90600090a250565b60606110878383604051806060016040528060278152602001615f1560279139615364565b6000610ccf82612572565b600054610100900460ff166151cb5760405162461bcd60e51b8152600401610d1590615b41565b61012d80546001600160a01b0319166001600160a01b0392909216919091179055565b600054610100900460ff166152155760405162461bcd60e51b8152600401610d1590615b41565b60c9805460ff19169055565b615229611ab2565b156118ee5760405162461bcd60e51b815260206004820152602a60248201527f45524332305061757361626c653a20746f6b656e207472616e736665722077686044820152691a5b19481c185d5cd95960b21b6064820152608401610d15565b6060824710156152ea5760405162461bcd60e51b815260206004820152602660248201527f416464726573733a20696e73756666696369656e742062616c616e636520666f6044820152651c8818d85b1b60d21b6064820152608401610d15565b600080866001600160a01b031685876040516153069190615ed8565b60006040518083038185875af1925050503d8060008114615343576040519150601f19603f3d011682016040523d82523d6000602084013e615348565b606091505b5091509150615359878383876153dc565b979650505050505050565b6060600080856001600160a01b0316856040516153819190615ed8565b600060405180830381855af49150503d80600081146153bc576040519150601f19603f3d011682016040523d82523d6000602084013e6153c1565b606091505b50915091506153d2868383876153dc565b9695505050505050565b6060831561544b578251600003615444576001600160a01b0385163b6154445760405162461bcd60e51b815260206004820152601d60248201527f416464726573733a2063616c6c20746f206e6f6e2d636f6e74726163740000006044820152606401610d15565b5081614f89565b614f8983838151156154605781518083602001fd5b8060405162461bcd60e51b8152600401610d15919061549e565b60005b8381101561549557818101518382015260200161547d565b50506000910152565b60208152600082518060208401526154bd81604085016020870161547a565b601f01601f19169190910160400192915050565b6001600160a01b038116811461153457600080fd5b600080604083850312156154f957600080fd5b8235615504816154d1565b946020939093013593505050565b60006020828403121561552457600080fd5b8135611087816154d1565b600080600080600060a0868803121561554757600080fd5b8535615552816154d1565b94506020860135615562816154d1565b93506040860135615572816154d1565b92506060860135615582816154d1565b91506080860135615592816154d1565b809150509295509295909350565b6000806000606084860312156155b557600080fd5b83356155c0816154d1565b925060208401356155d0816154d1565b929592945050506040919091013590565b6000602082840312156155f357600080fd5b5035919050565b634e487b7160e01b600052604160045260246000fd5b6040805190810167ffffffffffffffff81118282101715615633576156336155fa565b60405290565b604051601f8201601f1916810167ffffffffffffffff81118282101715615662576156626155fa565b604052919050565b600067ffffffffffffffff821115615684576156846155fa565b50601f01601f191660200190565b600080604083850312156156a557600080fd5b82356156b0816154d1565b9150602083013567ffffffffffffffff8111156156cc57600080fd5b8301601f810185136156dd57600080fd5b80356156f06156eb8261566a565b615639565b81815286602083850101111561570557600080fd5b816020840160208301376000602083830101528093505050509250929050565b61ffff8116811461153457600080fd5b60006020828403121561574757600080fd5b813561108781615725565b6000806040838503121561576557600080fd5b8235615770816154d1565b91506020830135615780816154d1565b809150509250929050565b63ffffffff8116811461153457600080fd5b6000602082840312156157af57600080fd5b81356110878161578b565b600181811c908216806157ce57607f821691505b602082108103614e9f57634e487b7160e01b600052602260045260246000fd5b60006020828403121561580057600080fd5b815167ffffffffffffffff81111561581757600080fd5b8201601f8101841361582857600080fd5b80516158366156eb8261566a565b81815285602083850101111561584b57600080fd5b61585c82602083016020860161547a565b95945050505050565b6702632b233b4ba3c960c51b81526000825161588881600885016020870161547a565b9190910160080192915050565b601360fa1b8152600082516158b181600185016020870161547a565b9190910160010192915050565b634e487b7160e01b600052601160045260246000fd5b80820180821115610ccf57610ccf6158be565b634e487b7160e01b600052603260045260246000fd5b60008261591a57634e487b7160e01b600052601260045260246000fd5b500490565b6004811061593d57634e487b7160e01b600052602160045260246000fd5b9052565b6001600160601b0385811682528416602082015260808101615966604083018561591f565b82606083015295945050505050565b81810381811115610ccf57610ccf6158be565b6001600160601b03851681526020810184905260808101615966604083018561591f565b6000600182016159be576159be6158be565b5060010190565b6020808252602c908201527f46756e6374696f6e206d7573742062652063616c6c6564207468726f7567682060408201526b19195b1959d85d1958d85b1b60a21b606082015260800190565b6020808252602c908201527f46756e6374696f6e206d7573742062652063616c6c6564207468726f7567682060408201526b6163746976652070726f787960a01b606082015260800190565b6020808252600290820152614c3960f01b604082015260600190565b600060208284031215615a8b57600080fd5b5051919050565b8481526020810184905260808101615966604083018561591f565b634e487b7160e01b600052603160045260246000fd5b600060208284031215615ad557600080fd5b8151611087816154d1565b600081615aef57615aef6158be565b506000190190565b634e487b7160e01b600052600160045260246000fd5b8082028115828204841417610ccf57610ccf6158be565b600060208284031215615b3657600080fd5b815161108781615725565b6020808252602b908201527f496e697469616c697a61626c653a20636f6e7472616374206973206e6f74206960408201526a6e697469616c697a696e6760a81b606082015260800190565b600060208284031215615b9e57600080fd5b8151801515811461108757600080fd5b600060208284031215615bc057600080fd5b815160ff8116811461108757600080fd5b600181815b80851115615c0c578160001904821115615bf257615bf26158be565b80851615615bff57918102915b93841c9390800290615bd6565b509250929050565b600082615c2357506001610ccf565b81615c3057506000610ccf565b8160018114615c465760028114615c5057615c6c565b6001915050610ccf565b60ff841115615c6157615c616158be565b50506001821b610ccf565b5060208310610133831016604e8410600b8410161715615c8f575081810a610ccf565b615c998383615bd1565b8060001904821115615cad57615cad6158be565b029392505050565b60006110878383615c14565b8281526060810161108760208301848051825260209081015163ffffffff16910152565b600060408284031215615cf757600080fd5b615cff615610565b8251615d0a81615725565b8152602083015164ffffffffff81168114615d2457600080fd5b60208201529392505050565b600060408284031215615d4257600080fd5b615d4a615610565b825181526020830151615d248161578b565b8251815260208084015163ffffffff16908201526080810182516040830152602083015163ffffffff166060830152611087565b8151815260208083015163ffffffff169082015260408101610ccf565b64ffffffffff828116828216039080821115615dcb57615dcb6158be565b5092915050565b601f8211156118ee57600081815260208120601f850160051c81016020861015615df95750805b601f850160051c820191505b8181101561100457828155600101615e05565b815167ffffffffffffffff811115615e3257615e326155fa565b615e4681615e4084546157ba565b84615dd2565b602080601f831160018114615e7b5760008415615e635750858301515b600019600386901b1c1916600185901b178555611004565b600085815260208120601f198616915b82811015615eaa57888601518255948401946001909101908401615e8b565b5085821015615ec85787850151600019600388901b60f8161c191681555b5050505050600190811b01905550565b60008251615eea81846020870161547a565b919091019291505056fe360894a13ba1a3210667c828492db98dca3e2076cc3735a920a3ca505d382bbc416464726573733a206c6f772d6c6576656c2064656c65676174652063616c6c206661696c6564d58e94604d90293a1c1ad95bfe6a6e6c352c33c5774a4b6b4f4b6f7460da29c5a26469706673582212207c32b7f92f334df510f9d09be5a7cd7fba256dce4a78ce7f2e47e1abae8d1f5064736f6c63430008120033",
  "deployedBytecode": "0x6080604052600436106103d95760003560e01c80638980f11f116101fd578063c822adda11610118578063dd62ed3e116100ab578063ef356a791161007a578063ef356a7914610b96578063f12d54d814610bab578063f2fde38b14610bca578063f762e73414610bea578063f94ce2c214610c0957600080fd5b8063dd62ed3e14610b11578063ee1335d114610b31578063ee153c4f14610b51578063ef2591af14610b7157600080fd5b8063d038875c116100e7578063d038875c14610a8d578063d039981b14610ac7578063d294f09314610ae7578063db84faac14610afc57600080fd5b8063c822adda14610a05578063c89d5b8b14610a25578063cafb220214610a4d578063cdc1842414610a6c57600080fd5b8063a457c2d711610190578063b2de2a431161015f578063b2de2a431461097a578063b60d42881461098f578063b6b55f25146109b0578063bacd609e146109d057600080fd5b8063a457c2d7146108fa578063a64c91cc1461091a578063a8f763201461093a578063a9059cbb1461095a57600080fd5b806395d89b41116101cc57806395d89b411461089257806399a03c70146108a75780639c271975146108c75780639ee679e8146108e757600080fd5b80638980f11f146108065780638d8e6bd7146108265780638da5cb5b1461085d57806392e5ced71461087257600080fd5b80634134bee9116102f85780636d3a4ac81161028b578063734d82871161025a578063734d8287146107795780637594d0b51461079057806375a5652b146107a75780637c2edb16146107c75780638370e1f7146107e657600080fd5b80636d3a4ac8146107055780636f307dc31461072557806370a0823114610744578063715018a61461076457600080fd5b806353ac4b66116102c757806353ac4b661461067257806353d3a42f146106895780635c975abb146106d05780635f0e8e37146106e557600080fd5b80634134bee91461060a57806345b05d091461062a5780634f1ef2861461064a57806352d1902d1461065d57600080fd5b806323b872dd116103705780633659cfe61161033f5780633659cfe614610571578063391d85ec1461059157806339509351146105ca5780633e7ae353146105ea57600080fd5b806323b872dd146104f55780632a1b8b1c146105155780632f4f21e21461052a578063313ce5671461054a57600080fd5b80631459457a116103ac5780631459457a1461047b57806318160ddd1461049b5780631c19be6d146104be578063205c2878146104d557600080fd5b806306fdde03146103de578063095ea7b3146104095780630d174c24146104395780630e21750f1461045b575b600080fd5b3480156103ea57600080fd5b506103f3610c29565b604051610400919061549e565b60405180910390f35b34801561041557600080fd5b506104296104243660046154e6565b610cbb565b6040519015158152602001610400565b34801561044557600080fd5b50610459610454366004615512565b610cd5565b005b34801561046757600080fd5b50610459610476366004615512565b610d41565b34801561048757600080fd5b5061045961049636600461552f565b610da8565b3480156104a757600080fd5b506104b061100c565b604051908152602001610400565b3480156104ca57600080fd5b506104b06102fe5481565b3480156104e157600080fd5b506104296104f03660046154e6565b611037565b34801561050157600080fd5b506104296105103660046155a0565b611068565b34801561052157600080fd5b5061045961108e565b34801561053657600080fd5b506104296105453660046154e6565b61141d565b34801561055657600080fd5b5061055f61144e565b60405160ff9091168152602001610400565b34801561057d57600080fd5b5061045961058c366004615512565b611458565b34801561059d57600080fd5b506102f9546105b2906001600160a01b031681565b6040516001600160a01b039091168152602001610400565b3480156105d657600080fd5b506104296105e53660046154e6565b611537565b3480156105f657600080fd5b506105b26106053660046154e6565b611559565b34801561061657600080fd5b506104596106253660046155e1565b611592565b34801561063657600080fd5b506104596106453660046155e1565b611786565b610459610658366004615692565b6118f3565b34801561066957600080fd5b506104b06119c3565b34801561067e57600080fd5b506104b06102fd5481565b34801561069557600080fd5b506106a96106a43660046155e1565b611a76565b604080516001600160a01b0390931683526001600160601b03909116602083015201610400565b3480156106dc57600080fd5b50610429611ab2565b3480156106f157600080fd5b50610459610700366004615512565b611abc565b34801561071157600080fd5b50610459610720366004615735565b611c13565b34801561073157600080fd5b506102c6546001600160a01b03166105b2565b34801561075057600080fd5b506104b061075f366004615512565b611cc4565b34801561077057600080fd5b50610459611ce2565b34801561078557600080fd5b506104b06102fc5481565b34801561079c57600080fd5b506104b06103005481565b3480156107b357600080fd5b506104596107c23660046155e1565b611d18565b3480156107d357600080fd5b50610193546001600160a01b03166105b2565b3480156107f257600080fd5b506104596108013660046155e1565b6120d4565b34801561081257600080fd5b506104596108213660046154e6565b612258565b34801561083257600080fd5b506105b2610841366004615512565b610291602052600090815260409020546001600160a01b031681565b34801561086957600080fd5b506105b26122bd565b34801561087e57600080fd5b5061045961088d366004615752565b61232c565b34801561089e57600080fd5b506103f3612563565b3480156108b357600080fd5b506104b06108c2366004615512565b612572565b3480156108d357600080fd5b506104596108e2366004615512565b612590565b6104596108f53660046155e1565b6125eb565b34801561090657600080fd5b506104296109153660046154e6565b612952565b34801561092657600080fd5b50610459610935366004615512565b6129d8565b34801561094657600080fd5b50610459610955366004615752565b612a03565b34801561096657600080fd5b506104296109753660046154e6565b612d39565b34801561098657600080fd5b50610459612d47565b34801561099b57600080fd5b506102fb546105b2906001600160a01b031681565b3480156109bc57600080fd5b506104596109cb3660046155e1565b612e30565b3480156109dc57600080fd5b506109f06109eb3660046154e6565b612f87565b60408051928352602083019190915201610400565b348015610a1157600080fd5b506106a9610a203660046155e1565b6130a3565b348015610a3157600080fd5b50610a3a6130b4565b60405161ffff9091168152602001610400565b348015610a5957600080fd5b5061028e546001600160a01b03166105b2565b348015610a7857600080fd5b506102fa546105b2906001600160a01b031681565b348015610a9957600080fd5b506102fb54610ab290600160a01b900463ffffffff1681565b60405163ffffffff9091168152602001610400565b348015610ad357600080fd5b506104b0610ae2366004615512565b61312c565b348015610af357600080fd5b50610459613139565b348015610b0857600080fd5b506104b06131fa565b348015610b1d57600080fd5b506104b0610b2c366004615752565b613281565b348015610b3d57600080fd5b50610459610b4c36600461579d565b6132ac565b348015610b5d57600080fd5b506105b2610b6c3660046155e1565b613319565b348015610b7d57600080fd5b506102fb54610ab290600160c01b900463ffffffff1681565b348015610ba257600080fd5b506104b0613344565b348015610bb757600080fd5b50610160546001600160a01b03166105b2565b348015610bd657600080fd5b50610459610be5366004615512565b61334f565b348015610bf657600080fd5b5061012d546001600160a01b03166105b2565b348015610c1557600080fd5b50610459610c2436600461579d565b613384565b6060609a8054610c38906157ba565b80601f0160208091040260200160405190810160405280929190818152602001828054610c64906157ba565b8015610cb15780601f10610c8657610100808354040283529160200191610cb1565b820191906000526020600020905b815481529060010190602001808311610c9457829003601f168201915b5050505050905090565b600033610cc98185856133f1565b60019150505b92915050565b610cdd613515565b6001600160a01b038116610d1e5760405162461bcd60e51b81526020600482015260036024820152624c363360e81b60448201526064015b60405180910390fd5b6102fa80546001600160a01b0319166001600160a01b0392909216919091179055565b610d49613515565b6001600160a01b038116610d855760405162461bcd60e51b8152602060048201526003602482015262130d8d60ea1b6044820152606401610d15565b6102fb80546001600160a01b0319166001600160a01b0392909216919091179055565b600054610100900460ff1615808015610dc85750600054600160ff909116105b80610de25750303b158015610de2575060005460ff166001145b610e455760405162461bcd60e51b815260206004820152602e60248201527f496e697469616c697a61626c653a20636f6e747261637420697320616c72656160448201526d191e481a5b9a5d1a585b1a5e995960921b6064820152608401610d15565b6000805460ff191660011790558015610e68576000805461ff0019166101001790555b6000826001600160a01b03166395d89b416040518163ffffffff1660e01b8152600401600060405180830381865afa158015610ea8573d6000803e3d6000fd5b505050506040513d6000823e601f3d908101601f19168201604052610ed091908101906157ee565b9050610f1d87878784604051602001610ee99190615865565b60405160208183030381529060405285604051602001610f099190615895565b604051602081830303815290604052613576565b610f26836135ba565b610f2f306135ea565b6102f980546001600160a01b0319166001600160a01b0386161790556102fb805467ffffffffffffffff60a01b19166509c40000004b60a21b179055610f736122bd565b6102fa80546001600160a01b0319166001600160a01b0392909216919091179055610f9c6122bd565b6102fb80546001600160a01b0319166001600160a01b0392909216919091179055508015611004576000805461ff0019169055604051600181527f7f26b83ff96e1f2b6a682f133852f6798a09c465da95921460cefb38474024989060200160405180910390a15b505050505050565b60006102fc546102fd5461101e613344565b61102891906158d4565b61103291906158d4565b905090565b60405162461bcd60e51b81526020600482015260036024820152624c343560e81b6044820152600090606401610d15565b600033611076858285613694565b61108185858561370e565b60019150505b9392505050565b6102fa546001600160a01b0316336001600160a01b0316146110d85760405162461bcd60e51b81526020600482015260036024820152624c333960e81b6044820152606401610d15565b6110e06138ca565b610300546102ff5460009182915b808210156113c05761afc85a106113c05760006102ff8381548110611115576111156158e7565b6000918252602091829020604080518082019091529101546001600160a01b038116808352600160a01b9091046001600160601b0316928201929092529150156113ad57805161116490613912565b156111e6576102ff838154811061117d5761117d6158e7565b60009182526020808320909101829055610301805460018101825592528251908301516001600160601b0316600160a01b026001600160a01b0391909116177fe78f8e39db67a8c6e0d54c288efc6f296f5d558bc028138a8476c9b97f6fcaa4909101556113ad565b60026111f06131fa565b6111fa91906158fd565b81602001516001600160601b031611156112c65760208101516102ff5460405160019233928792600080516020615f3c833981519152926112419290918291600391615941565b60405180910390a46102ff838154811061125d5761125d6158e7565b600091825260208083209091018290556102ff805460018101825592528251908301516001600160601b0316600160a01b026001600160a01b0391909116177f5a4a1f748f8cfa795b59cdc37192794ee567e6029e925719381be08d7ccaf4ec909101556113ad565b6000806112e4836000015184602001516001600160601b0316612f87565b91509150856102fe546112f79190615975565b821115611306575050506113c0565b61131081886158d4565b965061131c82876158d4565b9550600183600001516001600160a01b031686600080516020615f3c83398151915286602001518660026000196040516113599493929190615988565b60405180910390a46102ff8581548110611375576113756158e7565b600091825260208220015582516113aa908361139a6102c6546001600160a01b031690565b6001600160a01b03169190613982565b50505b826113b7816159ac565b935050506110ee565b836102fc60008282546113d391906158d4565b92505081905550826102fe60008282546113ed9190615975565b909155506113fd905084846158d4565b6102fd600082825461140f9190615975565b909155505050610300555050565b60405162461bcd60e51b8152602060048201526003602482015262261a1b60e91b6044820152600090606401610d15565b60006110326139e5565b6001600160a01b037f00000000000000000000000000000000000000000000000000000000000000001630036114a05760405162461bcd60e51b8152600401610d15906159c5565b7f00000000000000000000000000000000000000000000000000000000000000006001600160a01b03166114e9600080516020615ef5833981519152546001600160a01b031690565b6001600160a01b03161461150f5760405162461bcd60e51b8152600401610d1590615a11565b61151881613a5b565b6040805160008082526020820190925261153491839190613a63565b50565b600033610cc981858561154a8383613281565b61155491906158d4565b6133f1565b610292602052816000526040600020818154811061157657600080fd5b6000918252602090912001546001600160a01b03169150829050565b61159a6138ca565b336115a481613912565b156115c15760405162461bcd60e51b8152600401610d1590615a5d565b6115ca33611cc4565b8211156115ff5760405162461bcd60e51b815260206004820152600360248201526209868760eb1b6044820152606401610d15565b60006102fe54836102fd5461161491906158d4565b6102f95491101591506000906002906001600160a01b031663c8f74bb8336040516001600160e01b031960e084901b1681526001600160a01b039091166004820152602401602060405180830381865afa158015611676573d6000803e3d6000fd5b505050506040513d601f19601f8201168201806040525081019061169a9190615a79565b101580156116ab57506102fe548411155b905081806116b65750805b6116e85760405162461bcd60e51b81526020600482015260036024820152624c343960e81b6044820152606401610d15565b6000806116f53387612f87565b91509150806102fc600082825461170c91906158d4565b92505081905550816102fe60008282546117269190615975565b9091555060019050336001600160a01b0316600019600080516020615f3c833981519152898660026000196040516117619493929190615a92565b60405180910390a46117733382613bce565b61177d3383613d15565b50505050505050565b61178e6138ca565b3361179881613912565b156117b55760405162461bcd60e51b8152600401610d1590615a5d565b60006102ff83815481106117cb576117cb6158e7565b6000918252602091829020604080518082019091529101546001600160a01b038116808352600160a01b9091046001600160601b0316928201929092529150336001600160a01b0316146118475760405162461bcd60e51b81526020600482015260036024820152624c353760e81b6044820152606401610d15565b80602001516001600160601b03166102fd60008282546118679190615975565b90915550506102ff805484908110611881576118816158e7565b6000918252602082200155600181600001516001600160a01b031684600080516020615f3c8339815191528460200151856020015160016000196040516118cb9493929190615941565b60405180910390a46118ee816000015182602001516001600160601b0316613d42565b505050565b6001600160a01b037f000000000000000000000000000000000000000000000000000000000000000016300361193b5760405162461bcd60e51b8152600401610d15906159c5565b7f00000000000000000000000000000000000000000000000000000000000000006001600160a01b0316611984600080516020615ef5833981519152546001600160a01b031690565b6001600160a01b0316146119aa5760405162461bcd60e51b8152600401610d1590615a11565b6119b382613a5b565b6119bf82826001613a63565b5050565b6000306001600160a01b037f00000000000000000000000000000000000000000000000000000000000000001614611a635760405162461bcd60e51b815260206004820152603860248201527f555550535570677261646561626c653a206d757374206e6f742062652063616c60448201527f6c6564207468726f7567682064656c656761746563616c6c00000000000000006064820152608401610d15565b50600080516020615ef583398151915290565b6103018181548110611a8757600080fd5b6000918252602090912001546001600160a01b0381169150600160a01b90046001600160601b031682565b6000611032613e17565b611ac4613515565b610302546000199060005b81811015611b2957836001600160a01b03166103028281548110611af557611af56158e7565b6000918252602090912001546001600160a01b031603611b1757809250611b29565b80611b21816159ac565b915050611acf565b506000198213611b615760405162461bcd60e51b8152602060048201526003602482015262261a1960e91b6044820152606401610d15565b610302611b6f600183615975565b81548110611b7f57611b7f6158e7565b60009182526020909120015461030280546001600160a01b039092169184908110611bac57611bac6158e7565b9060005260206000200160006101000a8154816001600160a01b0302191690836001600160a01b03160217905550610302805480611bec57611bec615aad565b600082815260209020810160001990810180546001600160a01b0319169055019055505050565b611c1b613515565b60405163433e3bad60e11b8152610290600482015261ffff8216602482015273__$3728f51d90da6977d2525dcec632daa0b3$__9063867c775a9060440160006040518083038186803b158015611c7157600080fd5b505af4158015611c85573d6000803e3d6000fd5b505060405161ffff841681527f3d6d63f501ae621a01c729938fb4428a25138835257943d6b56c49b402ba36329250602001905060405180910390a150565b6000611ccf8261312c565b611cd883612572565b610ccf91906158d4565b611cea613515565b60405162461bcd60e51b81526020600482015260036024820152624c363560e81b6044820152606401610d15565b6102fb546001600160a01b0316336001600160a01b031614611d625760405162461bcd60e51b815260206004820152600360248201526204c34360ec1b6044820152606401610d15565b611d6a6138ca565b60006102ff8281548110611d8057611d806158e7565b6000918252602091829020604080518082019091529101546001600160a01b038116808352600160a01b9091046001600160601b0316928201929092529150611df15760405162461bcd60e51b8152602060048201526003602482015262261b1b60e91b6044820152606401610d15565b8051611dfc90613912565b15611e2f5760405162461bcd60e51b815260206004820152600360248201526204c35360ec1b6044820152606401610d15565b6002611e396131fa565b611e4391906158fd565b81602001516001600160601b031611611e845760405162461bcd60e51b81526020600482015260036024820152624c353160e81b6044820152606401610d15565b600080611ea2836000015184602001516001600160601b0316612f87565b915091506000611ebb6102c6546001600160a01b031690565b6102fb546040516370a0823160e01b81526001600160a01b0391821660048201529116906370a0823190602401602060405180830381865afa158015611f05573d6000803e3d6000fd5b505050506040513d601f19601f82011682018060405250810190611f299190615a79565b9050806102fe54611f3a91906158d4565b831115611f6f5760405162461bcd60e51b8152602060048201526003602482015262261a9960e91b6044820152606401610d15565b816102fc6000828254611f8291906158d4565b9250508190555083602001516001600160601b03166102fd6000828254611fa99190615975565b9091555050610300548503611fcf576103008054906000611fc9836159ac565b91905055505b600184600001516001600160a01b031686600080516020615f3c833981519152876020015187600260001960405161200a9493929190615988565b60405180910390a46102ff8581548110612026576120266158e7565b600091825260208220015580831161206857612063338551856120526102c6546001600160a01b031690565b6001600160a01b0316929190613e86565b6120c5565b60006120748285615975565b9050806102fe60008282546120899190615975565b909155506120a99050338651846120526102c6546001600160a01b031690565b84516120c3908261139a6102c6546001600160a01b031690565b505b6120cd613ebe565b5050505050565b6102fb546001600160a01b0316336001600160a01b03161461211e5760405162461bcd60e51b815260206004820152600360248201526204c34360ec1b6044820152606401610d15565b6121266138ca565b6102c6546001600160a01b03166102fb546040516370a0823160e01b81526001600160a01b0391821660048201529116906370a0823190602401602060405180830381865afa15801561217d573d6000803e3d6000fd5b505050506040513d601f19601f820116820180604052508101906121a19190615a79565b8111156121d65760405162461bcd60e51b81526020600482015260036024820152620986a760eb1b6044820152606401610d15565b6000816102fe546121e791906158d4565b90506121f16131fa565b8111156122265760405162461bcd60e51b81526020600482015260036024820152624c353960e81b6044820152606401610d15565b816102fe600082825461223991906158d4565b909155506119bf90503330846120526102c6546001600160a01b031690565b612260613515565b6102c6546001600160a01b03166001600160a01b0316826001600160a01b0316036122b35760405162461bcd60e51b81526020600482015260036024820152624c343360e81b6044820152606401610d15565b6119bf8282613f27565b61012d5460408051638da5cb5b60e01b815290516000926001600160a01b031691638da5cb5b9160048083019260209291908290030181865afa158015612308573d6000803e3d6000fd5b505050506040513d601f19601f820116820180604052508101906110329190615ac3565b6123346138ca565b8161233e81613912565b1561235b5760405162461bcd60e51b8152600401610d1590615a5d565b8161236581613912565b156123825760405162461bcd60e51b8152600401610d1590615a5d565b6001600160a01b038481166000908152610291602052604090205416156123d15760405162461bcd60e51b8152602060048201526003602482015262261b1960e91b6044820152606401610d15565b6001600160a01b03841661240d5760405162461bcd60e51b815260206004820152600360248201526226189960e91b6044820152606401610d15565b6001600160a01b0383166124495760405162461bcd60e51b81526020600482015260036024820152624c313360e81b6044820152606401610d15565b826001600160a01b0316846001600160a01b0316036124905760405162461bcd60e51b8152602060048201526003602482015262130c4d60ea1b6044820152606401610d15565b6124986122bd565b6001600160a01b0316336001600160a01b031614806124bf5750336001600160a01b038516145b6124f15760405162461bcd60e51b81526020600482015260036024820152624c313560e81b6044820152606401610d15565b6124fc846001614019565b612507836001614019565b50506001600160a01b039182166000818152610291602090815260408083208054969095166001600160a01b03199687168117909555938252610292815292812080546001810182559082529290209091018054909216179055565b6060609b8054610c38906157ba565b6001600160a01b038116600090815260976020526040812054610ccf565b612598613515565b61030280546001810182556000919091527f552430c2010355dda19e8bae437f75cfb136cb8d667c4c0867367db21eee69b60180546001600160a01b0319166001600160a01b0392909216919091179055565b6125f36138ca565b336125fd81613912565b1561261a5760405162461bcd60e51b8152600401610d1590615a5d565b61262333611cc4565b8211156126585760405162461bcd60e51b81526020600482015260036024820152624c353360e81b6044820152606401610d15565b6001600160601b038211156126955760405162461bcd60e51b8152602060048201526003602482015262130d4d60ea1b6044820152606401610d15565b34660aa87bee538000146126d15760405162461bcd60e51b81526020600482015260036024820152624c353560e81b6044820152606401610d15565b600060405180604001604052806126e53390565b6001600160a01b0390811682526001600160601b0386166020909201919091526102f9549192506000916002911663c8f74bb8336040516001600160e01b031960e084901b1681526001600160a01b039091166004820152602401602060405180830381865afa15801561275d573d6000803e3d6000fd5b505050506040513d601f19601f820116820180604052508101906127819190615a79565b101580156127925750600061030054115b156128005761030080549060006127a883615ae0565b9190505550610300549050816102ff82815481106127c8576127c86158e7565b6000918252602091829020835193909201516001600160601b0316600160a01b026001600160a01b039093169290921791015561286a565b6102ff8054600181810183556000839052845160208601516001600160601b0316600160a01b026001600160a01b03909116177f5a4a1f748f8cfa795b59cdc37192794ee567e6029e925719381be08d7ccaf4ec9092019190915590546128679190615975565b90505b836102fd600082825461287d91906158d4565b9091555060019050336001600160a01b031682600080516020615f3c833981519152878860006000196040516128b69493929190615a92565b60405180910390a46128c83385613bce565b6102fa546040516000916001600160a01b03169034908381818185875af1925050503d8060008114612916576040519150601f19603f3d011682016040523d82523d6000602084013e61291b565b606091505b50509050806120cd5760405162461bcd60e51b8152602060048201526003602482015262261a9b60e91b6044820152606401610d15565b600033816129608286613281565b9050838110156129c05760405162461bcd60e51b815260206004820152602560248201527f45524332303a2064656372656173656420616c6c6f77616e63652062656c6f77604482015264207a65726f60d81b6064820152608401610d15565b6129cd82868684036133f1565b506001949350505050565b6129e0613515565b6102f980546001600160a01b0319166001600160a01b0392909216919091179055565b612a0b6138ca565b81612a1581613912565b15612a325760405162461bcd60e51b8152600401610d1590615a5d565b81612a3c81613912565b15612a595760405162461bcd60e51b8152600401610d1590615a5d565b6001600160a01b038416612a955760405162461bcd60e51b815260206004820152600360248201526226189b60e91b6044820152606401610d15565b6001600160a01b038316612ad15760405162461bcd60e51b81526020600482015260036024820152624c313760e81b6044820152606401610d15565b612ad96122bd565b6001600160a01b0316336001600160a01b03161480612b005750336001600160a01b038516145b612b325760405162461bcd60e51b815260206004820152600360248201526209862760eb1b6044820152606401610d15565b6001600160a01b0384811660009081526102916020526040902054811690841614612b855760405162461bcd60e51b81526020600482015260036024820152624c313960e81b6044820152606401610d15565b612b90846001614019565b612b9b836001614019565b60001960005b6001600160a01b03851660009081526102926020526040902054811015612c26576001600160a01b0385811660009081526102926020526040902080549188169183908110612bf257612bf26158e7565b6000918252602090912001546001600160a01b031603612c1457809150612c26565b80612c1e816159ac565b915050612ba1565b506000811215612c3857612c38615af7565b6001600160a01b0380861660009081526102916020908152604080832080546001600160a01b031916905592871682526102929052208054612c7c90600190615975565b81548110612c8c57612c8c6158e7565b60009182526020808320909101546001600160a01b0387811684526102929092526040909220805491909216919083908110612cca57612cca6158e7565b600091825260208083209190910180546001600160a01b0319166001600160a01b03948516179055918616815261029290915260409020805480612d1057612d10615aad565b600082815260209020810160001990810180546001600160a01b03191690550190555050505050565b600033610cc981858561370e565b612d4f613515565b60006102fe54612d686102c6546001600160a01b031690565b6040516370a0823160e01b81523060048201526001600160a01b0391909116906370a0823190602401602060405180830381865afa158015612dae573d6000803e3d6000fd5b505050506040513d601f19601f82011682018060405250810190612dd29190615a79565b612ddc9190615975565b905060008111612e145760405162461bcd60e51b8152602060048201526003602482015262130d0d60ea1b6044820152606401610d15565b611534612e2a6102c6546001600160a01b031690565b82613f27565b612e386138ca565b33612e4281613912565b15612e5f5760405162461bcd60e51b8152600401610d1590615a5d565b81612e736102c6546001600160a01b031690565b6001600160a01b03166370a08231336040516001600160e01b031960e084901b1681526001600160a01b039091166004820152602401602060405180830381865afa158015612ec6573d6000803e3d6000fd5b505050506040513d601f19601f82011682018060405250810190612eea9190615a79565b1015612f1e5760405162461bcd60e51b81526020600482015260036024820152624c343760e81b6044820152606401610d15565b816102fe6000828254612f3191906158d4565b9091555060009050336001600160a01b0316600019600080516020615f3c83398151915285866002600019604051612f6c9493929190615a92565b60405180910390a4612f7e33836140ee565b506119bf613ebe565b6102f95460405163191ee97760e31b81526001600160a01b03848116600483015260009283926002929091169063c8f74bb890602401602060405180830381865afa158015612fda573d6000803e3d6000fd5b505050506040513d601f19601f82011682018060405250810190612ffe9190615a79565b1061300e5750819050600061309c565b600061302b61302661028e546001600160a01b031690565b61416f565b9050600061303985836141dc565b6102fb5490915060009061305a90600160a01b900463ffffffff168461421a565b90506000613069606485614246565b6130738385615b0d565b61307d91906158fd565b90506130898185614274565b94506130958588615975565b9550505050505b9250929050565b6102ff8181548110611a8757600080fd5b60405163106d64cf60e31b8152610290600482015260009073__$3728f51d90da6977d2525dcec632daa0b3$__9063836b267890602401602060405180830381865af4158015613108573d6000803e3d6000fd5b505050506040513d601f19601f820116820180604052508101906110329190615b24565b6000610ccf8260016142ab565b613141613515565b60006102fc541161317a5760405162461bcd60e51b815260206004820152600360248201526204c36360ec1b6044820152606401610d15565b6102fc546102fe5410156131b65760405162461bcd60e51b81526020600482015260036024820152624c363160e81b6044820152606401610d15565b6102fc546102fe60008282546131cc9190615975565b90915550506102fc805460009091556115346131e66122bd565b8261139a6102c6546001600160a01b031690565b60008061321361302661028e546001600160a01b031690565b9050600061322861322261100c565b836141dc565b6102fb5490915060009061324990600160c01b900463ffffffff168461421a565b90506000613258606485614246565b6132628385615b0d565b61326c91906158fd565b90506132788185614274565b94505050505090565b6001600160a01b03918216600090815260986020908152604080832093909416825291909152205490565b6132b4613515565b614e2063ffffffff821611156132f25760405162461bcd60e51b815260206004820152600360248201526209870760eb1b6044820152606401610d15565b6102fb805463ffffffff909216600160a01b0263ffffffff60a01b19909216919091179055565b610302818154811061332a57600080fd5b6000918252602090912001546001600160a01b0316905081565b600061103260995490565b613357613515565b60405162461bcd60e51b8152602060048201526002602482015261098760f31b6044820152606401610d15565b61338c613515565b61271063ffffffff821611156133ca5760405162461bcd60e51b81526020600482015260036024820152624c343160e81b6044820152606401610d15565b6102fb805463ffffffff909216600160c01b0263ffffffff60c01b19909216919091179055565b6001600160a01b0383166134535760405162461bcd60e51b8152602060048201526024808201527f45524332303a20617070726f76652066726f6d20746865207a65726f206164646044820152637265737360e01b6064820152608401610d15565b6001600160a01b0382166134b45760405162461bcd60e51b815260206004820152602260248201527f45524332303a20617070726f766520746f20746865207a65726f206164647265604482015261737360f01b6064820152608401610d15565b6001600160a01b0383811660008181526098602090815260408083209487168084529482529182902085905590518481527f8c5be1e5ebec7d5bd14f71427d1e84f3dd0314c0f7b2291e5b200ac8c7c3b925910160405180910390a3505050565b3361351e6122bd565b6001600160a01b0316146135745760405162461bcd60e51b815260206004820181905260248201527f4f776e61626c653a2063616c6c6572206973206e6f7420746865206f776e65726044820152606401610d15565b565b600054610100900460ff1661359d5760405162461bcd60e51b8152600401610d1590615b41565b6135a8858585614811565b6135b2828261486b565b6120cd61489c565b600054610100900460ff166135e15760405162461bcd60e51b8152600401610d1590615b41565b611534816148c3565b600054610100900460ff166136115760405162461bcd60e51b8152600401610d1590615b41565b61028e80546001600160a01b0319166001600160a01b03831617905560405163433e3bad60e11b815261029060048201526000602482015273__$3728f51d90da6977d2525dcec632daa0b3$__9063867c775a9060440160006040518083038186803b15801561368057600080fd5b505af41580156120cd573d6000803e3d6000fd5b60006136a08484613281565b9050600019811461370857818110156136fb5760405162461bcd60e51b815260206004820152601d60248201527f45524332303a20696e73756666696369656e7420616c6c6f77616e63650000006044820152606401610d15565b61370884848484036133f1565b50505050565b6001600160a01b0383166137725760405162461bcd60e51b815260206004820152602560248201527f45524332303a207472616e736665722066726f6d20746865207a65726f206164604482015264647265737360d81b6064820152608401610d15565b6001600160a01b0382166137d45760405162461bcd60e51b815260206004820152602360248201527f45524332303a207472616e7366657220746f20746865207a65726f206164647260448201526265737360e81b6064820152608401610d15565b6137df838383614965565b6001600160a01b038316600090815260976020526040902054818110156138575760405162461bcd60e51b815260206004820152602660248201527f45524332303a207472616e7366657220616d6f756e7420657863656564732062604482015265616c616e636560d01b6064820152608401610d15565b6001600160a01b0380851660008181526097602052604080822086860390559286168082529083902080548601905591517fddf252ad1be2c89b69c2b068fc378daa952ba7f163c4a11628f55a4df523b3ef906138b79086815260200190565b60405180910390a36137088484846149a4565b6138d2611ab2565b156135745760405162461bcd60e51b815260206004820152601060248201526f14185d5cd8589b194e881c185d5cd95960821b6044820152606401610d15565b6101935460405163fe575a8760e01b81526001600160a01b038381166004830152600092169063fe575a8790602401602060405180830381865afa15801561395e573d6000803e3d6000fd5b505050506040513d601f19601f82011682018060405250810190610ccf9190615b8c565b6040516001600160a01b0383166024820152604481018290526118ee90849063a9059cbb60e01b906064015b60408051601f198184030181529190526020810180516001600160e01b03166001600160e01b031990931692909217909152614aad565b6102c6546040805163313ce56760e01b815290516000926001600160a01b03169163313ce5679160048083019260209291908290030181865afa925050508015613a4c575060408051601f3d908101601f19168201909252613a4991810190615bae565b60015b613a565750601290565b919050565b611534613515565b7f4910fdfa16fed3260ed0e7147f7cc6da11a60208b5b9406d12a635614ffd91435460ff1615613a96576118ee83614b82565b826001600160a01b03166352d1902d6040518163ffffffff1660e01b8152600401602060405180830381865afa925050508015613af0575060408051601f3d908101601f19168201909252613aed91810190615a79565b60015b613b535760405162461bcd60e51b815260206004820152602e60248201527f45524331393637557067726164653a206e657720696d706c656d656e7461746960448201526d6f6e206973206e6f74205555505360901b6064820152608401610d15565b600080516020615ef58339815191528114613bc25760405162461bcd60e51b815260206004820152602960248201527f45524331393637557067726164653a20756e737570706f727465642070726f786044820152681a58589b195555525160ba1b6064820152608401610d15565b506118ee838383614c1e565b6001600160a01b038216613c2e5760405162461bcd60e51b815260206004820152602160248201527f45524332303a206275726e2066726f6d20746865207a65726f206164647265736044820152607360f81b6064820152608401610d15565b613c3a82600083614965565b6001600160a01b03821660009081526097602052604090205481811015613cae5760405162461bcd60e51b815260206004820152602260248201527f45524332303a206275726e20616d6f756e7420657863656564732062616c616e604482015261636560f01b6064820152608401610d15565b6001600160a01b03831660008181526097602090815260408083208686039055609980548790039055518581529192917fddf252ad1be2c89b69c2b068fc378daa952ba7f163c4a11628f55a4df523b3ef910160405180910390a36118ee836000846149a4565b6000613d213383613bce565b6102c654613d39906001600160a01b03168484613982565b50600192915050565b6001600160a01b038216613d985760405162461bcd60e51b815260206004820152601f60248201527f45524332303a206d696e7420746f20746865207a65726f2061646472657373006044820152606401610d15565b613da460008383614965565b8060996000828254613db691906158d4565b90915550506001600160a01b0382166000818152609760209081526040808320805486019055518481527fddf252ad1be2c89b69c2b068fc378daa952ba7f163c4a11628f55a4df523b3ef910160405180910390a36119bf600083836149a4565b6101605460408051635c975abb60e01b815290516000926001600160a01b031691635c975abb9160048083019260209291908290030181865afa158015613e62573d6000803e3d6000fd5b505050506040513d601f19601f820116820180604052508101906110329190615b8c565b6040516001600160a01b03808516602483015283166044820152606481018290526137089085906323b872dd60e01b906084016139ae565b6000613ec86131fa565b9050806102fe5411613ed75750565b6000816102fe54613ee89190615975565b9050806102fe6000828254613efd9190615975565b90915550506102fb546119bf906001600160a01b03168261139a6102c6546001600160a01b031690565b613f2f613515565b60008111613f655760405162461bcd60e51b815260206004820152600360248201526204c31360ec1b6044820152606401610d15565b6040516370a0823160e01b8152306004820152829082906001600160a01b038316906370a0823190602401602060405180830381865afa158015613fad573d6000803e3d6000fd5b505050506040513d601f19601f82011682018060405250810190613fd19190615a79565b10156140055760405162461bcd60e51b81526020600482015260036024820152624c313160e81b6044820152606401610d15565b6118ee6001600160a01b0382163384613982565b6102935460ff1615614029575050565b6001600160a01b038216600090815261028f602052604090205464ffffffffff428116911603614057575050565b6001600160a01b0380831660009081526102916020526040902054168015614083576118ee8183614019565b600061408f84846142ab565b905080156140e557610293805460ff1916600117905560006140b18583614c43565b610293805460ff191690559050806140e3576001600160a01b038516600090815261028f602052604090206003018290555b505b61370884614c9a565b60003330810361414c5760405162461bcd60e51b815260206004820152602360248201527f4552433230577261707065723a20777261707065722063616e2774206465706f6044820152621cda5d60ea1b6064820152608401610d15565b6102c654614165906001600160a01b0316823086613e86565b610cc98484613d42565b6000816001600160a01b031663313ce5676040518163ffffffff1660e01b8152600401602060405180830381865afa1580156141af573d6000803e3d6000fd5b505050506040513d601f19601f820116820180604052508101906141d39190615bae565b60ff1692915050565b6000600382101561420e576141f2826006615975565b6141fd90600a615cb5565b6142079084615b0d565b9050610ccf565b611087836103e8615b0d565b6000600382101561423157614207836103e8615b0d565b61423c82600a615cb5565b6110879084615b0d565b6000600382101561425e5761420783620f4240615b0d565b6142698260036158d4565b61423c90600a615cb5565b6000600382101561429f5761428a826006615975565b61429590600a615cb5565b61420790846158fd565b6110876103e8846158fd565b6001600160a01b038216600090815261028f602090815260408083208151608081018352815464ffffffffff16818401908152835180850190945260018301548452600283015463ffffffff1684860152606082019390935291825260030154918101919091528161431c85614dfc565b82515190915064ffffffffff161580614333575080155b1561434357600092505050610ccf565b815160200151604051630b27cfb160e31b815260009073__$3728f51d90da6977d2525dcec632daa0b3$__9063593e7d889061438790610290908690600401615cc1565b6040805180830381865af41580156143a3573d6000803e3d6000fd5b505050506040513d601f19601f820116820180604052508101906143c79190615ce5565b60405163038255fd60e11b8152610290600482015290915060009073__$3728f51d90da6977d2525dcec632daa0b3$__90630704abfa906024016040805180830381865af415801561441d573d6000803e3d6000fd5b505050506040513d601f19601f820116820180604052508101906144419190615d30565b90508460200151955073__$3728f51d90da6977d2525dcec632daa0b3$__634ead0c5384836040518363ffffffff1660e01b8152600401614483929190615d5c565b602060405180830381865af41580156144a0573d6000803e3d6000fd5b505050506040513d601f19601f820116820180604052508101906144c49190615b8c565b6147d557604051633e1e5c5360e11b815260009073__$3728f51d90da6977d2525dcec632daa0b3$__90637c3cb8a690614502908790600401615d90565b6040805180830381865af415801561451e573d6000803e3d6000fd5b505050506040513d601f19601f820116820180604052508101906145429190615d30565b604051630b27cfb160e31b815290915060009073__$3728f51d90da6977d2525dcec632daa0b3$__9063593e7d889061458390610290908690600401615cc1565b6040805180830381865af415801561459f573d6000803e3d6000fd5b505050506040513d601f19601f820116820180604052508101906145c39190615ce5565b875151602082015186519293506145f1928c6145e05760006145e2565b8b5b6145ec908b6158d4565b614ea5565b6145fb90896158d4565b97505b81945080935073__$3728f51d90da6977d2525dcec632daa0b3$__634ead0c5386856040518363ffffffff1660e01b815260040161463d929190615d5c565b602060405180830381865af415801561465a573d6000803e3d6000fd5b505050506040513d601f19601f8201168201806040525081019061467e9190615b8c565b6147a857604051633e1e5c5360e11b815273__$3728f51d90da6977d2525dcec632daa0b3$__90637c3cb8a6906146b9908890600401615d90565b6040805180830381865af41580156146d5573d6000803e3d6000fd5b505050506040513d601f19601f820116820180604052508101906146f99190615d30565b604051630b27cfb160e31b815290925073__$3728f51d90da6977d2525dcec632daa0b3$__9063593e7d889061473790610290908690600401615cc1565b6040805180830381865af4158015614753573d6000803e3d6000fd5b505050506040513d601f19601f820116820180604052508101906147779190615ce5565b90506147978460200151826020015186600001518c6145e05760006145e2565b6147a190896158d4565b97506145fe565b6147c284602001514286600001518c6145e05760006145e2565b6147cc90896158d4565b97505050614806565b84515182516147f9919042908a6147ed5760006147ef565b895b6145ec90896158d4565b61480390876158d4565b95505b505050505092915050565b600054610100900460ff166148385760405162461bcd60e51b8152600401610d1590615b41565b61484061489c565b61484983614f91565b614851614fc1565b61485a82614ff0565b6148638161503a565b6118ee61489c565b600054610100900460ff166148925760405162461bcd60e51b8152600401610d1590615b41565b6119bf8282615084565b600054610100900460ff166135745760405162461bcd60e51b8152600401610d1590615b41565b600054610100900460ff166148ea5760405162461bcd60e51b8152600401610d1590615b41565b306001600160a01b038216036149425760405162461bcd60e51b815260206004820152601e60248201527f4552433230577261707065723a2063616e6e6f742073656c66207772617000006044820152606401610d15565b6102c680546001600160a01b0319166001600160a01b0392909216919091179055565b6149708383836150c4565b6001600160a01b0383161561498a5761498a836001614019565b6001600160a01b038216156118ee576118ee826001614019565b6001600160a01b03831615806149c157506001600160a01b038216155b15614a01577f980f7e6fb44009001d533a10bc3bd558b4efe22dcb4888bca4767aa93c71ce1f6149ef61100c565b60405190815260200160405180910390a15b60005b61030254811015613708576103028181548110614a2357614a236158e7565b600091825260209091200154604051636e0d037d60e11b81526001600160a01b0386811660048301528581166024830152604482018590529091169063dc1a06fa90606401600060405180830381600087803b158015614a8257600080fd5b505af1158015614a96573d6000803e3d6000fd5b505050508080614aa5906159ac565b915050614a04565b6000614b02826040518060400160405280602081526020017f5361666545524332303a206c6f772d6c6576656c2063616c6c206661696c6564815250856001600160a01b03166151259092919063ffffffff16565b9050805160001480614b23575080806020019051810190614b239190615b8c565b6118ee5760405162461bcd60e51b815260206004820152602a60248201527f5361666545524332303a204552433230206f7065726174696f6e20646964206e6044820152691bdd081cdd58d8d9595960b21b6064820152608401610d15565b6001600160a01b0381163b614bef5760405162461bcd60e51b815260206004820152602d60248201527f455243313936373a206e657720696d706c656d656e746174696f6e206973206e60448201526c1bdd08184818dbdb9d1c9858dd609a1b6064820152608401610d15565b600080516020615ef583398151915280546001600160a01b0319166001600160a01b0392909216919091179055565b614c2783615134565b600082511180614c345750805b156118ee576137088383615174565b6000826001600160a01b03167f05a71d417f891ba4b7a94b48d1b1f4b59b070921cba593b3c72a05a5587a78a9614c7985612572565b60408051918252602082018690520160405180910390a2613d398383613d42565b6001600160a01b038116600090815261028f602052604090819020805464ffffffffff19164264ffffffffff161790555163038255fd60e11b8152610290600482015273__$3728f51d90da6977d2525dcec632daa0b3$__90630704abfa906024016040805180830381865af4158015614d18573d6000803e3d6000fd5b505050506040513d601f19601f82011682018060405250810190614d3c9190615d30565b6001600160a01b038216600090815261028f602090815260408220835160018201559201516002909201805463ffffffff191663ffffffff909316929092179091555b6001600160a01b038216600090815261029260205260409020548110156119bf576001600160a01b0382166000908152610292602052604090208054614dea919083908110614dd057614dd06158e7565b6000918252602090912001546001600160a01b0316614c9a565b80614df4816159ac565b915050614d7f565b6000614e0782615199565b614e1190826158d4565b905060005b6001600160a01b03831660009081526102926020526040902054811015614e9f576001600160a01b0383166000908152610292602052604090208054614e81919083908110614e6757614e676158e7565b6000918252602090912001546001600160a01b0316614dfc565b614e8b90836158d4565b915080614e97816159ac565b915050614e16565b50919050565b600080614ebe61302661028e546001600160a01b031690565b90506000614edc614ecf8888615dad565b64ffffffffff1683614246565b90506000614eee6301e1338084614246565b614ef9600185614246565b614f039084615b0d565b614f0d91906158fd565b90506000614f1f8761ffff168561421a565b90506000614f2e600186614246565b614f388385615b0d565b614f4291906158fd565b90506000614f5088876141dc565b90506000614f5f606488614246565b614f698484615b0d565b614f7391906158fd565b9050614f7f8188614274565b9750505050505050505b949350505050565b600054610100900460ff16614fb85760405162461bcd60e51b8152600401610d1590615b41565b611534816151a4565b600054610100900460ff16614fe85760405162461bcd60e51b8152600401610d1590615b41565b6135746151ee565b600054610100900460ff166150175760405162461bcd60e51b8152600401610d1590615b41565b61016080546001600160a01b0319166001600160a01b0392909216919091179055565b600054610100900460ff166150615760405162461bcd60e51b8152600401610d1590615b41565b61019380546001600160a01b0319166001600160a01b0392909216919091179055565b600054610100900460ff166150ab5760405162461bcd60e51b8152600401610d1590615b41565b609a6150b78382615e18565b50609b6118ee8282615e18565b6150cc6138ca565b826150d681613912565b156150f35760405162461bcd60e51b8152600401610d1590615a5d565b826150fd81613912565b1561511a5760405162461bcd60e51b8152600401610d1590615a5d565b6120cd858585615221565b6060614f898484600085615289565b61513d81614b82565b6040516001600160a01b038216907fbc7cd75a20ee27fd9adebab32041f755214dbc6bffa90cc0225b39da2e5c2d3b90600090a250565b60606110878383604051806060016040528060278152602001615f1560279139615364565b6000610ccf82612572565b600054610100900460ff166151cb5760405162461bcd60e51b8152600401610d1590615b41565b61012d80546001600160a01b0319166001600160a01b0392909216919091179055565b600054610100900460ff166152155760405162461bcd60e51b8152600401610d1590615b41565b60c9805460ff19169055565b615229611ab2565b156118ee5760405162461bcd60e51b815260206004820152602a60248201527f45524332305061757361626c653a20746f6b656e207472616e736665722077686044820152691a5b19481c185d5cd95960b21b6064820152608401610d15565b6060824710156152ea5760405162461bcd60e51b815260206004820152602660248201527f416464726573733a20696e73756666696369656e742062616c616e636520666f6044820152651c8818d85b1b60d21b6064820152608401610d15565b600080866001600160a01b031685876040516153069190615ed8565b60006040518083038185875af1925050503d8060008114615343576040519150601f19603f3d011682016040523d82523d6000602084013e615348565b606091505b5091509150615359878383876153dc565b979650505050505050565b6060600080856001600160a01b0316856040516153819190615ed8565b600060405180830381855af49150503d80600081146153bc576040519150601f19603f3d011682016040523d82523d6000602084013e6153c1565b606091505b50915091506153d2868383876153dc565b9695505050505050565b6060831561544b578251600003615444576001600160a01b0385163b6154445760405162461bcd60e51b815260206004820152601d60248201527f416464726573733a2063616c6c20746f206e6f6e2d636f6e74726163740000006044820152606401610d15565b5081614f89565b614f8983838151156154605781518083602001fd5b8060405162461bcd60e51b8152600401610d15919061549e565b60005b8381101561549557818101518382015260200161547d565b50506000910152565b60208152600082518060208401526154bd81604085016020870161547a565b601f01601f19169190910160400192915050565b6001600160a01b038116811461153457600080fd5b600080604083850312156154f957600080fd5b8235615504816154d1565b946020939093013593505050565b60006020828403121561552457600080fd5b8135611087816154d1565b600080600080600060a0868803121561554757600080fd5b8535615552816154d1565b94506020860135615562816154d1565b93506040860135615572816154d1565b92506060860135615582816154d1565b91506080860135615592816154d1565b809150509295509295909350565b6000806000606084860312156155b557600080fd5b83356155c0816154d1565b925060208401356155d0816154d1565b929592945050506040919091013590565b6000602082840312156155f357600080fd5b5035919050565b634e487b7160e01b600052604160045260246000fd5b6040805190810167ffffffffffffffff81118282101715615633576156336155fa565b60405290565b604051601f8201601f1916810167ffffffffffffffff81118282101715615662576156626155fa565b604052919050565b600067ffffffffffffffff821115615684576156846155fa565b50601f01601f191660200190565b600080604083850312156156a557600080fd5b82356156b0816154d1565b9150602083013567ffffffffffffffff8111156156cc57600080fd5b8301601f810185136156dd57600080fd5b80356156f06156eb8261566a565b615639565b81815286602083850101111561570557600080fd5b816020840160208301376000602083830101528093505050509250929050565b61ffff8116811461153457600080fd5b60006020828403121561574757600080fd5b813561108781615725565b6000806040838503121561576557600080fd5b8235615770816154d1565b91506020830135615780816154d1565b809150509250929050565b63ffffffff8116811461153457600080fd5b6000602082840312156157af57600080fd5b81356110878161578b565b600181811c908216806157ce57607f821691505b602082108103614e9f57634e487b7160e01b600052602260045260246000fd5b60006020828403121561580057600080fd5b815167ffffffffffffffff81111561581757600080fd5b8201601f8101841361582857600080fd5b80516158366156eb8261566a565b81815285602083850101111561584b57600080fd5b61585c82602083016020860161547a565b95945050505050565b6702632b233b4ba3c960c51b81526000825161588881600885016020870161547a565b9190910160080192915050565b601360fa1b8152600082516158b181600185016020870161547a565b9190910160010192915050565b634e487b7160e01b600052601160045260246000fd5b80820180821115610ccf57610ccf6158be565b634e487b7160e01b600052603260045260246000fd5b60008261591a57634e487b7160e01b600052601260045260246000fd5b500490565b6004811061593d57634e487b7160e01b600052602160045260246000fd5b9052565b6001600160601b0385811682528416602082015260808101615966604083018561591f565b82606083015295945050505050565b81810381811115610ccf57610ccf6158be565b6001600160601b03851681526020810184905260808101615966604083018561591f565b6000600182016159be576159be6158be565b5060010190565b6020808252602c908201527f46756e6374696f6e206d7573742062652063616c6c6564207468726f7567682060408201526b19195b1959d85d1958d85b1b60a21b606082015260800190565b6020808252602c908201527f46756e6374696f6e206d7573742062652063616c6c6564207468726f7567682060408201526b6163746976652070726f787960a01b606082015260800190565b6020808252600290820152614c3960f01b604082015260600190565b600060208284031215615a8b57600080fd5b5051919050565b8481526020810184905260808101615966604083018561591f565b634e487b7160e01b600052603160045260246000fd5b600060208284031215615ad557600080fd5b8151611087816154d1565b600081615aef57615aef6158be565b506000190190565b634e487b7160e01b600052600160045260246000fd5b8082028115828204841417610ccf57610ccf6158be565b600060208284031215615b3657600080fd5b815161108781615725565b6020808252602b908201527f496e697469616c697a61626c653a20636f6e7472616374206973206e6f74206960408201526a6e697469616c697a696e6760a81b606082015260800190565b600060208284031215615b9e57600080fd5b8151801515811461108757600080fd5b600060208284031215615bc057600080fd5b815160ff8116811461108757600080fd5b600181815b80851115615c0c578160001904821115615bf257615bf26158be565b80851615615bff57918102915b93841c9390800290615bd6565b509250929050565b600082615c2357506001610ccf565b81615c3057506000610ccf565b8160018114615c465760028114615c5057615c6c565b6001915050610ccf565b60ff841115615c6157615c616158be565b50506001821b610ccf565b5060208310610133831016604e8410600b8410161715615c8f575081810a610ccf565b615c998383615bd1565b8060001904821115615cad57615cad6158be565b029392505050565b60006110878383615c14565b8281526060810161108760208301848051825260209081015163ffffffff16910152565b600060408284031215615cf757600080fd5b615cff615610565b8251615d0a81615725565b8152602083015164ffffffffff81168114615d2457600080fd5b60208201529392505050565b600060408284031215615d4257600080fd5b615d4a615610565b825181526020830151615d248161578b565b8251815260208084015163ffffffff16908201526080810182516040830152602083015163ffffffff166060830152611087565b8151815260208083015163ffffffff169082015260408101610ccf565b64ffffffffff828116828216039080821115615dcb57615dcb6158be565b5092915050565b601f8211156118ee57600081815260208120601f850160051c81016020861015615df95750805b601f850160051c820191505b8181101561100457828155600101615e05565b815167ffffffffffffffff811115615e3257615e326155fa565b615e4681615e4084546157ba565b84615dd2565b602080601f831160018114615e7b5760008415615e635750858301515b600019600386901b1c1916600185901b178555611004565b600085815260208120601f198616915b82811015615eaa57888601518255948401946001909101908401615e8b565b5085821015615ec85787850151600019600388901b60f8161c191681555b5050505050600190811b01905550565b60008251615eea81846020870161547a565b919091019291505056fe360894a13ba1a3210667c828492db98dca3e2076cc3735a920a3ca505d382bbc416464726573733a206c6f772d6c6576656c2064656c65676174652063616c6c206661696c6564d58e94604d90293a1c1ad95bfe6a6e6c352c33c5774a4b6b4f4b6f7460da29c5a26469706673582212207c32b7f92f334df510f9d09be5a7cd7fba256dce4a78ce7f2e47e1abae8d1f5064736f6c63430008120033",
  "libraries": {
    "APRHistory": "0x9b508ABEbB61a0C24d28A728BB45834e440e4761"
  },
  "devdoc": {
    "author": "Lila Rest (https://lila.rest)",
    "custom:oz-upgrades-unsafe-allow": "external-library-linking",
    "custom:security-contact": "security@ledgity.comsecurity@ledgity.com",
    "details": "Definitions: - Deposit: Swap of underlying tokens for L-Tokens (1:1 ratio). - Withdrawal: Swap of L-Tokens for underlying tokens (1:1 ratio, minus applicable fees).   - Instant: Processed immediately.   - Request: Queued for later processing.   - Big Request: A requested withdrawal exceeding half of the retention rate. - (Withdrawal) queue: A list of all requested withdrawals sorted by priority. - Request ID: The index of a withdrawal request in the queue array. - Retention rate: Maximum fraction of underlying tokens TVL the contract can retain. - Fees Rate: Percentage of fees applied to successful withdrawals. - Usable underlyings: Amount of underlying tokens that have been deposited through                       expected ways and are so considered safe to use by the contract. - Transfers listeners: External contracts listening on L-Tokens transfers. - Fund wallet: Wallet managed by the Ledgity's financial team. - Withdrawer wallet: Managed by an off-chain server to automate withdrawal request                      processing. Note that words between parenthesis are sometimes omitted for brevity.Deployment notice: This contract can safely receive funds immediately after initialization. (i.e., there is no way for funds to be sent to non-owned addresses). It is, however, recommended to replace ASAP owner and fund wallets with multi-sig wallets.For further details, see \"LToken\" section of whitepaper.",
    "events": {
      "APRChangeEvent(uint16)": {
        "params": {
          "newAPRUD7x3": "The new APR in UD7x3 format."
        }
      },
      "ActivityEvent(int256,address,uint8,uint256,uint256,uint8,int256)": {
        "params": {
          "account": "The account involved in the activity.",
          "action": "The type of activity.",
          "amount": "The amount of underlying tokens involved in the activity.",
          "id": "ID of the involved withdrawal request or NO_ID (-1) if not applicable.",
          "newId": "The new ID of the request if it has been moved in the queue.",
          "newStatus": "The new status of the activity."
        }
      },
      "AdminChanged(address,address)": {
        "details": "Emitted when the admin account has changed."
      },
      "Approval(address,address,uint256)": {
        "details": "Emitted when the allowance of a `spender` for an `owner` is set by a call to {approve}. `value` is the new allowance."
      },
      "BeaconUpgraded(address)": {
        "details": "Emitted when the beacon is changed."
      },
      "Initialized(uint8)": {
        "details": "Triggered when the contract has been initialized or reinitialized."
      },
      "MintedRewardsEvent(address,uint256,uint256)": {
        "params": {
          "account": "The account that received the rewards.",
          "balanceBefore": "The balance of the account before the minting.",
          "rewards": "The amount of minted rewards."
        }
      },
      "Paused(address)": {
        "details": "Emitted when the pause is triggered by `account`."
      },
      "TVLChangeEvent(uint256)": {
        "details": "TVL = realTotalSupply()",
        "params": {
          "newTVL": "The new TVL of the contract."
        }
      },
      "Transfer(address,address,uint256)": {
        "details": "Emitted when `value` tokens are moved from one account (`from`) to another (`to`). Note that `value` may be zero."
      },
      "Unpaused(address)": {
        "details": "Emitted when the pause is lifted by `account`."
      },
      "Upgraded(address)": {
        "details": "Emitted when the implementation is upgraded."
      }
    },
    "kind": "dev",
    "methods": {
      "allowance(address,address)": {
        "details": "See {IERC20-allowance}."
      },
      "approve(address,uint256)": {
        "details": "See {IERC20-approve}. NOTE: If `amount` is the maximum `uint256`, the allowance is not updated on `transferFrom`. This is semantically equivalent to an infinite approval. Requirements: - `spender` cannot be the zero address."
      },
      "balanceOf(address)": {
        "details": "This is an oOverride of ERC20Upgradeable.balanceOf() that rewards that have not been yet minted to the specified account.",
        "params": {
          "account": "The account to check the total balance of."
        },
        "returns": {
          "_0": "The total balance of the account."
        }
      },
      "cancelWithdrawalRequest(uint256)": {
        "params": {
          "requestId": "The ID of the withdrawal request to cancel."
        }
      },
      "decimals()": {
        "details": "The ERC20WrapperUpgradeable version is preferred because it mirrors the decimals amount of the underlying stablecoin token."
      },
      "decreaseAllowance(address,uint256)": {
        "details": "Atomically decreases the allowance granted to `spender` by the caller. This is an alternative to {approve} that can be used as a mitigation for problems described in {IERC20-approve}. Emits an {Approval} event indicating the updated allowance. Requirements: - `spender` cannot be the zero address. - `spender` must have allowance for the caller of at least `subtractedValue`."
      },
      "deposit(uint256)": {
        "params": {
          "amount": "The amount of underlying tokens to deposit."
        }
      },
      "depositFor(address,uint256)": {
        "details": "Allow a user to deposit underlying tokens and mint the corresponding number of wrapped tokens."
      },
      "getAPR()": {
        "returns": {
          "_0": "The current APR in UD7x3 format."
        }
      },
      "getExpectedRetained()": {
        "returns": {
          "amount": "The expected amount of retained underlying tokens."
        }
      },
      "getWithdrawnAmountAndFees(address,uint256)": {
        "params": {
          "account": "The account initiating the withdrawal.",
          "amount": "The amount of the withdrawal."
        }
      },
      "globalBlacklist()": {
        "returns": {
          "_0": "The address of the GlobalBlacklist contract."
        }
      },
      "globalOwner()": {
        "returns": {
          "_0": "The address of the GlobalOwner contract."
        }
      },
      "globalPause()": {
        "returns": {
          "_0": "The address of the GlobalPause contract."
        }
      },
      "increaseAllowance(address,uint256)": {
        "details": "Atomically increases the allowance granted to `spender` by the caller. This is an alternative to {approve} that can be used as a mitigation for problems described in {IERC20-approve}. Emits an {Approval} event indicating the updated allowance. Requirements: - `spender` cannot be the zero address."
      },
      "initialize(address,address,address,address,address)": {
        "details": "See: https://docs.openzeppelin.com/contracts/4.x/upgradeable",
        "params": {
          "globalBlacklist_": "The address of the GlobalBlacklist contract.",
          "globalOwner_": "The address of the GlobalOwner contract.",
          "globalPause_": "The address of the GlobalPause contract.",
          "underlyingToken": "The address of the underlying stablecoin ERC20 token."
        }
      },
      "instantWithdrawal(uint256)": {
        "details": "In order to save some gas and time to users, frontends should propose this function to users only when it has been verified that it will not revert. They should propose the requestWithdrawal() function otherwise.",
        "params": {
          "amount": "The amount L-Tokens to withdraw."
        }
      },
      "invested()": {
        "returns": {
          "_0": "The reference to the invested token contract."
        }
      },
      "listenToTransfers(address)": {
        "details": "Each time a transfer occurs, the onLTokenTransfer() function of the specified contract will be called.IMPORTANT SECURITY NOTE: This method is not intended to be used with contracts that are not owned by the Ledgity team.",
        "params": {
          "listenerContract": "The address of the new transfers listener contract."
        }
      },
      "name()": {
        "details": "Returns the name of the token."
      },
      "owner()": {
        "returns": {
          "_0": "The address of the owner"
        }
      },
      "paused()": {
        "details": "Both version are the same as ERC20BaseUpgradeable.paused() mirrors GlobalPausableUpgradeable.paused(), so a random one is chosen.",
        "returns": {
          "_0": "Whether the contract is paused or not."
        }
      },
      "processBigQueuedRequest(uint256)": {
        "details": "In contrast to non-big requests processing, this function will uses to fund wallet's balance to fill the request. This allows processing requests that are greater than retention rate without having to exceed this rate on the contract.",
        "params": {
          "requestId": "The ID of the big request to process."
        }
      },
      "processQueuedRequests()": {
        "details": "For further details, see \"LToken  > Withdrawals\" section of whitepaper."
      },
      "proxiableUUID()": {
        "details": "Implementation of the ERC1822 {proxiableUUID} function. This returns the storage slot used by the implementation. It is used to validate the implementation's compatibility when performing an upgrade. IMPORTANT: A proxy pointing at a proxiable contract should not be considered proxiable itself, because this risks bricking a proxy that upgrades to it, by delegating to itself until out of gas. Thus it is critical that this function revert if invoked through a proxy. This is guaranteed by the `notDelegated` modifier."
      },
      "realBalanceOf(address)": {
        "params": {
          "account": "The account to check the real balance of."
        },
        "returns": {
          "_0": "The real balance of the account."
        }
      },
      "realTotalSupply()": {
        "returns": {
          "_0": "The real total supply of L-Tokens."
        }
      },
      "recoverERC20(address,uint256)": {
        "details": "This override of RecoverableUpgradeable.recoverERC20() prevents the recovered token from being the underlying token.",
        "params": {
          "amount": "The amount of token to recover.",
          "tokenAddress": "The address of the token to recover."
        }
      },
      "recoverUnderlying()": {
        "details": "To prevent owner from being able to drain the contract, this function only allows recovering \"unusable\" underlying tokens, i.e., tokens that have not been sent through fund() or deposit() functions."
      },
      "repatriate(uint256)": {
        "details": "The function will revert if repatriated amount makes the contract exceeding the retention rate.",
        "params": {
          "amount": "The amount of underlying tokens to repatriate."
        }
      },
      "requestWithdrawal(uint256)": {
        "details": "The sender must attach 0.003 ETH to pre-pay the future processing gas fees paid by the withdrawer wallet.",
        "params": {
          "amount": "The amount L-Tokens to withdraw."
        }
      },
      "setAPR(uint16)": {
        "params": {
          "aprUD7x3": "The new APR in UD7x3 format."
        }
      },
      "setFeesRate(uint32)": {
        "params": {
          "feesRateUD7x3_": "The new withdrawal fee rate in UD7x3 format."
        }
      },
      "setFund(address)": {
        "params": {
          "fund_": "The address of the new fund wallet."
        }
      },
      "setLDYStaking(address)": {
        "params": {
          "ldyStakingAddress": "The address of the new LDYStaking contract."
        }
      },
      "setRetentionRate(uint32)": {
        "details": "The retention rate is capped at 10%, which ensures that no more than 10% of deposited assets will ever be exposed in this contract (reduces attack surface).",
        "params": {
          "retentionRateUD7x3_": "The new retention rate in UD7x3 format."
        }
      },
      "setWithdrawer(address)": {
        "params": {
          "withdrawer_": "The address of the new withdrawer wallet."
        }
      },
      "startRewardsRedirection(address,address)": {
        "params": {
          "from": "The address of the account to redirect rewards from.",
          "to": "The address of the account to redirect rewards to."
        }
      },
      "stopRewardsRedirection(address,address)": {
        "params": {
          "from": "The address of the account to stop redirecting rewards from.",
          "to": "The address of the account to stop redirecting rewards to."
        }
      },
      "symbol()": {
        "details": "Returns the symbol of the token, usually a shorter version of the name."
      },
      "totalSupply()": {
        "returns": {
          "_0": "The total supply of L-Tokens."
        }
      },
      "transfer(address,uint256)": {
        "details": "See {IERC20-transfer}. Requirements: - `to` cannot be the zero address. - the caller must have a balance of at least `amount`."
      },
      "transferFrom(address,address,uint256)": {
        "details": "See {IERC20-transferFrom}. Emits an {Approval} event indicating the updated allowance. This is not required by the EIP. See the note at the beginning of {ERC20}. NOTE: Does not update the allowance if the current allowance is the maximum `uint256`. Requirements: - `from` and `to` cannot be the zero address. - `from` must have a balance of at least `amount`. - the caller must have allowance for ``from``'s tokens of at least `amount`."
      },
      "underlying()": {
        "details": "Returns the address of the underlying ERC-20 token that is being wrapped."
      },
      "unlistenToTransfers(address)": {
        "details": "The onLTokenTransfer() function of the specified contract will not be called anymore each time a L-Token transfer occurs.",
        "params": {
          "listenerContract": "The address of the listener contract."
        }
      },
      "unmintedRewardsOf(address)": {
        "details": "This is a public implementation of InvestUpgradeable_rewardsOf(). In the context of LToken, this function returns the amount of rewards that have not been distributed/minted yet to the specified account.This is particularly useful for off-chain services to display charts and statistics, as seen in the Ledgity Yield's frontend.",
        "params": {
          "account": "The account to check the unminted rewards of."
        },
        "returns": {
          "_0": "The amount of account's unminted rewards."
        }
      },
      "upgradeTo(address)": {
        "custom:oz-upgrades-unsafe-allow-reachable": "delegatecall",
        "details": "Upgrade the implementation of the proxy to `newImplementation`. Calls {_authorizeUpgrade}. Emits an {Upgraded} event."
      },
      "upgradeToAndCall(address,bytes)": {
        "custom:oz-upgrades-unsafe-allow-reachable": "delegatecall",
        "details": "Upgrade the implementation of the proxy to `newImplementation`, and subsequently execute the function call encoded in `data`. Calls {_authorizeUpgrade}. Emits an {Upgraded} event."
      },
      "withdrawTo(address,uint256)": {
        "details": "Allow a user to burn a number of wrapped tokens and withdraw the corresponding number of underlying tokens."
      }
    },
    "stateVariables": {
      "frozenRequests": {
        "details": "If a request emitter as been blacklisted, its request is moved here to prevent it from blocking the queue."
      },
      "transfersListeners": {
        "details": "onLTokenTransfer() functions of those contracts will be called on each transfer."
      },
      "usableUnderlyings": {
        "details": "Are usable, only underlying tokens deposit through deposit() or fund() functions."
      }
    },
    "title": "LToken",
    "version": 1
  },
  "userdoc": {
    "events": {
      "APRChangeEvent(uint16)": {
        "notice": "Emitted to inform listeners about a change in the APR's value."
      },
      "ActivityEvent(int256,address,uint8,uint256,uint256,uint8,int256)": {
        "notice": "Emitted to inform listerners about an activity related to deposits and withdrawals."
      },
      "MintedRewardsEvent(address,uint256,uint256)": {
        "notice": "Emitted to inform listeners that some rewards have been minted."
      },
      "TVLChangeEvent(uint256)": {
        "notice": "Emitted to inform listeners about a change in the contract's TVL."
      }
    },
    "kind": "user",
    "methods": {
      "balanceOf(address)": {
        "notice": "Retrieves the total balance of L-Tokens that belong to the account."
      },
      "cancelWithdrawalRequest(uint256)": {
        "notice": "Cancels a given withdrawal request. The request emitter receive back its L-Tokens and no fees will be charged."
      },
      "claimFees()": {
        "notice": "Used by owner to claim fees generated from successful withdrawals."
      },
      "decimals()": {
        "notice": "Required override of decimals() which is implemented by both ERC20Upgradeable and ERC20WrapperUpgradeable parent contracts."
      },
      "deposit(uint256)": {
        "notice": "Allows exchanging some underlying tokens for the same amount of L-Tokens."
      },
      "depositFor(address,uint256)": {
        "notice": "Override of ERC20WrapperUpgradeable.depositFor() that reverts. Use deposit() function instead."
      },
      "feesRateUD7x3()": {
        "notice": "Holds the withdrawal fees rate in UD7x3 format (e.g., 350 = 0.350%)."
      },
      "frozenRequests(uint256)": {
        "notice": "Holds a list of all currently frozen withdrawal requests."
      },
      "fund()": {
        "notice": "Holds address of fund wallet (managed by Ledgity financial team)."
      },
      "getAPR()": {
        "notice": "Retrieves the most recently set APR."
      },
      "getExpectedRetained()": {
        "notice": "Computes the maximum amount of underlying tokens that should be retained by the contract (based on retention rate)."
      },
      "getWithdrawnAmountAndFees(address,uint256)": {
        "notice": "Computes fees and net withdrawn amount for a given account withdrawing a given amount."
      },
      "globalBlacklist()": {
        "notice": "Retrieves the address of GlobalBlacklist contract."
      },
      "globalOwner()": {
        "notice": "Retrieves the address of GlobalOwner contract."
      },
      "globalPause()": {
        "notice": "Retrieves the address of GlobalPause contract."
      },
      "initialize(address,address,address,address,address)": {
        "notice": "Initializer function of the contract. It replaces the constructor() function in the context of upgradeable contracts."
      },
      "instantWithdrawal(uint256)": {
        "notice": "Allows instaneously exchanging a given amount of L-Tokens for the same amount of underlying tokens. It will fail if the contract currently doesn't hold enough underlying tokens to cover the withdrawal."
      },
      "invested()": {
        "notice": "Retrieves the reference to the invested token contract."
      },
      "ldyStaking()": {
        "notice": "Holds a reference to the LDYStaking contract."
      },
      "listenToTransfers(address)": {
        "notice": "Adds a new contract to the L-Token transfers list."
      },
      "owner()": {
        "notice": "Override of OwnableUpgradeable.owner() that retrieves the owner's address from the GlobalOwner contract instead."
      },
      "paused()": {
        "notice": "Required override of paused() which is implemented by both GlobalPausableUpgradeable and ERC20BaseUpgradeable parent contracts."
      },
      "processBigQueuedRequest(uint256)": {
        "notice": "Processes a given queued big withdrawal request (one that exceeds half of the retention rate)."
      },
      "processQueuedRequests()": {
        "notice": "Processes queued withdrawal requests until there is else no more requests, else not enough underlying tokens to continue."
      },
      "realBalanceOf(address)": {
        "notice": "Retrieves the \"real\" balance of an account, i.e., excluding its not yet minted/distributed rewards."
      },
      "realTotalSupply()": {
        "notice": "Returns the \"real\" amount of existing L-Tokens, i.e., excluding not yet minted withdrawal fees and L-Tokens currently in the withdrawal queue."
      },
      "recoverERC20(address,uint256)": {
        "notice": "Recovers a specified amount of a given token address."
      },
      "recoverUnderlying()": {
        "notice": "Recovers underlying tokens accidentally sent to the contract."
      },
      "renounceOwnership()": {
        "notice": "Override of OwnableUpgradeable.renounceOwnership() that always reverts. Ownership is managed by the GlobalOwner contract and must be modified there."
      },
      "repatriate(uint256)": {
        "notice": "Used by the fund wallet to repatriate underlying tokens on the contract whenever those are required to fulfill some withdrawal requests."
      },
      "requestWithdrawal(uint256)": {
        "notice": "Allows requesting the exchange of a given amount of L-Tokens for the same amount of underlying tokens. The request will be automatically processed later."
      },
      "retentionRateUD7x3()": {
        "notice": "Holds the retention rate in UD7x3 format."
      },
      "rewardsRedirectsFromTo(address)": {
        "notice": "Holds active rewards redirections in both from->to and to->from[] ways."
      },
      "setAPR(uint16)": {
        "notice": "Updates the investment APR. Restricted to owner."
      },
      "setFeesRate(uint32)": {
        "notice": "Updates the current withdrawal fee rate."
      },
      "setFund(address)": {
        "notice": "Updates the address of the fund wallet."
      },
      "setLDYStaking(address)": {
        "notice": "Updates the address of LDYStaking contract."
      },
      "setRetentionRate(uint32)": {
        "notice": "Updates the current underlying token retention rate."
      },
      "setWithdrawer(address)": {
        "notice": "Updates the address of the withdrawer wallet."
      },
      "startRewardsRedirection(address,address)": {
        "notice": "Enables redirection of rewards from one account to another."
      },
      "stopRewardsRedirection(address,address)": {
        "notice": "Disable an active rewards redirection."
      },
      "totalQueued()": {
        "notice": "Holds the amount of L-Tokens currently in the withdrawal queue."
      },
      "totalSupply()": {
        "notice": "Retrives the total supply of L-Tokens, including not yet minted withdrawal fees and L-Tokens currently in the withdrawal queue."
      },
      "transferOwnership(address)": {
        "notice": "Override of OwnableUpgradeable.transferOwnership() that always reverts. Ownership is managed by the GlobalOwner contract and must be modified there."
      },
      "transfersListeners(uint256)": {
        "notice": "Holds a list of contracts' references that are listening to L-Tokens transfers."
      },
      "unclaimedFees()": {
        "notice": "Holds the amount of withdrawal fees not yet claimed by contract's owner."
      },
      "unlistenToTransfers(address)": {
        "notice": "Removes a contract from the L-Token transfers list."
      },
      "unmintedRewardsOf(address)": {
        "notice": "Retrieves the amount of given account's not yet minted rewards."
      },
      "usableUnderlyings()": {
        "notice": "Holds the amount of underlying tokens considered as usable by the contract."
      },
      "withdrawTo(address,uint256)": {
        "notice": "Override of ERC20WrapperUpgradeable.withdrawTo() that reverts. Use instantWithdrawal() or requestWithdrawal() functions instead."
      },
      "withdrawalQueue(uint256)": {
        "notice": "Holds an ordered list of active withdrawal requests."
      },
      "withdrawalQueueCursor()": {
        "notice": "Holds the index of the next withdrawal request to process in the queue."
      },
      "withdrawer()": {
        "notice": "Holds address of withdrawer wallet (managed by withdrawal server)."
      }
    },
    "notice": "Main contract of the Ledgity Yield protocol. It powers every L-Token (i.e., investment pools backed by RWA). An L-Token is an ERC20 wrapper around a stablecoin. As soon as a wallet holds some L-Tokens, it starts receiving rewards in the form of additional L-Tokens, which are auto-compounded over time.",
    "version": 1
  },
  "storageLayout": {
    "storage": [
      {
        "astId": 609,
        "contract": "contracts/src/LToken.sol:LToken",
        "label": "_initialized",
        "offset": 0,
        "slot": "0",
        "type": "t_uint8"
      },
      {
        "astId": 612,
        "contract": "contracts/src/LToken.sol:LToken",
        "label": "_initializing",
        "offset": 1,
        "slot": "0",
        "type": "t_bool"
      },
      {
        "astId": 591,
        "contract": "contracts/src/LToken.sol:LToken",
        "label": "__gap",
        "offset": 0,
        "slot": "1",
        "type": "t_array(t_uint256)50_storage"
      },
      {
        "astId": 906,
        "contract": "contracts/src/LToken.sol:LToken",
        "label": "__gap",
        "offset": 0,
        "slot": "51",
        "type": "t_array(t_uint256)50_storage"
      },
      {
        "astId": 2869,
        "contract": "contracts/src/LToken.sol:LToken",
        "label": "__gap",
        "offset": 0,
        "slot": "101",
        "type": "t_array(t_uint256)50_storage"
      },
      {
        "astId": 1137,
        "contract": "contracts/src/LToken.sol:LToken",
        "label": "_balances",
        "offset": 0,
        "slot": "151",
        "type": "t_mapping(t_address,t_uint256)"
      },
      {
        "astId": 1143,
        "contract": "contracts/src/LToken.sol:LToken",
        "label": "_allowances",
        "offset": 0,
        "slot": "152",
        "type": "t_mapping(t_address,t_mapping(t_address,t_uint256))"
      },
      {
        "astId": 1145,
        "contract": "contracts/src/LToken.sol:LToken",
        "label": "_totalSupply",
        "offset": 0,
        "slot": "153",
        "type": "t_uint256"
      },
      {
        "astId": 1147,
        "contract": "contracts/src/LToken.sol:LToken",
        "label": "_name",
        "offset": 0,
        "slot": "154",
        "type": "t_string_storage"
      },
      {
        "astId": 1149,
        "contract": "contracts/src/LToken.sol:LToken",
        "label": "_symbol",
        "offset": 0,
        "slot": "155",
        "type": "t_string_storage"
      },
      {
        "astId": 1729,
        "contract": "contracts/src/LToken.sol:LToken",
        "label": "__gap",
        "offset": 0,
        "slot": "156",
        "type": "t_array(t_uint256)45_storage"
      },
      {
        "astId": 928,
        "contract": "contracts/src/LToken.sol:LToken",
        "label": "_paused",
        "offset": 0,
        "slot": "201",
        "type": "t_bool"
      },
      {
        "astId": 1033,
        "contract": "contracts/src/LToken.sol:LToken",
        "label": "__gap",
        "offset": 0,
        "slot": "202",
        "type": "t_array(t_uint256)49_storage"
      },
      {
        "astId": 116,
        "contract": "contracts/src/LToken.sol:LToken",
        "label": "_owner",
        "offset": 0,
        "slot": "251",
        "type": "t_address"
      },
      {
        "astId": 236,
        "contract": "contracts/src/LToken.sol:LToken",
        "label": "__gap",
        "offset": 0,
        "slot": "252",
        "type": "t_array(t_uint256)49_storage"
      },
      {
        "astId": 8691,
        "contract": "contracts/src/LToken.sol:LToken",
        "label": "_globalOwner",
        "offset": 0,
        "slot": "301",
        "type": "t_contract(GlobalOwner)5028"
      },
      {
        "astId": 8775,
        "contract": "contracts/src/LToken.sol:LToken",
        "label": "__gap",
        "offset": 0,
        "slot": "302",
        "type": "t_array(t_uint256)50_storage"
      },
      {
        "astId": 8793,
        "contract": "contracts/src/LToken.sol:LToken",
        "label": "_globalPause",
        "offset": 0,
        "slot": "352",
        "type": "t_contract(GlobalPause)5104"
      },
      {
        "astId": 8852,
        "contract": "contracts/src/LToken.sol:LToken",
        "label": "__gap",
        "offset": 0,
        "slot": "353",
        "type": "t_array(t_uint256)50_storage"
      },
      {
        "astId": 8866,
        "contract": "contracts/src/LToken.sol:LToken",
        "label": "_globalBlacklist",
        "offset": 0,
        "slot": "403",
        "type": "t_contract(GlobalBlacklist)4981"
      },
      {
        "astId": 8940,
        "contract": "contracts/src/LToken.sol:LToken",
        "label": "__gap",
        "offset": 0,
        "slot": "404",
        "type": "t_array(t_uint256)50_storage"
      },
      {
        "astId": 9959,
        "contract": "contracts/src/LToken.sol:LToken",
        "label": "__gap",
        "offset": 0,
        "slot": "454",
        "type": "t_array(t_uint256)50_storage"
      },
      {
        "astId": 10050,
        "contract": "contracts/src/LToken.sol:LToken",
        "label": "__gap",
        "offset": 0,
        "slot": "504",
        "type": "t_array(t_uint256)50_storage"
      },
      {
        "astId": 1867,
        "contract": "contracts/src/LToken.sol:LToken",
        "label": "__gap",
        "offset": 0,
        "slot": "554",
        "type": "t_array(t_uint256)50_storage"
      },
      {
        "astId": 10155,
        "contract": "contracts/src/LToken.sol:LToken",
        "label": "__gap",
        "offset": 0,
        "slot": "604",
        "type": "t_array(t_uint256)50_storage"
      },
      {
        "astId": 8992,
        "contract": "contracts/src/LToken.sol:LToken",
        "label": "_invested",
        "offset": 0,
        "slot": "654",
        "type": "t_contract(IERC20Upgradeable)1808"
      },
      {
        "astId": 8998,
        "contract": "contracts/src/LToken.sol:LToken",
        "label": "accountsDetails",
        "offset": 0,
        "slot": "655",
        "type": "t_mapping(t_address,t_struct(AccountDetails)8988_storage)"
      },
      {
        "astId": 9003,
        "contract": "contracts/src/LToken.sol:LToken",
        "label": "_aprHistory",
        "offset": 0,
        "slot": "656",
        "type": "t_array(t_struct(Pack)10187_storage)dyn_storage"
      },
      {
        "astId": 9008,
        "contract": "contracts/src/LToken.sol:LToken",
        "label": "rewardsRedirectsFromTo",
        "offset": 0,
        "slot": "657",
        "type": "t_mapping(t_address,t_address)"
      },
      {
        "astId": 9013,
        "contract": "contracts/src/LToken.sol:LToken",
        "label": "rewardsRedirectsToFrom",
        "offset": 0,
        "slot": "658",
        "type": "t_mapping(t_address,t_array(t_address)dyn_storage)"
      },
      {
        "astId": 9016,
        "contract": "contracts/src/LToken.sol:LToken",
        "label": "_isClaiming",
        "offset": 0,
        "slot": "659",
        "type": "t_bool"
      },
      {
        "astId": 9866,
        "contract": "contracts/src/LToken.sol:LToken",
        "label": "__gap",
        "offset": 0,
        "slot": "660",
        "type": "t_array(t_uint256)50_storage"
      },
      {
        "astId": 1881,
        "contract": "contracts/src/LToken.sol:LToken",
        "label": "_underlying",
        "offset": 0,
        "slot": "710",
        "type": "t_contract(IERC20Upgradeable)1808"
      },
      {
        "astId": 2060,
        "contract": "contracts/src/LToken.sol:LToken",
        "label": "__gap",
        "offset": 0,
        "slot": "711",
        "type": "t_array(t_uint256)50_storage"
      },
      {
        "astId": 6058,
        "contract": "contracts/src/LToken.sol:LToken",
        "label": "ldyStaking",
        "offset": 0,
        "slot": "761",
        "type": "t_contract(LDYStaking)5990"
      },
      {
        "astId": 6061,
        "contract": "contracts/src/LToken.sol:LToken",
        "label": "withdrawer",
        "offset": 0,
        "slot": "762",
        "type": "t_address_payable"
      },
      {
        "astId": 6064,
        "contract": "contracts/src/LToken.sol:LToken",
        "label": "fund",
        "offset": 0,
        "slot": "763",
        "type": "t_address"
      },
      {
        "astId": 6067,
        "contract": "contracts/src/LToken.sol:LToken",
        "label": "feesRateUD7x3",
        "offset": 20,
        "slot": "763",
        "type": "t_uint32"
      },
      {
        "astId": 6070,
        "contract": "contracts/src/LToken.sol:LToken",
        "label": "retentionRateUD7x3",
        "offset": 24,
        "slot": "763",
        "type": "t_uint32"
      },
      {
        "astId": 6073,
        "contract": "contracts/src/LToken.sol:LToken",
        "label": "unclaimedFees",
        "offset": 0,
        "slot": "764",
        "type": "t_uint256"
      },
      {
        "astId": 6076,
        "contract": "contracts/src/LToken.sol:LToken",
        "label": "totalQueued",
        "offset": 0,
        "slot": "765",
        "type": "t_uint256"
      },
      {
        "astId": 6079,
        "contract": "contracts/src/LToken.sol:LToken",
        "label": "usableUnderlyings",
        "offset": 0,
        "slot": "766",
        "type": "t_uint256"
      },
      {
        "astId": 6084,
        "contract": "contracts/src/LToken.sol:LToken",
        "label": "withdrawalQueue",
        "offset": 0,
        "slot": "767",
        "type": "t_array(t_struct(WithdrawalRequest)6033_storage)dyn_storage"
      },
      {
        "astId": 6087,
        "contract": "contracts/src/LToken.sol:LToken",
        "label": "withdrawalQueueCursor",
        "offset": 0,
        "slot": "768",
        "type": "t_uint256"
      },
      {
        "astId": 6092,
        "contract": "contracts/src/LToken.sol:LToken",
        "label": "frozenRequests",
        "offset": 0,
        "slot": "769",
        "type": "t_array(t_struct(WithdrawalRequest)6033_storage)dyn_storage"
      },
      {
        "astId": 6097,
        "contract": "contracts/src/LToken.sol:LToken",
        "label": "transfersListeners",
        "offset": 0,
        "slot": "770",
        "type": "t_array(t_contract(ITransfersListener)10168)dyn_storage"
      }
    ],
    "types": {
      "t_address": {
        "encoding": "inplace",
        "label": "address",
        "numberOfBytes": "20"
      },
      "t_address_payable": {
        "encoding": "inplace",
        "label": "address payable",
        "numberOfBytes": "20"
      },
      "t_array(t_address)dyn_storage": {
        "base": "t_address",
        "encoding": "dynamic_array",
        "label": "address[]",
        "numberOfBytes": "32"
      },
      "t_array(t_contract(ITransfersListener)10168)dyn_storage": {
        "base": "t_contract(ITransfersListener)10168",
        "encoding": "dynamic_array",
        "label": "contract ITransfersListener[]",
        "numberOfBytes": "32"
      },
      "t_array(t_struct(Pack)10187_storage)dyn_storage": {
        "base": "t_struct(Pack)10187_storage",
        "encoding": "dynamic_array",
        "label": "struct APRHistory.Pack[]",
        "numberOfBytes": "32"
      },
      "t_array(t_struct(WithdrawalRequest)6033_storage)dyn_storage": {
        "base": "t_struct(WithdrawalRequest)6033_storage",
        "encoding": "dynamic_array",
        "label": "struct LToken.WithdrawalRequest[]",
        "numberOfBytes": "32"
      },
      "t_array(t_uint16)4_storage": {
        "base": "t_uint16",
        "encoding": "inplace",
        "label": "uint16[4]",
        "numberOfBytes": "32"
      },
      "t_array(t_uint256)45_storage": {
        "base": "t_uint256",
        "encoding": "inplace",
        "label": "uint256[45]",
        "numberOfBytes": "1440"
      },
      "t_array(t_uint256)49_storage": {
        "base": "t_uint256",
        "encoding": "inplace",
        "label": "uint256[49]",
        "numberOfBytes": "1568"
      },
      "t_array(t_uint256)50_storage": {
        "base": "t_uint256",
        "encoding": "inplace",
        "label": "uint256[50]",
        "numberOfBytes": "1600"
      },
      "t_array(t_uint40)4_storage": {
        "base": "t_uint40",
        "encoding": "inplace",
        "label": "uint40[4]",
        "numberOfBytes": "32"
      },
      "t_bool": {
        "encoding": "inplace",
        "label": "bool",
        "numberOfBytes": "1"
      },
      "t_contract(GlobalBlacklist)4981": {
        "encoding": "inplace",
        "label": "contract GlobalBlacklist",
        "numberOfBytes": "20"
      },
      "t_contract(GlobalOwner)5028": {
        "encoding": "inplace",
        "label": "contract GlobalOwner",
        "numberOfBytes": "20"
      },
      "t_contract(GlobalPause)5104": {
        "encoding": "inplace",
        "label": "contract GlobalPause",
        "numberOfBytes": "20"
      },
      "t_contract(IERC20Upgradeable)1808": {
        "encoding": "inplace",
        "label": "contract IERC20Upgradeable",
        "numberOfBytes": "20"
      },
      "t_contract(ITransfersListener)10168": {
        "encoding": "inplace",
        "label": "contract ITransfersListener",
        "numberOfBytes": "20"
      },
      "t_contract(LDYStaking)5990": {
        "encoding": "inplace",
        "label": "contract LDYStaking",
        "numberOfBytes": "20"
      },
      "t_mapping(t_address,t_address)": {
        "encoding": "mapping",
        "key": "t_address",
        "label": "mapping(address => address)",
        "numberOfBytes": "32",
        "value": "t_address"
      },
      "t_mapping(t_address,t_array(t_address)dyn_storage)": {
        "encoding": "mapping",
        "key": "t_address",
        "label": "mapping(address => address[])",
        "numberOfBytes": "32",
        "value": "t_array(t_address)dyn_storage"
      },
      "t_mapping(t_address,t_mapping(t_address,t_uint256))": {
        "encoding": "mapping",
        "key": "t_address",
        "label": "mapping(address => mapping(address => uint256))",
        "numberOfBytes": "32",
        "value": "t_mapping(t_address,t_uint256)"
      },
      "t_mapping(t_address,t_struct(AccountDetails)8988_storage)": {
        "encoding": "mapping",
        "key": "t_address",
        "label": "mapping(address => struct InvestUpgradeable.AccountDetails)",
        "numberOfBytes": "32",
        "value": "t_struct(AccountDetails)8988_storage"
      },
      "t_mapping(t_address,t_uint256)": {
        "encoding": "mapping",
        "key": "t_address",
        "label": "mapping(address => uint256)",
        "numberOfBytes": "32",
        "value": "t_uint256"
      },
      "t_string_storage": {
        "encoding": "bytes",
        "label": "string",
        "numberOfBytes": "32"
      },
      "t_struct(AccountDetails)8988_storage": {
        "encoding": "inplace",
        "label": "struct InvestUpgradeable.AccountDetails",
        "members": [
          {
            "astId": 8985,
            "contract": "contracts/src/LToken.sol:LToken",
            "label": "period",
            "offset": 0,
            "slot": "0",
            "type": "t_struct(InvestmentPeriod)8982_storage"
          },
          {
            "astId": 8987,
            "contract": "contracts/src/LToken.sol:LToken",
            "label": "virtualBalance",
            "offset": 0,
            "slot": "3",
            "type": "t_uint256"
          }
        ],
        "numberOfBytes": "128"
      },
      "t_struct(InvestmentPeriod)8982_storage": {
        "encoding": "inplace",
        "label": "struct InvestUpgradeable.InvestmentPeriod",
        "members": [
          {
            "astId": 8978,
            "contract": "contracts/src/LToken.sol:LToken",
            "label": "timestamp",
            "offset": 0,
            "slot": "0",
            "type": "t_uint40"
          },
          {
            "astId": 8981,
            "contract": "contracts/src/LToken.sol:LToken",
            "label": "ref",
            "offset": 0,
            "slot": "1",
            "type": "t_struct(Reference)10192_storage"
          }
        ],
        "numberOfBytes": "96"
      },
      "t_struct(Pack)10187_storage": {
        "encoding": "inplace",
        "label": "struct APRHistory.Pack",
        "members": [
          {
            "astId": 10180,
            "contract": "contracts/src/LToken.sol:LToken",
            "label": "aprsUD7x3",
            "offset": 0,
            "slot": "0",
            "type": "t_array(t_uint16)4_storage"
          },
          {
            "astId": 10184,
            "contract": "contracts/src/LToken.sol:LToken",
            "label": "timestamps",
            "offset": 0,
            "slot": "1",
            "type": "t_array(t_uint40)4_storage"
          },
          {
            "astId": 10186,
            "contract": "contracts/src/LToken.sol:LToken",
            "label": "cursor",
            "offset": 0,
            "slot": "2",
            "type": "t_uint32"
          }
        ],
        "numberOfBytes": "96"
      },
      "t_struct(Reference)10192_storage": {
        "encoding": "inplace",
        "label": "struct APRHistory.Reference",
        "members": [
          {
            "astId": 10189,
            "contract": "contracts/src/LToken.sol:LToken",
            "label": "packIndex",
            "offset": 0,
            "slot": "0",
            "type": "t_uint256"
          },
          {
            "astId": 10191,
            "contract": "contracts/src/LToken.sol:LToken",
            "label": "cursorIndex",
            "offset": 0,
            "slot": "1",
            "type": "t_uint32"
          }
        ],
        "numberOfBytes": "64"
      },
      "t_struct(WithdrawalRequest)6033_storage": {
        "encoding": "inplace",
        "label": "struct LToken.WithdrawalRequest",
        "members": [
          {
            "astId": 6030,
            "contract": "contracts/src/LToken.sol:LToken",
            "label": "account",
            "offset": 0,
            "slot": "0",
            "type": "t_address"
          },
          {
            "astId": 6032,
            "contract": "contracts/src/LToken.sol:LToken",
            "label": "amount",
            "offset": 20,
            "slot": "0",
            "type": "t_uint96"
          }
        ],
        "numberOfBytes": "32"
      },
      "t_uint16": {
        "encoding": "inplace",
        "label": "uint16",
        "numberOfBytes": "2"
      },
      "t_uint256": {
        "encoding": "inplace",
        "label": "uint256",
        "numberOfBytes": "32"
      },
      "t_uint32": {
        "encoding": "inplace",
        "label": "uint32",
        "numberOfBytes": "4"
      },
      "t_uint40": {
        "encoding": "inplace",
        "label": "uint40",
        "numberOfBytes": "5"
      },
      "t_uint8": {
        "encoding": "inplace",
        "label": "uint8",
        "numberOfBytes": "1"
      },
      "t_uint96": {
        "encoding": "inplace",
        "label": "uint96",
        "numberOfBytes": "12"
      }
    }
  }
}