{
  "address": "0xA6124b80980683d9018DB73C37040A6484ebdEca",
  "abi": [
    {
      "anonymous": false,
      "inputs": [
        {
          "indexed": false,
          "internalType": "uint16",
          "name": "newAPRUD7x3",
          "type": "uint16"
        }
      ],
      "name": "APRChangeEvent",
      "type": "event"
    },
    {
      "anonymous": false,
      "inputs": [
        {
          "indexed": true,
          "internalType": "int256",
          "name": "id",
          "type": "int256"
        },
        {
          "indexed": true,
          "internalType": "address",
          "name": "account",
          "type": "address"
        },
        {
          "indexed": true,
          "internalType": "enum LToken.Action",
          "name": "action",
          "type": "uint8"
        },
        {
          "indexed": false,
          "internalType": "uint256",
          "name": "amount",
          "type": "uint256"
        },
        {
          "indexed": false,
          "internalType": "uint256",
          "name": "amountAfterFees",
          "type": "uint256"
        },
        {
          "indexed": false,
          "internalType": "enum LToken.Status",
          "name": "newStatus",
          "type": "uint8"
        },
        {
          "indexed": false,
          "internalType": "int256",
          "name": "newId",
          "type": "int256"
        },
        {
          "indexed": false,
          "internalType": "string",
          "name": "referralCode",
          "type": "string"
        }
      ],
      "name": "ActivityEvent",
      "type": "event"
    },
    {
      "anonymous": false,
      "inputs": [
        {
          "indexed": false,
          "internalType": "address",
          "name": "previousAdmin",
          "type": "address"
        },
        {
          "indexed": false,
          "internalType": "address",
          "name": "newAdmin",
          "type": "address"
        }
      ],
      "name": "AdminChanged",
      "type": "event"
    },
    {
      "anonymous": false,
      "inputs": [
        {
          "indexed": true,
          "internalType": "address",
          "name": "owner",
          "type": "address"
        },
        {
          "indexed": true,
          "internalType": "address",
          "name": "spender",
          "type": "address"
        },
        {
          "indexed": false,
          "internalType": "uint256",
          "name": "value",
          "type": "uint256"
        }
      ],
      "name": "Approval",
      "type": "event"
    },
    {
      "anonymous": false,
      "inputs": [
        {
          "indexed": true,
          "internalType": "address",
          "name": "beacon",
          "type": "address"
        }
      ],
      "name": "BeaconUpgraded",
      "type": "event"
    },
    {
      "anonymous": false,
      "inputs": [
        {
          "indexed": false,
          "internalType": "uint8",
          "name": "version",
          "type": "uint8"
        }
      ],
      "name": "Initialized",
      "type": "event"
    },
    {
      "anonymous": false,
      "inputs": [
        {
          "indexed": true,
          "internalType": "address",
          "name": "account",
          "type": "address"
        },
        {
          "indexed": false,
          "internalType": "uint256",
          "name": "balanceBefore",
          "type": "uint256"
        },
        {
          "indexed": false,
          "internalType": "uint256",
          "name": "rewards",
          "type": "uint256"
        }
      ],
      "name": "MintedRewardsEvent",
      "type": "event"
    },
    {
      "anonymous": false,
      "inputs": [
        {
          "indexed": true,
          "internalType": "address",
          "name": "previousOwner",
          "type": "address"
        },
        {
          "indexed": true,
          "internalType": "address",
          "name": "newOwner",
          "type": "address"
        }
      ],
      "name": "OwnershipTransferred",
      "type": "event"
    },
    {
      "anonymous": false,
      "inputs": [
        {
          "indexed": false,
          "internalType": "address",
          "name": "account",
          "type": "address"
        }
      ],
      "name": "Paused",
      "type": "event"
    },
    {
      "anonymous": false,
      "inputs": [
        {
          "indexed": false,
          "internalType": "uint256",
          "name": "newTVL",
          "type": "uint256"
        }
      ],
      "name": "TVLChangeEvent",
      "type": "event"
    },
    {
      "anonymous": false,
      "inputs": [
        {
          "indexed": true,
          "internalType": "address",
          "name": "from",
          "type": "address"
        },
        {
          "indexed": true,
          "internalType": "address",
          "name": "to",
          "type": "address"
        },
        {
          "indexed": false,
          "internalType": "uint256",
          "name": "value",
          "type": "uint256"
        }
      ],
      "name": "Transfer",
      "type": "event"
    },
    {
      "anonymous": false,
      "inputs": [
        {
          "indexed": false,
          "internalType": "address",
          "name": "account",
          "type": "address"
        }
      ],
      "name": "Unpaused",
      "type": "event"
    },
    {
      "anonymous": false,
      "inputs": [
        {
          "indexed": true,
          "internalType": "address",
          "name": "implementation",
          "type": "address"
        }
      ],
      "name": "Upgraded",
      "type": "event"
    },
    {
      "inputs": [
        {
          "internalType": "address",
          "name": "owner",
          "type": "address"
        },
        {
          "internalType": "address",
          "name": "spender",
          "type": "address"
        }
      ],
      "name": "allowance",
      "outputs": [
        {
          "internalType": "uint256",
          "name": "",
          "type": "uint256"
        }
      ],
      "stateMutability": "view",
      "type": "function"
    },
    {
      "inputs": [
        {
          "internalType": "address",
          "name": "spender",
          "type": "address"
        },
        {
          "internalType": "uint256",
          "name": "amount",
          "type": "uint256"
        }
      ],
      "name": "approve",
      "outputs": [
        {
          "internalType": "bool",
          "name": "",
          "type": "bool"
        }
      ],
      "stateMutability": "nonpayable",
      "type": "function"
    },
    {
      "inputs": [
        {
          "internalType": "address",
          "name": "account",
          "type": "address"
        }
      ],
      "name": "balanceOf",
      "outputs": [
        {
          "internalType": "uint256",
          "name": "",
          "type": "uint256"
        }
      ],
      "stateMutability": "view",
      "type": "function"
    },
    {
      "inputs": [
        {
          "internalType": "uint256",
          "name": "requestId",
          "type": "uint256"
        }
      ],
      "name": "cancelWithdrawalRequest",
      "outputs": [],
      "stateMutability": "nonpayable",
      "type": "function"
    },
    {
      "inputs": [],
      "name": "claimFees",
      "outputs": [],
      "stateMutability": "nonpayable",
      "type": "function"
    },
    {
      "inputs": [],
      "name": "decimals",
      "outputs": [
        {
          "internalType": "uint8",
          "name": "",
          "type": "uint8"
        }
      ],
      "stateMutability": "view",
      "type": "function"
    },
    {
      "inputs": [
        {
          "internalType": "address",
          "name": "spender",
          "type": "address"
        },
        {
          "internalType": "uint256",
          "name": "subtractedValue",
          "type": "uint256"
        }
      ],
      "name": "decreaseAllowance",
      "outputs": [
        {
          "internalType": "bool",
          "name": "",
          "type": "bool"
        }
      ],
      "stateMutability": "nonpayable",
      "type": "function"
    },
    {
      "inputs": [
        {
          "internalType": "uint256",
          "name": "amount",
          "type": "uint256"
        },
        {
          "internalType": "string",
          "name": "refCode",
          "type": "string"
        }
      ],
      "name": "deposit",
      "outputs": [],
      "stateMutability": "nonpayable",
      "type": "function"
    },
    {
      "inputs": [
        {
          "internalType": "address",
          "name": "account",
          "type": "address"
        },
        {
          "internalType": "uint256",
          "name": "amount",
          "type": "uint256"
        }
      ],
      "name": "depositFor",
      "outputs": [
        {
          "internalType": "bool",
          "name": "",
          "type": "bool"
        }
      ],
      "stateMutability": "pure",
      "type": "function"
    },
    {
      "inputs": [],
      "name": "feesRateUD7x3",
      "outputs": [
        {
          "internalType": "uint32",
          "name": "",
          "type": "uint32"
        }
      ],
      "stateMutability": "view",
      "type": "function"
    },
    {
      "inputs": [
        {
          "internalType": "uint256",
          "name": "",
          "type": "uint256"
        }
      ],
      "name": "frozenRequests",
      "outputs": [
        {
          "internalType": "address",
          "name": "account",
          "type": "address"
        },
        {
          "internalType": "uint96",
          "name": "amount",
          "type": "uint96"
        }
      ],
      "stateMutability": "view",
      "type": "function"
    },
    {
      "inputs": [],
      "name": "fund",
      "outputs": [
        {
          "internalType": "address",
          "name": "",
          "type": "address"
        }
      ],
      "stateMutability": "view",
      "type": "function"
    },
    {
      "inputs": [],
      "name": "getAPR",
      "outputs": [
        {
          "internalType": "uint16",
          "name": "",
          "type": "uint16"
        }
      ],
      "stateMutability": "view",
      "type": "function"
    },
    {
      "inputs": [],
      "name": "getExpectedRetained",
      "outputs": [
        {
          "internalType": "uint256",
          "name": "amount",
          "type": "uint256"
        }
      ],
      "stateMutability": "view",
      "type": "function"
    },
    {
      "inputs": [
        {
          "internalType": "address",
          "name": "account",
          "type": "address"
        },
        {
          "internalType": "uint256",
          "name": "amount",
          "type": "uint256"
        }
      ],
      "name": "getWithdrawnAmountAndFees",
      "outputs": [
        {
          "internalType": "uint256",
          "name": "withdrawnAmount",
          "type": "uint256"
        },
        {
          "internalType": "uint256",
          "name": "fees",
          "type": "uint256"
        }
      ],
      "stateMutability": "view",
      "type": "function"
    },
    {
      "inputs": [],
      "name": "globalBlacklist",
      "outputs": [
        {
          "internalType": "address",
          "name": "",
          "type": "address"
        }
      ],
      "stateMutability": "view",
      "type": "function"
    },
    {
      "inputs": [],
      "name": "globalOwner",
      "outputs": [
        {
          "internalType": "address",
          "name": "",
          "type": "address"
        }
      ],
      "stateMutability": "view",
      "type": "function"
    },
    {
      "inputs": [],
      "name": "globalPause",
      "outputs": [
        {
          "internalType": "address",
          "name": "",
          "type": "address"
        }
      ],
      "stateMutability": "view",
      "type": "function"
    },
    {
      "inputs": [
        {
          "internalType": "address",
          "name": "spender",
          "type": "address"
        },
        {
          "internalType": "uint256",
          "name": "addedValue",
          "type": "uint256"
        }
      ],
      "name": "increaseAllowance",
      "outputs": [
        {
          "internalType": "bool",
          "name": "",
          "type": "bool"
        }
      ],
      "stateMutability": "nonpayable",
      "type": "function"
    },
    {
      "inputs": [
        {
          "internalType": "address",
          "name": "globalOwner_",
          "type": "address"
        },
        {
          "internalType": "address",
          "name": "globalPause_",
          "type": "address"
        },
        {
          "internalType": "address",
          "name": "globalBlacklist_",
          "type": "address"
        },
        {
          "internalType": "address",
          "name": "ldyStaking_",
          "type": "address"
        },
        {
          "internalType": "address",
          "name": "underlyingToken",
          "type": "address"
        }
      ],
      "name": "initialize",
      "outputs": [],
      "stateMutability": "nonpayable",
      "type": "function"
    },
    {
      "inputs": [
        {
          "internalType": "uint256",
          "name": "amount",
          "type": "uint256"
        }
      ],
      "name": "instantWithdrawal",
      "outputs": [],
      "stateMutability": "nonpayable",
      "type": "function"
    },
    {
      "inputs": [],
      "name": "invested",
      "outputs": [
        {
          "internalType": "contract IERC20Upgradeable",
          "name": "",
          "type": "address"
        }
      ],
      "stateMutability": "view",
      "type": "function"
    },
    {
      "inputs": [],
      "name": "ldyStaking",
      "outputs": [
        {
          "internalType": "contract LDYStaking",
          "name": "",
          "type": "address"
        }
      ],
      "stateMutability": "view",
      "type": "function"
    },
    {
      "inputs": [
        {
          "internalType": "address",
          "name": "listenerContract",
          "type": "address"
        }
      ],
      "name": "listenToTransfers",
      "outputs": [],
      "stateMutability": "nonpayable",
      "type": "function"
    },
    {
      "inputs": [],
      "name": "name",
      "outputs": [
        {
          "internalType": "string",
          "name": "",
          "type": "string"
        }
      ],
      "stateMutability": "view",
      "type": "function"
    },
    {
      "inputs": [],
      "name": "owner",
      "outputs": [
        {
          "internalType": "address",
          "name": "",
          "type": "address"
        }
      ],
      "stateMutability": "view",
      "type": "function"
    },
    {
      "inputs": [],
      "name": "paused",
      "outputs": [
        {
          "internalType": "bool",
          "name": "",
          "type": "bool"
        }
      ],
      "stateMutability": "view",
      "type": "function"
    },
    {
      "inputs": [
        {
          "internalType": "uint256",
          "name": "requestId",
          "type": "uint256"
        }
      ],
      "name": "processBigQueuedRequest",
      "outputs": [],
      "stateMutability": "nonpayable",
      "type": "function"
    },
    {
      "inputs": [],
      "name": "processQueuedRequests",
      "outputs": [],
      "stateMutability": "nonpayable",
      "type": "function"
    },
    {
      "inputs": [],
      "name": "proxiableUUID",
      "outputs": [
        {
          "internalType": "bytes32",
          "name": "",
          "type": "bytes32"
        }
      ],
      "stateMutability": "view",
      "type": "function"
    },
    {
      "inputs": [
        {
          "internalType": "address",
          "name": "account",
          "type": "address"
        }
      ],
      "name": "realBalanceOf",
      "outputs": [
        {
          "internalType": "uint256",
          "name": "",
          "type": "uint256"
        }
      ],
      "stateMutability": "view",
      "type": "function"
    },
    {
      "inputs": [],
      "name": "realTotalSupply",
      "outputs": [
        {
          "internalType": "uint256",
          "name": "",
          "type": "uint256"
        }
      ],
      "stateMutability": "view",
      "type": "function"
    },
    {
      "inputs": [
        {
          "internalType": "address",
          "name": "tokenAddress",
          "type": "address"
        },
        {
          "internalType": "uint256",
          "name": "amount",
          "type": "uint256"
        }
      ],
      "name": "recoverERC20",
      "outputs": [],
      "stateMutability": "nonpayable",
      "type": "function"
    },
    {
      "inputs": [],
      "name": "recoverUnderlying",
      "outputs": [],
      "stateMutability": "nonpayable",
      "type": "function"
    },
    {
      "inputs": [],
      "name": "renounceOwnership",
      "outputs": [],
      "stateMutability": "view",
      "type": "function"
    },
    {
      "inputs": [
        {
          "internalType": "uint256",
          "name": "amount",
          "type": "uint256"
        }
      ],
      "name": "repatriate",
      "outputs": [],
      "stateMutability": "nonpayable",
      "type": "function"
    },
    {
      "inputs": [
        {
          "internalType": "uint256",
          "name": "amount",
          "type": "uint256"
        }
      ],
      "name": "requestWithdrawal",
      "outputs": [],
      "stateMutability": "payable",
      "type": "function"
    },
    {
      "inputs": [],
      "name": "retentionRateUD7x3",
      "outputs": [
        {
          "internalType": "uint32",
          "name": "",
          "type": "uint32"
        }
      ],
      "stateMutability": "view",
      "type": "function"
    },
    {
      "inputs": [
        {
          "internalType": "address",
          "name": "",
          "type": "address"
        }
      ],
      "name": "rewardsRedirectsFromTo",
      "outputs": [
        {
          "internalType": "address",
          "name": "",
          "type": "address"
        }
      ],
      "stateMutability": "view",
      "type": "function"
    },
    {
      "inputs": [
        {
          "internalType": "address",
          "name": "",
          "type": "address"
        },
        {
          "internalType": "uint256",
          "name": "",
          "type": "uint256"
        }
      ],
      "name": "rewardsRedirectsToFrom",
      "outputs": [
        {
          "internalType": "address",
          "name": "",
          "type": "address"
        }
      ],
      "stateMutability": "view",
      "type": "function"
    },
    {
      "inputs": [
        {
          "internalType": "uint16",
          "name": "aprUD7x3",
          "type": "uint16"
        }
      ],
      "name": "setAPR",
      "outputs": [],
      "stateMutability": "nonpayable",
      "type": "function"
    },
    {
      "inputs": [
        {
          "internalType": "uint32",
          "name": "feesRateUD7x3_",
          "type": "uint32"
        }
      ],
      "name": "setFeesRate",
      "outputs": [],
      "stateMutability": "nonpayable",
      "type": "function"
    },
    {
      "inputs": [
        {
          "internalType": "address payable",
          "name": "fund_",
          "type": "address"
        }
      ],
      "name": "setFund",
      "outputs": [],
      "stateMutability": "nonpayable",
      "type": "function"
    },
    {
      "inputs": [
        {
          "internalType": "address",
          "name": "ldyStakingAddress",
          "type": "address"
        }
      ],
      "name": "setLDYStaking",
      "outputs": [],
      "stateMutability": "nonpayable",
      "type": "function"
    },
    {
      "inputs": [
        {
          "internalType": "uint32",
          "name": "retentionRateUD7x3_",
          "type": "uint32"
        }
      ],
      "name": "setRetentionRate",
      "outputs": [],
      "stateMutability": "nonpayable",
      "type": "function"
    },
    {
      "inputs": [
        {
          "internalType": "uint256",
          "name": "withdrawalFeeInEth_",
          "type": "uint256"
        }
      ],
      "name": "setWithdrawalFeeInEth",
      "outputs": [],
      "stateMutability": "nonpayable",
      "type": "function"
    },
    {
      "inputs": [
        {
          "internalType": "address payable",
          "name": "withdrawer_",
          "type": "address"
        }
      ],
      "name": "setWithdrawer",
      "outputs": [],
      "stateMutability": "nonpayable",
      "type": "function"
    },
    {
      "inputs": [
        {
          "internalType": "address",
          "name": "from",
          "type": "address"
        },
        {
          "internalType": "address",
          "name": "to",
          "type": "address"
        }
      ],
      "name": "startRewardsRedirection",
      "outputs": [],
      "stateMutability": "nonpayable",
      "type": "function"
    },
    {
      "inputs": [
        {
          "internalType": "address",
          "name": "from",
          "type": "address"
        },
        {
          "internalType": "address",
          "name": "to",
          "type": "address"
        }
      ],
      "name": "stopRewardsRedirection",
      "outputs": [],
      "stateMutability": "nonpayable",
      "type": "function"
    },
    {
      "inputs": [],
      "name": "symbol",
      "outputs": [
        {
          "internalType": "string",
          "name": "",
          "type": "string"
        }
      ],
      "stateMutability": "view",
      "type": "function"
    },
    {
      "inputs": [],
      "name": "totalQueued",
      "outputs": [
        {
          "internalType": "uint256",
          "name": "",
          "type": "uint256"
        }
      ],
      "stateMutability": "view",
      "type": "function"
    },
    {
      "inputs": [],
      "name": "totalSupply",
      "outputs": [
        {
          "internalType": "uint256",
          "name": "",
          "type": "uint256"
        }
      ],
      "stateMutability": "view",
      "type": "function"
    },
    {
      "inputs": [
        {
          "internalType": "address",
          "name": "to",
          "type": "address"
        },
        {
          "internalType": "uint256",
          "name": "amount",
          "type": "uint256"
        }
      ],
      "name": "transfer",
      "outputs": [
        {
          "internalType": "bool",
          "name": "",
          "type": "bool"
        }
      ],
      "stateMutability": "nonpayable",
      "type": "function"
    },
    {
      "inputs": [
        {
          "internalType": "address",
          "name": "from",
          "type": "address"
        },
        {
          "internalType": "address",
          "name": "to",
          "type": "address"
        },
        {
          "internalType": "uint256",
          "name": "amount",
          "type": "uint256"
        }
      ],
      "name": "transferFrom",
      "outputs": [
        {
          "internalType": "bool",
          "name": "",
          "type": "bool"
        }
      ],
      "stateMutability": "nonpayable",
      "type": "function"
    },
    {
      "inputs": [
        {
          "internalType": "address",
          "name": "newOwner",
          "type": "address"
        }
      ],
      "name": "transferOwnership",
      "outputs": [],
      "stateMutability": "view",
      "type": "function"
    },
    {
      "inputs": [
        {
          "internalType": "uint256",
          "name": "",
          "type": "uint256"
        }
      ],
      "name": "transfersListeners",
      "outputs": [
        {
          "internalType": "contract ITransfersListener",
          "name": "",
          "type": "address"
        }
      ],
      "stateMutability": "view",
      "type": "function"
    },
    {
      "inputs": [],
      "name": "unclaimedFees",
      "outputs": [
        {
          "internalType": "uint256",
          "name": "",
          "type": "uint256"
        }
      ],
      "stateMutability": "view",
      "type": "function"
    },
    {
      "inputs": [],
      "name": "underlying",
      "outputs": [
        {
          "internalType": "contract IERC20Upgradeable",
          "name": "",
          "type": "address"
        }
      ],
      "stateMutability": "view",
      "type": "function"
    },
    {
      "inputs": [
        {
          "internalType": "address",
          "name": "listenerContract",
          "type": "address"
        }
      ],
      "name": "unlistenToTransfers",
      "outputs": [],
      "stateMutability": "nonpayable",
      "type": "function"
    },
    {
      "inputs": [
        {
          "internalType": "address",
          "name": "account",
          "type": "address"
        }
      ],
      "name": "unmintedRewardsOf",
      "outputs": [
        {
          "internalType": "uint256",
          "name": "",
          "type": "uint256"
        }
      ],
      "stateMutability": "view",
      "type": "function"
    },
    {
      "inputs": [
        {
          "internalType": "address",
          "name": "newImplementation",
          "type": "address"
        }
      ],
      "name": "upgradeTo",
      "outputs": [],
      "stateMutability": "nonpayable",
      "type": "function"
    },
    {
      "inputs": [
        {
          "internalType": "address",
          "name": "newImplementation",
          "type": "address"
        },
        {
          "internalType": "bytes",
          "name": "data",
          "type": "bytes"
        }
      ],
      "name": "upgradeToAndCall",
      "outputs": [],
      "stateMutability": "payable",
      "type": "function"
    },
    {
      "inputs": [],
      "name": "usableUnderlyings",
      "outputs": [
        {
          "internalType": "uint256",
          "name": "",
          "type": "uint256"
        }
      ],
      "stateMutability": "view",
      "type": "function"
    },
    {
      "inputs": [
        {
          "internalType": "address",
          "name": "account",
          "type": "address"
        },
        {
          "internalType": "uint256",
          "name": "amount",
          "type": "uint256"
        }
      ],
      "name": "withdrawTo",
      "outputs": [
        {
          "internalType": "bool",
          "name": "",
          "type": "bool"
        }
      ],
      "stateMutability": "pure",
      "type": "function"
    },
    {
      "inputs": [],
      "name": "withdrawalFeeInEth",
      "outputs": [
        {
          "internalType": "uint256",
          "name": "",
          "type": "uint256"
        }
      ],
      "stateMutability": "view",
      "type": "function"
    },
    {
      "inputs": [
        {
          "internalType": "uint256",
          "name": "",
          "type": "uint256"
        }
      ],
      "name": "withdrawalQueue",
      "outputs": [
        {
          "internalType": "address",
          "name": "account",
          "type": "address"
        },
        {
          "internalType": "uint96",
          "name": "amount",
          "type": "uint96"
        }
      ],
      "stateMutability": "view",
      "type": "function"
    },
    {
      "inputs": [],
      "name": "withdrawalQueueCursor",
      "outputs": [
        {
          "internalType": "uint256",
          "name": "",
          "type": "uint256"
        }
      ],
      "stateMutability": "view",
      "type": "function"
    },
    {
      "inputs": [],
      "name": "withdrawer",
      "outputs": [
        {
          "internalType": "address payable",
          "name": "",
          "type": "address"
        }
      ],
      "stateMutability": "view",
      "type": "function"
    }
  ],
  "transactionHash": "0x86227381aa94a40768210d0ee5e41b7e4e6eca91f6789f414fd8e3385f276608",
  "args": [],
  "numDeployments": 1,
  "solcInputHash": "4718d128474334fb1de7748296902bcf",
  "bytecode": "0x60a0604052306080523480156200001557600080fd5b506200002062000026565b620000e7565b600054610100900460ff1615620000935760405162461bcd60e51b815260206004820152602760248201527f496e697469616c697a61626c653a20636f6e747261637420697320696e697469604482015266616c697a696e6760c81b606482015260840160405180910390fd5b60005460ff90811614620000e5576000805460ff191660ff9081179091556040519081527f7f26b83ff96e1f2b6a682f133852f6798a09c465da95921460cefb38474024989060200160405180910390a15b565b608051615f5f6200011f6000396000818161141b0152818161145b01528181611894015281816118d401526119500152615f5f6000f3fe60806040526004361061036f5760003560e01c80638980f11f116101c8578063cafb2202116100f8578063ee1335d11161009b578063ee1335d114610ac9578063ee153c4f14610ae9578063ef2591af14610b09578063ef356a7914610b2e578063f1215d2514610b43578063f12d54d814610b63578063f2fde38b14610b82578063f762e73414610ba2578063f94ce2c214610bc157600080fd5b8063cafb2202146109ce578063cdc18424146109ed578063d038875c14610a0e578063d039981b14610a48578063d1159a8714610a68578063d294f09314610a7f578063db84faac14610a94578063dd62ed3e14610aa957600080fd5b8063a457c2d71161016b578063a457c2d71461089b578063a64c91cc146108bb578063a8f76320146108db578063a9059cbb146108fb578063b2de2a431461091b578063b60d428814610930578063bacd609e14610951578063c822adda14610986578063c89d5b8b146109a657600080fd5b80638980f11f146107a75780638d8e6bd7146107c75780638da5cb5b146107fe57806392e5ced71461081357806395d89b411461083357806399a03c70146108485780639c271975146108685780639ee679e81461088857600080fd5b806345b05d09116102a35780636d3a4ac8116102465780636d3a4ac8146106b05780636f307dc3146106d057806370a08231146106e5578063715018a614610705578063734d82871461071a5780637594d0b51461073157806375a5652b146107485780637c2edb16146107685780638370e1f71461078757600080fd5b806345b05d09146105b55780634f1ef286146105d557806352d1902d146105e857806353ac4b66146105fd57806353d3a42f146106145780635c975abb1461065b5780635f0e8e371461067057806361b76e0f1461069057600080fd5b806323b872dd1161031657806323b872dd1461048b5780632a1b8b1c146104ab5780632f4f21e2146104c0578063313ce567146104e05780633659cfe614610507578063391d85ec1461052757806339509351146105555780633e7ae353146105755780634134bee91461059557600080fd5b806306fdde0314610374578063095ea7b31461039f5780630d174c24146103cf5780630e21750f146103f15780631459457a1461041157806318160ddd146104315780631c19be6d14610454578063205c28781461046b575b600080fd5b34801561038057600080fd5b50610389610be1565b6040516103969190615383565b60405180910390f35b3480156103ab57600080fd5b506103bf6103ba3660046153ab565b610c73565b6040519015158152602001610396565b3480156103db57600080fd5b506103ef6103ea3660046153d7565b610c8d565b005b3480156103fd57600080fd5b506103ef61040c3660046153d7565b610cf9565b34801561041d57600080fd5b506103ef61042c3660046153f4565b610d60565b34801561043d57600080fd5b50610446610fd0565b604051908152602001610396565b34801561046057600080fd5b506104466102fe5481565b34801561047757600080fd5b506103bf6104863660046153ab565b610ffb565b34801561049757600080fd5b506103bf6104a6366004615465565b61102c565b3480156104b757600080fd5b506103ef611052565b3480156104cc57600080fd5b506103bf6104db3660046153ab565b6113d6565b3480156104ec57600080fd5b506104f5611407565b60405160ff9091168152602001610396565b34801561051357600080fd5b506103ef6105223660046153d7565b611411565b34801561053357600080fd5b506102f954610548906001600160a01b031681565b60405161039691906154a6565b34801561056157600080fd5b506103bf6105703660046153ab565b6114d9565b34801561058157600080fd5b506105486105903660046153ab565b6114fb565b3480156105a157600080fd5b506103ef6105b03660046154ba565b611534565b3480156105c157600080fd5b506103ef6105d03660046154ba565b61171d565b6103ef6105e33660046155a6565b61188a565b3480156105f457600080fd5b50610446611943565b34801561060957600080fd5b506104466102fd5481565b34801561062057600080fd5b5061063461062f3660046154ba565b6119f1565b604080516001600160a01b0390931683526001600160601b03909116602083015201610396565b34801561066757600080fd5b506103bf611a2d565b34801561067c57600080fd5b506103ef61068b3660046153d7565b611a37565b34801561069c57600080fd5b506103ef6106ab3660046154ba565b611b8e565b3480156106bc57600080fd5b506103ef6106cb366004615619565b611b9c565b3480156106dc57600080fd5b50610548611c4d565b3480156106f157600080fd5b506104466107003660046153d7565b611c5d565b34801561071157600080fd5b506103ef611c7b565b34801561072657600080fd5b506104466102fc5481565b34801561073d57600080fd5b506104466103005481565b34801561075457600080fd5b506103ef6107633660046154ba565b611cb1565b34801561077457600080fd5b50610193546001600160a01b0316610548565b34801561079357600080fd5b506103ef6107a23660046154ba565b612030565b3480156107b357600080fd5b506103ef6107c23660046153ab565b612193565b3480156107d357600080fd5b506105486107e23660046153d7565b610291602052600090815260409020546001600160a01b031681565b34801561080a57600080fd5b506105486121f3565b34801561081f57600080fd5b506103ef61082e366004615636565b612262565b34801561083f57600080fd5b50610389612499565b34801561085457600080fd5b506104466108633660046153d7565b6124a8565b34801561087457600080fd5b506103ef6108833660046153d7565b6124c6565b6103ef6108963660046154ba565b612521565b3480156108a757600080fd5b506103bf6108b63660046153ab565b612879565b3480156108c757600080fd5b506103ef6108d63660046153d7565b6128ff565b3480156108e757600080fd5b506103ef6108f6366004615636565b61292a565b34801561090757600080fd5b506103bf6109163660046153ab565b612c60565b34801561092757600080fd5b506103ef612c6e565b34801561093c57600080fd5b506102fb54610548906001600160a01b031681565b34801561095d57600080fd5b5061097161096c3660046153ab565b612d43565b60408051928352602083019190915201610396565b34801561099257600080fd5b506106346109a13660046154ba565b612e60565b3480156109b257600080fd5b506109bb612e71565b60405161ffff9091168152602001610396565b3480156109da57600080fd5b5061028e546001600160a01b0316610548565b3480156109f957600080fd5b506102fa54610548906001600160a01b031681565b348015610a1a57600080fd5b506102fb54610a3390600160a01b900463ffffffff1681565b60405163ffffffff9091168152602001610396565b348015610a5457600080fd5b50610446610a633660046153d7565b612ee9565b348015610a7457600080fd5b506104466103035481565b348015610a8b57600080fd5b506103ef612ef6565b348015610aa057600080fd5b50610446612fac565b348015610ab557600080fd5b50610446610ac4366004615636565b613033565b348015610ad557600080fd5b506103ef610ae4366004615681565b61305e565b348015610af557600080fd5b50610548610b043660046154ba565b6130cb565b348015610b1557600080fd5b506102fb54610a3390600160c01b900463ffffffff1681565b348015610b3a57600080fd5b506104466130f6565b348015610b4f57600080fd5b506103ef610b5e36600461569e565b613101565b348015610b6f57600080fd5b50610160546001600160a01b0316610548565b348015610b8e57600080fd5b506103ef610b9d3660046153d7565b613244565b348015610bae57600080fd5b5061012d546001600160a01b0316610548565b348015610bcd57600080fd5b506103ef610bdc366004615681565b613279565b6060609a8054610bf0906156ce565b80601f0160208091040260200160405190810160405280929190818152602001828054610c1c906156ce565b8015610c695780601f10610c3e57610100808354040283529160200191610c69565b820191906000526020600020905b815481529060010190602001808311610c4c57829003601f168201915b5050505050905090565b600033610c818185856132e6565b60019150505b92915050565b610c9561340a565b6001600160a01b038116610cd65760405162461bcd60e51b81526020600482015260036024820152624c363360e81b60448201526064015b60405180910390fd5b6102fa80546001600160a01b0319166001600160a01b0392909216919091179055565b610d0161340a565b6001600160a01b038116610d3d5760405162461bcd60e51b8152602060048201526003602482015262130d8d60ea1b6044820152606401610ccd565b6102fb80546001600160a01b0319166001600160a01b0392909216919091179055565b600054610100900460ff1615808015610d805750600054600160ff909116105b80610d9a5750303b158015610d9a575060005460ff166001145b610dfd5760405162461bcd60e51b815260206004820152602e60248201527f496e697469616c697a61626c653a20636f6e747261637420697320616c72656160448201526d191e481a5b9a5d1a585b1a5e995960921b6064820152608401610ccd565b6000805460ff191660011790558015610e20576000805461ff0019166101001790555b6000826001600160a01b03166395d89b416040518163ffffffff1660e01b8152600401600060405180830381865afa158015610e60573d6000803e3d6000fd5b505050506040513d6000823e601f3d908101601f19168201604052610e889190810190615702565b9050610ed587878784604051602001610ea19190615778565b60405160208183030381529060405285604051602001610ec191906157a8565b60405160208183030381529060405261346b565b610ede836134af565b610ee7306134df565b6102f980546001600160a01b0319166001600160a01b0386161790556102fb805467ffffffffffffffff60a01b19166509c40000004b60a21b179055610f2b6121f3565b6102fa80546001600160a01b0319166001600160a01b0392909216919091179055610f546121f3565b6102fb80546001600160a01b0319166001600160a01b0392909216919091179055506602aa1efb94e000610303558015610fc8576000805461ff0019169055604051600181527f7f26b83ff96e1f2b6a682f133852f6798a09c465da95921460cefb38474024989060200160405180910390a15b505050505050565b60006102fc546102fd54610fe26130f6565b610fec91906157e7565b610ff691906157e7565b905090565b60405162461bcd60e51b81526020600482015260036024820152624c343560e81b6044820152600090606401610ccd565b60003361103a858285613589565b611045858585613603565b60019150505b9392505050565b6102fa546001600160a01b0316336001600160a01b03161461109c5760405162461bcd60e51b81526020600482015260036024820152624c333960e81b6044820152606401610ccd565b6110a46137ad565b610300546102ff5460009182915b808210156113795761afc85a106113795760006102ff83815481106110d9576110d96157fa565b6000918252602091829020604080518082019091529101546001600160a01b038116808352600160a01b9091046001600160601b031692820192909252915015611366578051611128906137f5565b156111aa576102ff8381548110611141576111416157fa565b60009182526020808320909101829055610301805460018101825592528251908301516001600160601b0316600160a01b026001600160a01b0391909116177fe78f8e39db67a8c6e0d54c288efc6f296f5d558bc028138a8476c9b97f6fcaa490910155611366565b60026111b4612fac565b6111be9190615810565b81602001516001600160601b0316111561128a5760208101516102ff5460405160019233928792600080516020615ea3833981519152926112059290918291600391615854565b60405180910390a46102ff8381548110611221576112216157fa565b600091825260208083209091018290556102ff805460018101825592528251908301516001600160601b0316600160a01b026001600160a01b0391909116177f5a4a1f748f8cfa795b59cdc37192794ee567e6029e925719381be08d7ccaf4ec90910155611366565b6000806112a8836000015184602001516001600160601b0316612d43565b91509150856102fe546112bb919061589a565b8211156112ca57505050611379565b6112d481886157e7565b96506112e082876157e7565b9550600183600001516001600160a01b031686600080516020615ea3833981519152866020015186600260001960405161131d94939291906158ad565b60405180910390a46102ff8581548110611339576113396157fa565b600091825260208220015582516113639083611353611c4d565b6001600160a01b03169190613868565b50505b82611370816158ed565b935050506110b2565b836102fc600082825461138c91906157e7565b92505081905550826102fe60008282546113a6919061589a565b909155506113b6905084846157e7565b6102fd60008282546113c8919061589a565b909155505050610300555050565b60405162461bcd60e51b8152602060048201526003602482015262261a1b60e91b6044820152600090606401610ccd565b6000610ff66138cb565b6001600160a01b037f00000000000000000000000000000000000000000000000000000000000000001630036114595760405162461bcd60e51b8152600401610ccd90615906565b7f00000000000000000000000000000000000000000000000000000000000000006001600160a01b031661148b613941565b6001600160a01b0316146114b15760405162461bcd60e51b8152600401610ccd90615952565b6114ba8161395d565b604080516000808252602082019092526114d691839190613965565b50565b600033610c818185856114ec8383613033565b6114f691906157e7565b6132e6565b610292602052816000526040600020818154811061151857600080fd5b6000918252602090912001546001600160a01b03169150829050565b61153c6137ad565b33611546816137f5565b156115635760405162461bcd60e51b8152600401610ccd9061599e565b61156c33611c5d565b8211156115a15760405162461bcd60e51b815260206004820152600360248201526209868760eb1b6044820152606401610ccd565b60006102fe54836102fd546115b691906157e7565b6102f95491101591506000906002906001600160a01b031663c8f74bb8336040518263ffffffff1660e01b81526004016115f091906154a6565b602060405180830381865afa15801561160d573d6000803e3d6000fd5b505050506040513d601f19601f8201168201806040525081019061163191906159ba565b1015801561164257506102fe548411155b9050818061164d5750805b61167f5760405162461bcd60e51b81526020600482015260036024820152624c343960e81b6044820152606401610ccd565b60008061168c3387612d43565b91509150806102fc60008282546116a391906157e7565b92505081905550816102fe60008282546116bd919061589a565b9091555060019050336001600160a01b0316600019600080516020615ea3833981519152898660026000196040516116f894939291906159d3565b60405180910390a461170a3382613ad0565b6117143383613c05565b50505050505050565b6117256137ad565b3361172f816137f5565b1561174c5760405162461bcd60e51b8152600401610ccd9061599e565b60006102ff8381548110611762576117626157fa565b6000918252602091829020604080518082019091529101546001600160a01b038116808352600160a01b9091046001600160601b0316928201929092529150336001600160a01b0316146117de5760405162461bcd60e51b81526020600482015260036024820152624c353760e81b6044820152606401610ccd565b80602001516001600160601b03166102fd60008282546117fe919061589a565b90915550506102ff805484908110611818576118186157fa565b6000918252602082200155600181600001516001600160a01b031684600080516020615ea38339815191528460200151856020015160016000196040516118629493929190615854565b60405180910390a4611885816000015182602001516001600160601b0316613c32565b505050565b6001600160a01b037f00000000000000000000000000000000000000000000000000000000000000001630036118d25760405162461bcd60e51b8152600401610ccd90615906565b7f00000000000000000000000000000000000000000000000000000000000000006001600160a01b0316611904613941565b6001600160a01b03161461192a5760405162461bcd60e51b8152600401610ccd90615952565b6119338261395d565b61193f82826001613965565b5050565b6000306001600160a01b037f000000000000000000000000000000000000000000000000000000000000000016146119de5760405162461bcd60e51b815260206004820152603860248201527f555550535570677261646561626c653a206d757374206e6f742062652063616c6044820152771b1959081d1a1c9bdd59da0819195b1959d85d1958d85b1b60421b6064820152608401610ccd565b50600080516020615ec383398151915290565b6103018181548110611a0257600080fd5b6000918252602090912001546001600160a01b0381169150600160a01b90046001600160601b031682565b6000610ff6613cf5565b611a3f61340a565b610302546000199060005b81811015611aa457836001600160a01b03166103028281548110611a7057611a706157fa565b6000918252602090912001546001600160a01b031603611a9257809250611aa4565b80611a9c816158ed565b915050611a4a565b506000198213611adc5760405162461bcd60e51b8152602060048201526003602482015262261a1960e91b6044820152606401610ccd565b610302611aea60018361589a565b81548110611afa57611afa6157fa565b60009182526020909120015461030280546001600160a01b039092169184908110611b2757611b276157fa565b9060005260206000200160006101000a8154816001600160a01b0302191690836001600160a01b03160217905550610302805480611b6757611b676159e9565b600082815260209020810160001990810180546001600160a01b0319169055019055505050565b611b9661340a565b61030355565b611ba461340a565b60405163433e3bad60e11b8152610290600482015261ffff8216602482015273843430E0CAe23578547bd2887e22162EB17cd0059063867c775a9060440160006040518083038186803b158015611bfa57600080fd5b505af4158015611c0e573d6000803e3d6000fd5b505060405161ffff841681527f3d6d63f501ae621a01c729938fb4428a25138835257943d6b56c49b402ba36329250602001905060405180910390a150565b6102c6546001600160a01b031690565b6000611c6882612ee9565b611c71836124a8565b610c8791906157e7565b611c8361340a565b60405162461bcd60e51b81526020600482015260036024820152624c363560e81b6044820152606401610ccd565b6102fb546001600160a01b0316336001600160a01b031614611ce55760405162461bcd60e51b8152600401610ccd906159ff565b611ced6137ad565b60006102ff8281548110611d0357611d036157fa565b6000918252602091829020604080518082019091529101546001600160a01b038116808352600160a01b9091046001600160601b0316928201929092529150611d745760405162461bcd60e51b8152602060048201526003602482015262261b1b60e91b6044820152606401610ccd565b8051611d7f906137f5565b15611db25760405162461bcd60e51b815260206004820152600360248201526204c35360ec1b6044820152606401610ccd565b6002611dbc612fac565b611dc69190615810565b81602001516001600160601b031611611e075760405162461bcd60e51b81526020600482015260036024820152624c353160e81b6044820152606401610ccd565b600080611e25836000015184602001516001600160601b0316612d43565b915091506000611e33611c4d565b6102fb546040516370a0823160e01b81526001600160a01b03928316926370a0823192611e65929116906004016154a6565b602060405180830381865afa158015611e82573d6000803e3d6000fd5b505050506040513d601f19601f82011682018060405250810190611ea691906159ba565b9050806102fe54611eb791906157e7565b831115611eec5760405162461bcd60e51b8152602060048201526003602482015262261a9960e91b6044820152606401610ccd565b816102fc6000828254611eff91906157e7565b9250508190555083602001516001600160601b03166102fd6000828254611f26919061589a565b9091555050610300548503611f4c576103008054906000611f46836158ed565b91905055505b600184600001516001600160a01b031686600080516020615ea38339815191528760200151876002600019604051611f8794939291906158ad565b60405180910390a46102ff8581548110611fa357611fa36157fa565b6000918252602082200155808311611fda57611fd533855185611fc4611c4d565b6001600160a01b0316929190613d64565b612021565b6000611fe6828561589a565b9050806102fe6000828254611ffb919061589a565b90915550612010905033865184611fc4611c4d565b845161201f9082611353611c4d565b505b612029613d85565b5050505050565b6102fb546001600160a01b0316336001600160a01b0316146120645760405162461bcd60e51b8152600401610ccd906159ff565b61206c6137ad565b612074611c4d565b6102fb546040516370a0823160e01b81526001600160a01b03928316926370a08231926120a6929116906004016154a6565b602060405180830381865afa1580156120c3573d6000803e3d6000fd5b505050506040513d601f19601f820116820180604052508101906120e791906159ba565b81111561211c5760405162461bcd60e51b81526020600482015260036024820152620986a760eb1b6044820152606401610ccd565b6000816102fe5461212d91906157e7565b9050612137612fac565b81111561216c5760405162461bcd60e51b81526020600482015260036024820152624c353960e81b6044820152606401610ccd565b816102fe600082825461217f91906157e7565b9091555061193f9050333084611fc4611c4d565b61219b61340a565b6121a3611c4d565b6001600160a01b0316826001600160a01b0316036121e95760405162461bcd60e51b81526020600482015260036024820152624c343360e81b6044820152606401610ccd565b61193f8282613de3565b61012d5460408051638da5cb5b60e01b815290516000926001600160a01b031691638da5cb5b9160048083019260209291908290030181865afa15801561223e573d6000803e3d6000fd5b505050506040513d601f19601f82011682018060405250810190610ff69190615a1c565b61226a6137ad565b81612274816137f5565b156122915760405162461bcd60e51b8152600401610ccd9061599e565b8161229b816137f5565b156122b85760405162461bcd60e51b8152600401610ccd9061599e565b6001600160a01b038481166000908152610291602052604090205416156123075760405162461bcd60e51b8152602060048201526003602482015262261b1960e91b6044820152606401610ccd565b6001600160a01b0384166123435760405162461bcd60e51b815260206004820152600360248201526226189960e91b6044820152606401610ccd565b6001600160a01b03831661237f5760405162461bcd60e51b81526020600482015260036024820152624c313360e81b6044820152606401610ccd565b826001600160a01b0316846001600160a01b0316036123c65760405162461bcd60e51b8152602060048201526003602482015262130c4d60ea1b6044820152606401610ccd565b6123ce6121f3565b6001600160a01b0316336001600160a01b031614806123f55750336001600160a01b038516145b6124275760405162461bcd60e51b81526020600482015260036024820152624c313560e81b6044820152606401610ccd565b612432846001613eda565b61243d836001613eda565b50506001600160a01b039182166000818152610291602090815260408083208054969095166001600160a01b03199687168117909555938252610292815292812080546001810182559082529290209091018054909216179055565b6060609b8054610bf0906156ce565b6001600160a01b038116600090815260976020526040812054610c87565b6124ce61340a565b61030280546001810182556000919091527f552430c2010355dda19e8bae437f75cfb136cb8d667c4c0867367db21eee69b60180546001600160a01b0319166001600160a01b0392909216919091179055565b6125296137ad565b33612533816137f5565b156125505760405162461bcd60e51b8152600401610ccd9061599e565b61255933611c5d565b82111561258e5760405162461bcd60e51b81526020600482015260036024820152624c353360e81b6044820152606401610ccd565b6001600160601b038211156125cb5760405162461bcd60e51b8152602060048201526003602482015262130d4d60ea1b6044820152606401610ccd565b6103035434146126035760405162461bcd60e51b81526020600482015260036024820152624c353560e81b6044820152606401610ccd565b600060405180604001604052806126173390565b6001600160a01b0390811682526001600160601b0386166020909201919091526102f9549192506000916002911663c8f74bb8336040518263ffffffff1660e01b815260040161266791906154a6565b602060405180830381865afa158015612684573d6000803e3d6000fd5b505050506040513d601f19601f820116820180604052508101906126a891906159ba565b101580156126b95750600061030054115b156127275761030080549060006126cf83615a39565b9190505550610300549050816102ff82815481106126ef576126ef6157fa565b6000918252602091829020835193909201516001600160601b0316600160a01b026001600160a01b0390931692909217910155612791565b6102ff8054600181810183556000839052845160208601516001600160601b0316600160a01b026001600160a01b03909116177f5a4a1f748f8cfa795b59cdc37192794ee567e6029e925719381be08d7ccaf4ec90920191909155905461278e919061589a565b90505b836102fd60008282546127a491906157e7565b9091555060019050336001600160a01b031682600080516020615ea3833981519152878860006000196040516127dd94939291906159d3565b60405180910390a46127ef3385613ad0565b6102fa546040516000916001600160a01b03169034908381818185875af1925050503d806000811461283d576040519150601f19603f3d011682016040523d82523d6000602084013e612842565b606091505b50509050806120295760405162461bcd60e51b8152602060048201526003602482015262261a9b60e91b6044820152606401610ccd565b600033816128878286613033565b9050838110156128e75760405162461bcd60e51b815260206004820152602560248201527f45524332303a2064656372656173656420616c6c6f77616e63652062656c6f77604482015264207a65726f60d81b6064820152608401610ccd565b6128f482868684036132e6565b506001949350505050565b61290761340a565b6102f980546001600160a01b0319166001600160a01b0392909216919091179055565b6129326137ad565b8161293c816137f5565b156129595760405162461bcd60e51b8152600401610ccd9061599e565b81612963816137f5565b156129805760405162461bcd60e51b8152600401610ccd9061599e565b6001600160a01b0384166129bc5760405162461bcd60e51b815260206004820152600360248201526226189b60e91b6044820152606401610ccd565b6001600160a01b0383166129f85760405162461bcd60e51b81526020600482015260036024820152624c313760e81b6044820152606401610ccd565b612a006121f3565b6001600160a01b0316336001600160a01b03161480612a275750336001600160a01b038516145b612a595760405162461bcd60e51b815260206004820152600360248201526209862760eb1b6044820152606401610ccd565b6001600160a01b0384811660009081526102916020526040902054811690841614612aac5760405162461bcd60e51b81526020600482015260036024820152624c313960e81b6044820152606401610ccd565b612ab7846001613eda565b612ac2836001613eda565b60001960005b6001600160a01b03851660009081526102926020526040902054811015612b4d576001600160a01b0385811660009081526102926020526040902080549188169183908110612b1957612b196157fa565b6000918252602090912001546001600160a01b031603612b3b57809150612b4d565b80612b45816158ed565b915050612ac8565b506000811215612b5f57612b5f615a50565b6001600160a01b0380861660009081526102916020908152604080832080546001600160a01b031916905592871682526102929052208054612ba39060019061589a565b81548110612bb357612bb36157fa565b60009182526020808320909101546001600160a01b0387811684526102929092526040909220805491909216919083908110612bf157612bf16157fa565b600091825260208083209190910180546001600160a01b0319166001600160a01b03948516179055918616815261029290915260409020805480612c3757612c376159e9565b600082815260209020810160001990810180546001600160a01b03191690550190555050505050565b600033610c81818585613603565b612c7661340a565b60006102fe54612c84611c4d565b6001600160a01b03166370a08231306040518263ffffffff1660e01b8152600401612caf91906154a6565b602060405180830381865afa158015612ccc573d6000803e3d6000fd5b505050506040513d601f19601f82011682018060405250810190612cf091906159ba565b612cfa919061589a565b905060008111612d325760405162461bcd60e51b8152602060048201526003602482015262130d0d60ea1b6044820152606401610ccd565b6114d6612d3d611c4d565b82613de3565b6102f95460405163191ee97760e31b815260009182916002916001600160a01b03169063c8f74bb890612d7a9088906004016154a6565b602060405180830381865afa158015612d97573d6000803e3d6000fd5b505050506040513d601f19601f82011682018060405250810190612dbb91906159ba565b10612dcb57508190506000612e59565b6000612de8612de361028e546001600160a01b031690565b613faf565b90506000612df6858361401c565b6102fb54909150600090612e1790600160a01b900463ffffffff168461405a565b90506000612e26606485614086565b612e308385615a66565b612e3a9190615810565b9050612e4681856140b4565b9450612e52858861589a565b9550505050505b9250929050565b6102ff8181548110611a0257600080fd5b60405163106d64cf60e31b8152610290600482015260009073843430E0CAe23578547bd2887e22162EB17cd0059063836b267890602401602060405180830381865af4158015612ec5573d6000803e3d6000fd5b505050506040513d601f19601f82011682018060405250810190610ff69190615a7d565b6000610c878260016140eb565b612efe61340a565b60006102fc5411612f375760405162461bcd60e51b815260206004820152600360248201526204c36360ec1b6044820152606401610ccd565b6102fc546102fe541015612f735760405162461bcd60e51b81526020600482015260036024820152624c363160e81b6044820152606401610ccd565b6102fc546102fe6000828254612f89919061589a565b90915550506102fc805460009091556114d6612fa36121f3565b82611353611c4d565b600080612fc5612de361028e546001600160a01b031690565b90506000612fda612fd4610fd0565b8361401c565b6102fb54909150600090612ffb90600160c01b900463ffffffff168461405a565b9050600061300a606485614086565b6130148385615a66565b61301e9190615810565b905061302a81856140b4565b94505050505090565b6001600160a01b03918216600090815260986020908152604080832093909416825291909152205490565b61306661340a565b614e2063ffffffff821611156130a45760405162461bcd60e51b815260206004820152600360248201526209870760eb1b6044820152606401610ccd565b6102fb805463ffffffff909216600160a01b0263ffffffff60a01b19909216919091179055565b61030281815481106130dc57600080fd5b6000918252602090912001546001600160a01b0316905081565b6000610ff660995490565b6131096137ad565b33613113816137f5565b156131305760405162461bcd60e51b8152600401610ccd9061599e565b82613139611c4d565b6001600160a01b03166370a08231336040518263ffffffff1660e01b815260040161316491906154a6565b602060405180830381865afa158015613181573d6000803e3d6000fd5b505050506040513d601f19601f820116820180604052508101906131a591906159ba565b10156131d95760405162461bcd60e51b81526020600482015260036024820152624c343760e81b6044820152606401610ccd565b826102fe60008282546131ec91906157e7565b9091555060009050336001600160a01b0316600019600080516020615ea38339815191528687600260001989604051613229959493929190615a9a565b60405180910390a461323b3384614651565b50611885613d85565b61324c61340a565b60405162461bcd60e51b8152602060048201526002602482015261098760f31b6044820152606401610ccd565b61328161340a565b61271063ffffffff821611156132bf5760405162461bcd60e51b81526020600482015260036024820152624c343160e81b6044820152606401610ccd565b6102fb805463ffffffff909216600160c01b0263ffffffff60c01b19909216919091179055565b6001600160a01b0383166133485760405162461bcd60e51b8152602060048201526024808201527f45524332303a20617070726f76652066726f6d20746865207a65726f206164646044820152637265737360e01b6064820152608401610ccd565b6001600160a01b0382166133a95760405162461bcd60e51b815260206004820152602260248201527f45524332303a20617070726f766520746f20746865207a65726f206164647265604482015261737360f01b6064820152608401610ccd565b6001600160a01b0383811660008181526098602090815260408083209487168084529482529182902085905590518481527f8c5be1e5ebec7d5bd14f71427d1e84f3dd0314c0f7b2291e5b200ac8c7c3b925910160405180910390a3505050565b336134136121f3565b6001600160a01b0316146134695760405162461bcd60e51b815260206004820181905260248201527f4f776e61626c653a2063616c6c6572206973206e6f7420746865206f776e65726044820152606401610ccd565b565b600054610100900460ff166134925760405162461bcd60e51b8152600401610ccd90615acc565b61349d8585856146d2565b6134a7828261472c565b61202961475d565b600054610100900460ff166134d65760405162461bcd60e51b8152600401610ccd90615acc565b6114d681614784565b600054610100900460ff166135065760405162461bcd60e51b8152600401610ccd90615acc565b61028e80546001600160a01b0319166001600160a01b03831617905560405163433e3bad60e11b815261029060048201526000602482015273843430E0CAe23578547bd2887e22162EB17cd0059063867c775a9060440160006040518083038186803b15801561357557600080fd5b505af4158015612029573d6000803e3d6000fd5b60006135958484613033565b905060001981146135fd57818110156135f05760405162461bcd60e51b815260206004820152601d60248201527f45524332303a20696e73756666696369656e7420616c6c6f77616e63650000006044820152606401610ccd565b6135fd84848484036132e6565b50505050565b6001600160a01b0383166136675760405162461bcd60e51b815260206004820152602560248201527f45524332303a207472616e736665722066726f6d20746865207a65726f206164604482015264647265737360d81b6064820152608401610ccd565b6001600160a01b0382166136c95760405162461bcd60e51b815260206004820152602360248201527f45524332303a207472616e7366657220746f20746865207a65726f206164647260448201526265737360e81b6064820152608401610ccd565b6136d4838383614826565b6001600160a01b0383166000908152609760205260409020548181101561374c5760405162461bcd60e51b815260206004820152602660248201527f45524332303a207472616e7366657220616d6f756e7420657863656564732062604482015265616c616e636560d01b6064820152608401610ccd565b6001600160a01b038085166000818152609760205260408082208686039055928616808252908390208054860190559151600080516020615f0a8339815191529061379a9086815260200190565b60405180910390a36135fd848484614865565b6137b5611a2d565b156134695760405162461bcd60e51b815260206004820152601060248201526f14185d5cd8589b194e881c185d5cd95960821b6044820152606401610ccd565b6101935460405163fe575a8760e01b81526000916001600160a01b03169063fe575a87906138279085906004016154a6565b602060405180830381865afa158015613844573d6000803e3d6000fd5b505050506040513d601f19601f82011682018060405250810190610c879190615b17565b6040516001600160a01b03831660248201526044810182905261188590849063a9059cbb60e01b906064015b60408051601f198184030181529190526020810180516001600160e01b03166001600160e01b031990931692909217909152614966565b6102c6546040805163313ce56760e01b815290516000926001600160a01b03169163313ce5679160048083019260209291908290030181865afa925050508015613932575060408051601f3d908101601f1916820190925261392f91810190615b39565b60015b61393c5750601290565b919050565b600080516020615ec3833981519152546001600160a01b031690565b6114d661340a565b7f4910fdfa16fed3260ed0e7147f7cc6da11a60208b5b9406d12a635614ffd91435460ff16156139985761188583614a3b565b826001600160a01b03166352d1902d6040518163ffffffff1660e01b8152600401602060405180830381865afa9250505080156139f2575060408051601f3d908101601f191682019092526139ef918101906159ba565b60015b613a555760405162461bcd60e51b815260206004820152602e60248201527f45524331393637557067726164653a206e657720696d706c656d656e7461746960448201526d6f6e206973206e6f74205555505360901b6064820152608401610ccd565b600080516020615ec38339815191528114613ac45760405162461bcd60e51b815260206004820152602960248201527f45524331393637557067726164653a20756e737570706f727465642070726f786044820152681a58589b195555525160ba1b6064820152608401610ccd565b50611885838383614ad7565b6001600160a01b038216613b305760405162461bcd60e51b815260206004820152602160248201527f45524332303a206275726e2066726f6d20746865207a65726f206164647265736044820152607360f81b6064820152608401610ccd565b613b3c82600083614826565b6001600160a01b03821660009081526097602052604090205481811015613bb05760405162461bcd60e51b815260206004820152602260248201527f45524332303a206275726e20616d6f756e7420657863656564732062616c616e604482015261636560f01b6064820152608401610ccd565b6001600160a01b0383166000818152609760209081526040808320868603905560998054879003905551858152919291600080516020615f0a833981519152910160405180910390a361188583600084614865565b6000613c113383613ad0565b6102c654613c29906001600160a01b03168484613868565b50600192915050565b6001600160a01b038216613c885760405162461bcd60e51b815260206004820152601f60248201527f45524332303a206d696e7420746f20746865207a65726f2061646472657373006044820152606401610ccd565b613c9460008383614826565b8060996000828254613ca691906157e7565b90915550506001600160a01b038216600081815260976020908152604080832080548601905551848152600080516020615f0a833981519152910160405180910390a361193f60008383614865565b6101605460408051635c975abb60e01b815290516000926001600160a01b031691635c975abb9160048083019260209291908290030181865afa158015613d40573d6000803e3d6000fd5b505050506040513d601f19601f82011682018060405250810190610ff69190615b17565b6135fd846323b872dd60e01b85858560405160240161389493929190615b5c565b6000613d8f612fac565b9050806102fe5411613d9e5750565b6000816102fe54613daf919061589a565b9050806102fe6000828254613dc4919061589a565b90915550506102fb5461193f906001600160a01b031682611353611c4d565b613deb61340a565b60008111613e215760405162461bcd60e51b815260206004820152600360248201526204c31360ec1b6044820152606401610ccd565b6040516370a0823160e01b8152829082906001600160a01b038316906370a0823190613e519030906004016154a6565b602060405180830381865afa158015613e6e573d6000803e3d6000fd5b505050506040513d601f19601f82011682018060405250810190613e9291906159ba565b1015613ec65760405162461bcd60e51b81526020600482015260036024820152624c313160e81b6044820152606401610ccd565b6118856001600160a01b0382163384613868565b6102935460ff1615613eea575050565b6001600160a01b038216600090815261028f602052604090205464ffffffffff428116911603613f18575050565b6001600160a01b0380831660009081526102916020526040902054168015613f44576118858183613eda565b6000613f5084846140eb565b90508015613fa657610293805460ff191660011790556000613f728583614afc565b610293805460ff19169055905080613fa4576001600160a01b038516600090815261028f602052604090206003018290555b505b6135fd84614b53565b6000816001600160a01b031663313ce5676040518163ffffffff1660e01b8152600401602060405180830381865afa158015613fef573d6000803e3d6000fd5b505050506040513d601f19601f820116820180604052508101906140139190615b39565b60ff1692915050565b6000600382101561404e5761403282600661589a565b61403d90600a615c64565b6140479084615a66565b9050610c87565b61104b836103e8615a66565b6000600382101561407157614047836103e8615a66565b61407c82600a615c64565b61104b9084615a66565b6000600382101561409e5761404783620f4240615a66565b6140a98260036157e7565b61407c90600a615c64565b600060038210156140df576140ca82600661589a565b6140d590600a615c64565b6140479084615810565b61104b6103e884615810565b6001600160a01b038216600090815261028f602090815260408083208151608081018352815464ffffffffff16818401908152835180850190945260018301548452600283015463ffffffff1684860152606082019390935291825260030154918101919091528161415c85614cb5565b82515190915064ffffffffff161580614173575080155b1561418357600092505050610c87565b815160200151604051630b27cfb160e31b815260009073843430E0CAe23578547bd2887e22162EB17cd0059063593e7d88906141c790610290908690600401615c70565b6040805180830381865af41580156141e3573d6000803e3d6000fd5b505050506040513d601f19601f820116820180604052508101906142079190615c94565b60405163038255fd60e11b8152610290600482015290915060009073843430E0CAe23578547bd2887e22162EB17cd00590630704abfa906024016040805180830381865af415801561425d573d6000803e3d6000fd5b505050506040513d601f19601f820116820180604052508101906142819190615cdf565b90508460200151955073843430E0CAe23578547bd2887e22162EB17cd005634ead0c5384836040518363ffffffff1660e01b81526004016142c3929190615d0b565b602060405180830381865af41580156142e0573d6000803e3d6000fd5b505050506040513d601f19601f820116820180604052508101906143049190615b17565b61461557604051633e1e5c5360e11b815260009073843430E0CAe23578547bd2887e22162EB17cd00590637c3cb8a690614342908790600401615d3f565b6040805180830381865af415801561435e573d6000803e3d6000fd5b505050506040513d601f19601f820116820180604052508101906143829190615cdf565b604051630b27cfb160e31b815290915060009073843430E0CAe23578547bd2887e22162EB17cd0059063593e7d88906143c390610290908690600401615c70565b6040805180830381865af41580156143df573d6000803e3d6000fd5b505050506040513d601f19601f820116820180604052508101906144039190615c94565b87515160208201518651929350614431928c614420576000614422565b8b5b61442c908b6157e7565b614d5e565b61443b90896157e7565b97505b81945080935073843430E0CAe23578547bd2887e22162EB17cd005634ead0c5386856040518363ffffffff1660e01b815260040161447d929190615d0b565b602060405180830381865af415801561449a573d6000803e3d6000fd5b505050506040513d601f19601f820116820180604052508101906144be9190615b17565b6145e857604051633e1e5c5360e11b815273843430E0CAe23578547bd2887e22162EB17cd00590637c3cb8a6906144f9908890600401615d3f565b6040805180830381865af4158015614515573d6000803e3d6000fd5b505050506040513d601f19601f820116820180604052508101906145399190615cdf565b604051630b27cfb160e31b815290925073843430E0CAe23578547bd2887e22162EB17cd0059063593e7d889061457790610290908690600401615c70565b6040805180830381865af4158015614593573d6000803e3d6000fd5b505050506040513d601f19601f820116820180604052508101906145b79190615c94565b90506145d78460200151826020015186600001518c614420576000614422565b6145e190896157e7565b975061443e565b61460284602001514286600001518c614420576000614422565b61460c90896157e7565b97505050614646565b8451518251614639919042908a61462d57600061462f565b895b61442c90896157e7565b61464390876157e7565b95505b505050505092915050565b6000333081036146af5760405162461bcd60e51b815260206004820152602360248201527f4552433230577261707065723a20777261707065722063616e2774206465706f6044820152621cda5d60ea1b6064820152608401610ccd565b6102c6546146c8906001600160a01b0316823086613d64565b610c818484613c32565b600054610100900460ff166146f95760405162461bcd60e51b8152600401610ccd90615acc565b61470161475d565b61470a83614e4a565b614712614e7a565b61471b82614ea9565b61472481614ef3565b61188561475d565b600054610100900460ff166147535760405162461bcd60e51b8152600401610ccd90615acc565b61193f8282614f3d565b600054610100900460ff166134695760405162461bcd60e51b8152600401610ccd90615acc565b600054610100900460ff166147ab5760405162461bcd60e51b8152600401610ccd90615acc565b306001600160a01b038216036148035760405162461bcd60e51b815260206004820152601e60248201527f4552433230577261707065723a2063616e6e6f742073656c66207772617000006044820152606401610ccd565b6102c680546001600160a01b0319166001600160a01b0392909216919091179055565b614831838383614f7d565b6001600160a01b0383161561484b5761484b836001613eda565b6001600160a01b0382161561188557611885826001613eda565b6001600160a01b038316158061488257506001600160a01b038216155b156148c2577f980f7e6fb44009001d533a10bc3bd558b4efe22dcb4888bca4767aa93c71ce1f6148b0610fd0565b60405190815260200160405180910390a15b60005b610302548110156135fd5761030281815481106148e4576148e46157fa565b600091825260209091200154604051636e0d037d60e11b81526001600160a01b039091169063dc1a06fa9061492190879087908790600401615b5c565b600060405180830381600087803b15801561493b57600080fd5b505af115801561494f573d6000803e3d6000fd5b50505050808061495e906158ed565b9150506148c5565b60006149bb826040518060400160405280602081526020017f5361666545524332303a206c6f772d6c6576656c2063616c6c206661696c6564815250856001600160a01b0316614fde9092919063ffffffff16565b90508051600014806149dc5750808060200190518101906149dc9190615b17565b6118855760405162461bcd60e51b815260206004820152602a60248201527f5361666545524332303a204552433230206f7065726174696f6e20646964206e6044820152691bdd081cdd58d8d9595960b21b6064820152608401610ccd565b6001600160a01b0381163b614aa85760405162461bcd60e51b815260206004820152602d60248201527f455243313936373a206e657720696d706c656d656e746174696f6e206973206e60448201526c1bdd08184818dbdb9d1c9858dd609a1b6064820152608401610ccd565b600080516020615ec383398151915280546001600160a01b0319166001600160a01b0392909216919091179055565b614ae083614fed565b600082511180614aed5750805b15611885576135fd838361502d565b6000826001600160a01b03167f05a71d417f891ba4b7a94b48d1b1f4b59b070921cba593b3c72a05a5587a78a9614b32856124a8565b60408051918252602082018690520160405180910390a2613c298383613c32565b6001600160a01b038116600090815261028f602052604090819020805464ffffffffff19164264ffffffffff161790555163038255fd60e11b8152610290600482015273843430E0CAe23578547bd2887e22162EB17cd00590630704abfa906024016040805180830381865af4158015614bd1573d6000803e3d6000fd5b505050506040513d601f19601f82011682018060405250810190614bf59190615cdf565b6001600160a01b038216600090815261028f602090815260408220835160018201559201516002909201805463ffffffff191663ffffffff909316929092179091555b6001600160a01b0382166000908152610292602052604090205481101561193f576001600160a01b0382166000908152610292602052604090208054614ca3919083908110614c8957614c896157fa565b6000918252602090912001546001600160a01b0316614b53565b80614cad816158ed565b915050614c38565b6000614cc082615052565b614cca90826157e7565b905060005b6001600160a01b03831660009081526102926020526040902054811015614d58576001600160a01b0383166000908152610292602052604090208054614d3a919083908110614d2057614d206157fa565b6000918252602090912001546001600160a01b0316614cb5565b614d4490836157e7565b915080614d50816158ed565b915050614ccf565b50919050565b600080614d77612de361028e546001600160a01b031690565b90506000614d95614d888888615d5c565b64ffffffffff1683614086565b90506000614da76301e1338084614086565b614db2600185614086565b614dbc9084615a66565b614dc69190615810565b90506000614dd88761ffff168561405a565b90506000614de7600186614086565b614df18385615a66565b614dfb9190615810565b90506000614e09888761401c565b90506000614e18606488614086565b614e228484615a66565b614e2c9190615810565b9050614e3881886140b4565b9750505050505050505b949350505050565b600054610100900460ff16614e715760405162461bcd60e51b8152600401610ccd90615acc565b6114d68161505d565b600054610100900460ff16614ea15760405162461bcd60e51b8152600401610ccd90615acc565b6134696150a7565b600054610100900460ff16614ed05760405162461bcd60e51b8152600401610ccd90615acc565b61016080546001600160a01b0319166001600160a01b0392909216919091179055565b600054610100900460ff16614f1a5760405162461bcd60e51b8152600401610ccd90615acc565b61019380546001600160a01b0319166001600160a01b0392909216919091179055565b600054610100900460ff16614f645760405162461bcd60e51b8152600401610ccd90615acc565b609a614f708382615dc7565b50609b6118858282615dc7565b614f856137ad565b82614f8f816137f5565b15614fac5760405162461bcd60e51b8152600401610ccd9061599e565b82614fb6816137f5565b15614fd35760405162461bcd60e51b8152600401610ccd9061599e565b6120298585856150da565b6060614e428484600085615142565b614ff681614a3b565b6040516001600160a01b038216907fbc7cd75a20ee27fd9adebab32041f755214dbc6bffa90cc0225b39da2e5c2d3b90600090a250565b606061104b8383604051806060016040528060278152602001615ee36027913961521d565b6000610c87826124a8565b600054610100900460ff166150845760405162461bcd60e51b8152600401610ccd90615acc565b61012d80546001600160a01b0319166001600160a01b0392909216919091179055565b600054610100900460ff166150ce5760405162461bcd60e51b8152600401610ccd90615acc565b60c9805460ff19169055565b6150e2611a2d565b156118855760405162461bcd60e51b815260206004820152602a60248201527f45524332305061757361626c653a20746f6b656e207472616e736665722077686044820152691a5b19481c185d5cd95960b21b6064820152608401610ccd565b6060824710156151a35760405162461bcd60e51b815260206004820152602660248201527f416464726573733a20696e73756666696369656e742062616c616e636520666f6044820152651c8818d85b1b60d21b6064820152608401610ccd565b600080866001600160a01b031685876040516151bf9190615e86565b60006040518083038185875af1925050503d80600081146151fc576040519150601f19603f3d011682016040523d82523d6000602084013e615201565b606091505b509150915061521287838387615295565b979650505050505050565b6060600080856001600160a01b03168560405161523a9190615e86565b600060405180830381855af49150503d8060008114615275576040519150601f19603f3d011682016040523d82523d6000602084013e61527a565b606091505b509150915061528b86838387615295565b9695505050505050565b606083156153045782516000036152fd576001600160a01b0385163b6152fd5760405162461bcd60e51b815260206004820152601d60248201527f416464726573733a2063616c6c20746f206e6f6e2d636f6e74726163740000006044820152606401610ccd565b5081614e42565b614e4283838151156153195781518083602001fd5b8060405162461bcd60e51b8152600401610ccd9190615383565b60005b8381101561534e578181015183820152602001615336565b50506000910152565b6000815180845261536f816020860160208601615333565b601f01601f19169290920160200192915050565b60208152600061104b6020830184615357565b6001600160a01b03811681146114d657600080fd5b600080604083850312156153be57600080fd5b82356153c981615396565b946020939093013593505050565b6000602082840312156153e957600080fd5b813561104b81615396565b600080600080600060a0868803121561540c57600080fd5b853561541781615396565b9450602086013561542781615396565b9350604086013561543781615396565b9250606086013561544781615396565b9150608086013561545781615396565b809150509295509295909350565b60008060006060848603121561547a57600080fd5b833561548581615396565b9250602084013561549581615396565b929592945050506040919091013590565b6001600160a01b0391909116815260200190565b6000602082840312156154cc57600080fd5b5035919050565b634e487b7160e01b600052604160045260246000fd5b604080519081016001600160401b038111828210171561550b5761550b6154d3565b60405290565b604051601f8201601f191681016001600160401b0381118282101715615539576155396154d3565b604052919050565b60006001600160401b0382111561555a5761555a6154d3565b50601f01601f191660200190565b600061557b61557684615541565b615511565b905082815283838301111561558f57600080fd5b828260208301376000602084830101529392505050565b600080604083850312156155b957600080fd5b82356155c481615396565b915060208301356001600160401b038111156155df57600080fd5b8301601f810185136155f057600080fd5b6155ff85823560208401615568565b9150509250929050565b61ffff811681146114d657600080fd5b60006020828403121561562b57600080fd5b813561104b81615609565b6000806040838503121561564957600080fd5b823561565481615396565b9150602083013561566481615396565b809150509250929050565b63ffffffff811681146114d657600080fd5b60006020828403121561569357600080fd5b813561104b8161566f565b600080604083850312156156b157600080fd5b8235915060208301356001600160401b038111156155df57600080fd5b600181811c908216806156e257607f821691505b602082108103614d5857634e487b7160e01b600052602260045260246000fd5b60006020828403121561571457600080fd5b81516001600160401b0381111561572a57600080fd5b8201601f8101841361573b57600080fd5b805161574961557682615541565b81815285602083850101111561575e57600080fd5b61576f826020830160208601615333565b95945050505050565b6702632b233b4ba3c960c51b81526000825161579b816008850160208701615333565b9190910160080192915050565b601360fa1b8152600082516157c4816001850160208701615333565b9190910160010192915050565b634e487b7160e01b600052601160045260246000fd5b80820180821115610c8757610c876157d1565b634e487b7160e01b600052603260045260246000fd5b60008261582d57634e487b7160e01b600052601260045260246000fd5b500490565b6004811061585057634e487b7160e01b600052602160045260246000fd5b9052565b6001600160601b0385811682528416602082015260006158776040830185615832565b82606083015260a06080830152600060a083015260c08201905095945050505050565b81810381811115610c8757610c876157d1565b6001600160601b03851681528360208201526158cc6040820184615832565b606081019190915260a06080820181905260009082015260c0019392505050565b6000600182016158ff576158ff6157d1565b5060010190565b6020808252602c908201527f46756e6374696f6e206d7573742062652063616c6c6564207468726f7567682060408201526b19195b1959d85d1958d85b1b60a21b606082015260800190565b6020808252602c908201527f46756e6374696f6e206d7573742062652063616c6c6564207468726f7567682060408201526b6163746976652070726f787960a01b606082015260800190565b6020808252600290820152614c3960f01b604082015260600190565b6000602082840312156159cc57600080fd5b5051919050565b8481528360208201526158cc6040820184615832565b634e487b7160e01b600052603160045260246000fd5b60208082526003908201526204c34360ec1b604082015260600190565b600060208284031215615a2e57600080fd5b815161104b81615396565b600081615a4857615a486157d1565b506000190190565b634e487b7160e01b600052600160045260246000fd5b8082028115828204841417610c8757610c876157d1565b600060208284031215615a8f57600080fd5b815161104b81615609565b858152846020820152615ab06040820185615832565b82606082015260a06080820152600061521260a0830184615357565b6020808252602b908201527f496e697469616c697a61626c653a20636f6e7472616374206973206e6f74206960408201526a6e697469616c697a696e6760a81b606082015260800190565b600060208284031215615b2957600080fd5b8151801515811461104b57600080fd5b600060208284031215615b4b57600080fd5b815160ff8116811461104b57600080fd5b6001600160a01b039384168152919092166020820152604081019190915260600190565b600181815b80851115615bbb578160001904821115615ba157615ba16157d1565b80851615615bae57918102915b93841c9390800290615b85565b509250929050565b600082615bd257506001610c87565b81615bdf57506000610c87565b8160018114615bf55760028114615bff57615c1b565b6001915050610c87565b60ff841115615c1057615c106157d1565b50506001821b610c87565b5060208310610133831016604e8410600b8410161715615c3e575081810a610c87565b615c488383615b80565b8060001904821115615c5c57615c5c6157d1565b029392505050565b600061104b8383615bc3565b8281526060810161104b60208301848051825260209081015163ffffffff16910152565b600060408284031215615ca657600080fd5b615cae6154e9565b8251615cb981615609565b8152602083015164ffffffffff81168114615cd357600080fd5b60208201529392505050565b600060408284031215615cf157600080fd5b615cf96154e9565b825181526020830151615cd38161566f565b8251815260208084015163ffffffff16908201526080810182516040830152602083015163ffffffff16606083015261104b565b8151815260208083015163ffffffff169082015260408101610c87565b64ffffffffff828116828216039080821115615d7a57615d7a6157d1565b5092915050565b601f82111561188557600081815260208120601f850160051c81016020861015615da85750805b601f850160051c820191505b81811015610fc857828155600101615db4565b81516001600160401b03811115615de057615de06154d3565b615df481615dee84546156ce565b84615d81565b602080601f831160018114615e295760008415615e115750858301515b600019600386901b1c1916600185901b178555610fc8565b600085815260208120601f198616915b82811015615e5857888601518255948401946001909101908401615e39565b5085821015615e765787850151600019600388901b60f8161c191681555b5050505050600190811b01905550565b60008251615e98818460208701615333565b919091019291505056fe20585a03b41b84f4b72a83e5ccd8cb590ff3649833e4638ca8614e80ca27a0de360894a13ba1a3210667c828492db98dca3e2076cc3735a920a3ca505d382bbc416464726573733a206c6f772d6c6576656c2064656c65676174652063616c6c206661696c6564ddf252ad1be2c89b69c2b068fc378daa952ba7f163c4a11628f55a4df523b3efa2646970667358221220919a23c28125bc3c89256d825cff818ed59a1b4ee45ca3e257a65da22e9575b964736f6c63430008120033",
  "deployedBytecode": "0x60806040526004361061036f5760003560e01c80638980f11f116101c8578063cafb2202116100f8578063ee1335d11161009b578063ee1335d114610ac9578063ee153c4f14610ae9578063ef2591af14610b09578063ef356a7914610b2e578063f1215d2514610b43578063f12d54d814610b63578063f2fde38b14610b82578063f762e73414610ba2578063f94ce2c214610bc157600080fd5b8063cafb2202146109ce578063cdc18424146109ed578063d038875c14610a0e578063d039981b14610a48578063d1159a8714610a68578063d294f09314610a7f578063db84faac14610a94578063dd62ed3e14610aa957600080fd5b8063a457c2d71161016b578063a457c2d71461089b578063a64c91cc146108bb578063a8f76320146108db578063a9059cbb146108fb578063b2de2a431461091b578063b60d428814610930578063bacd609e14610951578063c822adda14610986578063c89d5b8b146109a657600080fd5b80638980f11f146107a75780638d8e6bd7146107c75780638da5cb5b146107fe57806392e5ced71461081357806395d89b411461083357806399a03c70146108485780639c271975146108685780639ee679e81461088857600080fd5b806345b05d09116102a35780636d3a4ac8116102465780636d3a4ac8146106b05780636f307dc3146106d057806370a08231146106e5578063715018a614610705578063734d82871461071a5780637594d0b51461073157806375a5652b146107485780637c2edb16146107685780638370e1f71461078757600080fd5b806345b05d09146105b55780634f1ef286146105d557806352d1902d146105e857806353ac4b66146105fd57806353d3a42f146106145780635c975abb1461065b5780635f0e8e371461067057806361b76e0f1461069057600080fd5b806323b872dd1161031657806323b872dd1461048b5780632a1b8b1c146104ab5780632f4f21e2146104c0578063313ce567146104e05780633659cfe614610507578063391d85ec1461052757806339509351146105555780633e7ae353146105755780634134bee91461059557600080fd5b806306fdde0314610374578063095ea7b31461039f5780630d174c24146103cf5780630e21750f146103f15780631459457a1461041157806318160ddd146104315780631c19be6d14610454578063205c28781461046b575b600080fd5b34801561038057600080fd5b50610389610be1565b6040516103969190615383565b60405180910390f35b3480156103ab57600080fd5b506103bf6103ba3660046153ab565b610c73565b6040519015158152602001610396565b3480156103db57600080fd5b506103ef6103ea3660046153d7565b610c8d565b005b3480156103fd57600080fd5b506103ef61040c3660046153d7565b610cf9565b34801561041d57600080fd5b506103ef61042c3660046153f4565b610d60565b34801561043d57600080fd5b50610446610fd0565b604051908152602001610396565b34801561046057600080fd5b506104466102fe5481565b34801561047757600080fd5b506103bf6104863660046153ab565b610ffb565b34801561049757600080fd5b506103bf6104a6366004615465565b61102c565b3480156104b757600080fd5b506103ef611052565b3480156104cc57600080fd5b506103bf6104db3660046153ab565b6113d6565b3480156104ec57600080fd5b506104f5611407565b60405160ff9091168152602001610396565b34801561051357600080fd5b506103ef6105223660046153d7565b611411565b34801561053357600080fd5b506102f954610548906001600160a01b031681565b60405161039691906154a6565b34801561056157600080fd5b506103bf6105703660046153ab565b6114d9565b34801561058157600080fd5b506105486105903660046153ab565b6114fb565b3480156105a157600080fd5b506103ef6105b03660046154ba565b611534565b3480156105c157600080fd5b506103ef6105d03660046154ba565b61171d565b6103ef6105e33660046155a6565b61188a565b3480156105f457600080fd5b50610446611943565b34801561060957600080fd5b506104466102fd5481565b34801561062057600080fd5b5061063461062f3660046154ba565b6119f1565b604080516001600160a01b0390931683526001600160601b03909116602083015201610396565b34801561066757600080fd5b506103bf611a2d565b34801561067c57600080fd5b506103ef61068b3660046153d7565b611a37565b34801561069c57600080fd5b506103ef6106ab3660046154ba565b611b8e565b3480156106bc57600080fd5b506103ef6106cb366004615619565b611b9c565b3480156106dc57600080fd5b50610548611c4d565b3480156106f157600080fd5b506104466107003660046153d7565b611c5d565b34801561071157600080fd5b506103ef611c7b565b34801561072657600080fd5b506104466102fc5481565b34801561073d57600080fd5b506104466103005481565b34801561075457600080fd5b506103ef6107633660046154ba565b611cb1565b34801561077457600080fd5b50610193546001600160a01b0316610548565b34801561079357600080fd5b506103ef6107a23660046154ba565b612030565b3480156107b357600080fd5b506103ef6107c23660046153ab565b612193565b3480156107d357600080fd5b506105486107e23660046153d7565b610291602052600090815260409020546001600160a01b031681565b34801561080a57600080fd5b506105486121f3565b34801561081f57600080fd5b506103ef61082e366004615636565b612262565b34801561083f57600080fd5b50610389612499565b34801561085457600080fd5b506104466108633660046153d7565b6124a8565b34801561087457600080fd5b506103ef6108833660046153d7565b6124c6565b6103ef6108963660046154ba565b612521565b3480156108a757600080fd5b506103bf6108b63660046153ab565b612879565b3480156108c757600080fd5b506103ef6108d63660046153d7565b6128ff565b3480156108e757600080fd5b506103ef6108f6366004615636565b61292a565b34801561090757600080fd5b506103bf6109163660046153ab565b612c60565b34801561092757600080fd5b506103ef612c6e565b34801561093c57600080fd5b506102fb54610548906001600160a01b031681565b34801561095d57600080fd5b5061097161096c3660046153ab565b612d43565b60408051928352602083019190915201610396565b34801561099257600080fd5b506106346109a13660046154ba565b612e60565b3480156109b257600080fd5b506109bb612e71565b60405161ffff9091168152602001610396565b3480156109da57600080fd5b5061028e546001600160a01b0316610548565b3480156109f957600080fd5b506102fa54610548906001600160a01b031681565b348015610a1a57600080fd5b506102fb54610a3390600160a01b900463ffffffff1681565b60405163ffffffff9091168152602001610396565b348015610a5457600080fd5b50610446610a633660046153d7565b612ee9565b348015610a7457600080fd5b506104466103035481565b348015610a8b57600080fd5b506103ef612ef6565b348015610aa057600080fd5b50610446612fac565b348015610ab557600080fd5b50610446610ac4366004615636565b613033565b348015610ad557600080fd5b506103ef610ae4366004615681565b61305e565b348015610af557600080fd5b50610548610b043660046154ba565b6130cb565b348015610b1557600080fd5b506102fb54610a3390600160c01b900463ffffffff1681565b348015610b3a57600080fd5b506104466130f6565b348015610b4f57600080fd5b506103ef610b5e36600461569e565b613101565b348015610b6f57600080fd5b50610160546001600160a01b0316610548565b348015610b8e57600080fd5b506103ef610b9d3660046153d7565b613244565b348015610bae57600080fd5b5061012d546001600160a01b0316610548565b348015610bcd57600080fd5b506103ef610bdc366004615681565b613279565b6060609a8054610bf0906156ce565b80601f0160208091040260200160405190810160405280929190818152602001828054610c1c906156ce565b8015610c695780601f10610c3e57610100808354040283529160200191610c69565b820191906000526020600020905b815481529060010190602001808311610c4c57829003601f168201915b5050505050905090565b600033610c818185856132e6565b60019150505b92915050565b610c9561340a565b6001600160a01b038116610cd65760405162461bcd60e51b81526020600482015260036024820152624c363360e81b60448201526064015b60405180910390fd5b6102fa80546001600160a01b0319166001600160a01b0392909216919091179055565b610d0161340a565b6001600160a01b038116610d3d5760405162461bcd60e51b8152602060048201526003602482015262130d8d60ea1b6044820152606401610ccd565b6102fb80546001600160a01b0319166001600160a01b0392909216919091179055565b600054610100900460ff1615808015610d805750600054600160ff909116105b80610d9a5750303b158015610d9a575060005460ff166001145b610dfd5760405162461bcd60e51b815260206004820152602e60248201527f496e697469616c697a61626c653a20636f6e747261637420697320616c72656160448201526d191e481a5b9a5d1a585b1a5e995960921b6064820152608401610ccd565b6000805460ff191660011790558015610e20576000805461ff0019166101001790555b6000826001600160a01b03166395d89b416040518163ffffffff1660e01b8152600401600060405180830381865afa158015610e60573d6000803e3d6000fd5b505050506040513d6000823e601f3d908101601f19168201604052610e889190810190615702565b9050610ed587878784604051602001610ea19190615778565b60405160208183030381529060405285604051602001610ec191906157a8565b60405160208183030381529060405261346b565b610ede836134af565b610ee7306134df565b6102f980546001600160a01b0319166001600160a01b0386161790556102fb805467ffffffffffffffff60a01b19166509c40000004b60a21b179055610f2b6121f3565b6102fa80546001600160a01b0319166001600160a01b0392909216919091179055610f546121f3565b6102fb80546001600160a01b0319166001600160a01b0392909216919091179055506602aa1efb94e000610303558015610fc8576000805461ff0019169055604051600181527f7f26b83ff96e1f2b6a682f133852f6798a09c465da95921460cefb38474024989060200160405180910390a15b505050505050565b60006102fc546102fd54610fe26130f6565b610fec91906157e7565b610ff691906157e7565b905090565b60405162461bcd60e51b81526020600482015260036024820152624c343560e81b6044820152600090606401610ccd565b60003361103a858285613589565b611045858585613603565b60019150505b9392505050565b6102fa546001600160a01b0316336001600160a01b03161461109c5760405162461bcd60e51b81526020600482015260036024820152624c333960e81b6044820152606401610ccd565b6110a46137ad565b610300546102ff5460009182915b808210156113795761afc85a106113795760006102ff83815481106110d9576110d96157fa565b6000918252602091829020604080518082019091529101546001600160a01b038116808352600160a01b9091046001600160601b031692820192909252915015611366578051611128906137f5565b156111aa576102ff8381548110611141576111416157fa565b60009182526020808320909101829055610301805460018101825592528251908301516001600160601b0316600160a01b026001600160a01b0391909116177fe78f8e39db67a8c6e0d54c288efc6f296f5d558bc028138a8476c9b97f6fcaa490910155611366565b60026111b4612fac565b6111be9190615810565b81602001516001600160601b0316111561128a5760208101516102ff5460405160019233928792600080516020615ea3833981519152926112059290918291600391615854565b60405180910390a46102ff8381548110611221576112216157fa565b600091825260208083209091018290556102ff805460018101825592528251908301516001600160601b0316600160a01b026001600160a01b0391909116177f5a4a1f748f8cfa795b59cdc37192794ee567e6029e925719381be08d7ccaf4ec90910155611366565b6000806112a8836000015184602001516001600160601b0316612d43565b91509150856102fe546112bb919061589a565b8211156112ca57505050611379565b6112d481886157e7565b96506112e082876157e7565b9550600183600001516001600160a01b031686600080516020615ea3833981519152866020015186600260001960405161131d94939291906158ad565b60405180910390a46102ff8581548110611339576113396157fa565b600091825260208220015582516113639083611353611c4d565b6001600160a01b03169190613868565b50505b82611370816158ed565b935050506110b2565b836102fc600082825461138c91906157e7565b92505081905550826102fe60008282546113a6919061589a565b909155506113b6905084846157e7565b6102fd60008282546113c8919061589a565b909155505050610300555050565b60405162461bcd60e51b8152602060048201526003602482015262261a1b60e91b6044820152600090606401610ccd565b6000610ff66138cb565b6001600160a01b037f00000000000000000000000000000000000000000000000000000000000000001630036114595760405162461bcd60e51b8152600401610ccd90615906565b7f00000000000000000000000000000000000000000000000000000000000000006001600160a01b031661148b613941565b6001600160a01b0316146114b15760405162461bcd60e51b8152600401610ccd90615952565b6114ba8161395d565b604080516000808252602082019092526114d691839190613965565b50565b600033610c818185856114ec8383613033565b6114f691906157e7565b6132e6565b610292602052816000526040600020818154811061151857600080fd5b6000918252602090912001546001600160a01b03169150829050565b61153c6137ad565b33611546816137f5565b156115635760405162461bcd60e51b8152600401610ccd9061599e565b61156c33611c5d565b8211156115a15760405162461bcd60e51b815260206004820152600360248201526209868760eb1b6044820152606401610ccd565b60006102fe54836102fd546115b691906157e7565b6102f95491101591506000906002906001600160a01b031663c8f74bb8336040518263ffffffff1660e01b81526004016115f091906154a6565b602060405180830381865afa15801561160d573d6000803e3d6000fd5b505050506040513d601f19601f8201168201806040525081019061163191906159ba565b1015801561164257506102fe548411155b9050818061164d5750805b61167f5760405162461bcd60e51b81526020600482015260036024820152624c343960e81b6044820152606401610ccd565b60008061168c3387612d43565b91509150806102fc60008282546116a391906157e7565b92505081905550816102fe60008282546116bd919061589a565b9091555060019050336001600160a01b0316600019600080516020615ea3833981519152898660026000196040516116f894939291906159d3565b60405180910390a461170a3382613ad0565b6117143383613c05565b50505050505050565b6117256137ad565b3361172f816137f5565b1561174c5760405162461bcd60e51b8152600401610ccd9061599e565b60006102ff8381548110611762576117626157fa565b6000918252602091829020604080518082019091529101546001600160a01b038116808352600160a01b9091046001600160601b0316928201929092529150336001600160a01b0316146117de5760405162461bcd60e51b81526020600482015260036024820152624c353760e81b6044820152606401610ccd565b80602001516001600160601b03166102fd60008282546117fe919061589a565b90915550506102ff805484908110611818576118186157fa565b6000918252602082200155600181600001516001600160a01b031684600080516020615ea38339815191528460200151856020015160016000196040516118629493929190615854565b60405180910390a4611885816000015182602001516001600160601b0316613c32565b505050565b6001600160a01b037f00000000000000000000000000000000000000000000000000000000000000001630036118d25760405162461bcd60e51b8152600401610ccd90615906565b7f00000000000000000000000000000000000000000000000000000000000000006001600160a01b0316611904613941565b6001600160a01b03161461192a5760405162461bcd60e51b8152600401610ccd90615952565b6119338261395d565b61193f82826001613965565b5050565b6000306001600160a01b037f000000000000000000000000000000000000000000000000000000000000000016146119de5760405162461bcd60e51b815260206004820152603860248201527f555550535570677261646561626c653a206d757374206e6f742062652063616c6044820152771b1959081d1a1c9bdd59da0819195b1959d85d1958d85b1b60421b6064820152608401610ccd565b50600080516020615ec383398151915290565b6103018181548110611a0257600080fd5b6000918252602090912001546001600160a01b0381169150600160a01b90046001600160601b031682565b6000610ff6613cf5565b611a3f61340a565b610302546000199060005b81811015611aa457836001600160a01b03166103028281548110611a7057611a706157fa565b6000918252602090912001546001600160a01b031603611a9257809250611aa4565b80611a9c816158ed565b915050611a4a565b506000198213611adc5760405162461bcd60e51b8152602060048201526003602482015262261a1960e91b6044820152606401610ccd565b610302611aea60018361589a565b81548110611afa57611afa6157fa565b60009182526020909120015461030280546001600160a01b039092169184908110611b2757611b276157fa565b9060005260206000200160006101000a8154816001600160a01b0302191690836001600160a01b03160217905550610302805480611b6757611b676159e9565b600082815260209020810160001990810180546001600160a01b0319169055019055505050565b611b9661340a565b61030355565b611ba461340a565b60405163433e3bad60e11b8152610290600482015261ffff8216602482015273__$3728f51d90da6977d2525dcec632daa0b3$__9063867c775a9060440160006040518083038186803b158015611bfa57600080fd5b505af4158015611c0e573d6000803e3d6000fd5b505060405161ffff841681527f3d6d63f501ae621a01c729938fb4428a25138835257943d6b56c49b402ba36329250602001905060405180910390a150565b6102c6546001600160a01b031690565b6000611c6882612ee9565b611c71836124a8565b610c8791906157e7565b611c8361340a565b60405162461bcd60e51b81526020600482015260036024820152624c363560e81b6044820152606401610ccd565b6102fb546001600160a01b0316336001600160a01b031614611ce55760405162461bcd60e51b8152600401610ccd906159ff565b611ced6137ad565b60006102ff8281548110611d0357611d036157fa565b6000918252602091829020604080518082019091529101546001600160a01b038116808352600160a01b9091046001600160601b0316928201929092529150611d745760405162461bcd60e51b8152602060048201526003602482015262261b1b60e91b6044820152606401610ccd565b8051611d7f906137f5565b15611db25760405162461bcd60e51b815260206004820152600360248201526204c35360ec1b6044820152606401610ccd565b6002611dbc612fac565b611dc69190615810565b81602001516001600160601b031611611e075760405162461bcd60e51b81526020600482015260036024820152624c353160e81b6044820152606401610ccd565b600080611e25836000015184602001516001600160601b0316612d43565b915091506000611e33611c4d565b6102fb546040516370a0823160e01b81526001600160a01b03928316926370a0823192611e65929116906004016154a6565b602060405180830381865afa158015611e82573d6000803e3d6000fd5b505050506040513d601f19601f82011682018060405250810190611ea691906159ba565b9050806102fe54611eb791906157e7565b831115611eec5760405162461bcd60e51b8152602060048201526003602482015262261a9960e91b6044820152606401610ccd565b816102fc6000828254611eff91906157e7565b9250508190555083602001516001600160601b03166102fd6000828254611f26919061589a565b9091555050610300548503611f4c576103008054906000611f46836158ed565b91905055505b600184600001516001600160a01b031686600080516020615ea38339815191528760200151876002600019604051611f8794939291906158ad565b60405180910390a46102ff8581548110611fa357611fa36157fa565b6000918252602082200155808311611fda57611fd533855185611fc4611c4d565b6001600160a01b0316929190613d64565b612021565b6000611fe6828561589a565b9050806102fe6000828254611ffb919061589a565b90915550612010905033865184611fc4611c4d565b845161201f9082611353611c4d565b505b612029613d85565b5050505050565b6102fb546001600160a01b0316336001600160a01b0316146120645760405162461bcd60e51b8152600401610ccd906159ff565b61206c6137ad565b612074611c4d565b6102fb546040516370a0823160e01b81526001600160a01b03928316926370a08231926120a6929116906004016154a6565b602060405180830381865afa1580156120c3573d6000803e3d6000fd5b505050506040513d601f19601f820116820180604052508101906120e791906159ba565b81111561211c5760405162461bcd60e51b81526020600482015260036024820152620986a760eb1b6044820152606401610ccd565b6000816102fe5461212d91906157e7565b9050612137612fac565b81111561216c5760405162461bcd60e51b81526020600482015260036024820152624c353960e81b6044820152606401610ccd565b816102fe600082825461217f91906157e7565b9091555061193f9050333084611fc4611c4d565b61219b61340a565b6121a3611c4d565b6001600160a01b0316826001600160a01b0316036121e95760405162461bcd60e51b81526020600482015260036024820152624c343360e81b6044820152606401610ccd565b61193f8282613de3565b61012d5460408051638da5cb5b60e01b815290516000926001600160a01b031691638da5cb5b9160048083019260209291908290030181865afa15801561223e573d6000803e3d6000fd5b505050506040513d601f19601f82011682018060405250810190610ff69190615a1c565b61226a6137ad565b81612274816137f5565b156122915760405162461bcd60e51b8152600401610ccd9061599e565b8161229b816137f5565b156122b85760405162461bcd60e51b8152600401610ccd9061599e565b6001600160a01b038481166000908152610291602052604090205416156123075760405162461bcd60e51b8152602060048201526003602482015262261b1960e91b6044820152606401610ccd565b6001600160a01b0384166123435760405162461bcd60e51b815260206004820152600360248201526226189960e91b6044820152606401610ccd565b6001600160a01b03831661237f5760405162461bcd60e51b81526020600482015260036024820152624c313360e81b6044820152606401610ccd565b826001600160a01b0316846001600160a01b0316036123c65760405162461bcd60e51b8152602060048201526003602482015262130c4d60ea1b6044820152606401610ccd565b6123ce6121f3565b6001600160a01b0316336001600160a01b031614806123f55750336001600160a01b038516145b6124275760405162461bcd60e51b81526020600482015260036024820152624c313560e81b6044820152606401610ccd565b612432846001613eda565b61243d836001613eda565b50506001600160a01b039182166000818152610291602090815260408083208054969095166001600160a01b03199687168117909555938252610292815292812080546001810182559082529290209091018054909216179055565b6060609b8054610bf0906156ce565b6001600160a01b038116600090815260976020526040812054610c87565b6124ce61340a565b61030280546001810182556000919091527f552430c2010355dda19e8bae437f75cfb136cb8d667c4c0867367db21eee69b60180546001600160a01b0319166001600160a01b0392909216919091179055565b6125296137ad565b33612533816137f5565b156125505760405162461bcd60e51b8152600401610ccd9061599e565b61255933611c5d565b82111561258e5760405162461bcd60e51b81526020600482015260036024820152624c353360e81b6044820152606401610ccd565b6001600160601b038211156125cb5760405162461bcd60e51b8152602060048201526003602482015262130d4d60ea1b6044820152606401610ccd565b6103035434146126035760405162461bcd60e51b81526020600482015260036024820152624c353560e81b6044820152606401610ccd565b600060405180604001604052806126173390565b6001600160a01b0390811682526001600160601b0386166020909201919091526102f9549192506000916002911663c8f74bb8336040518263ffffffff1660e01b815260040161266791906154a6565b602060405180830381865afa158015612684573d6000803e3d6000fd5b505050506040513d601f19601f820116820180604052508101906126a891906159ba565b101580156126b95750600061030054115b156127275761030080549060006126cf83615a39565b9190505550610300549050816102ff82815481106126ef576126ef6157fa565b6000918252602091829020835193909201516001600160601b0316600160a01b026001600160a01b0390931692909217910155612791565b6102ff8054600181810183556000839052845160208601516001600160601b0316600160a01b026001600160a01b03909116177f5a4a1f748f8cfa795b59cdc37192794ee567e6029e925719381be08d7ccaf4ec90920191909155905461278e919061589a565b90505b836102fd60008282546127a491906157e7565b9091555060019050336001600160a01b031682600080516020615ea3833981519152878860006000196040516127dd94939291906159d3565b60405180910390a46127ef3385613ad0565b6102fa546040516000916001600160a01b03169034908381818185875af1925050503d806000811461283d576040519150601f19603f3d011682016040523d82523d6000602084013e612842565b606091505b50509050806120295760405162461bcd60e51b8152602060048201526003602482015262261a9b60e91b6044820152606401610ccd565b600033816128878286613033565b9050838110156128e75760405162461bcd60e51b815260206004820152602560248201527f45524332303a2064656372656173656420616c6c6f77616e63652062656c6f77604482015264207a65726f60d81b6064820152608401610ccd565b6128f482868684036132e6565b506001949350505050565b61290761340a565b6102f980546001600160a01b0319166001600160a01b0392909216919091179055565b6129326137ad565b8161293c816137f5565b156129595760405162461bcd60e51b8152600401610ccd9061599e565b81612963816137f5565b156129805760405162461bcd60e51b8152600401610ccd9061599e565b6001600160a01b0384166129bc5760405162461bcd60e51b815260206004820152600360248201526226189b60e91b6044820152606401610ccd565b6001600160a01b0383166129f85760405162461bcd60e51b81526020600482015260036024820152624c313760e81b6044820152606401610ccd565b612a006121f3565b6001600160a01b0316336001600160a01b03161480612a275750336001600160a01b038516145b612a595760405162461bcd60e51b815260206004820152600360248201526209862760eb1b6044820152606401610ccd565b6001600160a01b0384811660009081526102916020526040902054811690841614612aac5760405162461bcd60e51b81526020600482015260036024820152624c313960e81b6044820152606401610ccd565b612ab7846001613eda565b612ac2836001613eda565b60001960005b6001600160a01b03851660009081526102926020526040902054811015612b4d576001600160a01b0385811660009081526102926020526040902080549188169183908110612b1957612b196157fa565b6000918252602090912001546001600160a01b031603612b3b57809150612b4d565b80612b45816158ed565b915050612ac8565b506000811215612b5f57612b5f615a50565b6001600160a01b0380861660009081526102916020908152604080832080546001600160a01b031916905592871682526102929052208054612ba39060019061589a565b81548110612bb357612bb36157fa565b60009182526020808320909101546001600160a01b0387811684526102929092526040909220805491909216919083908110612bf157612bf16157fa565b600091825260208083209190910180546001600160a01b0319166001600160a01b03948516179055918616815261029290915260409020805480612c3757612c376159e9565b600082815260209020810160001990810180546001600160a01b03191690550190555050505050565b600033610c81818585613603565b612c7661340a565b60006102fe54612c84611c4d565b6001600160a01b03166370a08231306040518263ffffffff1660e01b8152600401612caf91906154a6565b602060405180830381865afa158015612ccc573d6000803e3d6000fd5b505050506040513d601f19601f82011682018060405250810190612cf091906159ba565b612cfa919061589a565b905060008111612d325760405162461bcd60e51b8152602060048201526003602482015262130d0d60ea1b6044820152606401610ccd565b6114d6612d3d611c4d565b82613de3565b6102f95460405163191ee97760e31b815260009182916002916001600160a01b03169063c8f74bb890612d7a9088906004016154a6565b602060405180830381865afa158015612d97573d6000803e3d6000fd5b505050506040513d601f19601f82011682018060405250810190612dbb91906159ba565b10612dcb57508190506000612e59565b6000612de8612de361028e546001600160a01b031690565b613faf565b90506000612df6858361401c565b6102fb54909150600090612e1790600160a01b900463ffffffff168461405a565b90506000612e26606485614086565b612e308385615a66565b612e3a9190615810565b9050612e4681856140b4565b9450612e52858861589a565b9550505050505b9250929050565b6102ff8181548110611a0257600080fd5b60405163106d64cf60e31b8152610290600482015260009073__$3728f51d90da6977d2525dcec632daa0b3$__9063836b267890602401602060405180830381865af4158015612ec5573d6000803e3d6000fd5b505050506040513d601f19601f82011682018060405250810190610ff69190615a7d565b6000610c878260016140eb565b612efe61340a565b60006102fc5411612f375760405162461bcd60e51b815260206004820152600360248201526204c36360ec1b6044820152606401610ccd565b6102fc546102fe541015612f735760405162461bcd60e51b81526020600482015260036024820152624c363160e81b6044820152606401610ccd565b6102fc546102fe6000828254612f89919061589a565b90915550506102fc805460009091556114d6612fa36121f3565b82611353611c4d565b600080612fc5612de361028e546001600160a01b031690565b90506000612fda612fd4610fd0565b8361401c565b6102fb54909150600090612ffb90600160c01b900463ffffffff168461405a565b9050600061300a606485614086565b6130148385615a66565b61301e9190615810565b905061302a81856140b4565b94505050505090565b6001600160a01b03918216600090815260986020908152604080832093909416825291909152205490565b61306661340a565b614e2063ffffffff821611156130a45760405162461bcd60e51b815260206004820152600360248201526209870760eb1b6044820152606401610ccd565b6102fb805463ffffffff909216600160a01b0263ffffffff60a01b19909216919091179055565b61030281815481106130dc57600080fd5b6000918252602090912001546001600160a01b0316905081565b6000610ff660995490565b6131096137ad565b33613113816137f5565b156131305760405162461bcd60e51b8152600401610ccd9061599e565b82613139611c4d565b6001600160a01b03166370a08231336040518263ffffffff1660e01b815260040161316491906154a6565b602060405180830381865afa158015613181573d6000803e3d6000fd5b505050506040513d601f19601f820116820180604052508101906131a591906159ba565b10156131d95760405162461bcd60e51b81526020600482015260036024820152624c343760e81b6044820152606401610ccd565b826102fe60008282546131ec91906157e7565b9091555060009050336001600160a01b0316600019600080516020615ea38339815191528687600260001989604051613229959493929190615a9a565b60405180910390a461323b3384614651565b50611885613d85565b61324c61340a565b60405162461bcd60e51b8152602060048201526002602482015261098760f31b6044820152606401610ccd565b61328161340a565b61271063ffffffff821611156132bf5760405162461bcd60e51b81526020600482015260036024820152624c343160e81b6044820152606401610ccd565b6102fb805463ffffffff909216600160c01b0263ffffffff60c01b19909216919091179055565b6001600160a01b0383166133485760405162461bcd60e51b8152602060048201526024808201527f45524332303a20617070726f76652066726f6d20746865207a65726f206164646044820152637265737360e01b6064820152608401610ccd565b6001600160a01b0382166133a95760405162461bcd60e51b815260206004820152602260248201527f45524332303a20617070726f766520746f20746865207a65726f206164647265604482015261737360f01b6064820152608401610ccd565b6001600160a01b0383811660008181526098602090815260408083209487168084529482529182902085905590518481527f8c5be1e5ebec7d5bd14f71427d1e84f3dd0314c0f7b2291e5b200ac8c7c3b925910160405180910390a3505050565b336134136121f3565b6001600160a01b0316146134695760405162461bcd60e51b815260206004820181905260248201527f4f776e61626c653a2063616c6c6572206973206e6f7420746865206f776e65726044820152606401610ccd565b565b600054610100900460ff166134925760405162461bcd60e51b8152600401610ccd90615acc565b61349d8585856146d2565b6134a7828261472c565b61202961475d565b600054610100900460ff166134d65760405162461bcd60e51b8152600401610ccd90615acc565b6114d681614784565b600054610100900460ff166135065760405162461bcd60e51b8152600401610ccd90615acc565b61028e80546001600160a01b0319166001600160a01b03831617905560405163433e3bad60e11b815261029060048201526000602482015273__$3728f51d90da6977d2525dcec632daa0b3$__9063867c775a9060440160006040518083038186803b15801561357557600080fd5b505af4158015612029573d6000803e3d6000fd5b60006135958484613033565b905060001981146135fd57818110156135f05760405162461bcd60e51b815260206004820152601d60248201527f45524332303a20696e73756666696369656e7420616c6c6f77616e63650000006044820152606401610ccd565b6135fd84848484036132e6565b50505050565b6001600160a01b0383166136675760405162461bcd60e51b815260206004820152602560248201527f45524332303a207472616e736665722066726f6d20746865207a65726f206164604482015264647265737360d81b6064820152608401610ccd565b6001600160a01b0382166136c95760405162461bcd60e51b815260206004820152602360248201527f45524332303a207472616e7366657220746f20746865207a65726f206164647260448201526265737360e81b6064820152608401610ccd565b6136d4838383614826565b6001600160a01b0383166000908152609760205260409020548181101561374c5760405162461bcd60e51b815260206004820152602660248201527f45524332303a207472616e7366657220616d6f756e7420657863656564732062604482015265616c616e636560d01b6064820152608401610ccd565b6001600160a01b038085166000818152609760205260408082208686039055928616808252908390208054860190559151600080516020615f0a8339815191529061379a9086815260200190565b60405180910390a36135fd848484614865565b6137b5611a2d565b156134695760405162461bcd60e51b815260206004820152601060248201526f14185d5cd8589b194e881c185d5cd95960821b6044820152606401610ccd565b6101935460405163fe575a8760e01b81526000916001600160a01b03169063fe575a87906138279085906004016154a6565b602060405180830381865afa158015613844573d6000803e3d6000fd5b505050506040513d601f19601f82011682018060405250810190610c879190615b17565b6040516001600160a01b03831660248201526044810182905261188590849063a9059cbb60e01b906064015b60408051601f198184030181529190526020810180516001600160e01b03166001600160e01b031990931692909217909152614966565b6102c6546040805163313ce56760e01b815290516000926001600160a01b03169163313ce5679160048083019260209291908290030181865afa925050508015613932575060408051601f3d908101601f1916820190925261392f91810190615b39565b60015b61393c5750601290565b919050565b600080516020615ec3833981519152546001600160a01b031690565b6114d661340a565b7f4910fdfa16fed3260ed0e7147f7cc6da11a60208b5b9406d12a635614ffd91435460ff16156139985761188583614a3b565b826001600160a01b03166352d1902d6040518163ffffffff1660e01b8152600401602060405180830381865afa9250505080156139f2575060408051601f3d908101601f191682019092526139ef918101906159ba565b60015b613a555760405162461bcd60e51b815260206004820152602e60248201527f45524331393637557067726164653a206e657720696d706c656d656e7461746960448201526d6f6e206973206e6f74205555505360901b6064820152608401610ccd565b600080516020615ec38339815191528114613ac45760405162461bcd60e51b815260206004820152602960248201527f45524331393637557067726164653a20756e737570706f727465642070726f786044820152681a58589b195555525160ba1b6064820152608401610ccd565b50611885838383614ad7565b6001600160a01b038216613b305760405162461bcd60e51b815260206004820152602160248201527f45524332303a206275726e2066726f6d20746865207a65726f206164647265736044820152607360f81b6064820152608401610ccd565b613b3c82600083614826565b6001600160a01b03821660009081526097602052604090205481811015613bb05760405162461bcd60e51b815260206004820152602260248201527f45524332303a206275726e20616d6f756e7420657863656564732062616c616e604482015261636560f01b6064820152608401610ccd565b6001600160a01b0383166000818152609760209081526040808320868603905560998054879003905551858152919291600080516020615f0a833981519152910160405180910390a361188583600084614865565b6000613c113383613ad0565b6102c654613c29906001600160a01b03168484613868565b50600192915050565b6001600160a01b038216613c885760405162461bcd60e51b815260206004820152601f60248201527f45524332303a206d696e7420746f20746865207a65726f2061646472657373006044820152606401610ccd565b613c9460008383614826565b8060996000828254613ca691906157e7565b90915550506001600160a01b038216600081815260976020908152604080832080548601905551848152600080516020615f0a833981519152910160405180910390a361193f60008383614865565b6101605460408051635c975abb60e01b815290516000926001600160a01b031691635c975abb9160048083019260209291908290030181865afa158015613d40573d6000803e3d6000fd5b505050506040513d601f19601f82011682018060405250810190610ff69190615b17565b6135fd846323b872dd60e01b85858560405160240161389493929190615b5c565b6000613d8f612fac565b9050806102fe5411613d9e5750565b6000816102fe54613daf919061589a565b9050806102fe6000828254613dc4919061589a565b90915550506102fb5461193f906001600160a01b031682611353611c4d565b613deb61340a565b60008111613e215760405162461bcd60e51b815260206004820152600360248201526204c31360ec1b6044820152606401610ccd565b6040516370a0823160e01b8152829082906001600160a01b038316906370a0823190613e519030906004016154a6565b602060405180830381865afa158015613e6e573d6000803e3d6000fd5b505050506040513d601f19601f82011682018060405250810190613e9291906159ba565b1015613ec65760405162461bcd60e51b81526020600482015260036024820152624c313160e81b6044820152606401610ccd565b6118856001600160a01b0382163384613868565b6102935460ff1615613eea575050565b6001600160a01b038216600090815261028f602052604090205464ffffffffff428116911603613f18575050565b6001600160a01b0380831660009081526102916020526040902054168015613f44576118858183613eda565b6000613f5084846140eb565b90508015613fa657610293805460ff191660011790556000613f728583614afc565b610293805460ff19169055905080613fa4576001600160a01b038516600090815261028f602052604090206003018290555b505b6135fd84614b53565b6000816001600160a01b031663313ce5676040518163ffffffff1660e01b8152600401602060405180830381865afa158015613fef573d6000803e3d6000fd5b505050506040513d601f19601f820116820180604052508101906140139190615b39565b60ff1692915050565b6000600382101561404e5761403282600661589a565b61403d90600a615c64565b6140479084615a66565b9050610c87565b61104b836103e8615a66565b6000600382101561407157614047836103e8615a66565b61407c82600a615c64565b61104b9084615a66565b6000600382101561409e5761404783620f4240615a66565b6140a98260036157e7565b61407c90600a615c64565b600060038210156140df576140ca82600661589a565b6140d590600a615c64565b6140479084615810565b61104b6103e884615810565b6001600160a01b038216600090815261028f602090815260408083208151608081018352815464ffffffffff16818401908152835180850190945260018301548452600283015463ffffffff1684860152606082019390935291825260030154918101919091528161415c85614cb5565b82515190915064ffffffffff161580614173575080155b1561418357600092505050610c87565b815160200151604051630b27cfb160e31b815260009073__$3728f51d90da6977d2525dcec632daa0b3$__9063593e7d88906141c790610290908690600401615c70565b6040805180830381865af41580156141e3573d6000803e3d6000fd5b505050506040513d601f19601f820116820180604052508101906142079190615c94565b60405163038255fd60e11b8152610290600482015290915060009073__$3728f51d90da6977d2525dcec632daa0b3$__90630704abfa906024016040805180830381865af415801561425d573d6000803e3d6000fd5b505050506040513d601f19601f820116820180604052508101906142819190615cdf565b90508460200151955073__$3728f51d90da6977d2525dcec632daa0b3$__634ead0c5384836040518363ffffffff1660e01b81526004016142c3929190615d0b565b602060405180830381865af41580156142e0573d6000803e3d6000fd5b505050506040513d601f19601f820116820180604052508101906143049190615b17565b61461557604051633e1e5c5360e11b815260009073__$3728f51d90da6977d2525dcec632daa0b3$__90637c3cb8a690614342908790600401615d3f565b6040805180830381865af415801561435e573d6000803e3d6000fd5b505050506040513d601f19601f820116820180604052508101906143829190615cdf565b604051630b27cfb160e31b815290915060009073__$3728f51d90da6977d2525dcec632daa0b3$__9063593e7d88906143c390610290908690600401615c70565b6040805180830381865af41580156143df573d6000803e3d6000fd5b505050506040513d601f19601f820116820180604052508101906144039190615c94565b87515160208201518651929350614431928c614420576000614422565b8b5b61442c908b6157e7565b614d5e565b61443b90896157e7565b97505b81945080935073__$3728f51d90da6977d2525dcec632daa0b3$__634ead0c5386856040518363ffffffff1660e01b815260040161447d929190615d0b565b602060405180830381865af415801561449a573d6000803e3d6000fd5b505050506040513d601f19601f820116820180604052508101906144be9190615b17565b6145e857604051633e1e5c5360e11b815273__$3728f51d90da6977d2525dcec632daa0b3$__90637c3cb8a6906144f9908890600401615d3f565b6040805180830381865af4158015614515573d6000803e3d6000fd5b505050506040513d601f19601f820116820180604052508101906145399190615cdf565b604051630b27cfb160e31b815290925073__$3728f51d90da6977d2525dcec632daa0b3$__9063593e7d889061457790610290908690600401615c70565b6040805180830381865af4158015614593573d6000803e3d6000fd5b505050506040513d601f19601f820116820180604052508101906145b79190615c94565b90506145d78460200151826020015186600001518c614420576000614422565b6145e190896157e7565b975061443e565b61460284602001514286600001518c614420576000614422565b61460c90896157e7565b97505050614646565b8451518251614639919042908a61462d57600061462f565b895b61442c90896157e7565b61464390876157e7565b95505b505050505092915050565b6000333081036146af5760405162461bcd60e51b815260206004820152602360248201527f4552433230577261707065723a20777261707065722063616e2774206465706f6044820152621cda5d60ea1b6064820152608401610ccd565b6102c6546146c8906001600160a01b0316823086613d64565b610c818484613c32565b600054610100900460ff166146f95760405162461bcd60e51b8152600401610ccd90615acc565b61470161475d565b61470a83614e4a565b614712614e7a565b61471b82614ea9565b61472481614ef3565b61188561475d565b600054610100900460ff166147535760405162461bcd60e51b8152600401610ccd90615acc565b61193f8282614f3d565b600054610100900460ff166134695760405162461bcd60e51b8152600401610ccd90615acc565b600054610100900460ff166147ab5760405162461bcd60e51b8152600401610ccd90615acc565b306001600160a01b038216036148035760405162461bcd60e51b815260206004820152601e60248201527f4552433230577261707065723a2063616e6e6f742073656c66207772617000006044820152606401610ccd565b6102c680546001600160a01b0319166001600160a01b0392909216919091179055565b614831838383614f7d565b6001600160a01b0383161561484b5761484b836001613eda565b6001600160a01b0382161561188557611885826001613eda565b6001600160a01b038316158061488257506001600160a01b038216155b156148c2577f980f7e6fb44009001d533a10bc3bd558b4efe22dcb4888bca4767aa93c71ce1f6148b0610fd0565b60405190815260200160405180910390a15b60005b610302548110156135fd5761030281815481106148e4576148e46157fa565b600091825260209091200154604051636e0d037d60e11b81526001600160a01b039091169063dc1a06fa9061492190879087908790600401615b5c565b600060405180830381600087803b15801561493b57600080fd5b505af115801561494f573d6000803e3d6000fd5b50505050808061495e906158ed565b9150506148c5565b60006149bb826040518060400160405280602081526020017f5361666545524332303a206c6f772d6c6576656c2063616c6c206661696c6564815250856001600160a01b0316614fde9092919063ffffffff16565b90508051600014806149dc5750808060200190518101906149dc9190615b17565b6118855760405162461bcd60e51b815260206004820152602a60248201527f5361666545524332303a204552433230206f7065726174696f6e20646964206e6044820152691bdd081cdd58d8d9595960b21b6064820152608401610ccd565b6001600160a01b0381163b614aa85760405162461bcd60e51b815260206004820152602d60248201527f455243313936373a206e657720696d706c656d656e746174696f6e206973206e60448201526c1bdd08184818dbdb9d1c9858dd609a1b6064820152608401610ccd565b600080516020615ec383398151915280546001600160a01b0319166001600160a01b0392909216919091179055565b614ae083614fed565b600082511180614aed5750805b15611885576135fd838361502d565b6000826001600160a01b03167f05a71d417f891ba4b7a94b48d1b1f4b59b070921cba593b3c72a05a5587a78a9614b32856124a8565b60408051918252602082018690520160405180910390a2613c298383613c32565b6001600160a01b038116600090815261028f602052604090819020805464ffffffffff19164264ffffffffff161790555163038255fd60e11b8152610290600482015273__$3728f51d90da6977d2525dcec632daa0b3$__90630704abfa906024016040805180830381865af4158015614bd1573d6000803e3d6000fd5b505050506040513d601f19601f82011682018060405250810190614bf59190615cdf565b6001600160a01b038216600090815261028f602090815260408220835160018201559201516002909201805463ffffffff191663ffffffff909316929092179091555b6001600160a01b0382166000908152610292602052604090205481101561193f576001600160a01b0382166000908152610292602052604090208054614ca3919083908110614c8957614c896157fa565b6000918252602090912001546001600160a01b0316614b53565b80614cad816158ed565b915050614c38565b6000614cc082615052565b614cca90826157e7565b905060005b6001600160a01b03831660009081526102926020526040902054811015614d58576001600160a01b0383166000908152610292602052604090208054614d3a919083908110614d2057614d206157fa565b6000918252602090912001546001600160a01b0316614cb5565b614d4490836157e7565b915080614d50816158ed565b915050614ccf565b50919050565b600080614d77612de361028e546001600160a01b031690565b90506000614d95614d888888615d5c565b64ffffffffff1683614086565b90506000614da76301e1338084614086565b614db2600185614086565b614dbc9084615a66565b614dc69190615810565b90506000614dd88761ffff168561405a565b90506000614de7600186614086565b614df18385615a66565b614dfb9190615810565b90506000614e09888761401c565b90506000614e18606488614086565b614e228484615a66565b614e2c9190615810565b9050614e3881886140b4565b9750505050505050505b949350505050565b600054610100900460ff16614e715760405162461bcd60e51b8152600401610ccd90615acc565b6114d68161505d565b600054610100900460ff16614ea15760405162461bcd60e51b8152600401610ccd90615acc565b6134696150a7565b600054610100900460ff16614ed05760405162461bcd60e51b8152600401610ccd90615acc565b61016080546001600160a01b0319166001600160a01b0392909216919091179055565b600054610100900460ff16614f1a5760405162461bcd60e51b8152600401610ccd90615acc565b61019380546001600160a01b0319166001600160a01b0392909216919091179055565b600054610100900460ff16614f645760405162461bcd60e51b8152600401610ccd90615acc565b609a614f708382615dc7565b50609b6118858282615dc7565b614f856137ad565b82614f8f816137f5565b15614fac5760405162461bcd60e51b8152600401610ccd9061599e565b82614fb6816137f5565b15614fd35760405162461bcd60e51b8152600401610ccd9061599e565b6120298585856150da565b6060614e428484600085615142565b614ff681614a3b565b6040516001600160a01b038216907fbc7cd75a20ee27fd9adebab32041f755214dbc6bffa90cc0225b39da2e5c2d3b90600090a250565b606061104b8383604051806060016040528060278152602001615ee36027913961521d565b6000610c87826124a8565b600054610100900460ff166150845760405162461bcd60e51b8152600401610ccd90615acc565b61012d80546001600160a01b0319166001600160a01b0392909216919091179055565b600054610100900460ff166150ce5760405162461bcd60e51b8152600401610ccd90615acc565b60c9805460ff19169055565b6150e2611a2d565b156118855760405162461bcd60e51b815260206004820152602a60248201527f45524332305061757361626c653a20746f6b656e207472616e736665722077686044820152691a5b19481c185d5cd95960b21b6064820152608401610ccd565b6060824710156151a35760405162461bcd60e51b815260206004820152602660248201527f416464726573733a20696e73756666696369656e742062616c616e636520666f6044820152651c8818d85b1b60d21b6064820152608401610ccd565b600080866001600160a01b031685876040516151bf9190615e86565b60006040518083038185875af1925050503d80600081146151fc576040519150601f19603f3d011682016040523d82523d6000602084013e615201565b606091505b509150915061521287838387615295565b979650505050505050565b6060600080856001600160a01b03168560405161523a9190615e86565b600060405180830381855af49150503d8060008114615275576040519150601f19603f3d011682016040523d82523d6000602084013e61527a565b606091505b509150915061528b86838387615295565b9695505050505050565b606083156153045782516000036152fd576001600160a01b0385163b6152fd5760405162461bcd60e51b815260206004820152601d60248201527f416464726573733a2063616c6c20746f206e6f6e2d636f6e74726163740000006044820152606401610ccd565b5081614e42565b614e4283838151156153195781518083602001fd5b8060405162461bcd60e51b8152600401610ccd9190615383565b60005b8381101561534e578181015183820152602001615336565b50506000910152565b6000815180845261536f816020860160208601615333565b601f01601f19169290920160200192915050565b60208152600061104b6020830184615357565b6001600160a01b03811681146114d657600080fd5b600080604083850312156153be57600080fd5b82356153c981615396565b946020939093013593505050565b6000602082840312156153e957600080fd5b813561104b81615396565b600080600080600060a0868803121561540c57600080fd5b853561541781615396565b9450602086013561542781615396565b9350604086013561543781615396565b9250606086013561544781615396565b9150608086013561545781615396565b809150509295509295909350565b60008060006060848603121561547a57600080fd5b833561548581615396565b9250602084013561549581615396565b929592945050506040919091013590565b6001600160a01b0391909116815260200190565b6000602082840312156154cc57600080fd5b5035919050565b634e487b7160e01b600052604160045260246000fd5b604080519081016001600160401b038111828210171561550b5761550b6154d3565b60405290565b604051601f8201601f191681016001600160401b0381118282101715615539576155396154d3565b604052919050565b60006001600160401b0382111561555a5761555a6154d3565b50601f01601f191660200190565b600061557b61557684615541565b615511565b905082815283838301111561558f57600080fd5b828260208301376000602084830101529392505050565b600080604083850312156155b957600080fd5b82356155c481615396565b915060208301356001600160401b038111156155df57600080fd5b8301601f810185136155f057600080fd5b6155ff85823560208401615568565b9150509250929050565b61ffff811681146114d657600080fd5b60006020828403121561562b57600080fd5b813561104b81615609565b6000806040838503121561564957600080fd5b823561565481615396565b9150602083013561566481615396565b809150509250929050565b63ffffffff811681146114d657600080fd5b60006020828403121561569357600080fd5b813561104b8161566f565b600080604083850312156156b157600080fd5b8235915060208301356001600160401b038111156155df57600080fd5b600181811c908216806156e257607f821691505b602082108103614d5857634e487b7160e01b600052602260045260246000fd5b60006020828403121561571457600080fd5b81516001600160401b0381111561572a57600080fd5b8201601f8101841361573b57600080fd5b805161574961557682615541565b81815285602083850101111561575e57600080fd5b61576f826020830160208601615333565b95945050505050565b6702632b233b4ba3c960c51b81526000825161579b816008850160208701615333565b9190910160080192915050565b601360fa1b8152600082516157c4816001850160208701615333565b9190910160010192915050565b634e487b7160e01b600052601160045260246000fd5b80820180821115610c8757610c876157d1565b634e487b7160e01b600052603260045260246000fd5b60008261582d57634e487b7160e01b600052601260045260246000fd5b500490565b6004811061585057634e487b7160e01b600052602160045260246000fd5b9052565b6001600160601b0385811682528416602082015260006158776040830185615832565b82606083015260a06080830152600060a083015260c08201905095945050505050565b81810381811115610c8757610c876157d1565b6001600160601b03851681528360208201526158cc6040820184615832565b606081019190915260a06080820181905260009082015260c0019392505050565b6000600182016158ff576158ff6157d1565b5060010190565b6020808252602c908201527f46756e6374696f6e206d7573742062652063616c6c6564207468726f7567682060408201526b19195b1959d85d1958d85b1b60a21b606082015260800190565b6020808252602c908201527f46756e6374696f6e206d7573742062652063616c6c6564207468726f7567682060408201526b6163746976652070726f787960a01b606082015260800190565b6020808252600290820152614c3960f01b604082015260600190565b6000602082840312156159cc57600080fd5b5051919050565b8481528360208201526158cc6040820184615832565b634e487b7160e01b600052603160045260246000fd5b60208082526003908201526204c34360ec1b604082015260600190565b600060208284031215615a2e57600080fd5b815161104b81615396565b600081615a4857615a486157d1565b506000190190565b634e487b7160e01b600052600160045260246000fd5b8082028115828204841417610c8757610c876157d1565b600060208284031215615a8f57600080fd5b815161104b81615609565b858152846020820152615ab06040820185615832565b82606082015260a06080820152600061521260a0830184615357565b6020808252602b908201527f496e697469616c697a61626c653a20636f6e7472616374206973206e6f74206960408201526a6e697469616c697a696e6760a81b606082015260800190565b600060208284031215615b2957600080fd5b8151801515811461104b57600080fd5b600060208284031215615b4b57600080fd5b815160ff8116811461104b57600080fd5b6001600160a01b039384168152919092166020820152604081019190915260600190565b600181815b80851115615bbb578160001904821115615ba157615ba16157d1565b80851615615bae57918102915b93841c9390800290615b85565b509250929050565b600082615bd257506001610c87565b81615bdf57506000610c87565b8160018114615bf55760028114615bff57615c1b565b6001915050610c87565b60ff841115615c1057615c106157d1565b50506001821b610c87565b5060208310610133831016604e8410600b8410161715615c3e575081810a610c87565b615c488383615b80565b8060001904821115615c5c57615c5c6157d1565b029392505050565b600061104b8383615bc3565b8281526060810161104b60208301848051825260209081015163ffffffff16910152565b600060408284031215615ca657600080fd5b615cae6154e9565b8251615cb981615609565b8152602083015164ffffffffff81168114615cd357600080fd5b60208201529392505050565b600060408284031215615cf157600080fd5b615cf96154e9565b825181526020830151615cd38161566f565b8251815260208084015163ffffffff16908201526080810182516040830152602083015163ffffffff16606083015261104b565b8151815260208083015163ffffffff169082015260408101610c87565b64ffffffffff828116828216039080821115615d7a57615d7a6157d1565b5092915050565b601f82111561188557600081815260208120601f850160051c81016020861015615da85750805b601f850160051c820191505b81811015610fc857828155600101615db4565b81516001600160401b03811115615de057615de06154d3565b615df481615dee84546156ce565b84615d81565b602080601f831160018114615e295760008415615e115750858301515b600019600386901b1c1916600185901b178555610fc8565b600085815260208120601f198616915b82811015615e5857888601518255948401946001909101908401615e39565b5085821015615e765787850151600019600388901b60f8161c191681555b5050505050600190811b01905550565b60008251615e98818460208701615333565b919091019291505056fe20585a03b41b84f4b72a83e5ccd8cb590ff3649833e4638ca8614e80ca27a0de360894a13ba1a3210667c828492db98dca3e2076cc3735a920a3ca505d382bbc416464726573733a206c6f772d6c6576656c2064656c65676174652063616c6c206661696c6564ddf252ad1be2c89b69c2b068fc378daa952ba7f163c4a11628f55a4df523b3efa2646970667358221220919a23c28125bc3c89256d825cff818ed59a1b4ee45ca3e257a65da22e9575b964736f6c63430008120033",
  "libraries": {
    "APRHistory": "0x843430E0CAe23578547bd2887e22162EB17cd005"
  },
  "devdoc": {
    "author": "Lila Rest (https://lila.rest)",
    "custom:oz-upgrades-unsafe-allow": "external-library-linking",
    "custom:security-contact": "security@ledgity.comsecurity@ledgity.com",
    "details": "Definitions: - Deposit: Swap of underlying tokens for L-Tokens (1:1 ratio). - Withdrawal: Swap of L-Tokens for underlying tokens (1:1 ratio, minus applicable fees).   - Instant: Processed immediately.   - Request: Queued for later processing.   - Big Request: A requested withdrawal exceeding half of the retention rate. - (Withdrawal) queue: A list of all requested withdrawals sorted by priority. - Request ID: The index of a withdrawal request in the queue array. - Retention rate: Maximum fraction of underlying tokens TVL the contract can retain. - Fees Rate: Percentage of fees applied to successful withdrawals. - Usable underlyings: Amount of underlying tokens that have been deposited through                       expected ways and are so considered safe to use by the contract. - Transfers listeners: External contracts listening on L-Tokens transfers. - Fund wallet: Wallet managed by the Ledgity's financial team. - Withdrawer wallet: Managed by an off-chain server to automate withdrawal request                      processing. Note that words between parenthesis are sometimes omitted for brevity.Deployment notice: This contract can safely receive funds immediately after initialization. (i.e., there is no way for funds to be sent to non-owned addresses). It is, however, recommended to replace ASAP owner and fund wallets with multi-sig wallets.For further details, see \"LToken\" section of whitepaper.",
    "events": {
      "APRChangeEvent(uint16)": {
        "params": {
          "newAPRUD7x3": "The new APR in UD7x3 format."
        }
      },
      "ActivityEvent(int256,address,uint8,uint256,uint256,uint8,int256,string)": {
        "params": {
          "account": "The account involved in the activity.",
          "action": "The type of activity.",
          "amount": "The amount of underlying tokens involved in the activity.",
          "id": "ID of the involved withdrawal request or NO_ID (-1) if not applicable.",
          "newId": "The new ID of the request if it has been moved in the queue.",
          "newStatus": "The new status of the activity."
        }
      },
      "AdminChanged(address,address)": {
        "details": "Emitted when the admin account has changed."
      },
      "Approval(address,address,uint256)": {
        "details": "Emitted when the allowance of a `spender` for an `owner` is set by a call to {approve}. `value` is the new allowance."
      },
      "BeaconUpgraded(address)": {
        "details": "Emitted when the beacon is changed."
      },
      "Initialized(uint8)": {
        "details": "Triggered when the contract has been initialized or reinitialized."
      },
      "MintedRewardsEvent(address,uint256,uint256)": {
        "params": {
          "account": "The account that received the rewards.",
          "balanceBefore": "The balance of the account before the minting.",
          "rewards": "The amount of minted rewards."
        }
      },
      "Paused(address)": {
        "details": "Emitted when the pause is triggered by `account`."
      },
      "TVLChangeEvent(uint256)": {
        "details": "TVL = realTotalSupply()",
        "params": {
          "newTVL": "The new TVL of the contract."
        }
      },
      "Transfer(address,address,uint256)": {
        "details": "Emitted when `value` tokens are moved from one account (`from`) to another (`to`). Note that `value` may be zero."
      },
      "Unpaused(address)": {
        "details": "Emitted when the pause is lifted by `account`."
      },
      "Upgraded(address)": {
        "details": "Emitted when the implementation is upgraded."
      }
    },
    "kind": "dev",
    "methods": {
      "allowance(address,address)": {
        "details": "See {IERC20-allowance}."
      },
      "approve(address,uint256)": {
        "details": "See {IERC20-approve}. NOTE: If `amount` is the maximum `uint256`, the allowance is not updated on `transferFrom`. This is semantically equivalent to an infinite approval. Requirements: - `spender` cannot be the zero address."
      },
      "balanceOf(address)": {
        "details": "This is an oOverride of ERC20Upgradeable.balanceOf() that rewards that have not been yet minted to the specified account.",
        "params": {
          "account": "The account to check the total balance of."
        },
        "returns": {
          "_0": "The total balance of the account."
        }
      },
      "cancelWithdrawalRequest(uint256)": {
        "params": {
          "requestId": "The ID of the withdrawal request to cancel."
        }
      },
      "decimals()": {
        "details": "The ERC20WrapperUpgradeable version is preferred because it mirrors the decimals amount of the underlying stablecoin token."
      },
      "decreaseAllowance(address,uint256)": {
        "details": "Atomically decreases the allowance granted to `spender` by the caller. This is an alternative to {approve} that can be used as a mitigation for problems described in {IERC20-approve}. Emits an {Approval} event indicating the updated allowance. Requirements: - `spender` cannot be the zero address. - `spender` must have allowance for the caller of at least `subtractedValue`."
      },
      "deposit(uint256,string)": {
        "params": {
          "amount": "The amount of underlying tokens to deposit.",
          "refCode": "The Referral code"
        }
      },
      "depositFor(address,uint256)": {
        "details": "Allow a user to deposit underlying tokens and mint the corresponding number of wrapped tokens."
      },
      "getAPR()": {
        "returns": {
          "_0": "The current APR in UD7x3 format."
        }
      },
      "getExpectedRetained()": {
        "returns": {
          "amount": "The expected amount of retained underlying tokens."
        }
      },
      "getWithdrawnAmountAndFees(address,uint256)": {
        "params": {
          "account": "The account initiating the withdrawal.",
          "amount": "The amount of the withdrawal."
        }
      },
      "globalBlacklist()": {
        "returns": {
          "_0": "The address of the GlobalBlacklist contract."
        }
      },
      "globalOwner()": {
        "returns": {
          "_0": "The address of the GlobalOwner contract."
        }
      },
      "globalPause()": {
        "returns": {
          "_0": "The address of the GlobalPause contract."
        }
      },
      "increaseAllowance(address,uint256)": {
        "details": "Atomically increases the allowance granted to `spender` by the caller. This is an alternative to {approve} that can be used as a mitigation for problems described in {IERC20-approve}. Emits an {Approval} event indicating the updated allowance. Requirements: - `spender` cannot be the zero address."
      },
      "initialize(address,address,address,address,address)": {
        "details": "See: https://docs.openzeppelin.com/contracts/4.x/upgradeable",
        "params": {
          "globalBlacklist_": "The address of the GlobalBlacklist contract.",
          "globalOwner_": "The address of the GlobalOwner contract.",
          "globalPause_": "The address of the GlobalPause contract.",
          "underlyingToken": "The address of the underlying stablecoin ERC20 token."
        }
      },
      "instantWithdrawal(uint256)": {
        "details": "In order to save some gas and time to users, frontends should propose this function to users only when it has been verified that it will not revert. They should propose the requestWithdrawal() function otherwise.",
        "params": {
          "amount": "The amount L-Tokens to withdraw."
        }
      },
      "invested()": {
        "returns": {
          "_0": "The reference to the invested token contract."
        }
      },
      "listenToTransfers(address)": {
        "details": "Each time a transfer occurs, the onLTokenTransfer() function of the specified contract will be called.IMPORTANT SECURITY NOTE: This method is not intended to be used with contracts that are not owned by the Ledgity team.",
        "params": {
          "listenerContract": "The address of the new transfers listener contract."
        }
      },
      "name()": {
        "details": "Returns the name of the token."
      },
      "owner()": {
        "returns": {
          "_0": "The address of the owner"
        }
      },
      "paused()": {
        "details": "Both version are the same as ERC20BaseUpgradeable.paused() mirrors GlobalPausableUpgradeable.paused(), so a random one is chosen.",
        "returns": {
          "_0": "Whether the contract is paused or not."
        }
      },
      "processBigQueuedRequest(uint256)": {
        "details": "In contrast to non-big requests processing, this function will uses to fund wallet's balance to fill the request. This allows processing requests that are greater than retention rate without having to exceed this rate on the contract.",
        "params": {
          "requestId": "The ID of the big request to process."
        }
      },
      "processQueuedRequests()": {
        "details": "For further details, see \"LToken  > Withdrawals\" section of whitepaper."
      },
      "proxiableUUID()": {
        "details": "Implementation of the ERC1822 {proxiableUUID} function. This returns the storage slot used by the implementation. It is used to validate the implementation's compatibility when performing an upgrade. IMPORTANT: A proxy pointing at a proxiable contract should not be considered proxiable itself, because this risks bricking a proxy that upgrades to it, by delegating to itself until out of gas. Thus it is critical that this function revert if invoked through a proxy. This is guaranteed by the `notDelegated` modifier."
      },
      "realBalanceOf(address)": {
        "params": {
          "account": "The account to check the real balance of."
        },
        "returns": {
          "_0": "The real balance of the account."
        }
      },
      "realTotalSupply()": {
        "returns": {
          "_0": "The real total supply of L-Tokens."
        }
      },
      "recoverERC20(address,uint256)": {
        "details": "This override of RecoverableUpgradeable.recoverERC20() prevents the recovered token from being the underlying token.",
        "params": {
          "amount": "The amount of token to recover.",
          "tokenAddress": "The address of the token to recover."
        }
      },
      "recoverUnderlying()": {
        "details": "To prevent owner from being able to drain the contract, this function only allows recovering \"unusable\" underlying tokens, i.e., tokens that have not been sent through fund() or deposit() functions."
      },
      "repatriate(uint256)": {
        "details": "The function will revert if repatriated amount makes the contract exceeding the retention rate.",
        "params": {
          "amount": "The amount of underlying tokens to repatriate."
        }
      },
      "requestWithdrawal(uint256)": {
        "details": "The sender must attach withdrawalFeeInETH to pre-pay the future processing gas fees paid by the withdrawer wallet.",
        "params": {
          "amount": "The amount L-Tokens to withdraw."
        }
      },
      "setAPR(uint16)": {
        "params": {
          "aprUD7x3": "The new APR in UD7x3 format."
        }
      },
      "setFeesRate(uint32)": {
        "params": {
          "feesRateUD7x3_": "The new withdrawal fee rate in UD7x3 format."
        }
      },
      "setFund(address)": {
        "params": {
          "fund_": "The address of the new fund wallet."
        }
      },
      "setLDYStaking(address)": {
        "params": {
          "ldyStakingAddress": "The address of the new LDYStaking contract."
        }
      },
      "setRetentionRate(uint32)": {
        "details": "The retention rate is capped at 10%, which ensures that no more than 10% of deposited assets will ever be exposed in this contract (reduces attack surface).",
        "params": {
          "retentionRateUD7x3_": "The new retention rate in UD7x3 format."
        }
      },
      "setWithdrawalFeeInEth(uint256)": {
        "params": {
          "withdrawalFeeInEth_": "The new withdrawalFee in ETH."
        }
      },
      "setWithdrawer(address)": {
        "params": {
          "withdrawer_": "The address of the new withdrawer wallet."
        }
      },
      "startRewardsRedirection(address,address)": {
        "params": {
          "from": "The address of the account to redirect rewards from.",
          "to": "The address of the account to redirect rewards to."
        }
      },
      "stopRewardsRedirection(address,address)": {
        "params": {
          "from": "The address of the account to stop redirecting rewards from.",
          "to": "The address of the account to stop redirecting rewards to."
        }
      },
      "symbol()": {
        "details": "Returns the symbol of the token, usually a shorter version of the name."
      },
      "totalSupply()": {
        "returns": {
          "_0": "The total supply of L-Tokens."
        }
      },
      "transfer(address,uint256)": {
        "details": "See {IERC20-transfer}. Requirements: - `to` cannot be the zero address. - the caller must have a balance of at least `amount`."
      },
      "transferFrom(address,address,uint256)": {
        "details": "See {IERC20-transferFrom}. Emits an {Approval} event indicating the updated allowance. This is not required by the EIP. See the note at the beginning of {ERC20}. NOTE: Does not update the allowance if the current allowance is the maximum `uint256`. Requirements: - `from` and `to` cannot be the zero address. - `from` must have a balance of at least `amount`. - the caller must have allowance for ``from``'s tokens of at least `amount`."
      },
      "underlying()": {
        "details": "Returns the address of the underlying ERC-20 token that is being wrapped."
      },
      "unlistenToTransfers(address)": {
        "details": "The onLTokenTransfer() function of the specified contract will not be called anymore each time a L-Token transfer occurs.",
        "params": {
          "listenerContract": "The address of the listener contract."
        }
      },
      "unmintedRewardsOf(address)": {
        "details": "This is a public implementation of InvestUpgradeable_rewardsOf(). In the context of LToken, this function returns the amount of rewards that have not been distributed/minted yet to the specified account.This is particularly useful for off-chain services to display charts and statistics, as seen in the Ledgity Yield's frontend.",
        "params": {
          "account": "The account to check the unminted rewards of."
        },
        "returns": {
          "_0": "The amount of account's unminted rewards."
        }
      },
      "upgradeTo(address)": {
        "custom:oz-upgrades-unsafe-allow-reachable": "delegatecall",
        "details": "Upgrade the implementation of the proxy to `newImplementation`. Calls {_authorizeUpgrade}. Emits an {Upgraded} event."
      },
      "upgradeToAndCall(address,bytes)": {
        "custom:oz-upgrades-unsafe-allow-reachable": "delegatecall",
        "details": "Upgrade the implementation of the proxy to `newImplementation`, and subsequently execute the function call encoded in `data`. Calls {_authorizeUpgrade}. Emits an {Upgraded} event."
      },
      "withdrawTo(address,uint256)": {
        "details": "Allow a user to burn a number of wrapped tokens and withdraw the corresponding number of underlying tokens."
      }
    },
    "stateVariables": {
      "frozenRequests": {
        "details": "If a request emitter as been blacklisted, its request is moved here to prevent it from blocking the queue."
      },
      "transfersListeners": {
        "details": "onLTokenTransfer() functions of those contracts will be called on each transfer."
      },
      "usableUnderlyings": {
        "details": "Are usable, only underlying tokens deposit through deposit() or fund() functions."
      }
    },
    "title": "LToken",
    "version": 1
  },
  "userdoc": {
    "events": {
      "APRChangeEvent(uint16)": {
        "notice": "Emitted to inform listeners about a change in the APR's value."
      },
      "ActivityEvent(int256,address,uint8,uint256,uint256,uint8,int256,string)": {
        "notice": "Emitted to inform listerners about an activity related to deposits and withdrawals."
      },
      "MintedRewardsEvent(address,uint256,uint256)": {
        "notice": "Emitted to inform listeners that some rewards have been minted."
      },
      "TVLChangeEvent(uint256)": {
        "notice": "Emitted to inform listeners about a change in the contract's TVL."
      }
    },
    "kind": "user",
    "methods": {
      "balanceOf(address)": {
        "notice": "Retrieves the total balance of L-Tokens that belong to the account."
      },
      "cancelWithdrawalRequest(uint256)": {
        "notice": "Cancels a given withdrawal request. The request emitter receive back its L-Tokens and no fees will be charged."
      },
      "claimFees()": {
        "notice": "Used by owner to claim fees generated from successful withdrawals."
      },
      "decimals()": {
        "notice": "Required override of decimals() which is implemented by both ERC20Upgradeable and ERC20WrapperUpgradeable parent contracts."
      },
      "deposit(uint256,string)": {
        "notice": "Allows exchanging some underlying tokens for the same amount of L-Tokens."
      },
      "depositFor(address,uint256)": {
        "notice": "Override of ERC20WrapperUpgradeable.depositFor() that reverts. Use deposit() function instead."
      },
      "feesRateUD7x3()": {
        "notice": "Holds the withdrawal fees rate in UD7x3 format (e.g., 350 = 0.350%)."
      },
      "frozenRequests(uint256)": {
        "notice": "Holds a list of all currently frozen withdrawal requests."
      },
      "fund()": {
        "notice": "Holds address of fund wallet (managed by Ledgity financial team)."
      },
      "getAPR()": {
        "notice": "Retrieves the most recently set APR."
      },
      "getExpectedRetained()": {
        "notice": "Computes the maximum amount of underlying tokens that should be retained by the contract (based on retention rate)."
      },
      "getWithdrawnAmountAndFees(address,uint256)": {
        "notice": "Computes fees and net withdrawn amount for a given account withdrawing a given amount."
      },
      "globalBlacklist()": {
        "notice": "Retrieves the address of GlobalBlacklist contract."
      },
      "globalOwner()": {
        "notice": "Retrieves the address of GlobalOwner contract."
      },
      "globalPause()": {
        "notice": "Retrieves the address of GlobalPause contract."
      },
      "initialize(address,address,address,address,address)": {
        "notice": "Initializer function of the contract. It replaces the constructor() function in the context of upgradeable contracts."
      },
      "instantWithdrawal(uint256)": {
        "notice": "Allows instaneously exchanging a given amount of L-Tokens for the same amount of underlying tokens. It will fail if the contract currently doesn't hold enough underlying tokens to cover the withdrawal."
      },
      "invested()": {
        "notice": "Retrieves the reference to the invested token contract."
      },
      "ldyStaking()": {
        "notice": "Holds a reference to the LDYStaking contract."
      },
      "listenToTransfers(address)": {
        "notice": "Adds a new contract to the L-Token transfers list."
      },
      "owner()": {
        "notice": "Override of OwnableUpgradeable.owner() that retrieves the owner's address from the GlobalOwner contract instead."
      },
      "paused()": {
        "notice": "Required override of paused() which is implemented by both GlobalPausableUpgradeable and ERC20BaseUpgradeable parent contracts."
      },
      "processBigQueuedRequest(uint256)": {
        "notice": "Processes a given queued big withdrawal request (one that exceeds half of the retention rate)."
      },
      "processQueuedRequests()": {
        "notice": "Processes queued withdrawal requests until there is else no more requests, else not enough underlying tokens to continue."
      },
      "realBalanceOf(address)": {
        "notice": "Retrieves the \"real\" balance of an account, i.e., excluding its not yet minted/distributed rewards."
      },
      "realTotalSupply()": {
        "notice": "Returns the \"real\" amount of existing L-Tokens, i.e., excluding not yet minted withdrawal fees and L-Tokens currently in the withdrawal queue."
      },
      "recoverERC20(address,uint256)": {
        "notice": "Recovers a specified amount of a given token address."
      },
      "recoverUnderlying()": {
        "notice": "Recovers underlying tokens accidentally sent to the contract."
      },
      "renounceOwnership()": {
        "notice": "Override of OwnableUpgradeable.renounceOwnership() that always reverts. Ownership is managed by the GlobalOwner contract and must be modified there."
      },
      "repatriate(uint256)": {
        "notice": "Used by the fund wallet to repatriate underlying tokens on the contract whenever those are required to fulfill some withdrawal requests."
      },
      "requestWithdrawal(uint256)": {
        "notice": "Allows requesting the exchange of a given amount of L-Tokens for the same amount of underlying tokens. The request will be automatically processed later."
      },
      "retentionRateUD7x3()": {
        "notice": "Holds the retention rate in UD7x3 format."
      },
      "rewardsRedirectsFromTo(address)": {
        "notice": "Holds active rewards redirections in both from->to and to->from[] ways."
      },
      "setAPR(uint16)": {
        "notice": "Updates the investment APR. Restricted to owner."
      },
      "setFeesRate(uint32)": {
        "notice": "Updates the current withdrawal fee rate."
      },
      "setFund(address)": {
        "notice": "Updates the address of the fund wallet."
      },
      "setLDYStaking(address)": {
        "notice": "Updates the address of LDYStaking contract."
      },
      "setRetentionRate(uint32)": {
        "notice": "Updates the current underlying token retention rate."
      },
      "setWithdrawalFeeInEth(uint256)": {
        "notice": "Updates the current withdrawalFeeInETH."
      },
      "setWithdrawer(address)": {
        "notice": "Updates the address of the withdrawer wallet."
      },
      "startRewardsRedirection(address,address)": {
        "notice": "Enables redirection of rewards from one account to another."
      },
      "stopRewardsRedirection(address,address)": {
        "notice": "Disable an active rewards redirection."
      },
      "totalQueued()": {
        "notice": "Holds the amount of L-Tokens currently in the withdrawal queue."
      },
      "totalSupply()": {
        "notice": "Retrives the total supply of L-Tokens, including not yet minted withdrawal fees and L-Tokens currently in the withdrawal queue."
      },
      "transferOwnership(address)": {
        "notice": "Override of OwnableUpgradeable.transferOwnership() that always reverts. Ownership is managed by the GlobalOwner contract and must be modified there."
      },
      "transfersListeners(uint256)": {
        "notice": "Holds a list of contracts' references that are listening to L-Tokens transfers."
      },
      "unclaimedFees()": {
        "notice": "Holds the amount of withdrawal fees not yet claimed by contract's owner."
      },
      "unlistenToTransfers(address)": {
        "notice": "Removes a contract from the L-Token transfers list."
      },
      "unmintedRewardsOf(address)": {
        "notice": "Retrieves the amount of given account's not yet minted rewards."
      },
      "usableUnderlyings()": {
        "notice": "Holds the amount of underlying tokens considered as usable by the contract."
      },
      "withdrawTo(address,uint256)": {
        "notice": "Override of ERC20WrapperUpgradeable.withdrawTo() that reverts. Use instantWithdrawal() or requestWithdrawal() functions instead."
      },
      "withdrawalFeeInEth()": {
        "notice": "Holds the withdrawalFee amount in ETH that will be sent to withdrawer wallet."
      },
      "withdrawalQueue(uint256)": {
        "notice": "Holds an ordered list of active withdrawal requests."
      },
      "withdrawalQueueCursor()": {
        "notice": "Holds the index of the next withdrawal request to process in the queue."
      },
      "withdrawer()": {
        "notice": "Holds address of withdrawer wallet (managed by withdrawal server)."
      }
    },
    "notice": "Main contract of the Ledgity Yield protocol. It powers every L-Token (i.e., investment pools backed by RWA). An L-Token is an ERC20 wrapper around a stablecoin. As soon as a wallet holds some L-Tokens, it starts receiving rewards in the form of additional L-Tokens, which are auto-compounded over time.",
    "version": 1
  },
  "storageLayout": {
    "storage": [
      {
        "astId": 609,
        "contract": "contracts/src/LToken.sol:LToken",
        "label": "_initialized",
        "offset": 0,
        "slot": "0",
        "type": "t_uint8"
      },
      {
        "astId": 612,
        "contract": "contracts/src/LToken.sol:LToken",
        "label": "_initializing",
        "offset": 1,
        "slot": "0",
        "type": "t_bool"
      },
      {
        "astId": 591,
        "contract": "contracts/src/LToken.sol:LToken",
        "label": "__gap",
        "offset": 0,
        "slot": "1",
        "type": "t_array(t_uint256)50_storage"
      },
      {
        "astId": 906,
        "contract": "contracts/src/LToken.sol:LToken",
        "label": "__gap",
        "offset": 0,
        "slot": "51",
        "type": "t_array(t_uint256)50_storage"
      },
      {
        "astId": 2869,
        "contract": "contracts/src/LToken.sol:LToken",
        "label": "__gap",
        "offset": 0,
        "slot": "101",
        "type": "t_array(t_uint256)50_storage"
      },
      {
        "astId": 1137,
        "contract": "contracts/src/LToken.sol:LToken",
        "label": "_balances",
        "offset": 0,
        "slot": "151",
        "type": "t_mapping(t_address,t_uint256)"
      },
      {
        "astId": 1143,
        "contract": "contracts/src/LToken.sol:LToken",
        "label": "_allowances",
        "offset": 0,
        "slot": "152",
        "type": "t_mapping(t_address,t_mapping(t_address,t_uint256))"
      },
      {
        "astId": 1145,
        "contract": "contracts/src/LToken.sol:LToken",
        "label": "_totalSupply",
        "offset": 0,
        "slot": "153",
        "type": "t_uint256"
      },
      {
        "astId": 1147,
        "contract": "contracts/src/LToken.sol:LToken",
        "label": "_name",
        "offset": 0,
        "slot": "154",
        "type": "t_string_storage"
      },
      {
        "astId": 1149,
        "contract": "contracts/src/LToken.sol:LToken",
        "label": "_symbol",
        "offset": 0,
        "slot": "155",
        "type": "t_string_storage"
      },
      {
        "astId": 1729,
        "contract": "contracts/src/LToken.sol:LToken",
        "label": "__gap",
        "offset": 0,
        "slot": "156",
        "type": "t_array(t_uint256)45_storage"
      },
      {
        "astId": 928,
        "contract": "contracts/src/LToken.sol:LToken",
        "label": "_paused",
        "offset": 0,
        "slot": "201",
        "type": "t_bool"
      },
      {
        "astId": 1033,
        "contract": "contracts/src/LToken.sol:LToken",
        "label": "__gap",
        "offset": 0,
        "slot": "202",
        "type": "t_array(t_uint256)49_storage"
      },
      {
        "astId": 116,
        "contract": "contracts/src/LToken.sol:LToken",
        "label": "_owner",
        "offset": 0,
        "slot": "251",
        "type": "t_address"
      },
      {
        "astId": 236,
        "contract": "contracts/src/LToken.sol:LToken",
        "label": "__gap",
        "offset": 0,
        "slot": "252",
        "type": "t_array(t_uint256)49_storage"
      },
      {
        "astId": 8986,
        "contract": "contracts/src/LToken.sol:LToken",
        "label": "_globalOwner",
        "offset": 0,
        "slot": "301",
        "type": "t_contract(GlobalOwner)5028"
      },
      {
        "astId": 9070,
        "contract": "contracts/src/LToken.sol:LToken",
        "label": "__gap",
        "offset": 0,
        "slot": "302",
        "type": "t_array(t_uint256)50_storage"
      },
      {
        "astId": 9088,
        "contract": "contracts/src/LToken.sol:LToken",
        "label": "_globalPause",
        "offset": 0,
        "slot": "352",
        "type": "t_contract(GlobalPause)5104"
      },
      {
        "astId": 9147,
        "contract": "contracts/src/LToken.sol:LToken",
        "label": "__gap",
        "offset": 0,
        "slot": "353",
        "type": "t_array(t_uint256)50_storage"
      },
      {
        "astId": 9161,
        "contract": "contracts/src/LToken.sol:LToken",
        "label": "_globalBlacklist",
        "offset": 0,
        "slot": "403",
        "type": "t_contract(GlobalBlacklist)4981"
      },
      {
        "astId": 9235,
        "contract": "contracts/src/LToken.sol:LToken",
        "label": "__gap",
        "offset": 0,
        "slot": "404",
        "type": "t_array(t_uint256)50_storage"
      },
      {
        "astId": 10254,
        "contract": "contracts/src/LToken.sol:LToken",
        "label": "__gap",
        "offset": 0,
        "slot": "454",
        "type": "t_array(t_uint256)50_storage"
      },
      {
        "astId": 10345,
        "contract": "contracts/src/LToken.sol:LToken",
        "label": "__gap",
        "offset": 0,
        "slot": "504",
        "type": "t_array(t_uint256)50_storage"
      },
      {
        "astId": 1867,
        "contract": "contracts/src/LToken.sol:LToken",
        "label": "__gap",
        "offset": 0,
        "slot": "554",
        "type": "t_array(t_uint256)50_storage"
      },
      {
        "astId": 10450,
        "contract": "contracts/src/LToken.sol:LToken",
        "label": "__gap",
        "offset": 0,
        "slot": "604",
        "type": "t_array(t_uint256)50_storage"
      },
      {
        "astId": 9287,
        "contract": "contracts/src/LToken.sol:LToken",
        "label": "_invested",
        "offset": 0,
        "slot": "654",
        "type": "t_contract(IERC20Upgradeable)1808"
      },
      {
        "astId": 9293,
        "contract": "contracts/src/LToken.sol:LToken",
        "label": "accountsDetails",
        "offset": 0,
        "slot": "655",
        "type": "t_mapping(t_address,t_struct(AccountDetails)9283_storage)"
      },
      {
        "astId": 9298,
        "contract": "contracts/src/LToken.sol:LToken",
        "label": "_aprHistory",
        "offset": 0,
        "slot": "656",
        "type": "t_array(t_struct(Pack)10482_storage)dyn_storage"
      },
      {
        "astId": 9303,
        "contract": "contracts/src/LToken.sol:LToken",
        "label": "rewardsRedirectsFromTo",
        "offset": 0,
        "slot": "657",
        "type": "t_mapping(t_address,t_address)"
      },
      {
        "astId": 9308,
        "contract": "contracts/src/LToken.sol:LToken",
        "label": "rewardsRedirectsToFrom",
        "offset": 0,
        "slot": "658",
        "type": "t_mapping(t_address,t_array(t_address)dyn_storage)"
      },
      {
        "astId": 9311,
        "contract": "contracts/src/LToken.sol:LToken",
        "label": "_isClaiming",
        "offset": 0,
        "slot": "659",
        "type": "t_bool"
      },
      {
        "astId": 10161,
        "contract": "contracts/src/LToken.sol:LToken",
        "label": "__gap",
        "offset": 0,
        "slot": "660",
        "type": "t_array(t_uint256)50_storage"
      },
      {
        "astId": 1881,
        "contract": "contracts/src/LToken.sol:LToken",
        "label": "_underlying",
        "offset": 0,
        "slot": "710",
        "type": "t_contract(IERC20Upgradeable)1808"
      },
      {
        "astId": 2060,
        "contract": "contracts/src/LToken.sol:LToken",
        "label": "__gap",
        "offset": 0,
        "slot": "711",
        "type": "t_array(t_uint256)50_storage"
      },
      {
        "astId": 6323,
        "contract": "contracts/src/LToken.sol:LToken",
        "label": "ldyStaking",
        "offset": 0,
        "slot": "761",
        "type": "t_contract(LDYStaking)6255"
      },
      {
        "astId": 6326,
        "contract": "contracts/src/LToken.sol:LToken",
        "label": "withdrawer",
        "offset": 0,
        "slot": "762",
        "type": "t_address_payable"
      },
      {
        "astId": 6329,
        "contract": "contracts/src/LToken.sol:LToken",
        "label": "fund",
        "offset": 0,
        "slot": "763",
        "type": "t_address"
      },
      {
        "astId": 6332,
        "contract": "contracts/src/LToken.sol:LToken",
        "label": "feesRateUD7x3",
        "offset": 20,
        "slot": "763",
        "type": "t_uint32"
      },
      {
        "astId": 6335,
        "contract": "contracts/src/LToken.sol:LToken",
        "label": "retentionRateUD7x3",
        "offset": 24,
        "slot": "763",
        "type": "t_uint32"
      },
      {
        "astId": 6338,
        "contract": "contracts/src/LToken.sol:LToken",
        "label": "unclaimedFees",
        "offset": 0,
        "slot": "764",
        "type": "t_uint256"
      },
      {
        "astId": 6341,
        "contract": "contracts/src/LToken.sol:LToken",
        "label": "totalQueued",
        "offset": 0,
        "slot": "765",
        "type": "t_uint256"
      },
      {
        "astId": 6344,
        "contract": "contracts/src/LToken.sol:LToken",
        "label": "usableUnderlyings",
        "offset": 0,
        "slot": "766",
        "type": "t_uint256"
      },
      {
        "astId": 6349,
        "contract": "contracts/src/LToken.sol:LToken",
        "label": "withdrawalQueue",
        "offset": 0,
        "slot": "767",
        "type": "t_array(t_struct(WithdrawalRequest)6298_storage)dyn_storage"
      },
      {
        "astId": 6352,
        "contract": "contracts/src/LToken.sol:LToken",
        "label": "withdrawalQueueCursor",
        "offset": 0,
        "slot": "768",
        "type": "t_uint256"
      },
      {
        "astId": 6357,
        "contract": "contracts/src/LToken.sol:LToken",
        "label": "frozenRequests",
        "offset": 0,
        "slot": "769",
        "type": "t_array(t_struct(WithdrawalRequest)6298_storage)dyn_storage"
      },
      {
        "astId": 6362,
        "contract": "contracts/src/LToken.sol:LToken",
        "label": "transfersListeners",
        "offset": 0,
        "slot": "770",
        "type": "t_array(t_contract(ITransfersListener)10463)dyn_storage"
      },
      {
        "astId": 6365,
        "contract": "contracts/src/LToken.sol:LToken",
        "label": "withdrawalFeeInEth",
        "offset": 0,
        "slot": "771",
        "type": "t_uint256"
      }
    ],
    "types": {
      "t_address": {
        "encoding": "inplace",
        "label": "address",
        "numberOfBytes": "20"
      },
      "t_address_payable": {
        "encoding": "inplace",
        "label": "address payable",
        "numberOfBytes": "20"
      },
      "t_array(t_address)dyn_storage": {
        "base": "t_address",
        "encoding": "dynamic_array",
        "label": "address[]",
        "numberOfBytes": "32"
      },
      "t_array(t_contract(ITransfersListener)10463)dyn_storage": {
        "base": "t_contract(ITransfersListener)10463",
        "encoding": "dynamic_array",
        "label": "contract ITransfersListener[]",
        "numberOfBytes": "32"
      },
      "t_array(t_struct(Pack)10482_storage)dyn_storage": {
        "base": "t_struct(Pack)10482_storage",
        "encoding": "dynamic_array",
        "label": "struct APRHistory.Pack[]",
        "numberOfBytes": "32"
      },
      "t_array(t_struct(WithdrawalRequest)6298_storage)dyn_storage": {
        "base": "t_struct(WithdrawalRequest)6298_storage",
        "encoding": "dynamic_array",
        "label": "struct LToken.WithdrawalRequest[]",
        "numberOfBytes": "32"
      },
      "t_array(t_uint16)4_storage": {
        "base": "t_uint16",
        "encoding": "inplace",
        "label": "uint16[4]",
        "numberOfBytes": "32"
      },
      "t_array(t_uint256)45_storage": {
        "base": "t_uint256",
        "encoding": "inplace",
        "label": "uint256[45]",
        "numberOfBytes": "1440"
      },
      "t_array(t_uint256)49_storage": {
        "base": "t_uint256",
        "encoding": "inplace",
        "label": "uint256[49]",
        "numberOfBytes": "1568"
      },
      "t_array(t_uint256)50_storage": {
        "base": "t_uint256",
        "encoding": "inplace",
        "label": "uint256[50]",
        "numberOfBytes": "1600"
      },
      "t_array(t_uint40)4_storage": {
        "base": "t_uint40",
        "encoding": "inplace",
        "label": "uint40[4]",
        "numberOfBytes": "32"
      },
      "t_bool": {
        "encoding": "inplace",
        "label": "bool",
        "numberOfBytes": "1"
      },
      "t_contract(GlobalBlacklist)4981": {
        "encoding": "inplace",
        "label": "contract GlobalBlacklist",
        "numberOfBytes": "20"
      },
      "t_contract(GlobalOwner)5028": {
        "encoding": "inplace",
        "label": "contract GlobalOwner",
        "numberOfBytes": "20"
      },
      "t_contract(GlobalPause)5104": {
        "encoding": "inplace",
        "label": "contract GlobalPause",
        "numberOfBytes": "20"
      },
      "t_contract(IERC20Upgradeable)1808": {
        "encoding": "inplace",
        "label": "contract IERC20Upgradeable",
        "numberOfBytes": "20"
      },
      "t_contract(ITransfersListener)10463": {
        "encoding": "inplace",
        "label": "contract ITransfersListener",
        "numberOfBytes": "20"
      },
      "t_contract(LDYStaking)6255": {
        "encoding": "inplace",
        "label": "contract LDYStaking",
        "numberOfBytes": "20"
      },
      "t_mapping(t_address,t_address)": {
        "encoding": "mapping",
        "key": "t_address",
        "label": "mapping(address => address)",
        "numberOfBytes": "32",
        "value": "t_address"
      },
      "t_mapping(t_address,t_array(t_address)dyn_storage)": {
        "encoding": "mapping",
        "key": "t_address",
        "label": "mapping(address => address[])",
        "numberOfBytes": "32",
        "value": "t_array(t_address)dyn_storage"
      },
      "t_mapping(t_address,t_mapping(t_address,t_uint256))": {
        "encoding": "mapping",
        "key": "t_address",
        "label": "mapping(address => mapping(address => uint256))",
        "numberOfBytes": "32",
        "value": "t_mapping(t_address,t_uint256)"
      },
      "t_mapping(t_address,t_struct(AccountDetails)9283_storage)": {
        "encoding": "mapping",
        "key": "t_address",
        "label": "mapping(address => struct InvestUpgradeable.AccountDetails)",
        "numberOfBytes": "32",
        "value": "t_struct(AccountDetails)9283_storage"
      },
      "t_mapping(t_address,t_uint256)": {
        "encoding": "mapping",
        "key": "t_address",
        "label": "mapping(address => uint256)",
        "numberOfBytes": "32",
        "value": "t_uint256"
      },
      "t_string_storage": {
        "encoding": "bytes",
        "label": "string",
        "numberOfBytes": "32"
      },
      "t_struct(AccountDetails)9283_storage": {
        "encoding": "inplace",
        "label": "struct InvestUpgradeable.AccountDetails",
        "members": [
          {
            "astId": 9280,
            "contract": "contracts/src/LToken.sol:LToken",
            "label": "period",
            "offset": 0,
            "slot": "0",
            "type": "t_struct(InvestmentPeriod)9277_storage"
          },
          {
            "astId": 9282,
            "contract": "contracts/src/LToken.sol:LToken",
            "label": "virtualBalance",
            "offset": 0,
            "slot": "3",
            "type": "t_uint256"
          }
        ],
        "numberOfBytes": "128"
      },
      "t_struct(InvestmentPeriod)9277_storage": {
        "encoding": "inplace",
        "label": "struct InvestUpgradeable.InvestmentPeriod",
        "members": [
          {
            "astId": 9273,
            "contract": "contracts/src/LToken.sol:LToken",
            "label": "timestamp",
            "offset": 0,
            "slot": "0",
            "type": "t_uint40"
          },
          {
            "astId": 9276,
            "contract": "contracts/src/LToken.sol:LToken",
            "label": "ref",
            "offset": 0,
            "slot": "1",
            "type": "t_struct(Reference)10487_storage"
          }
        ],
        "numberOfBytes": "96"
      },
      "t_struct(Pack)10482_storage": {
        "encoding": "inplace",
        "label": "struct APRHistory.Pack",
        "members": [
          {
            "astId": 10475,
            "contract": "contracts/src/LToken.sol:LToken",
            "label": "aprsUD7x3",
            "offset": 0,
            "slot": "0",
            "type": "t_array(t_uint16)4_storage"
          },
          {
            "astId": 10479,
            "contract": "contracts/src/LToken.sol:LToken",
            "label": "timestamps",
            "offset": 0,
            "slot": "1",
            "type": "t_array(t_uint40)4_storage"
          },
          {
            "astId": 10481,
            "contract": "contracts/src/LToken.sol:LToken",
            "label": "cursor",
            "offset": 0,
            "slot": "2",
            "type": "t_uint32"
          }
        ],
        "numberOfBytes": "96"
      },
      "t_struct(Reference)10487_storage": {
        "encoding": "inplace",
        "label": "struct APRHistory.Reference",
        "members": [
          {
            "astId": 10484,
            "contract": "contracts/src/LToken.sol:LToken",
            "label": "packIndex",
            "offset": 0,
            "slot": "0",
            "type": "t_uint256"
          },
          {
            "astId": 10486,
            "contract": "contracts/src/LToken.sol:LToken",
            "label": "cursorIndex",
            "offset": 0,
            "slot": "1",
            "type": "t_uint32"
          }
        ],
        "numberOfBytes": "64"
      },
      "t_struct(WithdrawalRequest)6298_storage": {
        "encoding": "inplace",
        "label": "struct LToken.WithdrawalRequest",
        "members": [
          {
            "astId": 6295,
            "contract": "contracts/src/LToken.sol:LToken",
            "label": "account",
            "offset": 0,
            "slot": "0",
            "type": "t_address"
          },
          {
            "astId": 6297,
            "contract": "contracts/src/LToken.sol:LToken",
            "label": "amount",
            "offset": 20,
            "slot": "0",
            "type": "t_uint96"
          }
        ],
        "numberOfBytes": "32"
      },
      "t_uint16": {
        "encoding": "inplace",
        "label": "uint16",
        "numberOfBytes": "2"
      },
      "t_uint256": {
        "encoding": "inplace",
        "label": "uint256",
        "numberOfBytes": "32"
      },
      "t_uint32": {
        "encoding": "inplace",
        "label": "uint32",
        "numberOfBytes": "4"
      },
      "t_uint40": {
        "encoding": "inplace",
        "label": "uint40",
        "numberOfBytes": "5"
      },
      "t_uint8": {
        "encoding": "inplace",
        "label": "uint8",
        "numberOfBytes": "1"
      },
      "t_uint96": {
        "encoding": "inplace",
        "label": "uint96",
        "numberOfBytes": "12"
      }
    }
  }
}