{
  "address": "0x423C2cB928BC6bbaAc5F305cA1b5B25eb12f8374",
  "abi": [
    {
      "anonymous": false,
      "inputs": [
        {
          "indexed": false,
          "internalType": "uint16",
          "name": "newAPRUD7x3",
          "type": "uint16"
        }
      ],
      "name": "APRChangeEvent",
      "type": "event"
    },
    {
      "anonymous": false,
      "inputs": [
        {
          "indexed": true,
          "internalType": "int256",
          "name": "id",
          "type": "int256"
        },
        {
          "indexed": true,
          "internalType": "address",
          "name": "account",
          "type": "address"
        },
        {
          "indexed": true,
          "internalType": "enum LToken.Action",
          "name": "action",
          "type": "uint8"
        },
        {
          "indexed": false,
          "internalType": "address",
          "name": "userAccount",
          "type": "address"
        },
        {
          "indexed": false,
          "internalType": "uint256",
          "name": "amount",
          "type": "uint256"
        },
        {
          "indexed": false,
          "internalType": "uint256",
          "name": "amountAfterFees",
          "type": "uint256"
        },
        {
          "indexed": false,
          "internalType": "enum LToken.Status",
          "name": "newStatus",
          "type": "uint8"
        },
        {
          "indexed": false,
          "internalType": "int256",
          "name": "newId",
          "type": "int256"
        },
        {
          "indexed": false,
          "internalType": "string",
          "name": "referralCode",
          "type": "string"
        }
      ],
      "name": "ActivityEvent",
      "type": "event"
    },
    {
      "anonymous": false,
      "inputs": [
        {
          "indexed": false,
          "internalType": "address",
          "name": "previousAdmin",
          "type": "address"
        },
        {
          "indexed": false,
          "internalType": "address",
          "name": "newAdmin",
          "type": "address"
        }
      ],
      "name": "AdminChanged",
      "type": "event"
    },
    {
      "anonymous": false,
      "inputs": [
        {
          "indexed": true,
          "internalType": "address",
          "name": "owner",
          "type": "address"
        },
        {
          "indexed": true,
          "internalType": "address",
          "name": "spender",
          "type": "address"
        },
        {
          "indexed": false,
          "internalType": "uint256",
          "name": "value",
          "type": "uint256"
        }
      ],
      "name": "Approval",
      "type": "event"
    },
    {
      "anonymous": false,
      "inputs": [
        {
          "indexed": true,
          "internalType": "address",
          "name": "beacon",
          "type": "address"
        }
      ],
      "name": "BeaconUpgraded",
      "type": "event"
    },
    {
      "anonymous": false,
      "inputs": [
        {
          "indexed": false,
          "internalType": "uint8",
          "name": "version",
          "type": "uint8"
        }
      ],
      "name": "Initialized",
      "type": "event"
    },
    {
      "anonymous": false,
      "inputs": [
        {
          "indexed": true,
          "internalType": "address",
          "name": "account",
          "type": "address"
        },
        {
          "indexed": false,
          "internalType": "uint256",
          "name": "balanceBefore",
          "type": "uint256"
        },
        {
          "indexed": false,
          "internalType": "uint256",
          "name": "rewards",
          "type": "uint256"
        }
      ],
      "name": "MintedRewardsEvent",
      "type": "event"
    },
    {
      "anonymous": false,
      "inputs": [
        {
          "indexed": true,
          "internalType": "address",
          "name": "previousOwner",
          "type": "address"
        },
        {
          "indexed": true,
          "internalType": "address",
          "name": "newOwner",
          "type": "address"
        }
      ],
      "name": "OwnershipTransferred",
      "type": "event"
    },
    {
      "anonymous": false,
      "inputs": [
        {
          "indexed": false,
          "internalType": "address",
          "name": "account",
          "type": "address"
        }
      ],
      "name": "Paused",
      "type": "event"
    },
    {
      "anonymous": false,
      "inputs": [
        {
          "indexed": false,
          "internalType": "uint256",
          "name": "newTVL",
          "type": "uint256"
        }
      ],
      "name": "TVLChangeEvent",
      "type": "event"
    },
    {
      "anonymous": false,
      "inputs": [
        {
          "indexed": true,
          "internalType": "address",
          "name": "from",
          "type": "address"
        },
        {
          "indexed": true,
          "internalType": "address",
          "name": "to",
          "type": "address"
        },
        {
          "indexed": false,
          "internalType": "uint256",
          "name": "value",
          "type": "uint256"
        }
      ],
      "name": "Transfer",
      "type": "event"
    },
    {
      "anonymous": false,
      "inputs": [
        {
          "indexed": false,
          "internalType": "address",
          "name": "account",
          "type": "address"
        }
      ],
      "name": "Unpaused",
      "type": "event"
    },
    {
      "anonymous": false,
      "inputs": [
        {
          "indexed": true,
          "internalType": "address",
          "name": "implementation",
          "type": "address"
        }
      ],
      "name": "Upgraded",
      "type": "event"
    },
    {
      "inputs": [
        {
          "internalType": "address",
          "name": "owner",
          "type": "address"
        },
        {
          "internalType": "address",
          "name": "spender",
          "type": "address"
        }
      ],
      "name": "allowance",
      "outputs": [
        {
          "internalType": "uint256",
          "name": "",
          "type": "uint256"
        }
      ],
      "stateMutability": "view",
      "type": "function"
    },
    {
      "inputs": [
        {
          "internalType": "address",
          "name": "spender",
          "type": "address"
        },
        {
          "internalType": "uint256",
          "name": "amount",
          "type": "uint256"
        }
      ],
      "name": "approve",
      "outputs": [
        {
          "internalType": "bool",
          "name": "",
          "type": "bool"
        }
      ],
      "stateMutability": "nonpayable",
      "type": "function"
    },
    {
      "inputs": [
        {
          "internalType": "address",
          "name": "account",
          "type": "address"
        }
      ],
      "name": "balanceOf",
      "outputs": [
        {
          "internalType": "uint256",
          "name": "",
          "type": "uint256"
        }
      ],
      "stateMutability": "view",
      "type": "function"
    },
    {
      "inputs": [
        {
          "internalType": "uint256",
          "name": "requestId",
          "type": "uint256"
        }
      ],
      "name": "cancelWithdrawalRequest",
      "outputs": [],
      "stateMutability": "nonpayable",
      "type": "function"
    },
    {
      "inputs": [],
      "name": "claimFees",
      "outputs": [],
      "stateMutability": "nonpayable",
      "type": "function"
    },
    {
      "inputs": [],
      "name": "decimals",
      "outputs": [
        {
          "internalType": "uint8",
          "name": "",
          "type": "uint8"
        }
      ],
      "stateMutability": "view",
      "type": "function"
    },
    {
      "inputs": [
        {
          "internalType": "address",
          "name": "spender",
          "type": "address"
        },
        {
          "internalType": "uint256",
          "name": "subtractedValue",
          "type": "uint256"
        }
      ],
      "name": "decreaseAllowance",
      "outputs": [
        {
          "internalType": "bool",
          "name": "",
          "type": "bool"
        }
      ],
      "stateMutability": "nonpayable",
      "type": "function"
    },
    {
      "inputs": [
        {
          "internalType": "uint256",
          "name": "amount",
          "type": "uint256"
        },
        {
          "internalType": "string",
          "name": "refCode",
          "type": "string"
        }
      ],
      "name": "deposit",
      "outputs": [],
      "stateMutability": "nonpayable",
      "type": "function"
    },
    {
      "inputs": [
        {
          "internalType": "address",
          "name": "account",
          "type": "address"
        },
        {
          "internalType": "uint256",
          "name": "amount",
          "type": "uint256"
        }
      ],
      "name": "depositFor",
      "outputs": [
        {
          "internalType": "bool",
          "name": "",
          "type": "bool"
        }
      ],
      "stateMutability": "pure",
      "type": "function"
    },
    {
      "inputs": [],
      "name": "feesRateUD7x3",
      "outputs": [
        {
          "internalType": "uint32",
          "name": "",
          "type": "uint32"
        }
      ],
      "stateMutability": "view",
      "type": "function"
    },
    {
      "inputs": [
        {
          "internalType": "uint256",
          "name": "",
          "type": "uint256"
        }
      ],
      "name": "frozenRequests",
      "outputs": [
        {
          "internalType": "address",
          "name": "account",
          "type": "address"
        },
        {
          "internalType": "uint96",
          "name": "amount",
          "type": "uint96"
        }
      ],
      "stateMutability": "view",
      "type": "function"
    },
    {
      "inputs": [],
      "name": "fund",
      "outputs": [
        {
          "internalType": "address",
          "name": "",
          "type": "address"
        }
      ],
      "stateMutability": "view",
      "type": "function"
    },
    {
      "inputs": [],
      "name": "getAPR",
      "outputs": [
        {
          "internalType": "uint16",
          "name": "",
          "type": "uint16"
        }
      ],
      "stateMutability": "view",
      "type": "function"
    },
    {
      "inputs": [],
      "name": "getExpectedRetained",
      "outputs": [
        {
          "internalType": "uint256",
          "name": "amount",
          "type": "uint256"
        }
      ],
      "stateMutability": "view",
      "type": "function"
    },
    {
      "inputs": [
        {
          "internalType": "address",
          "name": "account",
          "type": "address"
        },
        {
          "internalType": "uint256",
          "name": "amount",
          "type": "uint256"
        }
      ],
      "name": "getWithdrawnAmountAndFees",
      "outputs": [
        {
          "internalType": "uint256",
          "name": "withdrawnAmount",
          "type": "uint256"
        },
        {
          "internalType": "uint256",
          "name": "fees",
          "type": "uint256"
        }
      ],
      "stateMutability": "view",
      "type": "function"
    },
    {
      "inputs": [],
      "name": "globalBlacklist",
      "outputs": [
        {
          "internalType": "address",
          "name": "",
          "type": "address"
        }
      ],
      "stateMutability": "view",
      "type": "function"
    },
    {
      "inputs": [],
      "name": "globalOwner",
      "outputs": [
        {
          "internalType": "address",
          "name": "",
          "type": "address"
        }
      ],
      "stateMutability": "view",
      "type": "function"
    },
    {
      "inputs": [],
      "name": "globalPause",
      "outputs": [
        {
          "internalType": "address",
          "name": "",
          "type": "address"
        }
      ],
      "stateMutability": "view",
      "type": "function"
    },
    {
      "inputs": [
        {
          "internalType": "address",
          "name": "spender",
          "type": "address"
        },
        {
          "internalType": "uint256",
          "name": "addedValue",
          "type": "uint256"
        }
      ],
      "name": "increaseAllowance",
      "outputs": [
        {
          "internalType": "bool",
          "name": "",
          "type": "bool"
        }
      ],
      "stateMutability": "nonpayable",
      "type": "function"
    },
    {
      "inputs": [
        {
          "internalType": "address",
          "name": "globalOwner_",
          "type": "address"
        },
        {
          "internalType": "address",
          "name": "globalPause_",
          "type": "address"
        },
        {
          "internalType": "address",
          "name": "globalBlacklist_",
          "type": "address"
        },
        {
          "internalType": "address",
          "name": "ldyStaking_",
          "type": "address"
        },
        {
          "internalType": "address",
          "name": "underlyingToken",
          "type": "address"
        }
      ],
      "name": "initialize",
      "outputs": [],
      "stateMutability": "nonpayable",
      "type": "function"
    },
    {
      "inputs": [
        {
          "internalType": "uint256",
          "name": "amount",
          "type": "uint256"
        }
      ],
      "name": "instantWithdrawal",
      "outputs": [],
      "stateMutability": "nonpayable",
      "type": "function"
    },
    {
      "inputs": [],
      "name": "invested",
      "outputs": [
        {
          "internalType": "contract IERC20Upgradeable",
          "name": "",
          "type": "address"
        }
      ],
      "stateMutability": "view",
      "type": "function"
    },
    {
      "inputs": [],
      "name": "ldyStaking",
      "outputs": [
        {
          "internalType": "contract LDYStaking",
          "name": "",
          "type": "address"
        }
      ],
      "stateMutability": "view",
      "type": "function"
    },
    {
      "inputs": [
        {
          "internalType": "address",
          "name": "listenerContract",
          "type": "address"
        }
      ],
      "name": "listenToTransfers",
      "outputs": [],
      "stateMutability": "nonpayable",
      "type": "function"
    },
    {
      "inputs": [],
      "name": "name",
      "outputs": [
        {
          "internalType": "string",
          "name": "",
          "type": "string"
        }
      ],
      "stateMutability": "view",
      "type": "function"
    },
    {
      "inputs": [],
      "name": "owner",
      "outputs": [
        {
          "internalType": "address",
          "name": "",
          "type": "address"
        }
      ],
      "stateMutability": "view",
      "type": "function"
    },
    {
      "inputs": [],
      "name": "paused",
      "outputs": [
        {
          "internalType": "bool",
          "name": "",
          "type": "bool"
        }
      ],
      "stateMutability": "view",
      "type": "function"
    },
    {
      "inputs": [
        {
          "internalType": "uint256",
          "name": "requestId",
          "type": "uint256"
        }
      ],
      "name": "processBigQueuedRequest",
      "outputs": [],
      "stateMutability": "nonpayable",
      "type": "function"
    },
    {
      "inputs": [],
      "name": "processQueuedRequests",
      "outputs": [],
      "stateMutability": "nonpayable",
      "type": "function"
    },
    {
      "inputs": [],
      "name": "proxiableUUID",
      "outputs": [
        {
          "internalType": "bytes32",
          "name": "",
          "type": "bytes32"
        }
      ],
      "stateMutability": "view",
      "type": "function"
    },
    {
      "inputs": [
        {
          "internalType": "address",
          "name": "account",
          "type": "address"
        }
      ],
      "name": "realBalanceOf",
      "outputs": [
        {
          "internalType": "uint256",
          "name": "",
          "type": "uint256"
        }
      ],
      "stateMutability": "view",
      "type": "function"
    },
    {
      "inputs": [],
      "name": "realTotalSupply",
      "outputs": [
        {
          "internalType": "uint256",
          "name": "",
          "type": "uint256"
        }
      ],
      "stateMutability": "view",
      "type": "function"
    },
    {
      "inputs": [
        {
          "internalType": "address",
          "name": "tokenAddress",
          "type": "address"
        },
        {
          "internalType": "uint256",
          "name": "amount",
          "type": "uint256"
        }
      ],
      "name": "recoverERC20",
      "outputs": [],
      "stateMutability": "nonpayable",
      "type": "function"
    },
    {
      "inputs": [],
      "name": "recoverUnderlying",
      "outputs": [],
      "stateMutability": "nonpayable",
      "type": "function"
    },
    {
      "inputs": [],
      "name": "renounceOwnership",
      "outputs": [],
      "stateMutability": "view",
      "type": "function"
    },
    {
      "inputs": [
        {
          "internalType": "uint256",
          "name": "amount",
          "type": "uint256"
        }
      ],
      "name": "repatriate",
      "outputs": [],
      "stateMutability": "nonpayable",
      "type": "function"
    },
    {
      "inputs": [
        {
          "internalType": "uint256",
          "name": "amount",
          "type": "uint256"
        }
      ],
      "name": "requestWithdrawal",
      "outputs": [],
      "stateMutability": "payable",
      "type": "function"
    },
    {
      "inputs": [],
      "name": "retentionRateUD7x3",
      "outputs": [
        {
          "internalType": "uint32",
          "name": "",
          "type": "uint32"
        }
      ],
      "stateMutability": "view",
      "type": "function"
    },
    {
      "inputs": [
        {
          "internalType": "address",
          "name": "",
          "type": "address"
        }
      ],
      "name": "rewardsRedirectsFromTo",
      "outputs": [
        {
          "internalType": "address",
          "name": "",
          "type": "address"
        }
      ],
      "stateMutability": "view",
      "type": "function"
    },
    {
      "inputs": [
        {
          "internalType": "address",
          "name": "",
          "type": "address"
        },
        {
          "internalType": "uint256",
          "name": "",
          "type": "uint256"
        }
      ],
      "name": "rewardsRedirectsToFrom",
      "outputs": [
        {
          "internalType": "address",
          "name": "",
          "type": "address"
        }
      ],
      "stateMutability": "view",
      "type": "function"
    },
    {
      "inputs": [
        {
          "internalType": "uint16",
          "name": "aprUD7x3",
          "type": "uint16"
        }
      ],
      "name": "setAPR",
      "outputs": [],
      "stateMutability": "nonpayable",
      "type": "function"
    },
    {
      "inputs": [
        {
          "internalType": "uint32",
          "name": "feesRateUD7x3_",
          "type": "uint32"
        }
      ],
      "name": "setFeesRate",
      "outputs": [],
      "stateMutability": "nonpayable",
      "type": "function"
    },
    {
      "inputs": [
        {
          "internalType": "address payable",
          "name": "fund_",
          "type": "address"
        }
      ],
      "name": "setFund",
      "outputs": [],
      "stateMutability": "nonpayable",
      "type": "function"
    },
    {
      "inputs": [
        {
          "internalType": "address",
          "name": "ldyStakingAddress",
          "type": "address"
        }
      ],
      "name": "setLDYStaking",
      "outputs": [],
      "stateMutability": "nonpayable",
      "type": "function"
    },
    {
      "inputs": [
        {
          "internalType": "uint32",
          "name": "retentionRateUD7x3_",
          "type": "uint32"
        }
      ],
      "name": "setRetentionRate",
      "outputs": [],
      "stateMutability": "nonpayable",
      "type": "function"
    },
    {
      "inputs": [
        {
          "internalType": "uint256",
          "name": "withdrawalFeeInEth_",
          "type": "uint256"
        }
      ],
      "name": "setWithdrawalFeeInEth",
      "outputs": [],
      "stateMutability": "nonpayable",
      "type": "function"
    },
    {
      "inputs": [
        {
          "internalType": "address payable",
          "name": "withdrawer_",
          "type": "address"
        }
      ],
      "name": "setWithdrawer",
      "outputs": [],
      "stateMutability": "nonpayable",
      "type": "function"
    },
    {
      "inputs": [
        {
          "internalType": "address",
          "name": "from",
          "type": "address"
        },
        {
          "internalType": "address",
          "name": "to",
          "type": "address"
        }
      ],
      "name": "startRewardsRedirection",
      "outputs": [],
      "stateMutability": "nonpayable",
      "type": "function"
    },
    {
      "inputs": [
        {
          "internalType": "address",
          "name": "from",
          "type": "address"
        },
        {
          "internalType": "address",
          "name": "to",
          "type": "address"
        }
      ],
      "name": "stopRewardsRedirection",
      "outputs": [],
      "stateMutability": "nonpayable",
      "type": "function"
    },
    {
      "inputs": [],
      "name": "symbol",
      "outputs": [
        {
          "internalType": "string",
          "name": "",
          "type": "string"
        }
      ],
      "stateMutability": "view",
      "type": "function"
    },
    {
      "inputs": [],
      "name": "totalQueued",
      "outputs": [
        {
          "internalType": "uint256",
          "name": "",
          "type": "uint256"
        }
      ],
      "stateMutability": "view",
      "type": "function"
    },
    {
      "inputs": [],
      "name": "totalSupply",
      "outputs": [
        {
          "internalType": "uint256",
          "name": "",
          "type": "uint256"
        }
      ],
      "stateMutability": "view",
      "type": "function"
    },
    {
      "inputs": [
        {
          "internalType": "address",
          "name": "to",
          "type": "address"
        },
        {
          "internalType": "uint256",
          "name": "amount",
          "type": "uint256"
        }
      ],
      "name": "transfer",
      "outputs": [
        {
          "internalType": "bool",
          "name": "",
          "type": "bool"
        }
      ],
      "stateMutability": "nonpayable",
      "type": "function"
    },
    {
      "inputs": [
        {
          "internalType": "address",
          "name": "from",
          "type": "address"
        },
        {
          "internalType": "address",
          "name": "to",
          "type": "address"
        },
        {
          "internalType": "uint256",
          "name": "amount",
          "type": "uint256"
        }
      ],
      "name": "transferFrom",
      "outputs": [
        {
          "internalType": "bool",
          "name": "",
          "type": "bool"
        }
      ],
      "stateMutability": "nonpayable",
      "type": "function"
    },
    {
      "inputs": [
        {
          "internalType": "address",
          "name": "newOwner",
          "type": "address"
        }
      ],
      "name": "transferOwnership",
      "outputs": [],
      "stateMutability": "view",
      "type": "function"
    },
    {
      "inputs": [
        {
          "internalType": "uint256",
          "name": "",
          "type": "uint256"
        }
      ],
      "name": "transfersListeners",
      "outputs": [
        {
          "internalType": "contract ITransfersListener",
          "name": "",
          "type": "address"
        }
      ],
      "stateMutability": "view",
      "type": "function"
    },
    {
      "inputs": [],
      "name": "unclaimedFees",
      "outputs": [
        {
          "internalType": "uint256",
          "name": "",
          "type": "uint256"
        }
      ],
      "stateMutability": "view",
      "type": "function"
    },
    {
      "inputs": [],
      "name": "underlying",
      "outputs": [
        {
          "internalType": "contract IERC20Upgradeable",
          "name": "",
          "type": "address"
        }
      ],
      "stateMutability": "view",
      "type": "function"
    },
    {
      "inputs": [
        {
          "internalType": "address",
          "name": "listenerContract",
          "type": "address"
        }
      ],
      "name": "unlistenToTransfers",
      "outputs": [],
      "stateMutability": "nonpayable",
      "type": "function"
    },
    {
      "inputs": [
        {
          "internalType": "address",
          "name": "account",
          "type": "address"
        }
      ],
      "name": "unmintedRewardsOf",
      "outputs": [
        {
          "internalType": "uint256",
          "name": "",
          "type": "uint256"
        }
      ],
      "stateMutability": "view",
      "type": "function"
    },
    {
      "inputs": [
        {
          "internalType": "address",
          "name": "newImplementation",
          "type": "address"
        }
      ],
      "name": "upgradeTo",
      "outputs": [],
      "stateMutability": "nonpayable",
      "type": "function"
    },
    {
      "inputs": [
        {
          "internalType": "address",
          "name": "newImplementation",
          "type": "address"
        },
        {
          "internalType": "bytes",
          "name": "data",
          "type": "bytes"
        }
      ],
      "name": "upgradeToAndCall",
      "outputs": [],
      "stateMutability": "payable",
      "type": "function"
    },
    {
      "inputs": [],
      "name": "usableUnderlyings",
      "outputs": [
        {
          "internalType": "uint256",
          "name": "",
          "type": "uint256"
        }
      ],
      "stateMutability": "view",
      "type": "function"
    },
    {
      "inputs": [
        {
          "internalType": "address",
          "name": "account",
          "type": "address"
        },
        {
          "internalType": "uint256",
          "name": "amount",
          "type": "uint256"
        }
      ],
      "name": "withdrawTo",
      "outputs": [
        {
          "internalType": "bool",
          "name": "",
          "type": "bool"
        }
      ],
      "stateMutability": "pure",
      "type": "function"
    },
    {
      "inputs": [],
      "name": "withdrawalFeeInEth",
      "outputs": [
        {
          "internalType": "uint256",
          "name": "",
          "type": "uint256"
        }
      ],
      "stateMutability": "view",
      "type": "function"
    },
    {
      "inputs": [
        {
          "internalType": "uint256",
          "name": "",
          "type": "uint256"
        }
      ],
      "name": "withdrawalQueue",
      "outputs": [
        {
          "internalType": "address",
          "name": "account",
          "type": "address"
        },
        {
          "internalType": "uint96",
          "name": "amount",
          "type": "uint96"
        }
      ],
      "stateMutability": "view",
      "type": "function"
    },
    {
      "inputs": [],
      "name": "withdrawalQueueCursor",
      "outputs": [
        {
          "internalType": "uint256",
          "name": "",
          "type": "uint256"
        }
      ],
      "stateMutability": "view",
      "type": "function"
    },
    {
      "inputs": [],
      "name": "withdrawer",
      "outputs": [
        {
          "internalType": "address payable",
          "name": "",
          "type": "address"
        }
      ],
      "stateMutability": "view",
      "type": "function"
    }
  ],
  "transactionHash": "0x90824f13b36a3bc2337c84a4f7d86239910e5c4b8e41281fb9e44254cadeb0a5",
  "args": [],
  "numDeployments": 1,
  "solcInputHash": "2963999d2ad9050289204f93de50279f",
  "bytecode": "0x60a0604052306080523480156200001557600080fd5b506200002062000026565b620000e7565b600054610100900460ff1615620000935760405162461bcd60e51b815260206004820152602760248201527f496e697469616c697a61626c653a20636f6e747261637420697320696e697469604482015266616c697a696e6760c81b606482015260840160405180910390fd5b60005460ff90811614620000e5576000805460ff191660ff9081179091556040519081527f7f26b83ff96e1f2b6a682f133852f6798a09c465da95921460cefb38474024989060200160405180910390a15b565b608051615fb96200011f600039600081816114200152818161146001528181611899015281816118d901526119550152615fb96000f3fe60806040526004361061036f5760003560e01c80638980f11f116101c8578063cafb2202116100f8578063ee1335d11161009b578063ee1335d114610ac9578063ee153c4f14610ae9578063ef2591af14610b09578063ef356a7914610b2e578063f1215d2514610b43578063f12d54d814610b63578063f2fde38b14610b82578063f762e73414610ba2578063f94ce2c214610bc157600080fd5b8063cafb2202146109ce578063cdc18424146109ed578063d038875c14610a0e578063d039981b14610a48578063d1159a8714610a68578063d294f09314610a7f578063db84faac14610a94578063dd62ed3e14610aa957600080fd5b8063a457c2d71161016b578063a457c2d71461089b578063a64c91cc146108bb578063a8f76320146108db578063a9059cbb146108fb578063b2de2a431461091b578063b60d428814610930578063bacd609e14610951578063c822adda14610986578063c89d5b8b146109a657600080fd5b80638980f11f146107a75780638d8e6bd7146107c75780638da5cb5b146107fe57806392e5ced71461081357806395d89b411461083357806399a03c70146108485780639c271975146108685780639ee679e81461088857600080fd5b806345b05d09116102a35780636d3a4ac8116102465780636d3a4ac8146106b05780636f307dc3146106d057806370a08231146106e5578063715018a614610705578063734d82871461071a5780637594d0b51461073157806375a5652b146107485780637c2edb16146107685780638370e1f71461078757600080fd5b806345b05d09146105b55780634f1ef286146105d557806352d1902d146105e857806353ac4b66146105fd57806353d3a42f146106145780635c975abb1461065b5780635f0e8e371461067057806361b76e0f1461069057600080fd5b806323b872dd1161031657806323b872dd1461048b5780632a1b8b1c146104ab5780632f4f21e2146104c0578063313ce567146104e05780633659cfe614610507578063391d85ec1461052757806339509351146105555780633e7ae353146105755780634134bee91461059557600080fd5b806306fdde0314610374578063095ea7b31461039f5780630d174c24146103cf5780630e21750f146103f15780631459457a1461041157806318160ddd146104315780631c19be6d14610454578063205c28781461046b575b600080fd5b34801561038057600080fd5b50610389610be1565b604051610396919061538e565b60405180910390f35b3480156103ab57600080fd5b506103bf6103ba3660046153b6565b610c73565b6040519015158152602001610396565b3480156103db57600080fd5b506103ef6103ea3660046153e2565b610c8d565b005b3480156103fd57600080fd5b506103ef61040c3660046153e2565b610cf9565b34801561041d57600080fd5b506103ef61042c3660046153ff565b610d60565b34801561043d57600080fd5b50610446610fd0565b604051908152602001610396565b34801561046057600080fd5b506104466102fe5481565b34801561047757600080fd5b506103bf6104863660046153b6565b610ffb565b34801561049757600080fd5b506103bf6104a6366004615470565b61102c565b3480156104b757600080fd5b506103ef611052565b3480156104cc57600080fd5b506103bf6104db3660046153b6565b6113db565b3480156104ec57600080fd5b506104f561140c565b60405160ff9091168152602001610396565b34801561051357600080fd5b506103ef6105223660046153e2565b611416565b34801561053357600080fd5b506102f954610548906001600160a01b031681565b60405161039691906154b1565b34801561056157600080fd5b506103bf6105703660046153b6565b6114de565b34801561058157600080fd5b506105486105903660046153b6565b611500565b3480156105a157600080fd5b506103ef6105b03660046154c5565b611539565b3480156105c157600080fd5b506103ef6105d03660046154c5565b611724565b6103ef6105e33660046155b1565b61188f565b3480156105f457600080fd5b50610446611948565b34801561060957600080fd5b506104466102fd5481565b34801561062057600080fd5b5061063461062f3660046154c5565b6119f6565b604080516001600160a01b0390931683526001600160601b03909116602083015201610396565b34801561066757600080fd5b506103bf611a32565b34801561067c57600080fd5b506103ef61068b3660046153e2565b611a3c565b34801561069c57600080fd5b506103ef6106ab3660046154c5565b611b93565b3480156106bc57600080fd5b506103ef6106cb366004615624565b611ba1565b3480156106dc57600080fd5b50610548611c52565b3480156106f157600080fd5b506104466107003660046153e2565b611c62565b34801561071157600080fd5b506103ef611c80565b34801561072657600080fd5b506104466102fc5481565b34801561073d57600080fd5b506104466103005481565b34801561075457600080fd5b506103ef6107633660046154c5565b611cb6565b34801561077457600080fd5b50610193546001600160a01b0316610548565b34801561079357600080fd5b506103ef6107a23660046154c5565b612037565b3480156107b357600080fd5b506103ef6107c23660046153b6565b61219a565b3480156107d357600080fd5b506105486107e23660046153e2565b610291602052600090815260409020546001600160a01b031681565b34801561080a57600080fd5b506105486121fa565b34801561081f57600080fd5b506103ef61082e366004615641565b612269565b34801561083f57600080fd5b506103896124a0565b34801561085457600080fd5b506104466108633660046153e2565b6124af565b34801561087457600080fd5b506103ef6108833660046153e2565b6124cd565b6103ef6108963660046154c5565b612528565b3480156108a757600080fd5b506103bf6108b63660046153b6565b612882565b3480156108c757600080fd5b506103ef6108d63660046153e2565b612908565b3480156108e757600080fd5b506103ef6108f6366004615641565b612933565b34801561090757600080fd5b506103bf6109163660046153b6565b612c69565b34801561092757600080fd5b506103ef612c77565b34801561093c57600080fd5b506102fb54610548906001600160a01b031681565b34801561095d57600080fd5b5061097161096c3660046153b6565b612d4c565b60408051928352602083019190915201610396565b34801561099257600080fd5b506106346109a13660046154c5565b612e69565b3480156109b257600080fd5b506109bb612e7a565b60405161ffff9091168152602001610396565b3480156109da57600080fd5b5061028e546001600160a01b0316610548565b3480156109f957600080fd5b506102fa54610548906001600160a01b031681565b348015610a1a57600080fd5b506102fb54610a3390600160a01b900463ffffffff1681565b60405163ffffffff9091168152602001610396565b348015610a5457600080fd5b50610446610a633660046153e2565b612ef2565b348015610a7457600080fd5b506104466103035481565b348015610a8b57600080fd5b506103ef612eff565b348015610aa057600080fd5b50610446612fb5565b348015610ab557600080fd5b50610446610ac4366004615641565b61303c565b348015610ad557600080fd5b506103ef610ae436600461568c565b613067565b348015610af557600080fd5b50610548610b043660046154c5565b6130d4565b348015610b1557600080fd5b506102fb54610a3390600160c01b900463ffffffff1681565b348015610b3a57600080fd5b506104466130ff565b348015610b4f57600080fd5b506103ef610b5e3660046156a9565b61310a565b348015610b6f57600080fd5b50610160546001600160a01b0316610548565b348015610b8e57600080fd5b506103ef610b9d3660046153e2565b61324f565b348015610bae57600080fd5b5061012d546001600160a01b0316610548565b348015610bcd57600080fd5b506103ef610bdc36600461568c565b613284565b6060609a8054610bf0906156d9565b80601f0160208091040260200160405190810160405280929190818152602001828054610c1c906156d9565b8015610c695780601f10610c3e57610100808354040283529160200191610c69565b820191906000526020600020905b815481529060010190602001808311610c4c57829003601f168201915b5050505050905090565b600033610c818185856132f1565b60019150505b92915050565b610c95613415565b6001600160a01b038116610cd65760405162461bcd60e51b81526020600482015260036024820152624c363360e81b60448201526064015b60405180910390fd5b6102fa80546001600160a01b0319166001600160a01b0392909216919091179055565b610d01613415565b6001600160a01b038116610d3d5760405162461bcd60e51b8152602060048201526003602482015262130d8d60ea1b6044820152606401610ccd565b6102fb80546001600160a01b0319166001600160a01b0392909216919091179055565b600054610100900460ff1615808015610d805750600054600160ff909116105b80610d9a5750303b158015610d9a575060005460ff166001145b610dfd5760405162461bcd60e51b815260206004820152602e60248201527f496e697469616c697a61626c653a20636f6e747261637420697320616c72656160448201526d191e481a5b9a5d1a585b1a5e995960921b6064820152608401610ccd565b6000805460ff191660011790558015610e20576000805461ff0019166101001790555b6000826001600160a01b03166395d89b416040518163ffffffff1660e01b8152600401600060405180830381865afa158015610e60573d6000803e3d6000fd5b505050506040513d6000823e601f3d908101601f19168201604052610e88919081019061570d565b9050610ed587878784604051602001610ea19190615783565b60405160208183030381529060405285604051602001610ec191906157b3565b604051602081830303815290604052613476565b610ede836134ba565b610ee7306134ea565b6102f980546001600160a01b0319166001600160a01b0386161790556102fb805467ffffffffffffffff60a01b19166509c40000004b60a21b179055610f2b6121fa565b6102fa80546001600160a01b0319166001600160a01b0392909216919091179055610f546121fa565b6102fb80546001600160a01b0319166001600160a01b0392909216919091179055506602aa1efb94e000610303558015610fc8576000805461ff0019169055604051600181527f7f26b83ff96e1f2b6a682f133852f6798a09c465da95921460cefb38474024989060200160405180910390a15b505050505050565b60006102fc546102fd54610fe26130ff565b610fec91906157f2565b610ff691906157f2565b905090565b60405162461bcd60e51b81526020600482015260036024820152624c343560e81b6044820152600090606401610ccd565b60003361103a858285613594565b61104585858561360e565b60019150505b9392505050565b6102fa546001600160a01b0316336001600160a01b03161461109c5760405162461bcd60e51b81526020600482015260036024820152624c333960e81b6044820152606401610ccd565b6110a46137b8565b610300546102ff5460009182915b8082101561137e5761afc85a1061137e5760006102ff83815481106110d9576110d9615805565b6000918252602091829020604080518082019091529101546001600160a01b038116808352600160a01b9091046001600160601b03169282019290925291501561136b57805161112890613800565b156111aa576102ff838154811061114157611141615805565b60009182526020808320909101829055610301805460018101825592528251908301516001600160601b0316600160a01b026001600160a01b0391909116177fe78f8e39db67a8c6e0d54c288efc6f296f5d558bc028138a8476c9b97f6fcaa49091015561136b565b60026111b4612fb5565b6111be919061581b565b81602001516001600160601b0316111561128d57805160208201516102ff5460405160019333938893600080516020615f1d8339815191529361120893929182916003919061585f565b60405180910390a46102ff838154811061122457611224615805565b600091825260208083209091018290556102ff805460018101825592528251908301516001600160601b0316600160a01b026001600160a01b0391909116177f5a4a1f748f8cfa795b59cdc37192794ee567e6029e925719381be08d7ccaf4ec9091015561136b565b6000806112ab836000015184602001516001600160601b0316612d4c565b91509150856102fe546112be91906158b5565b8211156112cd5750505061137e565b6112d781886157f2565b96506112e382876157f2565b95506001835160208501516040516001600160a01b038316928992600080516020615f1d833981519152926113229291908990600290600019906158c8565b60405180910390a46102ff858154811061133e5761133e615805565b600091825260208220015582516113689083611358611c52565b6001600160a01b03169190613873565b50505b8261137581615919565b935050506110b2565b836102fc600082825461139191906157f2565b92505081905550826102fe60008282546113ab91906158b5565b909155506113bb905084846157f2565b6102fd60008282546113cd91906158b5565b909155505050610300555050565b60405162461bcd60e51b8152602060048201526003602482015262261a1b60e91b6044820152600090606401610ccd565b6000610ff66138d6565b6001600160a01b037f000000000000000000000000000000000000000000000000000000000000000016300361145e5760405162461bcd60e51b8152600401610ccd90615932565b7f00000000000000000000000000000000000000000000000000000000000000006001600160a01b031661149061394c565b6001600160a01b0316146114b65760405162461bcd60e51b8152600401610ccd9061597e565b6114bf81613968565b604080516000808252602082019092526114db91839190613970565b50565b600033610c818185856114f1838361303c565b6114fb91906157f2565b6132f1565b610292602052816000526040600020818154811061151d57600080fd5b6000918252602090912001546001600160a01b03169150829050565b6115416137b8565b3361154b81613800565b156115685760405162461bcd60e51b8152600401610ccd906159ca565b61157133611c62565b8211156115a65760405162461bcd60e51b815260206004820152600360248201526209868760eb1b6044820152606401610ccd565b60006102fe54836102fd546115bb91906157f2565b6102f95491101591506000906002906001600160a01b031663c8f74bb8336040518263ffffffff1660e01b81526004016115f591906154b1565b602060405180830381865afa158015611612573d6000803e3d6000fd5b505050506040513d601f19601f8201168201806040525081019061163691906159e6565b1015801561164757506102fe548411155b905081806116525750805b6116845760405162461bcd60e51b81526020600482015260036024820152624c343960e81b6044820152606401610ccd565b6000806116913387612d4c565b91509150806102fc60008282546116a891906157f2565b92505081905550816102fe60008282546116c291906158b5565b9091555060019050336001600160a01b0316600019600080516020615f1d833981519152338a8760026000196040516116ff9594939291906159ff565b60405180910390a46117113382613adb565b61171b3383613c10565b50505050505050565b61172c6137b8565b3361173681613800565b156117535760405162461bcd60e51b8152600401610ccd906159ca565b60006102ff838154811061176957611769615805565b6000918252602091829020604080518082019091529101546001600160a01b038116808352600160a01b9091046001600160601b0316928201929092529150336001600160a01b0316146117e55760405162461bcd60e51b81526020600482015260036024820152624c353760e81b6044820152606401610ccd565b80602001516001600160601b03166102fd600082825461180591906158b5565b90915550506102ff80548490811061181f5761181f615805565b60009182526020822001556001815160208301516040516001600160a01b038316928792600080516020615f1d8339815191529261186792919081906001906000199061585f565b60405180910390a461188a816000015182602001516001600160601b0316613c3d565b505050565b6001600160a01b037f00000000000000000000000000000000000000000000000000000000000000001630036118d75760405162461bcd60e51b8152600401610ccd90615932565b7f00000000000000000000000000000000000000000000000000000000000000006001600160a01b031661190961394c565b6001600160a01b03161461192f5760405162461bcd60e51b8152600401610ccd9061597e565b61193882613968565b61194482826001613970565b5050565b6000306001600160a01b037f000000000000000000000000000000000000000000000000000000000000000016146119e35760405162461bcd60e51b815260206004820152603860248201527f555550535570677261646561626c653a206d757374206e6f742062652063616c6044820152771b1959081d1a1c9bdd59da0819195b1959d85d1958d85b1b60421b6064820152608401610ccd565b50600080516020615efd83398151915290565b6103018181548110611a0757600080fd5b6000918252602090912001546001600160a01b0381169150600160a01b90046001600160601b031682565b6000610ff6613d00565b611a44613415565b610302546000199060005b81811015611aa957836001600160a01b03166103028281548110611a7557611a75615805565b6000918252602090912001546001600160a01b031603611a9757809250611aa9565b80611aa181615919565b915050611a4f565b506000198213611ae15760405162461bcd60e51b8152602060048201526003602482015262261a1960e91b6044820152606401610ccd565b610302611aef6001836158b5565b81548110611aff57611aff615805565b60009182526020909120015461030280546001600160a01b039092169184908110611b2c57611b2c615805565b9060005260206000200160006101000a8154816001600160a01b0302191690836001600160a01b03160217905550610302805480611b6c57611b6c615a26565b600082815260209020810160001990810180546001600160a01b0319169055019055505050565b611b9b613415565b61030355565b611ba9613415565b60405163433e3bad60e11b8152610290600482015261ffff82166024820152732152228CF90f7Cc8832d95b13B37fd882787bA699063867c775a9060440160006040518083038186803b158015611bff57600080fd5b505af4158015611c13573d6000803e3d6000fd5b505060405161ffff841681527f3d6d63f501ae621a01c729938fb4428a25138835257943d6b56c49b402ba36329250602001905060405180910390a150565b6102c6546001600160a01b031690565b6000611c6d82612ef2565b611c76836124af565b610c8791906157f2565b611c88613415565b60405162461bcd60e51b81526020600482015260036024820152624c363560e81b6044820152606401610ccd565b6102fb546001600160a01b0316336001600160a01b031614611cea5760405162461bcd60e51b8152600401610ccd90615a3c565b611cf26137b8565b60006102ff8281548110611d0857611d08615805565b6000918252602091829020604080518082019091529101546001600160a01b038116808352600160a01b9091046001600160601b0316928201929092529150611d795760405162461bcd60e51b8152602060048201526003602482015262261b1b60e91b6044820152606401610ccd565b8051611d8490613800565b15611db75760405162461bcd60e51b815260206004820152600360248201526204c35360ec1b6044820152606401610ccd565b6002611dc1612fb5565b611dcb919061581b565b81602001516001600160601b031611611e0c5760405162461bcd60e51b81526020600482015260036024820152624c353160e81b6044820152606401610ccd565b600080611e2a836000015184602001516001600160601b0316612d4c565b915091506000611e38611c52565b6102fb546040516370a0823160e01b81526001600160a01b03928316926370a0823192611e6a929116906004016154b1565b602060405180830381865afa158015611e87573d6000803e3d6000fd5b505050506040513d601f19601f82011682018060405250810190611eab91906159e6565b9050806102fe54611ebc91906157f2565b831115611ef15760405162461bcd60e51b8152602060048201526003602482015262261a9960e91b6044820152606401610ccd565b816102fc6000828254611f0491906157f2565b9250508190555083602001516001600160601b03166102fd6000828254611f2b91906158b5565b9091555050610300548503611f51576103008054906000611f4b83615919565b91905055505b6001845160208601516040516001600160a01b038316928992600080516020615f1d83398151915292611f8e9291908a90600290600019906158c8565b60405180910390a46102ff8581548110611faa57611faa615805565b6000918252602082200155808311611fe157611fdc33855185611fcb611c52565b6001600160a01b0316929190613d6f565b612028565b6000611fed82856158b5565b9050806102fe600082825461200291906158b5565b90915550612017905033865184611fcb611c52565b84516120269082611358611c52565b505b612030613d90565b5050505050565b6102fb546001600160a01b0316336001600160a01b03161461206b5760405162461bcd60e51b8152600401610ccd90615a3c565b6120736137b8565b61207b611c52565b6102fb546040516370a0823160e01b81526001600160a01b03928316926370a08231926120ad929116906004016154b1565b602060405180830381865afa1580156120ca573d6000803e3d6000fd5b505050506040513d601f19601f820116820180604052508101906120ee91906159e6565b8111156121235760405162461bcd60e51b81526020600482015260036024820152620986a760eb1b6044820152606401610ccd565b6000816102fe5461213491906157f2565b905061213e612fb5565b8111156121735760405162461bcd60e51b81526020600482015260036024820152624c353960e81b6044820152606401610ccd565b816102fe600082825461218691906157f2565b909155506119449050333084611fcb611c52565b6121a2613415565b6121aa611c52565b6001600160a01b0316826001600160a01b0316036121f05760405162461bcd60e51b81526020600482015260036024820152624c343360e81b6044820152606401610ccd565b6119448282613dee565b61012d5460408051638da5cb5b60e01b815290516000926001600160a01b031691638da5cb5b9160048083019260209291908290030181865afa158015612245573d6000803e3d6000fd5b505050506040513d601f19601f82011682018060405250810190610ff69190615a59565b6122716137b8565b8161227b81613800565b156122985760405162461bcd60e51b8152600401610ccd906159ca565b816122a281613800565b156122bf5760405162461bcd60e51b8152600401610ccd906159ca565b6001600160a01b0384811660009081526102916020526040902054161561230e5760405162461bcd60e51b8152602060048201526003602482015262261b1960e91b6044820152606401610ccd565b6001600160a01b03841661234a5760405162461bcd60e51b815260206004820152600360248201526226189960e91b6044820152606401610ccd565b6001600160a01b0383166123865760405162461bcd60e51b81526020600482015260036024820152624c313360e81b6044820152606401610ccd565b826001600160a01b0316846001600160a01b0316036123cd5760405162461bcd60e51b8152602060048201526003602482015262130c4d60ea1b6044820152606401610ccd565b6123d56121fa565b6001600160a01b0316336001600160a01b031614806123fc5750336001600160a01b038516145b61242e5760405162461bcd60e51b81526020600482015260036024820152624c313560e81b6044820152606401610ccd565b612439846001613ee5565b612444836001613ee5565b50506001600160a01b039182166000818152610291602090815260408083208054969095166001600160a01b03199687168117909555938252610292815292812080546001810182559082529290209091018054909216179055565b6060609b8054610bf0906156d9565b6001600160a01b038116600090815260976020526040812054610c87565b6124d5613415565b61030280546001810182556000919091527f552430c2010355dda19e8bae437f75cfb136cb8d667c4c0867367db21eee69b60180546001600160a01b0319166001600160a01b0392909216919091179055565b6125306137b8565b3361253a81613800565b156125575760405162461bcd60e51b8152600401610ccd906159ca565b61256033611c62565b8211156125955760405162461bcd60e51b81526020600482015260036024820152624c353360e81b6044820152606401610ccd565b6001600160601b038211156125d25760405162461bcd60e51b8152602060048201526003602482015262130d4d60ea1b6044820152606401610ccd565b61030354341461260a5760405162461bcd60e51b81526020600482015260036024820152624c353560e81b6044820152606401610ccd565b6000604051806040016040528061261e3390565b6001600160a01b0390811682526001600160601b0386166020909201919091526102f9549192506000916002911663c8f74bb8336040518263ffffffff1660e01b815260040161266e91906154b1565b602060405180830381865afa15801561268b573d6000803e3d6000fd5b505050506040513d601f19601f820116820180604052508101906126af91906159e6565b101580156126c05750600061030054115b1561272e5761030080549060006126d683615a76565b9190505550610300549050816102ff82815481106126f6576126f6615805565b6000918252602091829020835193909201516001600160601b0316600160a01b026001600160a01b0390931692909217910155612798565b6102ff8054600181810183556000839052845160208601516001600160601b0316600160a01b026001600160a01b03909116177f5a4a1f748f8cfa795b59cdc37192794ee567e6029e925719381be08d7ccaf4ec90920191909155905461279591906158b5565b90505b836102fd60008282546127ab91906157f2565b9091555060019050336001600160a01b031682600080516020615f1d83398151915233888960006000196040516127e69594939291906159ff565b60405180910390a46127f83385613adb565b6102fa546040516000916001600160a01b03169034908381818185875af1925050503d8060008114612846576040519150601f19603f3d011682016040523d82523d6000602084013e61284b565b606091505b50509050806120305760405162461bcd60e51b8152602060048201526003602482015262261a9b60e91b6044820152606401610ccd565b60003381612890828661303c565b9050838110156128f05760405162461bcd60e51b815260206004820152602560248201527f45524332303a2064656372656173656420616c6c6f77616e63652062656c6f77604482015264207a65726f60d81b6064820152608401610ccd565b6128fd82868684036132f1565b506001949350505050565b612910613415565b6102f980546001600160a01b0319166001600160a01b0392909216919091179055565b61293b6137b8565b8161294581613800565b156129625760405162461bcd60e51b8152600401610ccd906159ca565b8161296c81613800565b156129895760405162461bcd60e51b8152600401610ccd906159ca565b6001600160a01b0384166129c55760405162461bcd60e51b815260206004820152600360248201526226189b60e91b6044820152606401610ccd565b6001600160a01b038316612a015760405162461bcd60e51b81526020600482015260036024820152624c313760e81b6044820152606401610ccd565b612a096121fa565b6001600160a01b0316336001600160a01b03161480612a305750336001600160a01b038516145b612a625760405162461bcd60e51b815260206004820152600360248201526209862760eb1b6044820152606401610ccd565b6001600160a01b0384811660009081526102916020526040902054811690841614612ab55760405162461bcd60e51b81526020600482015260036024820152624c313960e81b6044820152606401610ccd565b612ac0846001613ee5565b612acb836001613ee5565b60001960005b6001600160a01b03851660009081526102926020526040902054811015612b56576001600160a01b0385811660009081526102926020526040902080549188169183908110612b2257612b22615805565b6000918252602090912001546001600160a01b031603612b4457809150612b56565b80612b4e81615919565b915050612ad1565b506000811215612b6857612b68615a8d565b6001600160a01b0380861660009081526102916020908152604080832080546001600160a01b031916905592871682526102929052208054612bac906001906158b5565b81548110612bbc57612bbc615805565b60009182526020808320909101546001600160a01b0387811684526102929092526040909220805491909216919083908110612bfa57612bfa615805565b600091825260208083209190910180546001600160a01b0319166001600160a01b03948516179055918616815261029290915260409020805480612c4057612c40615a26565b600082815260209020810160001990810180546001600160a01b03191690550190555050505050565b600033610c8181858561360e565b612c7f613415565b60006102fe54612c8d611c52565b6001600160a01b03166370a08231306040518263ffffffff1660e01b8152600401612cb891906154b1565b602060405180830381865afa158015612cd5573d6000803e3d6000fd5b505050506040513d601f19601f82011682018060405250810190612cf991906159e6565b612d0391906158b5565b905060008111612d3b5760405162461bcd60e51b8152602060048201526003602482015262130d0d60ea1b6044820152606401610ccd565b6114db612d46611c52565b82613dee565b6102f95460405163191ee97760e31b815260009182916002916001600160a01b03169063c8f74bb890612d839088906004016154b1565b602060405180830381865afa158015612da0573d6000803e3d6000fd5b505050506040513d601f19601f82011682018060405250810190612dc491906159e6565b10612dd457508190506000612e62565b6000612df1612dec61028e546001600160a01b031690565b613fba565b90506000612dff8583614027565b6102fb54909150600090612e2090600160a01b900463ffffffff1684614065565b90506000612e2f606485614091565b612e398385615aa3565b612e43919061581b565b9050612e4f81856140bf565b9450612e5b85886158b5565b9550505050505b9250929050565b6102ff8181548110611a0757600080fd5b60405163106d64cf60e31b81526102906004820152600090732152228CF90f7Cc8832d95b13B37fd882787bA699063836b267890602401602060405180830381865af4158015612ece573d6000803e3d6000fd5b505050506040513d601f19601f82011682018060405250810190610ff69190615aba565b6000610c878260016140f6565b612f07613415565b60006102fc5411612f405760405162461bcd60e51b815260206004820152600360248201526204c36360ec1b6044820152606401610ccd565b6102fc546102fe541015612f7c5760405162461bcd60e51b81526020600482015260036024820152624c363160e81b6044820152606401610ccd565b6102fc546102fe6000828254612f9291906158b5565b90915550506102fc805460009091556114db612fac6121fa565b82611358611c52565b600080612fce612dec61028e546001600160a01b031690565b90506000612fe3612fdd610fd0565b83614027565b6102fb5490915060009061300490600160c01b900463ffffffff1684614065565b90506000613013606485614091565b61301d8385615aa3565b613027919061581b565b905061303381856140bf565b94505050505090565b6001600160a01b03918216600090815260986020908152604080832093909416825291909152205490565b61306f613415565b614e2063ffffffff821611156130ad5760405162461bcd60e51b815260206004820152600360248201526209870760eb1b6044820152606401610ccd565b6102fb805463ffffffff909216600160a01b0263ffffffff60a01b19909216919091179055565b61030281815481106130e557600080fd5b6000918252602090912001546001600160a01b0316905081565b6000610ff660995490565b6131126137b8565b3361311c81613800565b156131395760405162461bcd60e51b8152600401610ccd906159ca565b82613142611c52565b6001600160a01b03166370a08231336040518263ffffffff1660e01b815260040161316d91906154b1565b602060405180830381865afa15801561318a573d6000803e3d6000fd5b505050506040513d601f19601f820116820180604052508101906131ae91906159e6565b10156131e25760405162461bcd60e51b81526020600482015260036024820152624c343760e81b6044820152606401610ccd565b826102fe60008282546131f591906157f2565b9091555060009050336001600160a01b0316600019600080516020615f1d83398151915233878860026000198a60405161323496959493929190615ad7565b60405180910390a4613246338461465c565b5061188a613d90565b613257613415565b60405162461bcd60e51b8152602060048201526002602482015261098760f31b6044820152606401610ccd565b61328c613415565b61271063ffffffff821611156132ca5760405162461bcd60e51b81526020600482015260036024820152624c343160e81b6044820152606401610ccd565b6102fb805463ffffffff909216600160c01b0263ffffffff60c01b19909216919091179055565b6001600160a01b0383166133535760405162461bcd60e51b8152602060048201526024808201527f45524332303a20617070726f76652066726f6d20746865207a65726f206164646044820152637265737360e01b6064820152608401610ccd565b6001600160a01b0382166133b45760405162461bcd60e51b815260206004820152602260248201527f45524332303a20617070726f766520746f20746865207a65726f206164647265604482015261737360f01b6064820152608401610ccd565b6001600160a01b0383811660008181526098602090815260408083209487168084529482529182902085905590518481527f8c5be1e5ebec7d5bd14f71427d1e84f3dd0314c0f7b2291e5b200ac8c7c3b925910160405180910390a3505050565b3361341e6121fa565b6001600160a01b0316146134745760405162461bcd60e51b815260206004820181905260248201527f4f776e61626c653a2063616c6c6572206973206e6f7420746865206f776e65726044820152606401610ccd565b565b600054610100900460ff1661349d5760405162461bcd60e51b8152600401610ccd90615b26565b6134a88585856146dd565b6134b28282614737565b612030614768565b600054610100900460ff166134e15760405162461bcd60e51b8152600401610ccd90615b26565b6114db8161478f565b600054610100900460ff166135115760405162461bcd60e51b8152600401610ccd90615b26565b61028e80546001600160a01b0319166001600160a01b03831617905560405163433e3bad60e11b8152610290600482015260006024820152732152228CF90f7Cc8832d95b13B37fd882787bA699063867c775a9060440160006040518083038186803b15801561358057600080fd5b505af4158015612030573d6000803e3d6000fd5b60006135a0848461303c565b9050600019811461360857818110156135fb5760405162461bcd60e51b815260206004820152601d60248201527f45524332303a20696e73756666696369656e7420616c6c6f77616e63650000006044820152606401610ccd565b61360884848484036132f1565b50505050565b6001600160a01b0383166136725760405162461bcd60e51b815260206004820152602560248201527f45524332303a207472616e736665722066726f6d20746865207a65726f206164604482015264647265737360d81b6064820152608401610ccd565b6001600160a01b0382166136d45760405162461bcd60e51b815260206004820152602360248201527f45524332303a207472616e7366657220746f20746865207a65726f206164647260448201526265737360e81b6064820152608401610ccd565b6136df838383614831565b6001600160a01b038316600090815260976020526040902054818110156137575760405162461bcd60e51b815260206004820152602660248201527f45524332303a207472616e7366657220616d6f756e7420657863656564732062604482015265616c616e636560d01b6064820152608401610ccd565b6001600160a01b038085166000818152609760205260408082208686039055928616808252908390208054860190559151600080516020615f64833981519152906137a59086815260200190565b60405180910390a3613608848484614870565b6137c0611a32565b156134745760405162461bcd60e51b815260206004820152601060248201526f14185d5cd8589b194e881c185d5cd95960821b6044820152606401610ccd565b6101935460405163fe575a8760e01b81526000916001600160a01b03169063fe575a87906138329085906004016154b1565b602060405180830381865afa15801561384f573d6000803e3d6000fd5b505050506040513d601f19601f82011682018060405250810190610c879190615b71565b6040516001600160a01b03831660248201526044810182905261188a90849063a9059cbb60e01b906064015b60408051601f198184030181529190526020810180516001600160e01b03166001600160e01b031990931692909217909152614971565b6102c6546040805163313ce56760e01b815290516000926001600160a01b03169163313ce5679160048083019260209291908290030181865afa92505050801561393d575060408051601f3d908101601f1916820190925261393a91810190615b93565b60015b6139475750601290565b919050565b600080516020615efd833981519152546001600160a01b031690565b6114db613415565b7f4910fdfa16fed3260ed0e7147f7cc6da11a60208b5b9406d12a635614ffd91435460ff16156139a35761188a83614a46565b826001600160a01b03166352d1902d6040518163ffffffff1660e01b8152600401602060405180830381865afa9250505080156139fd575060408051601f3d908101601f191682019092526139fa918101906159e6565b60015b613a605760405162461bcd60e51b815260206004820152602e60248201527f45524331393637557067726164653a206e657720696d706c656d656e7461746960448201526d6f6e206973206e6f74205555505360901b6064820152608401610ccd565b600080516020615efd8339815191528114613acf5760405162461bcd60e51b815260206004820152602960248201527f45524331393637557067726164653a20756e737570706f727465642070726f786044820152681a58589b195555525160ba1b6064820152608401610ccd565b5061188a838383614ae2565b6001600160a01b038216613b3b5760405162461bcd60e51b815260206004820152602160248201527f45524332303a206275726e2066726f6d20746865207a65726f206164647265736044820152607360f81b6064820152608401610ccd565b613b4782600083614831565b6001600160a01b03821660009081526097602052604090205481811015613bbb5760405162461bcd60e51b815260206004820152602260248201527f45524332303a206275726e20616d6f756e7420657863656564732062616c616e604482015261636560f01b6064820152608401610ccd565b6001600160a01b0383166000818152609760209081526040808320868603905560998054879003905551858152919291600080516020615f64833981519152910160405180910390a361188a83600084614870565b6000613c1c3383613adb565b6102c654613c34906001600160a01b03168484613873565b50600192915050565b6001600160a01b038216613c935760405162461bcd60e51b815260206004820152601f60248201527f45524332303a206d696e7420746f20746865207a65726f2061646472657373006044820152606401610ccd565b613c9f60008383614831565b8060996000828254613cb191906157f2565b90915550506001600160a01b038216600081815260976020908152604080832080548601905551848152600080516020615f64833981519152910160405180910390a361194460008383614870565b6101605460408051635c975abb60e01b815290516000926001600160a01b031691635c975abb9160048083019260209291908290030181865afa158015613d4b573d6000803e3d6000fd5b505050506040513d601f19601f82011682018060405250810190610ff69190615b71565b613608846323b872dd60e01b85858560405160240161389f93929190615bb6565b6000613d9a612fb5565b9050806102fe5411613da95750565b6000816102fe54613dba91906158b5565b9050806102fe6000828254613dcf91906158b5565b90915550506102fb54611944906001600160a01b031682611358611c52565b613df6613415565b60008111613e2c5760405162461bcd60e51b815260206004820152600360248201526204c31360ec1b6044820152606401610ccd565b6040516370a0823160e01b8152829082906001600160a01b038316906370a0823190613e5c9030906004016154b1565b602060405180830381865afa158015613e79573d6000803e3d6000fd5b505050506040513d601f19601f82011682018060405250810190613e9d91906159e6565b1015613ed15760405162461bcd60e51b81526020600482015260036024820152624c313160e81b6044820152606401610ccd565b61188a6001600160a01b0382163384613873565b6102935460ff1615613ef5575050565b6001600160a01b038216600090815261028f602052604090205464ffffffffff428116911603613f23575050565b6001600160a01b0380831660009081526102916020526040902054168015613f4f5761188a8183613ee5565b6000613f5b84846140f6565b90508015613fb157610293805460ff191660011790556000613f7d8583614b07565b610293805460ff19169055905080613faf576001600160a01b038516600090815261028f602052604090206003018290555b505b61360884614b5e565b6000816001600160a01b031663313ce5676040518163ffffffff1660e01b8152600401602060405180830381865afa158015613ffa573d6000803e3d6000fd5b505050506040513d601f19601f8201168201806040525081019061401e9190615b93565b60ff1692915050565b600060038210156140595761403d8260066158b5565b61404890600a615cbe565b6140529084615aa3565b9050610c87565b61104b836103e8615aa3565b6000600382101561407c57614052836103e8615aa3565b61408782600a615cbe565b61104b9084615aa3565b600060038210156140a95761405283620f4240615aa3565b6140b48260036157f2565b61408790600a615cbe565b600060038210156140ea576140d58260066158b5565b6140e090600a615cbe565b614052908461581b565b61104b6103e88461581b565b6001600160a01b038216600090815261028f602090815260408083208151608081018352815464ffffffffff16818401908152835180850190945260018301548452600283015463ffffffff1684860152606082019390935291825260030154918101919091528161416785614cc0565b82515190915064ffffffffff16158061417e575080155b1561418e57600092505050610c87565b815160200151604051630b27cfb160e31b8152600090732152228CF90f7Cc8832d95b13B37fd882787bA699063593e7d88906141d290610290908690600401615cca565b6040805180830381865af41580156141ee573d6000803e3d6000fd5b505050506040513d601f19601f820116820180604052508101906142129190615cee565b60405163038255fd60e11b81526102906004820152909150600090732152228CF90f7Cc8832d95b13B37fd882787bA6990630704abfa906024016040805180830381865af4158015614268573d6000803e3d6000fd5b505050506040513d601f19601f8201168201806040525081019061428c9190615d39565b905084602001519550732152228CF90f7Cc8832d95b13B37fd882787bA69634ead0c5384836040518363ffffffff1660e01b81526004016142ce929190615d65565b602060405180830381865af41580156142eb573d6000803e3d6000fd5b505050506040513d601f19601f8201168201806040525081019061430f9190615b71565b61462057604051633e1e5c5360e11b8152600090732152228CF90f7Cc8832d95b13B37fd882787bA6990637c3cb8a69061434d908790600401615d99565b6040805180830381865af4158015614369573d6000803e3d6000fd5b505050506040513d601f19601f8201168201806040525081019061438d9190615d39565b604051630b27cfb160e31b8152909150600090732152228CF90f7Cc8832d95b13B37fd882787bA699063593e7d88906143ce90610290908690600401615cca565b6040805180830381865af41580156143ea573d6000803e3d6000fd5b505050506040513d601f19601f8201168201806040525081019061440e9190615cee565b8751516020820151865192935061443c928c61442b57600061442d565b8b5b614437908b6157f2565b614d69565b61444690896157f2565b97505b819450809350732152228CF90f7Cc8832d95b13B37fd882787bA69634ead0c5386856040518363ffffffff1660e01b8152600401614488929190615d65565b602060405180830381865af41580156144a5573d6000803e3d6000fd5b505050506040513d601f19601f820116820180604052508101906144c99190615b71565b6145f357604051633e1e5c5360e11b8152732152228CF90f7Cc8832d95b13B37fd882787bA6990637c3cb8a690614504908890600401615d99565b6040805180830381865af4158015614520573d6000803e3d6000fd5b505050506040513d601f19601f820116820180604052508101906145449190615d39565b604051630b27cfb160e31b8152909250732152228CF90f7Cc8832d95b13B37fd882787bA699063593e7d889061458290610290908690600401615cca565b6040805180830381865af415801561459e573d6000803e3d6000fd5b505050506040513d601f19601f820116820180604052508101906145c29190615cee565b90506145e28460200151826020015186600001518c61442b57600061442d565b6145ec90896157f2565b9750614449565b61460d84602001514286600001518c61442b57600061442d565b61461790896157f2565b97505050614651565b8451518251614644919042908a61463857600061463a565b895b61443790896157f2565b61464e90876157f2565b95505b505050505092915050565b6000333081036146ba5760405162461bcd60e51b815260206004820152602360248201527f4552433230577261707065723a20777261707065722063616e2774206465706f6044820152621cda5d60ea1b6064820152608401610ccd565b6102c6546146d3906001600160a01b0316823086613d6f565b610c818484613c3d565b600054610100900460ff166147045760405162461bcd60e51b8152600401610ccd90615b26565b61470c614768565b61471583614e55565b61471d614e85565b61472682614eb4565b61472f81614efe565b61188a614768565b600054610100900460ff1661475e5760405162461bcd60e51b8152600401610ccd90615b26565b6119448282614f48565b600054610100900460ff166134745760405162461bcd60e51b8152600401610ccd90615b26565b600054610100900460ff166147b65760405162461bcd60e51b8152600401610ccd90615b26565b306001600160a01b0382160361480e5760405162461bcd60e51b815260206004820152601e60248201527f4552433230577261707065723a2063616e6e6f742073656c66207772617000006044820152606401610ccd565b6102c680546001600160a01b0319166001600160a01b0392909216919091179055565b61483c838383614f88565b6001600160a01b0383161561485657614856836001613ee5565b6001600160a01b0382161561188a5761188a826001613ee5565b6001600160a01b038316158061488d57506001600160a01b038216155b156148cd577f980f7e6fb44009001d533a10bc3bd558b4efe22dcb4888bca4767aa93c71ce1f6148bb610fd0565b60405190815260200160405180910390a15b60005b610302548110156136085761030281815481106148ef576148ef615805565b600091825260209091200154604051636e0d037d60e11b81526001600160a01b039091169063dc1a06fa9061492c90879087908790600401615bb6565b600060405180830381600087803b15801561494657600080fd5b505af115801561495a573d6000803e3d6000fd5b50505050808061496990615919565b9150506148d0565b60006149c6826040518060400160405280602081526020017f5361666545524332303a206c6f772d6c6576656c2063616c6c206661696c6564815250856001600160a01b0316614fe99092919063ffffffff16565b90508051600014806149e75750808060200190518101906149e79190615b71565b61188a5760405162461bcd60e51b815260206004820152602a60248201527f5361666545524332303a204552433230206f7065726174696f6e20646964206e6044820152691bdd081cdd58d8d9595960b21b6064820152608401610ccd565b6001600160a01b0381163b614ab35760405162461bcd60e51b815260206004820152602d60248201527f455243313936373a206e657720696d706c656d656e746174696f6e206973206e60448201526c1bdd08184818dbdb9d1c9858dd609a1b6064820152608401610ccd565b600080516020615efd83398151915280546001600160a01b0319166001600160a01b0392909216919091179055565b614aeb83614ff8565b600082511180614af85750805b1561188a576136088383615038565b6000826001600160a01b03167f05a71d417f891ba4b7a94b48d1b1f4b59b070921cba593b3c72a05a5587a78a9614b3d856124af565b60408051918252602082018690520160405180910390a2613c348383613c3d565b6001600160a01b038116600090815261028f602052604090819020805464ffffffffff19164264ffffffffff161790555163038255fd60e11b81526102906004820152732152228CF90f7Cc8832d95b13B37fd882787bA6990630704abfa906024016040805180830381865af4158015614bdc573d6000803e3d6000fd5b505050506040513d601f19601f82011682018060405250810190614c009190615d39565b6001600160a01b038216600090815261028f602090815260408220835160018201559201516002909201805463ffffffff191663ffffffff909316929092179091555b6001600160a01b03821660009081526102926020526040902054811015611944576001600160a01b0382166000908152610292602052604090208054614cae919083908110614c9457614c94615805565b6000918252602090912001546001600160a01b0316614b5e565b80614cb881615919565b915050614c43565b6000614ccb8261505d565b614cd590826157f2565b905060005b6001600160a01b03831660009081526102926020526040902054811015614d63576001600160a01b0383166000908152610292602052604090208054614d45919083908110614d2b57614d2b615805565b6000918252602090912001546001600160a01b0316614cc0565b614d4f90836157f2565b915080614d5b81615919565b915050614cda565b50919050565b600080614d82612dec61028e546001600160a01b031690565b90506000614da0614d938888615db6565b64ffffffffff1683614091565b90506000614db26301e1338084614091565b614dbd600185614091565b614dc79084615aa3565b614dd1919061581b565b90506000614de38761ffff1685614065565b90506000614df2600186614091565b614dfc8385615aa3565b614e06919061581b565b90506000614e148887614027565b90506000614e23606488614091565b614e2d8484615aa3565b614e37919061581b565b9050614e4381886140bf565b9750505050505050505b949350505050565b600054610100900460ff16614e7c5760405162461bcd60e51b8152600401610ccd90615b26565b6114db81615068565b600054610100900460ff16614eac5760405162461bcd60e51b8152600401610ccd90615b26565b6134746150b2565b600054610100900460ff16614edb5760405162461bcd60e51b8152600401610ccd90615b26565b61016080546001600160a01b0319166001600160a01b0392909216919091179055565b600054610100900460ff16614f255760405162461bcd60e51b8152600401610ccd90615b26565b61019380546001600160a01b0319166001600160a01b0392909216919091179055565b600054610100900460ff16614f6f5760405162461bcd60e51b8152600401610ccd90615b26565b609a614f7b8382615e21565b50609b61188a8282615e21565b614f906137b8565b82614f9a81613800565b15614fb75760405162461bcd60e51b8152600401610ccd906159ca565b82614fc181613800565b15614fde5760405162461bcd60e51b8152600401610ccd906159ca565b6120308585856150e5565b6060614e4d848460008561514d565b61500181614a46565b6040516001600160a01b038216907fbc7cd75a20ee27fd9adebab32041f755214dbc6bffa90cc0225b39da2e5c2d3b90600090a250565b606061104b8383604051806060016040528060278152602001615f3d60279139615228565b6000610c87826124af565b600054610100900460ff1661508f5760405162461bcd60e51b8152600401610ccd90615b26565b61012d80546001600160a01b0319166001600160a01b0392909216919091179055565b600054610100900460ff166150d95760405162461bcd60e51b8152600401610ccd90615b26565b60c9805460ff19169055565b6150ed611a32565b1561188a5760405162461bcd60e51b815260206004820152602a60248201527f45524332305061757361626c653a20746f6b656e207472616e736665722077686044820152691a5b19481c185d5cd95960b21b6064820152608401610ccd565b6060824710156151ae5760405162461bcd60e51b815260206004820152602660248201527f416464726573733a20696e73756666696369656e742062616c616e636520666f6044820152651c8818d85b1b60d21b6064820152608401610ccd565b600080866001600160a01b031685876040516151ca9190615ee0565b60006040518083038185875af1925050503d8060008114615207576040519150601f19603f3d011682016040523d82523d6000602084013e61520c565b606091505b509150915061521d878383876152a0565b979650505050505050565b6060600080856001600160a01b0316856040516152459190615ee0565b600060405180830381855af49150503d8060008114615280576040519150601f19603f3d011682016040523d82523d6000602084013e615285565b606091505b5091509150615296868383876152a0565b9695505050505050565b6060831561530f578251600003615308576001600160a01b0385163b6153085760405162461bcd60e51b815260206004820152601d60248201527f416464726573733a2063616c6c20746f206e6f6e2d636f6e74726163740000006044820152606401610ccd565b5081614e4d565b614e4d83838151156153245781518083602001fd5b8060405162461bcd60e51b8152600401610ccd919061538e565b60005b83811015615359578181015183820152602001615341565b50506000910152565b6000815180845261537a81602086016020860161533e565b601f01601f19169290920160200192915050565b60208152600061104b6020830184615362565b6001600160a01b03811681146114db57600080fd5b600080604083850312156153c957600080fd5b82356153d4816153a1565b946020939093013593505050565b6000602082840312156153f457600080fd5b813561104b816153a1565b600080600080600060a0868803121561541757600080fd5b8535615422816153a1565b94506020860135615432816153a1565b93506040860135615442816153a1565b92506060860135615452816153a1565b91506080860135615462816153a1565b809150509295509295909350565b60008060006060848603121561548557600080fd5b8335615490816153a1565b925060208401356154a0816153a1565b929592945050506040919091013590565b6001600160a01b0391909116815260200190565b6000602082840312156154d757600080fd5b5035919050565b634e487b7160e01b600052604160045260246000fd5b604080519081016001600160401b0381118282101715615516576155166154de565b60405290565b604051601f8201601f191681016001600160401b0381118282101715615544576155446154de565b604052919050565b60006001600160401b03821115615565576155656154de565b50601f01601f191660200190565b60006155866155818461554c565b61551c565b905082815283838301111561559a57600080fd5b828260208301376000602084830101529392505050565b600080604083850312156155c457600080fd5b82356155cf816153a1565b915060208301356001600160401b038111156155ea57600080fd5b8301601f810185136155fb57600080fd5b61560a85823560208401615573565b9150509250929050565b61ffff811681146114db57600080fd5b60006020828403121561563657600080fd5b813561104b81615614565b6000806040838503121561565457600080fd5b823561565f816153a1565b9150602083013561566f816153a1565b809150509250929050565b63ffffffff811681146114db57600080fd5b60006020828403121561569e57600080fd5b813561104b8161567a565b600080604083850312156156bc57600080fd5b8235915060208301356001600160401b038111156155ea57600080fd5b600181811c908216806156ed57607f821691505b602082108103614d6357634e487b7160e01b600052602260045260246000fd5b60006020828403121561571f57600080fd5b81516001600160401b0381111561573557600080fd5b8201601f8101841361574657600080fd5b80516157546155818261554c565b81815285602083850101111561576957600080fd5b61577a82602083016020860161533e565b95945050505050565b6702632b233b4ba3c960c51b8152600082516157a681600885016020870161533e565b9190910160080192915050565b601360fa1b8152600082516157cf81600185016020870161533e565b9190910160010192915050565b634e487b7160e01b600052601160045260246000fd5b80820180821115610c8757610c876157dc565b634e487b7160e01b600052603260045260246000fd5b60008261583857634e487b7160e01b600052601260045260246000fd5b500490565b6004811061585b57634e487b7160e01b600052602160045260246000fd5b9052565b6001600160a01b03861681526001600160601b038581166020830152841660408201526000615891606083018561583d565b82608083015260c060a0830152600060c083015260e0820190509695505050505050565b81810381811115610c8757610c876157dc565b6001600160a01b03861681526001600160601b0385166020820152604081018490526158f7606082018461583d565b608081019190915260c060a0820181905260009082015260e001949350505050565b60006001820161592b5761592b6157dc565b5060010190565b6020808252602c908201527f46756e6374696f6e206d7573742062652063616c6c6564207468726f7567682060408201526b19195b1959d85d1958d85b1b60a21b606082015260800190565b6020808252602c908201527f46756e6374696f6e206d7573742062652063616c6c6564207468726f7567682060408201526b6163746976652070726f787960a01b606082015260800190565b6020808252600290820152614c3960f01b604082015260600190565b6000602082840312156159f857600080fd5b5051919050565b6001600160a01b038616815260208101859052604081018490526158f7606082018461583d565b634e487b7160e01b600052603160045260246000fd5b60208082526003908201526204c34360ec1b604082015260600190565b600060208284031215615a6b57600080fd5b815161104b816153a1565b600081615a8557615a856157dc565b506000190190565b634e487b7160e01b600052600160045260246000fd5b8082028115828204841417610c8757610c876157dc565b600060208284031215615acc57600080fd5b815161104b81615614565b6001600160a01b03871681526020810186905260408101859052615afe606082018561583d565b82608082015260c060a08201526000615b1a60c0830184615362565b98975050505050505050565b6020808252602b908201527f496e697469616c697a61626c653a20636f6e7472616374206973206e6f74206960408201526a6e697469616c697a696e6760a81b606082015260800190565b600060208284031215615b8357600080fd5b8151801515811461104b57600080fd5b600060208284031215615ba557600080fd5b815160ff8116811461104b57600080fd5b6001600160a01b039384168152919092166020820152604081019190915260600190565b600181815b80851115615c15578160001904821115615bfb57615bfb6157dc565b80851615615c0857918102915b93841c9390800290615bdf565b509250929050565b600082615c2c57506001610c87565b81615c3957506000610c87565b8160018114615c4f5760028114615c5957615c75565b6001915050610c87565b60ff841115615c6a57615c6a6157dc565b50506001821b610c87565b5060208310610133831016604e8410600b8410161715615c98575081810a610c87565b615ca28383615bda565b8060001904821115615cb657615cb66157dc565b029392505050565b600061104b8383615c1d565b8281526060810161104b60208301848051825260209081015163ffffffff16910152565b600060408284031215615d0057600080fd5b615d086154f4565b8251615d1381615614565b8152602083015164ffffffffff81168114615d2d57600080fd5b60208201529392505050565b600060408284031215615d4b57600080fd5b615d536154f4565b825181526020830151615d2d8161567a565b8251815260208084015163ffffffff16908201526080810182516040830152602083015163ffffffff16606083015261104b565b8151815260208083015163ffffffff169082015260408101610c87565b64ffffffffff828116828216039080821115615dd457615dd46157dc565b5092915050565b601f82111561188a57600081815260208120601f850160051c81016020861015615e025750805b601f850160051c820191505b81811015610fc857828155600101615e0e565b81516001600160401b03811115615e3a57615e3a6154de565b615e4e81615e4884546156d9565b84615ddb565b602080601f831160018114615e835760008415615e6b5750858301515b600019600386901b1c1916600185901b178555610fc8565b600085815260208120601f198616915b82811015615eb257888601518255948401946001909101908401615e93565b5085821015615ed05787850151600019600388901b60f8161c191681555b5050505050600190811b01905550565b60008251615ef281846020870161533e565b919091019291505056fe360894a13ba1a3210667c828492db98dca3e2076cc3735a920a3ca505d382bbc3c6c0323f6df7a654334f263f923281de07dde64ae47cbb21b65d09641fb3e30416464726573733a206c6f772d6c6576656c2064656c65676174652063616c6c206661696c6564ddf252ad1be2c89b69c2b068fc378daa952ba7f163c4a11628f55a4df523b3efa26469706673582212201d6f2a76f664f3c7c8cd3cdbaaa434a67fdbb4fa496c071c9a0d895c7b61413c64736f6c63430008120033",
  "deployedBytecode": "0x60806040526004361061036f5760003560e01c80638980f11f116101c8578063cafb2202116100f8578063ee1335d11161009b578063ee1335d114610ac9578063ee153c4f14610ae9578063ef2591af14610b09578063ef356a7914610b2e578063f1215d2514610b43578063f12d54d814610b63578063f2fde38b14610b82578063f762e73414610ba2578063f94ce2c214610bc157600080fd5b8063cafb2202146109ce578063cdc18424146109ed578063d038875c14610a0e578063d039981b14610a48578063d1159a8714610a68578063d294f09314610a7f578063db84faac14610a94578063dd62ed3e14610aa957600080fd5b8063a457c2d71161016b578063a457c2d71461089b578063a64c91cc146108bb578063a8f76320146108db578063a9059cbb146108fb578063b2de2a431461091b578063b60d428814610930578063bacd609e14610951578063c822adda14610986578063c89d5b8b146109a657600080fd5b80638980f11f146107a75780638d8e6bd7146107c75780638da5cb5b146107fe57806392e5ced71461081357806395d89b411461083357806399a03c70146108485780639c271975146108685780639ee679e81461088857600080fd5b806345b05d09116102a35780636d3a4ac8116102465780636d3a4ac8146106b05780636f307dc3146106d057806370a08231146106e5578063715018a614610705578063734d82871461071a5780637594d0b51461073157806375a5652b146107485780637c2edb16146107685780638370e1f71461078757600080fd5b806345b05d09146105b55780634f1ef286146105d557806352d1902d146105e857806353ac4b66146105fd57806353d3a42f146106145780635c975abb1461065b5780635f0e8e371461067057806361b76e0f1461069057600080fd5b806323b872dd1161031657806323b872dd1461048b5780632a1b8b1c146104ab5780632f4f21e2146104c0578063313ce567146104e05780633659cfe614610507578063391d85ec1461052757806339509351146105555780633e7ae353146105755780634134bee91461059557600080fd5b806306fdde0314610374578063095ea7b31461039f5780630d174c24146103cf5780630e21750f146103f15780631459457a1461041157806318160ddd146104315780631c19be6d14610454578063205c28781461046b575b600080fd5b34801561038057600080fd5b50610389610be1565b604051610396919061538e565b60405180910390f35b3480156103ab57600080fd5b506103bf6103ba3660046153b6565b610c73565b6040519015158152602001610396565b3480156103db57600080fd5b506103ef6103ea3660046153e2565b610c8d565b005b3480156103fd57600080fd5b506103ef61040c3660046153e2565b610cf9565b34801561041d57600080fd5b506103ef61042c3660046153ff565b610d60565b34801561043d57600080fd5b50610446610fd0565b604051908152602001610396565b34801561046057600080fd5b506104466102fe5481565b34801561047757600080fd5b506103bf6104863660046153b6565b610ffb565b34801561049757600080fd5b506103bf6104a6366004615470565b61102c565b3480156104b757600080fd5b506103ef611052565b3480156104cc57600080fd5b506103bf6104db3660046153b6565b6113db565b3480156104ec57600080fd5b506104f561140c565b60405160ff9091168152602001610396565b34801561051357600080fd5b506103ef6105223660046153e2565b611416565b34801561053357600080fd5b506102f954610548906001600160a01b031681565b60405161039691906154b1565b34801561056157600080fd5b506103bf6105703660046153b6565b6114de565b34801561058157600080fd5b506105486105903660046153b6565b611500565b3480156105a157600080fd5b506103ef6105b03660046154c5565b611539565b3480156105c157600080fd5b506103ef6105d03660046154c5565b611724565b6103ef6105e33660046155b1565b61188f565b3480156105f457600080fd5b50610446611948565b34801561060957600080fd5b506104466102fd5481565b34801561062057600080fd5b5061063461062f3660046154c5565b6119f6565b604080516001600160a01b0390931683526001600160601b03909116602083015201610396565b34801561066757600080fd5b506103bf611a32565b34801561067c57600080fd5b506103ef61068b3660046153e2565b611a3c565b34801561069c57600080fd5b506103ef6106ab3660046154c5565b611b93565b3480156106bc57600080fd5b506103ef6106cb366004615624565b611ba1565b3480156106dc57600080fd5b50610548611c52565b3480156106f157600080fd5b506104466107003660046153e2565b611c62565b34801561071157600080fd5b506103ef611c80565b34801561072657600080fd5b506104466102fc5481565b34801561073d57600080fd5b506104466103005481565b34801561075457600080fd5b506103ef6107633660046154c5565b611cb6565b34801561077457600080fd5b50610193546001600160a01b0316610548565b34801561079357600080fd5b506103ef6107a23660046154c5565b612037565b3480156107b357600080fd5b506103ef6107c23660046153b6565b61219a565b3480156107d357600080fd5b506105486107e23660046153e2565b610291602052600090815260409020546001600160a01b031681565b34801561080a57600080fd5b506105486121fa565b34801561081f57600080fd5b506103ef61082e366004615641565b612269565b34801561083f57600080fd5b506103896124a0565b34801561085457600080fd5b506104466108633660046153e2565b6124af565b34801561087457600080fd5b506103ef6108833660046153e2565b6124cd565b6103ef6108963660046154c5565b612528565b3480156108a757600080fd5b506103bf6108b63660046153b6565b612882565b3480156108c757600080fd5b506103ef6108d63660046153e2565b612908565b3480156108e757600080fd5b506103ef6108f6366004615641565b612933565b34801561090757600080fd5b506103bf6109163660046153b6565b612c69565b34801561092757600080fd5b506103ef612c77565b34801561093c57600080fd5b506102fb54610548906001600160a01b031681565b34801561095d57600080fd5b5061097161096c3660046153b6565b612d4c565b60408051928352602083019190915201610396565b34801561099257600080fd5b506106346109a13660046154c5565b612e69565b3480156109b257600080fd5b506109bb612e7a565b60405161ffff9091168152602001610396565b3480156109da57600080fd5b5061028e546001600160a01b0316610548565b3480156109f957600080fd5b506102fa54610548906001600160a01b031681565b348015610a1a57600080fd5b506102fb54610a3390600160a01b900463ffffffff1681565b60405163ffffffff9091168152602001610396565b348015610a5457600080fd5b50610446610a633660046153e2565b612ef2565b348015610a7457600080fd5b506104466103035481565b348015610a8b57600080fd5b506103ef612eff565b348015610aa057600080fd5b50610446612fb5565b348015610ab557600080fd5b50610446610ac4366004615641565b61303c565b348015610ad557600080fd5b506103ef610ae436600461568c565b613067565b348015610af557600080fd5b50610548610b043660046154c5565b6130d4565b348015610b1557600080fd5b506102fb54610a3390600160c01b900463ffffffff1681565b348015610b3a57600080fd5b506104466130ff565b348015610b4f57600080fd5b506103ef610b5e3660046156a9565b61310a565b348015610b6f57600080fd5b50610160546001600160a01b0316610548565b348015610b8e57600080fd5b506103ef610b9d3660046153e2565b61324f565b348015610bae57600080fd5b5061012d546001600160a01b0316610548565b348015610bcd57600080fd5b506103ef610bdc36600461568c565b613284565b6060609a8054610bf0906156d9565b80601f0160208091040260200160405190810160405280929190818152602001828054610c1c906156d9565b8015610c695780601f10610c3e57610100808354040283529160200191610c69565b820191906000526020600020905b815481529060010190602001808311610c4c57829003601f168201915b5050505050905090565b600033610c818185856132f1565b60019150505b92915050565b610c95613415565b6001600160a01b038116610cd65760405162461bcd60e51b81526020600482015260036024820152624c363360e81b60448201526064015b60405180910390fd5b6102fa80546001600160a01b0319166001600160a01b0392909216919091179055565b610d01613415565b6001600160a01b038116610d3d5760405162461bcd60e51b8152602060048201526003602482015262130d8d60ea1b6044820152606401610ccd565b6102fb80546001600160a01b0319166001600160a01b0392909216919091179055565b600054610100900460ff1615808015610d805750600054600160ff909116105b80610d9a5750303b158015610d9a575060005460ff166001145b610dfd5760405162461bcd60e51b815260206004820152602e60248201527f496e697469616c697a61626c653a20636f6e747261637420697320616c72656160448201526d191e481a5b9a5d1a585b1a5e995960921b6064820152608401610ccd565b6000805460ff191660011790558015610e20576000805461ff0019166101001790555b6000826001600160a01b03166395d89b416040518163ffffffff1660e01b8152600401600060405180830381865afa158015610e60573d6000803e3d6000fd5b505050506040513d6000823e601f3d908101601f19168201604052610e88919081019061570d565b9050610ed587878784604051602001610ea19190615783565b60405160208183030381529060405285604051602001610ec191906157b3565b604051602081830303815290604052613476565b610ede836134ba565b610ee7306134ea565b6102f980546001600160a01b0319166001600160a01b0386161790556102fb805467ffffffffffffffff60a01b19166509c40000004b60a21b179055610f2b6121fa565b6102fa80546001600160a01b0319166001600160a01b0392909216919091179055610f546121fa565b6102fb80546001600160a01b0319166001600160a01b0392909216919091179055506602aa1efb94e000610303558015610fc8576000805461ff0019169055604051600181527f7f26b83ff96e1f2b6a682f133852f6798a09c465da95921460cefb38474024989060200160405180910390a15b505050505050565b60006102fc546102fd54610fe26130ff565b610fec91906157f2565b610ff691906157f2565b905090565b60405162461bcd60e51b81526020600482015260036024820152624c343560e81b6044820152600090606401610ccd565b60003361103a858285613594565b61104585858561360e565b60019150505b9392505050565b6102fa546001600160a01b0316336001600160a01b03161461109c5760405162461bcd60e51b81526020600482015260036024820152624c333960e81b6044820152606401610ccd565b6110a46137b8565b610300546102ff5460009182915b8082101561137e5761afc85a1061137e5760006102ff83815481106110d9576110d9615805565b6000918252602091829020604080518082019091529101546001600160a01b038116808352600160a01b9091046001600160601b03169282019290925291501561136b57805161112890613800565b156111aa576102ff838154811061114157611141615805565b60009182526020808320909101829055610301805460018101825592528251908301516001600160601b0316600160a01b026001600160a01b0391909116177fe78f8e39db67a8c6e0d54c288efc6f296f5d558bc028138a8476c9b97f6fcaa49091015561136b565b60026111b4612fb5565b6111be919061581b565b81602001516001600160601b0316111561128d57805160208201516102ff5460405160019333938893600080516020615f1d8339815191529361120893929182916003919061585f565b60405180910390a46102ff838154811061122457611224615805565b600091825260208083209091018290556102ff805460018101825592528251908301516001600160601b0316600160a01b026001600160a01b0391909116177f5a4a1f748f8cfa795b59cdc37192794ee567e6029e925719381be08d7ccaf4ec9091015561136b565b6000806112ab836000015184602001516001600160601b0316612d4c565b91509150856102fe546112be91906158b5565b8211156112cd5750505061137e565b6112d781886157f2565b96506112e382876157f2565b95506001835160208501516040516001600160a01b038316928992600080516020615f1d833981519152926113229291908990600290600019906158c8565b60405180910390a46102ff858154811061133e5761133e615805565b600091825260208220015582516113689083611358611c52565b6001600160a01b03169190613873565b50505b8261137581615919565b935050506110b2565b836102fc600082825461139191906157f2565b92505081905550826102fe60008282546113ab91906158b5565b909155506113bb905084846157f2565b6102fd60008282546113cd91906158b5565b909155505050610300555050565b60405162461bcd60e51b8152602060048201526003602482015262261a1b60e91b6044820152600090606401610ccd565b6000610ff66138d6565b6001600160a01b037f000000000000000000000000000000000000000000000000000000000000000016300361145e5760405162461bcd60e51b8152600401610ccd90615932565b7f00000000000000000000000000000000000000000000000000000000000000006001600160a01b031661149061394c565b6001600160a01b0316146114b65760405162461bcd60e51b8152600401610ccd9061597e565b6114bf81613968565b604080516000808252602082019092526114db91839190613970565b50565b600033610c818185856114f1838361303c565b6114fb91906157f2565b6132f1565b610292602052816000526040600020818154811061151d57600080fd5b6000918252602090912001546001600160a01b03169150829050565b6115416137b8565b3361154b81613800565b156115685760405162461bcd60e51b8152600401610ccd906159ca565b61157133611c62565b8211156115a65760405162461bcd60e51b815260206004820152600360248201526209868760eb1b6044820152606401610ccd565b60006102fe54836102fd546115bb91906157f2565b6102f95491101591506000906002906001600160a01b031663c8f74bb8336040518263ffffffff1660e01b81526004016115f591906154b1565b602060405180830381865afa158015611612573d6000803e3d6000fd5b505050506040513d601f19601f8201168201806040525081019061163691906159e6565b1015801561164757506102fe548411155b905081806116525750805b6116845760405162461bcd60e51b81526020600482015260036024820152624c343960e81b6044820152606401610ccd565b6000806116913387612d4c565b91509150806102fc60008282546116a891906157f2565b92505081905550816102fe60008282546116c291906158b5565b9091555060019050336001600160a01b0316600019600080516020615f1d833981519152338a8760026000196040516116ff9594939291906159ff565b60405180910390a46117113382613adb565b61171b3383613c10565b50505050505050565b61172c6137b8565b3361173681613800565b156117535760405162461bcd60e51b8152600401610ccd906159ca565b60006102ff838154811061176957611769615805565b6000918252602091829020604080518082019091529101546001600160a01b038116808352600160a01b9091046001600160601b0316928201929092529150336001600160a01b0316146117e55760405162461bcd60e51b81526020600482015260036024820152624c353760e81b6044820152606401610ccd565b80602001516001600160601b03166102fd600082825461180591906158b5565b90915550506102ff80548490811061181f5761181f615805565b60009182526020822001556001815160208301516040516001600160a01b038316928792600080516020615f1d8339815191529261186792919081906001906000199061585f565b60405180910390a461188a816000015182602001516001600160601b0316613c3d565b505050565b6001600160a01b037f00000000000000000000000000000000000000000000000000000000000000001630036118d75760405162461bcd60e51b8152600401610ccd90615932565b7f00000000000000000000000000000000000000000000000000000000000000006001600160a01b031661190961394c565b6001600160a01b03161461192f5760405162461bcd60e51b8152600401610ccd9061597e565b61193882613968565b61194482826001613970565b5050565b6000306001600160a01b037f000000000000000000000000000000000000000000000000000000000000000016146119e35760405162461bcd60e51b815260206004820152603860248201527f555550535570677261646561626c653a206d757374206e6f742062652063616c6044820152771b1959081d1a1c9bdd59da0819195b1959d85d1958d85b1b60421b6064820152608401610ccd565b50600080516020615efd83398151915290565b6103018181548110611a0757600080fd5b6000918252602090912001546001600160a01b0381169150600160a01b90046001600160601b031682565b6000610ff6613d00565b611a44613415565b610302546000199060005b81811015611aa957836001600160a01b03166103028281548110611a7557611a75615805565b6000918252602090912001546001600160a01b031603611a9757809250611aa9565b80611aa181615919565b915050611a4f565b506000198213611ae15760405162461bcd60e51b8152602060048201526003602482015262261a1960e91b6044820152606401610ccd565b610302611aef6001836158b5565b81548110611aff57611aff615805565b60009182526020909120015461030280546001600160a01b039092169184908110611b2c57611b2c615805565b9060005260206000200160006101000a8154816001600160a01b0302191690836001600160a01b03160217905550610302805480611b6c57611b6c615a26565b600082815260209020810160001990810180546001600160a01b0319169055019055505050565b611b9b613415565b61030355565b611ba9613415565b60405163433e3bad60e11b8152610290600482015261ffff8216602482015273__$3728f51d90da6977d2525dcec632daa0b3$__9063867c775a9060440160006040518083038186803b158015611bff57600080fd5b505af4158015611c13573d6000803e3d6000fd5b505060405161ffff841681527f3d6d63f501ae621a01c729938fb4428a25138835257943d6b56c49b402ba36329250602001905060405180910390a150565b6102c6546001600160a01b031690565b6000611c6d82612ef2565b611c76836124af565b610c8791906157f2565b611c88613415565b60405162461bcd60e51b81526020600482015260036024820152624c363560e81b6044820152606401610ccd565b6102fb546001600160a01b0316336001600160a01b031614611cea5760405162461bcd60e51b8152600401610ccd90615a3c565b611cf26137b8565b60006102ff8281548110611d0857611d08615805565b6000918252602091829020604080518082019091529101546001600160a01b038116808352600160a01b9091046001600160601b0316928201929092529150611d795760405162461bcd60e51b8152602060048201526003602482015262261b1b60e91b6044820152606401610ccd565b8051611d8490613800565b15611db75760405162461bcd60e51b815260206004820152600360248201526204c35360ec1b6044820152606401610ccd565b6002611dc1612fb5565b611dcb919061581b565b81602001516001600160601b031611611e0c5760405162461bcd60e51b81526020600482015260036024820152624c353160e81b6044820152606401610ccd565b600080611e2a836000015184602001516001600160601b0316612d4c565b915091506000611e38611c52565b6102fb546040516370a0823160e01b81526001600160a01b03928316926370a0823192611e6a929116906004016154b1565b602060405180830381865afa158015611e87573d6000803e3d6000fd5b505050506040513d601f19601f82011682018060405250810190611eab91906159e6565b9050806102fe54611ebc91906157f2565b831115611ef15760405162461bcd60e51b8152602060048201526003602482015262261a9960e91b6044820152606401610ccd565b816102fc6000828254611f0491906157f2565b9250508190555083602001516001600160601b03166102fd6000828254611f2b91906158b5565b9091555050610300548503611f51576103008054906000611f4b83615919565b91905055505b6001845160208601516040516001600160a01b038316928992600080516020615f1d83398151915292611f8e9291908a90600290600019906158c8565b60405180910390a46102ff8581548110611faa57611faa615805565b6000918252602082200155808311611fe157611fdc33855185611fcb611c52565b6001600160a01b0316929190613d6f565b612028565b6000611fed82856158b5565b9050806102fe600082825461200291906158b5565b90915550612017905033865184611fcb611c52565b84516120269082611358611c52565b505b612030613d90565b5050505050565b6102fb546001600160a01b0316336001600160a01b03161461206b5760405162461bcd60e51b8152600401610ccd90615a3c565b6120736137b8565b61207b611c52565b6102fb546040516370a0823160e01b81526001600160a01b03928316926370a08231926120ad929116906004016154b1565b602060405180830381865afa1580156120ca573d6000803e3d6000fd5b505050506040513d601f19601f820116820180604052508101906120ee91906159e6565b8111156121235760405162461bcd60e51b81526020600482015260036024820152620986a760eb1b6044820152606401610ccd565b6000816102fe5461213491906157f2565b905061213e612fb5565b8111156121735760405162461bcd60e51b81526020600482015260036024820152624c353960e81b6044820152606401610ccd565b816102fe600082825461218691906157f2565b909155506119449050333084611fcb611c52565b6121a2613415565b6121aa611c52565b6001600160a01b0316826001600160a01b0316036121f05760405162461bcd60e51b81526020600482015260036024820152624c343360e81b6044820152606401610ccd565b6119448282613dee565b61012d5460408051638da5cb5b60e01b815290516000926001600160a01b031691638da5cb5b9160048083019260209291908290030181865afa158015612245573d6000803e3d6000fd5b505050506040513d601f19601f82011682018060405250810190610ff69190615a59565b6122716137b8565b8161227b81613800565b156122985760405162461bcd60e51b8152600401610ccd906159ca565b816122a281613800565b156122bf5760405162461bcd60e51b8152600401610ccd906159ca565b6001600160a01b0384811660009081526102916020526040902054161561230e5760405162461bcd60e51b8152602060048201526003602482015262261b1960e91b6044820152606401610ccd565b6001600160a01b03841661234a5760405162461bcd60e51b815260206004820152600360248201526226189960e91b6044820152606401610ccd565b6001600160a01b0383166123865760405162461bcd60e51b81526020600482015260036024820152624c313360e81b6044820152606401610ccd565b826001600160a01b0316846001600160a01b0316036123cd5760405162461bcd60e51b8152602060048201526003602482015262130c4d60ea1b6044820152606401610ccd565b6123d56121fa565b6001600160a01b0316336001600160a01b031614806123fc5750336001600160a01b038516145b61242e5760405162461bcd60e51b81526020600482015260036024820152624c313560e81b6044820152606401610ccd565b612439846001613ee5565b612444836001613ee5565b50506001600160a01b039182166000818152610291602090815260408083208054969095166001600160a01b03199687168117909555938252610292815292812080546001810182559082529290209091018054909216179055565b6060609b8054610bf0906156d9565b6001600160a01b038116600090815260976020526040812054610c87565b6124d5613415565b61030280546001810182556000919091527f552430c2010355dda19e8bae437f75cfb136cb8d667c4c0867367db21eee69b60180546001600160a01b0319166001600160a01b0392909216919091179055565b6125306137b8565b3361253a81613800565b156125575760405162461bcd60e51b8152600401610ccd906159ca565b61256033611c62565b8211156125955760405162461bcd60e51b81526020600482015260036024820152624c353360e81b6044820152606401610ccd565b6001600160601b038211156125d25760405162461bcd60e51b8152602060048201526003602482015262130d4d60ea1b6044820152606401610ccd565b61030354341461260a5760405162461bcd60e51b81526020600482015260036024820152624c353560e81b6044820152606401610ccd565b6000604051806040016040528061261e3390565b6001600160a01b0390811682526001600160601b0386166020909201919091526102f9549192506000916002911663c8f74bb8336040518263ffffffff1660e01b815260040161266e91906154b1565b602060405180830381865afa15801561268b573d6000803e3d6000fd5b505050506040513d601f19601f820116820180604052508101906126af91906159e6565b101580156126c05750600061030054115b1561272e5761030080549060006126d683615a76565b9190505550610300549050816102ff82815481106126f6576126f6615805565b6000918252602091829020835193909201516001600160601b0316600160a01b026001600160a01b0390931692909217910155612798565b6102ff8054600181810183556000839052845160208601516001600160601b0316600160a01b026001600160a01b03909116177f5a4a1f748f8cfa795b59cdc37192794ee567e6029e925719381be08d7ccaf4ec90920191909155905461279591906158b5565b90505b836102fd60008282546127ab91906157f2565b9091555060019050336001600160a01b031682600080516020615f1d83398151915233888960006000196040516127e69594939291906159ff565b60405180910390a46127f83385613adb565b6102fa546040516000916001600160a01b03169034908381818185875af1925050503d8060008114612846576040519150601f19603f3d011682016040523d82523d6000602084013e61284b565b606091505b50509050806120305760405162461bcd60e51b8152602060048201526003602482015262261a9b60e91b6044820152606401610ccd565b60003381612890828661303c565b9050838110156128f05760405162461bcd60e51b815260206004820152602560248201527f45524332303a2064656372656173656420616c6c6f77616e63652062656c6f77604482015264207a65726f60d81b6064820152608401610ccd565b6128fd82868684036132f1565b506001949350505050565b612910613415565b6102f980546001600160a01b0319166001600160a01b0392909216919091179055565b61293b6137b8565b8161294581613800565b156129625760405162461bcd60e51b8152600401610ccd906159ca565b8161296c81613800565b156129895760405162461bcd60e51b8152600401610ccd906159ca565b6001600160a01b0384166129c55760405162461bcd60e51b815260206004820152600360248201526226189b60e91b6044820152606401610ccd565b6001600160a01b038316612a015760405162461bcd60e51b81526020600482015260036024820152624c313760e81b6044820152606401610ccd565b612a096121fa565b6001600160a01b0316336001600160a01b03161480612a305750336001600160a01b038516145b612a625760405162461bcd60e51b815260206004820152600360248201526209862760eb1b6044820152606401610ccd565b6001600160a01b0384811660009081526102916020526040902054811690841614612ab55760405162461bcd60e51b81526020600482015260036024820152624c313960e81b6044820152606401610ccd565b612ac0846001613ee5565b612acb836001613ee5565b60001960005b6001600160a01b03851660009081526102926020526040902054811015612b56576001600160a01b0385811660009081526102926020526040902080549188169183908110612b2257612b22615805565b6000918252602090912001546001600160a01b031603612b4457809150612b56565b80612b4e81615919565b915050612ad1565b506000811215612b6857612b68615a8d565b6001600160a01b0380861660009081526102916020908152604080832080546001600160a01b031916905592871682526102929052208054612bac906001906158b5565b81548110612bbc57612bbc615805565b60009182526020808320909101546001600160a01b0387811684526102929092526040909220805491909216919083908110612bfa57612bfa615805565b600091825260208083209190910180546001600160a01b0319166001600160a01b03948516179055918616815261029290915260409020805480612c4057612c40615a26565b600082815260209020810160001990810180546001600160a01b03191690550190555050505050565b600033610c8181858561360e565b612c7f613415565b60006102fe54612c8d611c52565b6001600160a01b03166370a08231306040518263ffffffff1660e01b8152600401612cb891906154b1565b602060405180830381865afa158015612cd5573d6000803e3d6000fd5b505050506040513d601f19601f82011682018060405250810190612cf991906159e6565b612d0391906158b5565b905060008111612d3b5760405162461bcd60e51b8152602060048201526003602482015262130d0d60ea1b6044820152606401610ccd565b6114db612d46611c52565b82613dee565b6102f95460405163191ee97760e31b815260009182916002916001600160a01b03169063c8f74bb890612d839088906004016154b1565b602060405180830381865afa158015612da0573d6000803e3d6000fd5b505050506040513d601f19601f82011682018060405250810190612dc491906159e6565b10612dd457508190506000612e62565b6000612df1612dec61028e546001600160a01b031690565b613fba565b90506000612dff8583614027565b6102fb54909150600090612e2090600160a01b900463ffffffff1684614065565b90506000612e2f606485614091565b612e398385615aa3565b612e43919061581b565b9050612e4f81856140bf565b9450612e5b85886158b5565b9550505050505b9250929050565b6102ff8181548110611a0757600080fd5b60405163106d64cf60e31b8152610290600482015260009073__$3728f51d90da6977d2525dcec632daa0b3$__9063836b267890602401602060405180830381865af4158015612ece573d6000803e3d6000fd5b505050506040513d601f19601f82011682018060405250810190610ff69190615aba565b6000610c878260016140f6565b612f07613415565b60006102fc5411612f405760405162461bcd60e51b815260206004820152600360248201526204c36360ec1b6044820152606401610ccd565b6102fc546102fe541015612f7c5760405162461bcd60e51b81526020600482015260036024820152624c363160e81b6044820152606401610ccd565b6102fc546102fe6000828254612f9291906158b5565b90915550506102fc805460009091556114db612fac6121fa565b82611358611c52565b600080612fce612dec61028e546001600160a01b031690565b90506000612fe3612fdd610fd0565b83614027565b6102fb5490915060009061300490600160c01b900463ffffffff1684614065565b90506000613013606485614091565b61301d8385615aa3565b613027919061581b565b905061303381856140bf565b94505050505090565b6001600160a01b03918216600090815260986020908152604080832093909416825291909152205490565b61306f613415565b614e2063ffffffff821611156130ad5760405162461bcd60e51b815260206004820152600360248201526209870760eb1b6044820152606401610ccd565b6102fb805463ffffffff909216600160a01b0263ffffffff60a01b19909216919091179055565b61030281815481106130e557600080fd5b6000918252602090912001546001600160a01b0316905081565b6000610ff660995490565b6131126137b8565b3361311c81613800565b156131395760405162461bcd60e51b8152600401610ccd906159ca565b82613142611c52565b6001600160a01b03166370a08231336040518263ffffffff1660e01b815260040161316d91906154b1565b602060405180830381865afa15801561318a573d6000803e3d6000fd5b505050506040513d601f19601f820116820180604052508101906131ae91906159e6565b10156131e25760405162461bcd60e51b81526020600482015260036024820152624c343760e81b6044820152606401610ccd565b826102fe60008282546131f591906157f2565b9091555060009050336001600160a01b0316600019600080516020615f1d83398151915233878860026000198a60405161323496959493929190615ad7565b60405180910390a4613246338461465c565b5061188a613d90565b613257613415565b60405162461bcd60e51b8152602060048201526002602482015261098760f31b6044820152606401610ccd565b61328c613415565b61271063ffffffff821611156132ca5760405162461bcd60e51b81526020600482015260036024820152624c343160e81b6044820152606401610ccd565b6102fb805463ffffffff909216600160c01b0263ffffffff60c01b19909216919091179055565b6001600160a01b0383166133535760405162461bcd60e51b8152602060048201526024808201527f45524332303a20617070726f76652066726f6d20746865207a65726f206164646044820152637265737360e01b6064820152608401610ccd565b6001600160a01b0382166133b45760405162461bcd60e51b815260206004820152602260248201527f45524332303a20617070726f766520746f20746865207a65726f206164647265604482015261737360f01b6064820152608401610ccd565b6001600160a01b0383811660008181526098602090815260408083209487168084529482529182902085905590518481527f8c5be1e5ebec7d5bd14f71427d1e84f3dd0314c0f7b2291e5b200ac8c7c3b925910160405180910390a3505050565b3361341e6121fa565b6001600160a01b0316146134745760405162461bcd60e51b815260206004820181905260248201527f4f776e61626c653a2063616c6c6572206973206e6f7420746865206f776e65726044820152606401610ccd565b565b600054610100900460ff1661349d5760405162461bcd60e51b8152600401610ccd90615b26565b6134a88585856146dd565b6134b28282614737565b612030614768565b600054610100900460ff166134e15760405162461bcd60e51b8152600401610ccd90615b26565b6114db8161478f565b600054610100900460ff166135115760405162461bcd60e51b8152600401610ccd90615b26565b61028e80546001600160a01b0319166001600160a01b03831617905560405163433e3bad60e11b815261029060048201526000602482015273__$3728f51d90da6977d2525dcec632daa0b3$__9063867c775a9060440160006040518083038186803b15801561358057600080fd5b505af4158015612030573d6000803e3d6000fd5b60006135a0848461303c565b9050600019811461360857818110156135fb5760405162461bcd60e51b815260206004820152601d60248201527f45524332303a20696e73756666696369656e7420616c6c6f77616e63650000006044820152606401610ccd565b61360884848484036132f1565b50505050565b6001600160a01b0383166136725760405162461bcd60e51b815260206004820152602560248201527f45524332303a207472616e736665722066726f6d20746865207a65726f206164604482015264647265737360d81b6064820152608401610ccd565b6001600160a01b0382166136d45760405162461bcd60e51b815260206004820152602360248201527f45524332303a207472616e7366657220746f20746865207a65726f206164647260448201526265737360e81b6064820152608401610ccd565b6136df838383614831565b6001600160a01b038316600090815260976020526040902054818110156137575760405162461bcd60e51b815260206004820152602660248201527f45524332303a207472616e7366657220616d6f756e7420657863656564732062604482015265616c616e636560d01b6064820152608401610ccd565b6001600160a01b038085166000818152609760205260408082208686039055928616808252908390208054860190559151600080516020615f64833981519152906137a59086815260200190565b60405180910390a3613608848484614870565b6137c0611a32565b156134745760405162461bcd60e51b815260206004820152601060248201526f14185d5cd8589b194e881c185d5cd95960821b6044820152606401610ccd565b6101935460405163fe575a8760e01b81526000916001600160a01b03169063fe575a87906138329085906004016154b1565b602060405180830381865afa15801561384f573d6000803e3d6000fd5b505050506040513d601f19601f82011682018060405250810190610c879190615b71565b6040516001600160a01b03831660248201526044810182905261188a90849063a9059cbb60e01b906064015b60408051601f198184030181529190526020810180516001600160e01b03166001600160e01b031990931692909217909152614971565b6102c6546040805163313ce56760e01b815290516000926001600160a01b03169163313ce5679160048083019260209291908290030181865afa92505050801561393d575060408051601f3d908101601f1916820190925261393a91810190615b93565b60015b6139475750601290565b919050565b600080516020615efd833981519152546001600160a01b031690565b6114db613415565b7f4910fdfa16fed3260ed0e7147f7cc6da11a60208b5b9406d12a635614ffd91435460ff16156139a35761188a83614a46565b826001600160a01b03166352d1902d6040518163ffffffff1660e01b8152600401602060405180830381865afa9250505080156139fd575060408051601f3d908101601f191682019092526139fa918101906159e6565b60015b613a605760405162461bcd60e51b815260206004820152602e60248201527f45524331393637557067726164653a206e657720696d706c656d656e7461746960448201526d6f6e206973206e6f74205555505360901b6064820152608401610ccd565b600080516020615efd8339815191528114613acf5760405162461bcd60e51b815260206004820152602960248201527f45524331393637557067726164653a20756e737570706f727465642070726f786044820152681a58589b195555525160ba1b6064820152608401610ccd565b5061188a838383614ae2565b6001600160a01b038216613b3b5760405162461bcd60e51b815260206004820152602160248201527f45524332303a206275726e2066726f6d20746865207a65726f206164647265736044820152607360f81b6064820152608401610ccd565b613b4782600083614831565b6001600160a01b03821660009081526097602052604090205481811015613bbb5760405162461bcd60e51b815260206004820152602260248201527f45524332303a206275726e20616d6f756e7420657863656564732062616c616e604482015261636560f01b6064820152608401610ccd565b6001600160a01b0383166000818152609760209081526040808320868603905560998054879003905551858152919291600080516020615f64833981519152910160405180910390a361188a83600084614870565b6000613c1c3383613adb565b6102c654613c34906001600160a01b03168484613873565b50600192915050565b6001600160a01b038216613c935760405162461bcd60e51b815260206004820152601f60248201527f45524332303a206d696e7420746f20746865207a65726f2061646472657373006044820152606401610ccd565b613c9f60008383614831565b8060996000828254613cb191906157f2565b90915550506001600160a01b038216600081815260976020908152604080832080548601905551848152600080516020615f64833981519152910160405180910390a361194460008383614870565b6101605460408051635c975abb60e01b815290516000926001600160a01b031691635c975abb9160048083019260209291908290030181865afa158015613d4b573d6000803e3d6000fd5b505050506040513d601f19601f82011682018060405250810190610ff69190615b71565b613608846323b872dd60e01b85858560405160240161389f93929190615bb6565b6000613d9a612fb5565b9050806102fe5411613da95750565b6000816102fe54613dba91906158b5565b9050806102fe6000828254613dcf91906158b5565b90915550506102fb54611944906001600160a01b031682611358611c52565b613df6613415565b60008111613e2c5760405162461bcd60e51b815260206004820152600360248201526204c31360ec1b6044820152606401610ccd565b6040516370a0823160e01b8152829082906001600160a01b038316906370a0823190613e5c9030906004016154b1565b602060405180830381865afa158015613e79573d6000803e3d6000fd5b505050506040513d601f19601f82011682018060405250810190613e9d91906159e6565b1015613ed15760405162461bcd60e51b81526020600482015260036024820152624c313160e81b6044820152606401610ccd565b61188a6001600160a01b0382163384613873565b6102935460ff1615613ef5575050565b6001600160a01b038216600090815261028f602052604090205464ffffffffff428116911603613f23575050565b6001600160a01b0380831660009081526102916020526040902054168015613f4f5761188a8183613ee5565b6000613f5b84846140f6565b90508015613fb157610293805460ff191660011790556000613f7d8583614b07565b610293805460ff19169055905080613faf576001600160a01b038516600090815261028f602052604090206003018290555b505b61360884614b5e565b6000816001600160a01b031663313ce5676040518163ffffffff1660e01b8152600401602060405180830381865afa158015613ffa573d6000803e3d6000fd5b505050506040513d601f19601f8201168201806040525081019061401e9190615b93565b60ff1692915050565b600060038210156140595761403d8260066158b5565b61404890600a615cbe565b6140529084615aa3565b9050610c87565b61104b836103e8615aa3565b6000600382101561407c57614052836103e8615aa3565b61408782600a615cbe565b61104b9084615aa3565b600060038210156140a95761405283620f4240615aa3565b6140b48260036157f2565b61408790600a615cbe565b600060038210156140ea576140d58260066158b5565b6140e090600a615cbe565b614052908461581b565b61104b6103e88461581b565b6001600160a01b038216600090815261028f602090815260408083208151608081018352815464ffffffffff16818401908152835180850190945260018301548452600283015463ffffffff1684860152606082019390935291825260030154918101919091528161416785614cc0565b82515190915064ffffffffff16158061417e575080155b1561418e57600092505050610c87565b815160200151604051630b27cfb160e31b815260009073__$3728f51d90da6977d2525dcec632daa0b3$__9063593e7d88906141d290610290908690600401615cca565b6040805180830381865af41580156141ee573d6000803e3d6000fd5b505050506040513d601f19601f820116820180604052508101906142129190615cee565b60405163038255fd60e11b8152610290600482015290915060009073__$3728f51d90da6977d2525dcec632daa0b3$__90630704abfa906024016040805180830381865af4158015614268573d6000803e3d6000fd5b505050506040513d601f19601f8201168201806040525081019061428c9190615d39565b90508460200151955073__$3728f51d90da6977d2525dcec632daa0b3$__634ead0c5384836040518363ffffffff1660e01b81526004016142ce929190615d65565b602060405180830381865af41580156142eb573d6000803e3d6000fd5b505050506040513d601f19601f8201168201806040525081019061430f9190615b71565b61462057604051633e1e5c5360e11b815260009073__$3728f51d90da6977d2525dcec632daa0b3$__90637c3cb8a69061434d908790600401615d99565b6040805180830381865af4158015614369573d6000803e3d6000fd5b505050506040513d601f19601f8201168201806040525081019061438d9190615d39565b604051630b27cfb160e31b815290915060009073__$3728f51d90da6977d2525dcec632daa0b3$__9063593e7d88906143ce90610290908690600401615cca565b6040805180830381865af41580156143ea573d6000803e3d6000fd5b505050506040513d601f19601f8201168201806040525081019061440e9190615cee565b8751516020820151865192935061443c928c61442b57600061442d565b8b5b614437908b6157f2565b614d69565b61444690896157f2565b97505b81945080935073__$3728f51d90da6977d2525dcec632daa0b3$__634ead0c5386856040518363ffffffff1660e01b8152600401614488929190615d65565b602060405180830381865af41580156144a5573d6000803e3d6000fd5b505050506040513d601f19601f820116820180604052508101906144c99190615b71565b6145f357604051633e1e5c5360e11b815273__$3728f51d90da6977d2525dcec632daa0b3$__90637c3cb8a690614504908890600401615d99565b6040805180830381865af4158015614520573d6000803e3d6000fd5b505050506040513d601f19601f820116820180604052508101906145449190615d39565b604051630b27cfb160e31b815290925073__$3728f51d90da6977d2525dcec632daa0b3$__9063593e7d889061458290610290908690600401615cca565b6040805180830381865af415801561459e573d6000803e3d6000fd5b505050506040513d601f19601f820116820180604052508101906145c29190615cee565b90506145e28460200151826020015186600001518c61442b57600061442d565b6145ec90896157f2565b9750614449565b61460d84602001514286600001518c61442b57600061442d565b61461790896157f2565b97505050614651565b8451518251614644919042908a61463857600061463a565b895b61443790896157f2565b61464e90876157f2565b95505b505050505092915050565b6000333081036146ba5760405162461bcd60e51b815260206004820152602360248201527f4552433230577261707065723a20777261707065722063616e2774206465706f6044820152621cda5d60ea1b6064820152608401610ccd565b6102c6546146d3906001600160a01b0316823086613d6f565b610c818484613c3d565b600054610100900460ff166147045760405162461bcd60e51b8152600401610ccd90615b26565b61470c614768565b61471583614e55565b61471d614e85565b61472682614eb4565b61472f81614efe565b61188a614768565b600054610100900460ff1661475e5760405162461bcd60e51b8152600401610ccd90615b26565b6119448282614f48565b600054610100900460ff166134745760405162461bcd60e51b8152600401610ccd90615b26565b600054610100900460ff166147b65760405162461bcd60e51b8152600401610ccd90615b26565b306001600160a01b0382160361480e5760405162461bcd60e51b815260206004820152601e60248201527f4552433230577261707065723a2063616e6e6f742073656c66207772617000006044820152606401610ccd565b6102c680546001600160a01b0319166001600160a01b0392909216919091179055565b61483c838383614f88565b6001600160a01b0383161561485657614856836001613ee5565b6001600160a01b0382161561188a5761188a826001613ee5565b6001600160a01b038316158061488d57506001600160a01b038216155b156148cd577f980f7e6fb44009001d533a10bc3bd558b4efe22dcb4888bca4767aa93c71ce1f6148bb610fd0565b60405190815260200160405180910390a15b60005b610302548110156136085761030281815481106148ef576148ef615805565b600091825260209091200154604051636e0d037d60e11b81526001600160a01b039091169063dc1a06fa9061492c90879087908790600401615bb6565b600060405180830381600087803b15801561494657600080fd5b505af115801561495a573d6000803e3d6000fd5b50505050808061496990615919565b9150506148d0565b60006149c6826040518060400160405280602081526020017f5361666545524332303a206c6f772d6c6576656c2063616c6c206661696c6564815250856001600160a01b0316614fe99092919063ffffffff16565b90508051600014806149e75750808060200190518101906149e79190615b71565b61188a5760405162461bcd60e51b815260206004820152602a60248201527f5361666545524332303a204552433230206f7065726174696f6e20646964206e6044820152691bdd081cdd58d8d9595960b21b6064820152608401610ccd565b6001600160a01b0381163b614ab35760405162461bcd60e51b815260206004820152602d60248201527f455243313936373a206e657720696d706c656d656e746174696f6e206973206e60448201526c1bdd08184818dbdb9d1c9858dd609a1b6064820152608401610ccd565b600080516020615efd83398151915280546001600160a01b0319166001600160a01b0392909216919091179055565b614aeb83614ff8565b600082511180614af85750805b1561188a576136088383615038565b6000826001600160a01b03167f05a71d417f891ba4b7a94b48d1b1f4b59b070921cba593b3c72a05a5587a78a9614b3d856124af565b60408051918252602082018690520160405180910390a2613c348383613c3d565b6001600160a01b038116600090815261028f602052604090819020805464ffffffffff19164264ffffffffff161790555163038255fd60e11b8152610290600482015273__$3728f51d90da6977d2525dcec632daa0b3$__90630704abfa906024016040805180830381865af4158015614bdc573d6000803e3d6000fd5b505050506040513d601f19601f82011682018060405250810190614c009190615d39565b6001600160a01b038216600090815261028f602090815260408220835160018201559201516002909201805463ffffffff191663ffffffff909316929092179091555b6001600160a01b03821660009081526102926020526040902054811015611944576001600160a01b0382166000908152610292602052604090208054614cae919083908110614c9457614c94615805565b6000918252602090912001546001600160a01b0316614b5e565b80614cb881615919565b915050614c43565b6000614ccb8261505d565b614cd590826157f2565b905060005b6001600160a01b03831660009081526102926020526040902054811015614d63576001600160a01b0383166000908152610292602052604090208054614d45919083908110614d2b57614d2b615805565b6000918252602090912001546001600160a01b0316614cc0565b614d4f90836157f2565b915080614d5b81615919565b915050614cda565b50919050565b600080614d82612dec61028e546001600160a01b031690565b90506000614da0614d938888615db6565b64ffffffffff1683614091565b90506000614db26301e1338084614091565b614dbd600185614091565b614dc79084615aa3565b614dd1919061581b565b90506000614de38761ffff1685614065565b90506000614df2600186614091565b614dfc8385615aa3565b614e06919061581b565b90506000614e148887614027565b90506000614e23606488614091565b614e2d8484615aa3565b614e37919061581b565b9050614e4381886140bf565b9750505050505050505b949350505050565b600054610100900460ff16614e7c5760405162461bcd60e51b8152600401610ccd90615b26565b6114db81615068565b600054610100900460ff16614eac5760405162461bcd60e51b8152600401610ccd90615b26565b6134746150b2565b600054610100900460ff16614edb5760405162461bcd60e51b8152600401610ccd90615b26565b61016080546001600160a01b0319166001600160a01b0392909216919091179055565b600054610100900460ff16614f255760405162461bcd60e51b8152600401610ccd90615b26565b61019380546001600160a01b0319166001600160a01b0392909216919091179055565b600054610100900460ff16614f6f5760405162461bcd60e51b8152600401610ccd90615b26565b609a614f7b8382615e21565b50609b61188a8282615e21565b614f906137b8565b82614f9a81613800565b15614fb75760405162461bcd60e51b8152600401610ccd906159ca565b82614fc181613800565b15614fde5760405162461bcd60e51b8152600401610ccd906159ca565b6120308585856150e5565b6060614e4d848460008561514d565b61500181614a46565b6040516001600160a01b038216907fbc7cd75a20ee27fd9adebab32041f755214dbc6bffa90cc0225b39da2e5c2d3b90600090a250565b606061104b8383604051806060016040528060278152602001615f3d60279139615228565b6000610c87826124af565b600054610100900460ff1661508f5760405162461bcd60e51b8152600401610ccd90615b26565b61012d80546001600160a01b0319166001600160a01b0392909216919091179055565b600054610100900460ff166150d95760405162461bcd60e51b8152600401610ccd90615b26565b60c9805460ff19169055565b6150ed611a32565b1561188a5760405162461bcd60e51b815260206004820152602a60248201527f45524332305061757361626c653a20746f6b656e207472616e736665722077686044820152691a5b19481c185d5cd95960b21b6064820152608401610ccd565b6060824710156151ae5760405162461bcd60e51b815260206004820152602660248201527f416464726573733a20696e73756666696369656e742062616c616e636520666f6044820152651c8818d85b1b60d21b6064820152608401610ccd565b600080866001600160a01b031685876040516151ca9190615ee0565b60006040518083038185875af1925050503d8060008114615207576040519150601f19603f3d011682016040523d82523d6000602084013e61520c565b606091505b509150915061521d878383876152a0565b979650505050505050565b6060600080856001600160a01b0316856040516152459190615ee0565b600060405180830381855af49150503d8060008114615280576040519150601f19603f3d011682016040523d82523d6000602084013e615285565b606091505b5091509150615296868383876152a0565b9695505050505050565b6060831561530f578251600003615308576001600160a01b0385163b6153085760405162461bcd60e51b815260206004820152601d60248201527f416464726573733a2063616c6c20746f206e6f6e2d636f6e74726163740000006044820152606401610ccd565b5081614e4d565b614e4d83838151156153245781518083602001fd5b8060405162461bcd60e51b8152600401610ccd919061538e565b60005b83811015615359578181015183820152602001615341565b50506000910152565b6000815180845261537a81602086016020860161533e565b601f01601f19169290920160200192915050565b60208152600061104b6020830184615362565b6001600160a01b03811681146114db57600080fd5b600080604083850312156153c957600080fd5b82356153d4816153a1565b946020939093013593505050565b6000602082840312156153f457600080fd5b813561104b816153a1565b600080600080600060a0868803121561541757600080fd5b8535615422816153a1565b94506020860135615432816153a1565b93506040860135615442816153a1565b92506060860135615452816153a1565b91506080860135615462816153a1565b809150509295509295909350565b60008060006060848603121561548557600080fd5b8335615490816153a1565b925060208401356154a0816153a1565b929592945050506040919091013590565b6001600160a01b0391909116815260200190565b6000602082840312156154d757600080fd5b5035919050565b634e487b7160e01b600052604160045260246000fd5b604080519081016001600160401b0381118282101715615516576155166154de565b60405290565b604051601f8201601f191681016001600160401b0381118282101715615544576155446154de565b604052919050565b60006001600160401b03821115615565576155656154de565b50601f01601f191660200190565b60006155866155818461554c565b61551c565b905082815283838301111561559a57600080fd5b828260208301376000602084830101529392505050565b600080604083850312156155c457600080fd5b82356155cf816153a1565b915060208301356001600160401b038111156155ea57600080fd5b8301601f810185136155fb57600080fd5b61560a85823560208401615573565b9150509250929050565b61ffff811681146114db57600080fd5b60006020828403121561563657600080fd5b813561104b81615614565b6000806040838503121561565457600080fd5b823561565f816153a1565b9150602083013561566f816153a1565b809150509250929050565b63ffffffff811681146114db57600080fd5b60006020828403121561569e57600080fd5b813561104b8161567a565b600080604083850312156156bc57600080fd5b8235915060208301356001600160401b038111156155ea57600080fd5b600181811c908216806156ed57607f821691505b602082108103614d6357634e487b7160e01b600052602260045260246000fd5b60006020828403121561571f57600080fd5b81516001600160401b0381111561573557600080fd5b8201601f8101841361574657600080fd5b80516157546155818261554c565b81815285602083850101111561576957600080fd5b61577a82602083016020860161533e565b95945050505050565b6702632b233b4ba3c960c51b8152600082516157a681600885016020870161533e565b9190910160080192915050565b601360fa1b8152600082516157cf81600185016020870161533e565b9190910160010192915050565b634e487b7160e01b600052601160045260246000fd5b80820180821115610c8757610c876157dc565b634e487b7160e01b600052603260045260246000fd5b60008261583857634e487b7160e01b600052601260045260246000fd5b500490565b6004811061585b57634e487b7160e01b600052602160045260246000fd5b9052565b6001600160a01b03861681526001600160601b038581166020830152841660408201526000615891606083018561583d565b82608083015260c060a0830152600060c083015260e0820190509695505050505050565b81810381811115610c8757610c876157dc565b6001600160a01b03861681526001600160601b0385166020820152604081018490526158f7606082018461583d565b608081019190915260c060a0820181905260009082015260e001949350505050565b60006001820161592b5761592b6157dc565b5060010190565b6020808252602c908201527f46756e6374696f6e206d7573742062652063616c6c6564207468726f7567682060408201526b19195b1959d85d1958d85b1b60a21b606082015260800190565b6020808252602c908201527f46756e6374696f6e206d7573742062652063616c6c6564207468726f7567682060408201526b6163746976652070726f787960a01b606082015260800190565b6020808252600290820152614c3960f01b604082015260600190565b6000602082840312156159f857600080fd5b5051919050565b6001600160a01b038616815260208101859052604081018490526158f7606082018461583d565b634e487b7160e01b600052603160045260246000fd5b60208082526003908201526204c34360ec1b604082015260600190565b600060208284031215615a6b57600080fd5b815161104b816153a1565b600081615a8557615a856157dc565b506000190190565b634e487b7160e01b600052600160045260246000fd5b8082028115828204841417610c8757610c876157dc565b600060208284031215615acc57600080fd5b815161104b81615614565b6001600160a01b03871681526020810186905260408101859052615afe606082018561583d565b82608082015260c060a08201526000615b1a60c0830184615362565b98975050505050505050565b6020808252602b908201527f496e697469616c697a61626c653a20636f6e7472616374206973206e6f74206960408201526a6e697469616c697a696e6760a81b606082015260800190565b600060208284031215615b8357600080fd5b8151801515811461104b57600080fd5b600060208284031215615ba557600080fd5b815160ff8116811461104b57600080fd5b6001600160a01b039384168152919092166020820152604081019190915260600190565b600181815b80851115615c15578160001904821115615bfb57615bfb6157dc565b80851615615c0857918102915b93841c9390800290615bdf565b509250929050565b600082615c2c57506001610c87565b81615c3957506000610c87565b8160018114615c4f5760028114615c5957615c75565b6001915050610c87565b60ff841115615c6a57615c6a6157dc565b50506001821b610c87565b5060208310610133831016604e8410600b8410161715615c98575081810a610c87565b615ca28383615bda565b8060001904821115615cb657615cb66157dc565b029392505050565b600061104b8383615c1d565b8281526060810161104b60208301848051825260209081015163ffffffff16910152565b600060408284031215615d0057600080fd5b615d086154f4565b8251615d1381615614565b8152602083015164ffffffffff81168114615d2d57600080fd5b60208201529392505050565b600060408284031215615d4b57600080fd5b615d536154f4565b825181526020830151615d2d8161567a565b8251815260208084015163ffffffff16908201526080810182516040830152602083015163ffffffff16606083015261104b565b8151815260208083015163ffffffff169082015260408101610c87565b64ffffffffff828116828216039080821115615dd457615dd46157dc565b5092915050565b601f82111561188a57600081815260208120601f850160051c81016020861015615e025750805b601f850160051c820191505b81811015610fc857828155600101615e0e565b81516001600160401b03811115615e3a57615e3a6154de565b615e4e81615e4884546156d9565b84615ddb565b602080601f831160018114615e835760008415615e6b5750858301515b600019600386901b1c1916600185901b178555610fc8565b600085815260208120601f198616915b82811015615eb257888601518255948401946001909101908401615e93565b5085821015615ed05787850151600019600388901b60f8161c191681555b5050505050600190811b01905550565b60008251615ef281846020870161533e565b919091019291505056fe360894a13ba1a3210667c828492db98dca3e2076cc3735a920a3ca505d382bbc3c6c0323f6df7a654334f263f923281de07dde64ae47cbb21b65d09641fb3e30416464726573733a206c6f772d6c6576656c2064656c65676174652063616c6c206661696c6564ddf252ad1be2c89b69c2b068fc378daa952ba7f163c4a11628f55a4df523b3efa26469706673582212201d6f2a76f664f3c7c8cd3cdbaaa434a67fdbb4fa496c071c9a0d895c7b61413c64736f6c63430008120033",
  "libraries": {
    "APRHistory": "0x2152228CF90f7Cc8832d95b13B37fd882787bA69"
  },
  "devdoc": {
    "author": "Lila Rest (https://lila.rest)",
    "custom:oz-upgrades-unsafe-allow": "external-library-linking",
    "custom:security-contact": "security@ledgity.comsecurity@ledgity.com",
    "details": "Definitions: - Deposit: Swap of underlying tokens for L-Tokens (1:1 ratio). - Withdrawal: Swap of L-Tokens for underlying tokens (1:1 ratio, minus applicable fees).   - Instant: Processed immediately.   - Request: Queued for later processing.   - Big Request: A requested withdrawal exceeding half of the retention rate. - (Withdrawal) queue: A list of all requested withdrawals sorted by priority. - Request ID: The index of a withdrawal request in the queue array. - Retention rate: Maximum fraction of underlying tokens TVL the contract can retain. - Fees Rate: Percentage of fees applied to successful withdrawals. - Usable underlyings: Amount of underlying tokens that have been deposited through                       expected ways and are so considered safe to use by the contract. - Transfers listeners: External contracts listening on L-Tokens transfers. - Fund wallet: Wallet managed by the Ledgity's financial team. - Withdrawer wallet: Managed by an off-chain server to automate withdrawal request                      processing. Note that words between parenthesis are sometimes omitted for brevity.Deployment notice: This contract can safely receive funds immediately after initialization. (i.e., there is no way for funds to be sent to non-owned addresses). It is, however, recommended to replace ASAP owner and fund wallets with multi-sig wallets.For further details, see \"LToken\" section of whitepaper.",
    "events": {
      "APRChangeEvent(uint16)": {
        "params": {
          "newAPRUD7x3": "The new APR in UD7x3 format."
        }
      },
      "ActivityEvent(int256,address,uint8,address,uint256,uint256,uint8,int256,string)": {
        "params": {
          "account": "The account involved in the activity.",
          "action": "The type of activity.",
          "amount": "The amount of underlying tokens involved in the activity.",
          "id": "ID of the involved withdrawal request or NO_ID (-1) if not applicable.",
          "newId": "The new ID of the request if it has been moved in the queue.",
          "newStatus": "The new status of the activity.",
          "userAccount": "The user account involved in the activity."
        }
      },
      "AdminChanged(address,address)": {
        "details": "Emitted when the admin account has changed."
      },
      "Approval(address,address,uint256)": {
        "details": "Emitted when the allowance of a `spender` for an `owner` is set by a call to {approve}. `value` is the new allowance."
      },
      "BeaconUpgraded(address)": {
        "details": "Emitted when the beacon is changed."
      },
      "Initialized(uint8)": {
        "details": "Triggered when the contract has been initialized or reinitialized."
      },
      "MintedRewardsEvent(address,uint256,uint256)": {
        "params": {
          "account": "The account that received the rewards.",
          "balanceBefore": "The balance of the account before the minting.",
          "rewards": "The amount of minted rewards."
        }
      },
      "Paused(address)": {
        "details": "Emitted when the pause is triggered by `account`."
      },
      "TVLChangeEvent(uint256)": {
        "details": "TVL = realTotalSupply()",
        "params": {
          "newTVL": "The new TVL of the contract."
        }
      },
      "Transfer(address,address,uint256)": {
        "details": "Emitted when `value` tokens are moved from one account (`from`) to another (`to`). Note that `value` may be zero."
      },
      "Unpaused(address)": {
        "details": "Emitted when the pause is lifted by `account`."
      },
      "Upgraded(address)": {
        "details": "Emitted when the implementation is upgraded."
      }
    },
    "kind": "dev",
    "methods": {
      "allowance(address,address)": {
        "details": "See {IERC20-allowance}."
      },
      "approve(address,uint256)": {
        "details": "See {IERC20-approve}. NOTE: If `amount` is the maximum `uint256`, the allowance is not updated on `transferFrom`. This is semantically equivalent to an infinite approval. Requirements: - `spender` cannot be the zero address."
      },
      "balanceOf(address)": {
        "details": "This is an oOverride of ERC20Upgradeable.balanceOf() that rewards that have not been yet minted to the specified account.",
        "params": {
          "account": "The account to check the total balance of."
        },
        "returns": {
          "_0": "The total balance of the account."
        }
      },
      "cancelWithdrawalRequest(uint256)": {
        "params": {
          "requestId": "The ID of the withdrawal request to cancel."
        }
      },
      "decimals()": {
        "details": "The ERC20WrapperUpgradeable version is preferred because it mirrors the decimals amount of the underlying stablecoin token."
      },
      "decreaseAllowance(address,uint256)": {
        "details": "Atomically decreases the allowance granted to `spender` by the caller. This is an alternative to {approve} that can be used as a mitigation for problems described in {IERC20-approve}. Emits an {Approval} event indicating the updated allowance. Requirements: - `spender` cannot be the zero address. - `spender` must have allowance for the caller of at least `subtractedValue`."
      },
      "deposit(uint256,string)": {
        "params": {
          "amount": "The amount of underlying tokens to deposit.",
          "refCode": "The Referral code"
        }
      },
      "depositFor(address,uint256)": {
        "details": "Allow a user to deposit underlying tokens and mint the corresponding number of wrapped tokens."
      },
      "getAPR()": {
        "returns": {
          "_0": "The current APR in UD7x3 format."
        }
      },
      "getExpectedRetained()": {
        "returns": {
          "amount": "The expected amount of retained underlying tokens."
        }
      },
      "getWithdrawnAmountAndFees(address,uint256)": {
        "params": {
          "account": "The account initiating the withdrawal.",
          "amount": "The amount of the withdrawal."
        }
      },
      "globalBlacklist()": {
        "returns": {
          "_0": "The address of the GlobalBlacklist contract."
        }
      },
      "globalOwner()": {
        "returns": {
          "_0": "The address of the GlobalOwner contract."
        }
      },
      "globalPause()": {
        "returns": {
          "_0": "The address of the GlobalPause contract."
        }
      },
      "increaseAllowance(address,uint256)": {
        "details": "Atomically increases the allowance granted to `spender` by the caller. This is an alternative to {approve} that can be used as a mitigation for problems described in {IERC20-approve}. Emits an {Approval} event indicating the updated allowance. Requirements: - `spender` cannot be the zero address."
      },
      "initialize(address,address,address,address,address)": {
        "details": "See: https://docs.openzeppelin.com/contracts/4.x/upgradeable",
        "params": {
          "globalBlacklist_": "The address of the GlobalBlacklist contract.",
          "globalOwner_": "The address of the GlobalOwner contract.",
          "globalPause_": "The address of the GlobalPause contract.",
          "underlyingToken": "The address of the underlying stablecoin ERC20 token."
        }
      },
      "instantWithdrawal(uint256)": {
        "details": "In order to save some gas and time to users, frontends should propose this function to users only when it has been verified that it will not revert. They should propose the requestWithdrawal() function otherwise.",
        "params": {
          "amount": "The amount L-Tokens to withdraw."
        }
      },
      "invested()": {
        "returns": {
          "_0": "The reference to the invested token contract."
        }
      },
      "listenToTransfers(address)": {
        "details": "Each time a transfer occurs, the onLTokenTransfer() function of the specified contract will be called.IMPORTANT SECURITY NOTE: This method is not intended to be used with contracts that are not owned by the Ledgity team.",
        "params": {
          "listenerContract": "The address of the new transfers listener contract."
        }
      },
      "name()": {
        "details": "Returns the name of the token."
      },
      "owner()": {
        "returns": {
          "_0": "The address of the owner"
        }
      },
      "paused()": {
        "details": "Both version are the same as ERC20BaseUpgradeable.paused() mirrors GlobalPausableUpgradeable.paused(), so a random one is chosen.",
        "returns": {
          "_0": "Whether the contract is paused or not."
        }
      },
      "processBigQueuedRequest(uint256)": {
        "details": "In contrast to non-big requests processing, this function will uses to fund wallet's balance to fill the request. This allows processing requests that are greater than retention rate without having to exceed this rate on the contract.",
        "params": {
          "requestId": "The ID of the big request to process."
        }
      },
      "processQueuedRequests()": {
        "details": "For further details, see \"LToken  > Withdrawals\" section of whitepaper."
      },
      "proxiableUUID()": {
        "details": "Implementation of the ERC1822 {proxiableUUID} function. This returns the storage slot used by the implementation. It is used to validate the implementation's compatibility when performing an upgrade. IMPORTANT: A proxy pointing at a proxiable contract should not be considered proxiable itself, because this risks bricking a proxy that upgrades to it, by delegating to itself until out of gas. Thus it is critical that this function revert if invoked through a proxy. This is guaranteed by the `notDelegated` modifier."
      },
      "realBalanceOf(address)": {
        "params": {
          "account": "The account to check the real balance of."
        },
        "returns": {
          "_0": "The real balance of the account."
        }
      },
      "realTotalSupply()": {
        "returns": {
          "_0": "The real total supply of L-Tokens."
        }
      },
      "recoverERC20(address,uint256)": {
        "details": "This override of RecoverableUpgradeable.recoverERC20() prevents the recovered token from being the underlying token.",
        "params": {
          "amount": "The amount of token to recover.",
          "tokenAddress": "The address of the token to recover."
        }
      },
      "recoverUnderlying()": {
        "details": "To prevent owner from being able to drain the contract, this function only allows recovering \"unusable\" underlying tokens, i.e., tokens that have not been sent through fund() or deposit() functions."
      },
      "repatriate(uint256)": {
        "details": "The function will revert if repatriated amount makes the contract exceeding the retention rate.",
        "params": {
          "amount": "The amount of underlying tokens to repatriate."
        }
      },
      "requestWithdrawal(uint256)": {
        "details": "The sender must attach withdrawalFeeInETH to pre-pay the future processing gas fees paid by the withdrawer wallet.",
        "params": {
          "amount": "The amount L-Tokens to withdraw."
        }
      },
      "setAPR(uint16)": {
        "params": {
          "aprUD7x3": "The new APR in UD7x3 format."
        }
      },
      "setFeesRate(uint32)": {
        "params": {
          "feesRateUD7x3_": "The new withdrawal fee rate in UD7x3 format."
        }
      },
      "setFund(address)": {
        "params": {
          "fund_": "The address of the new fund wallet."
        }
      },
      "setLDYStaking(address)": {
        "params": {
          "ldyStakingAddress": "The address of the new LDYStaking contract."
        }
      },
      "setRetentionRate(uint32)": {
        "details": "The retention rate is capped at 10%, which ensures that no more than 10% of deposited assets will ever be exposed in this contract (reduces attack surface).",
        "params": {
          "retentionRateUD7x3_": "The new retention rate in UD7x3 format."
        }
      },
      "setWithdrawalFeeInEth(uint256)": {
        "params": {
          "withdrawalFeeInEth_": "The new withdrawalFee in ETH."
        }
      },
      "setWithdrawer(address)": {
        "params": {
          "withdrawer_": "The address of the new withdrawer wallet."
        }
      },
      "startRewardsRedirection(address,address)": {
        "params": {
          "from": "The address of the account to redirect rewards from.",
          "to": "The address of the account to redirect rewards to."
        }
      },
      "stopRewardsRedirection(address,address)": {
        "params": {
          "from": "The address of the account to stop redirecting rewards from.",
          "to": "The address of the account to stop redirecting rewards to."
        }
      },
      "symbol()": {
        "details": "Returns the symbol of the token, usually a shorter version of the name."
      },
      "totalSupply()": {
        "returns": {
          "_0": "The total supply of L-Tokens."
        }
      },
      "transfer(address,uint256)": {
        "details": "See {IERC20-transfer}. Requirements: - `to` cannot be the zero address. - the caller must have a balance of at least `amount`."
      },
      "transferFrom(address,address,uint256)": {
        "details": "See {IERC20-transferFrom}. Emits an {Approval} event indicating the updated allowance. This is not required by the EIP. See the note at the beginning of {ERC20}. NOTE: Does not update the allowance if the current allowance is the maximum `uint256`. Requirements: - `from` and `to` cannot be the zero address. - `from` must have a balance of at least `amount`. - the caller must have allowance for ``from``'s tokens of at least `amount`."
      },
      "underlying()": {
        "details": "Returns the address of the underlying ERC-20 token that is being wrapped."
      },
      "unlistenToTransfers(address)": {
        "details": "The onLTokenTransfer() function of the specified contract will not be called anymore each time a L-Token transfer occurs.",
        "params": {
          "listenerContract": "The address of the listener contract."
        }
      },
      "unmintedRewardsOf(address)": {
        "details": "This is a public implementation of InvestUpgradeable_rewardsOf(). In the context of LToken, this function returns the amount of rewards that have not been distributed/minted yet to the specified account.This is particularly useful for off-chain services to display charts and statistics, as seen in the Ledgity Yield's frontend.",
        "params": {
          "account": "The account to check the unminted rewards of."
        },
        "returns": {
          "_0": "The amount of account's unminted rewards."
        }
      },
      "upgradeTo(address)": {
        "custom:oz-upgrades-unsafe-allow-reachable": "delegatecall",
        "details": "Upgrade the implementation of the proxy to `newImplementation`. Calls {_authorizeUpgrade}. Emits an {Upgraded} event."
      },
      "upgradeToAndCall(address,bytes)": {
        "custom:oz-upgrades-unsafe-allow-reachable": "delegatecall",
        "details": "Upgrade the implementation of the proxy to `newImplementation`, and subsequently execute the function call encoded in `data`. Calls {_authorizeUpgrade}. Emits an {Upgraded} event."
      },
      "withdrawTo(address,uint256)": {
        "details": "Allow a user to burn a number of wrapped tokens and withdraw the corresponding number of underlying tokens."
      }
    },
    "stateVariables": {
      "frozenRequests": {
        "details": "If a request emitter as been blacklisted, its request is moved here to prevent it from blocking the queue."
      },
      "transfersListeners": {
        "details": "onLTokenTransfer() functions of those contracts will be called on each transfer."
      },
      "usableUnderlyings": {
        "details": "Are usable, only underlying tokens deposit through deposit() or fund() functions."
      }
    },
    "title": "LToken",
    "version": 1
  },
  "userdoc": {
    "events": {
      "APRChangeEvent(uint16)": {
        "notice": "Emitted to inform listeners about a change in the APR's value."
      },
      "ActivityEvent(int256,address,uint8,address,uint256,uint256,uint8,int256,string)": {
        "notice": "Emitted to inform listerners about an activity related to deposits and withdrawals."
      },
      "MintedRewardsEvent(address,uint256,uint256)": {
        "notice": "Emitted to inform listeners that some rewards have been minted."
      },
      "TVLChangeEvent(uint256)": {
        "notice": "Emitted to inform listeners about a change in the contract's TVL."
      }
    },
    "kind": "user",
    "methods": {
      "balanceOf(address)": {
        "notice": "Retrieves the total balance of L-Tokens that belong to the account."
      },
      "cancelWithdrawalRequest(uint256)": {
        "notice": "Cancels a given withdrawal request. The request emitter receive back its L-Tokens and no fees will be charged."
      },
      "claimFees()": {
        "notice": "Used by owner to claim fees generated from successful withdrawals."
      },
      "decimals()": {
        "notice": "Required override of decimals() which is implemented by both ERC20Upgradeable and ERC20WrapperUpgradeable parent contracts."
      },
      "deposit(uint256,string)": {
        "notice": "Allows exchanging some underlying tokens for the same amount of L-Tokens."
      },
      "depositFor(address,uint256)": {
        "notice": "Override of ERC20WrapperUpgradeable.depositFor() that reverts. Use deposit() function instead."
      },
      "feesRateUD7x3()": {
        "notice": "Holds the withdrawal fees rate in UD7x3 format (e.g., 350 = 0.350%)."
      },
      "frozenRequests(uint256)": {
        "notice": "Holds a list of all currently frozen withdrawal requests."
      },
      "fund()": {
        "notice": "Holds address of fund wallet (managed by Ledgity financial team)."
      },
      "getAPR()": {
        "notice": "Retrieves the most recently set APR."
      },
      "getExpectedRetained()": {
        "notice": "Computes the maximum amount of underlying tokens that should be retained by the contract (based on retention rate)."
      },
      "getWithdrawnAmountAndFees(address,uint256)": {
        "notice": "Computes fees and net withdrawn amount for a given account withdrawing a given amount."
      },
      "globalBlacklist()": {
        "notice": "Retrieves the address of GlobalBlacklist contract."
      },
      "globalOwner()": {
        "notice": "Retrieves the address of GlobalOwner contract."
      },
      "globalPause()": {
        "notice": "Retrieves the address of GlobalPause contract."
      },
      "initialize(address,address,address,address,address)": {
        "notice": "Initializer function of the contract. It replaces the constructor() function in the context of upgradeable contracts."
      },
      "instantWithdrawal(uint256)": {
        "notice": "Allows instaneously exchanging a given amount of L-Tokens for the same amount of underlying tokens. It will fail if the contract currently doesn't hold enough underlying tokens to cover the withdrawal."
      },
      "invested()": {
        "notice": "Retrieves the reference to the invested token contract."
      },
      "ldyStaking()": {
        "notice": "Holds a reference to the LDYStaking contract."
      },
      "listenToTransfers(address)": {
        "notice": "Adds a new contract to the L-Token transfers list."
      },
      "owner()": {
        "notice": "Override of OwnableUpgradeable.owner() that retrieves the owner's address from the GlobalOwner contract instead."
      },
      "paused()": {
        "notice": "Required override of paused() which is implemented by both GlobalPausableUpgradeable and ERC20BaseUpgradeable parent contracts."
      },
      "processBigQueuedRequest(uint256)": {
        "notice": "Processes a given queued big withdrawal request (one that exceeds half of the retention rate)."
      },
      "processQueuedRequests()": {
        "notice": "Processes queued withdrawal requests until there is else no more requests, else not enough underlying tokens to continue."
      },
      "realBalanceOf(address)": {
        "notice": "Retrieves the \"real\" balance of an account, i.e., excluding its not yet minted/distributed rewards."
      },
      "realTotalSupply()": {
        "notice": "Returns the \"real\" amount of existing L-Tokens, i.e., excluding not yet minted withdrawal fees and L-Tokens currently in the withdrawal queue."
      },
      "recoverERC20(address,uint256)": {
        "notice": "Recovers a specified amount of a given token address."
      },
      "recoverUnderlying()": {
        "notice": "Recovers underlying tokens accidentally sent to the contract."
      },
      "renounceOwnership()": {
        "notice": "Override of OwnableUpgradeable.renounceOwnership() that always reverts. Ownership is managed by the GlobalOwner contract and must be modified there."
      },
      "repatriate(uint256)": {
        "notice": "Used by the fund wallet to repatriate underlying tokens on the contract whenever those are required to fulfill some withdrawal requests."
      },
      "requestWithdrawal(uint256)": {
        "notice": "Allows requesting the exchange of a given amount of L-Tokens for the same amount of underlying tokens. The request will be automatically processed later."
      },
      "retentionRateUD7x3()": {
        "notice": "Holds the retention rate in UD7x3 format."
      },
      "rewardsRedirectsFromTo(address)": {
        "notice": "Holds active rewards redirections in both from->to and to->from[] ways."
      },
      "setAPR(uint16)": {
        "notice": "Updates the investment APR. Restricted to owner."
      },
      "setFeesRate(uint32)": {
        "notice": "Updates the current withdrawal fee rate."
      },
      "setFund(address)": {
        "notice": "Updates the address of the fund wallet."
      },
      "setLDYStaking(address)": {
        "notice": "Updates the address of LDYStaking contract."
      },
      "setRetentionRate(uint32)": {
        "notice": "Updates the current underlying token retention rate."
      },
      "setWithdrawalFeeInEth(uint256)": {
        "notice": "Updates the current withdrawalFeeInETH."
      },
      "setWithdrawer(address)": {
        "notice": "Updates the address of the withdrawer wallet."
      },
      "startRewardsRedirection(address,address)": {
        "notice": "Enables redirection of rewards from one account to another."
      },
      "stopRewardsRedirection(address,address)": {
        "notice": "Disable an active rewards redirection."
      },
      "totalQueued()": {
        "notice": "Holds the amount of L-Tokens currently in the withdrawal queue."
      },
      "totalSupply()": {
        "notice": "Retrives the total supply of L-Tokens, including not yet minted withdrawal fees and L-Tokens currently in the withdrawal queue."
      },
      "transferOwnership(address)": {
        "notice": "Override of OwnableUpgradeable.transferOwnership() that always reverts. Ownership is managed by the GlobalOwner contract and must be modified there."
      },
      "transfersListeners(uint256)": {
        "notice": "Holds a list of contracts' references that are listening to L-Tokens transfers."
      },
      "unclaimedFees()": {
        "notice": "Holds the amount of withdrawal fees not yet claimed by contract's owner."
      },
      "unlistenToTransfers(address)": {
        "notice": "Removes a contract from the L-Token transfers list."
      },
      "unmintedRewardsOf(address)": {
        "notice": "Retrieves the amount of given account's not yet minted rewards."
      },
      "usableUnderlyings()": {
        "notice": "Holds the amount of underlying tokens considered as usable by the contract."
      },
      "withdrawTo(address,uint256)": {
        "notice": "Override of ERC20WrapperUpgradeable.withdrawTo() that reverts. Use instantWithdrawal() or requestWithdrawal() functions instead."
      },
      "withdrawalFeeInEth()": {
        "notice": "Holds the withdrawalFee amount in ETH that will be sent to withdrawer wallet."
      },
      "withdrawalQueue(uint256)": {
        "notice": "Holds an ordered list of active withdrawal requests."
      },
      "withdrawalQueueCursor()": {
        "notice": "Holds the index of the next withdrawal request to process in the queue."
      },
      "withdrawer()": {
        "notice": "Holds address of withdrawer wallet (managed by withdrawal server)."
      }
    },
    "notice": "Main contract of the Ledgity Yield protocol. It powers every L-Token (i.e., investment pools backed by RWA). An L-Token is an ERC20 wrapper around a stablecoin. As soon as a wallet holds some L-Tokens, it starts receiving rewards in the form of additional L-Tokens, which are auto-compounded over time.",
    "version": 1
  },
  "storageLayout": {
    "storage": [
      {
        "astId": 609,
        "contract": "contracts/src/LToken.sol:LToken",
        "label": "_initialized",
        "offset": 0,
        "slot": "0",
        "type": "t_uint8"
      },
      {
        "astId": 612,
        "contract": "contracts/src/LToken.sol:LToken",
        "label": "_initializing",
        "offset": 1,
        "slot": "0",
        "type": "t_bool"
      },
      {
        "astId": 591,
        "contract": "contracts/src/LToken.sol:LToken",
        "label": "__gap",
        "offset": 0,
        "slot": "1",
        "type": "t_array(t_uint256)50_storage"
      },
      {
        "astId": 906,
        "contract": "contracts/src/LToken.sol:LToken",
        "label": "__gap",
        "offset": 0,
        "slot": "51",
        "type": "t_array(t_uint256)50_storage"
      },
      {
        "astId": 2869,
        "contract": "contracts/src/LToken.sol:LToken",
        "label": "__gap",
        "offset": 0,
        "slot": "101",
        "type": "t_array(t_uint256)50_storage"
      },
      {
        "astId": 1137,
        "contract": "contracts/src/LToken.sol:LToken",
        "label": "_balances",
        "offset": 0,
        "slot": "151",
        "type": "t_mapping(t_address,t_uint256)"
      },
      {
        "astId": 1143,
        "contract": "contracts/src/LToken.sol:LToken",
        "label": "_allowances",
        "offset": 0,
        "slot": "152",
        "type": "t_mapping(t_address,t_mapping(t_address,t_uint256))"
      },
      {
        "astId": 1145,
        "contract": "contracts/src/LToken.sol:LToken",
        "label": "_totalSupply",
        "offset": 0,
        "slot": "153",
        "type": "t_uint256"
      },
      {
        "astId": 1147,
        "contract": "contracts/src/LToken.sol:LToken",
        "label": "_name",
        "offset": 0,
        "slot": "154",
        "type": "t_string_storage"
      },
      {
        "astId": 1149,
        "contract": "contracts/src/LToken.sol:LToken",
        "label": "_symbol",
        "offset": 0,
        "slot": "155",
        "type": "t_string_storage"
      },
      {
        "astId": 1729,
        "contract": "contracts/src/LToken.sol:LToken",
        "label": "__gap",
        "offset": 0,
        "slot": "156",
        "type": "t_array(t_uint256)45_storage"
      },
      {
        "astId": 928,
        "contract": "contracts/src/LToken.sol:LToken",
        "label": "_paused",
        "offset": 0,
        "slot": "201",
        "type": "t_bool"
      },
      {
        "astId": 1033,
        "contract": "contracts/src/LToken.sol:LToken",
        "label": "__gap",
        "offset": 0,
        "slot": "202",
        "type": "t_array(t_uint256)49_storage"
      },
      {
        "astId": 116,
        "contract": "contracts/src/LToken.sol:LToken",
        "label": "_owner",
        "offset": 0,
        "slot": "251",
        "type": "t_address"
      },
      {
        "astId": 236,
        "contract": "contracts/src/LToken.sol:LToken",
        "label": "__gap",
        "offset": 0,
        "slot": "252",
        "type": "t_array(t_uint256)49_storage"
      },
      {
        "astId": 10205,
        "contract": "contracts/src/LToken.sol:LToken",
        "label": "_globalOwner",
        "offset": 0,
        "slot": "301",
        "type": "t_contract(GlobalOwner)6231"
      },
      {
        "astId": 10289,
        "contract": "contracts/src/LToken.sol:LToken",
        "label": "__gap",
        "offset": 0,
        "slot": "302",
        "type": "t_array(t_uint256)50_storage"
      },
      {
        "astId": 10307,
        "contract": "contracts/src/LToken.sol:LToken",
        "label": "_globalPause",
        "offset": 0,
        "slot": "352",
        "type": "t_contract(GlobalPause)6307"
      },
      {
        "astId": 10366,
        "contract": "contracts/src/LToken.sol:LToken",
        "label": "__gap",
        "offset": 0,
        "slot": "353",
        "type": "t_array(t_uint256)50_storage"
      },
      {
        "astId": 10380,
        "contract": "contracts/src/LToken.sol:LToken",
        "label": "_globalBlacklist",
        "offset": 0,
        "slot": "403",
        "type": "t_contract(GlobalBlacklist)6184"
      },
      {
        "astId": 10454,
        "contract": "contracts/src/LToken.sol:LToken",
        "label": "__gap",
        "offset": 0,
        "slot": "404",
        "type": "t_array(t_uint256)50_storage"
      },
      {
        "astId": 11473,
        "contract": "contracts/src/LToken.sol:LToken",
        "label": "__gap",
        "offset": 0,
        "slot": "454",
        "type": "t_array(t_uint256)50_storage"
      },
      {
        "astId": 11564,
        "contract": "contracts/src/LToken.sol:LToken",
        "label": "__gap",
        "offset": 0,
        "slot": "504",
        "type": "t_array(t_uint256)50_storage"
      },
      {
        "astId": 1867,
        "contract": "contracts/src/LToken.sol:LToken",
        "label": "__gap",
        "offset": 0,
        "slot": "554",
        "type": "t_array(t_uint256)50_storage"
      },
      {
        "astId": 11669,
        "contract": "contracts/src/LToken.sol:LToken",
        "label": "__gap",
        "offset": 0,
        "slot": "604",
        "type": "t_array(t_uint256)50_storage"
      },
      {
        "astId": 10506,
        "contract": "contracts/src/LToken.sol:LToken",
        "label": "_invested",
        "offset": 0,
        "slot": "654",
        "type": "t_contract(IERC20Upgradeable)1808"
      },
      {
        "astId": 10512,
        "contract": "contracts/src/LToken.sol:LToken",
        "label": "accountsDetails",
        "offset": 0,
        "slot": "655",
        "type": "t_mapping(t_address,t_struct(AccountDetails)10502_storage)"
      },
      {
        "astId": 10517,
        "contract": "contracts/src/LToken.sol:LToken",
        "label": "_aprHistory",
        "offset": 0,
        "slot": "656",
        "type": "t_array(t_struct(Pack)11701_storage)dyn_storage"
      },
      {
        "astId": 10522,
        "contract": "contracts/src/LToken.sol:LToken",
        "label": "rewardsRedirectsFromTo",
        "offset": 0,
        "slot": "657",
        "type": "t_mapping(t_address,t_address)"
      },
      {
        "astId": 10527,
        "contract": "contracts/src/LToken.sol:LToken",
        "label": "rewardsRedirectsToFrom",
        "offset": 0,
        "slot": "658",
        "type": "t_mapping(t_address,t_array(t_address)dyn_storage)"
      },
      {
        "astId": 10530,
        "contract": "contracts/src/LToken.sol:LToken",
        "label": "_isClaiming",
        "offset": 0,
        "slot": "659",
        "type": "t_bool"
      },
      {
        "astId": 11380,
        "contract": "contracts/src/LToken.sol:LToken",
        "label": "__gap",
        "offset": 0,
        "slot": "660",
        "type": "t_array(t_uint256)50_storage"
      },
      {
        "astId": 1881,
        "contract": "contracts/src/LToken.sol:LToken",
        "label": "_underlying",
        "offset": 0,
        "slot": "710",
        "type": "t_contract(IERC20Upgradeable)1808"
      },
      {
        "astId": 2060,
        "contract": "contracts/src/LToken.sol:LToken",
        "label": "__gap",
        "offset": 0,
        "slot": "711",
        "type": "t_array(t_uint256)50_storage"
      },
      {
        "astId": 7526,
        "contract": "contracts/src/LToken.sol:LToken",
        "label": "ldyStaking",
        "offset": 0,
        "slot": "761",
        "type": "t_contract(LDYStaking)7458"
      },
      {
        "astId": 7529,
        "contract": "contracts/src/LToken.sol:LToken",
        "label": "withdrawer",
        "offset": 0,
        "slot": "762",
        "type": "t_address_payable"
      },
      {
        "astId": 7532,
        "contract": "contracts/src/LToken.sol:LToken",
        "label": "fund",
        "offset": 0,
        "slot": "763",
        "type": "t_address"
      },
      {
        "astId": 7535,
        "contract": "contracts/src/LToken.sol:LToken",
        "label": "feesRateUD7x3",
        "offset": 20,
        "slot": "763",
        "type": "t_uint32"
      },
      {
        "astId": 7538,
        "contract": "contracts/src/LToken.sol:LToken",
        "label": "retentionRateUD7x3",
        "offset": 24,
        "slot": "763",
        "type": "t_uint32"
      },
      {
        "astId": 7541,
        "contract": "contracts/src/LToken.sol:LToken",
        "label": "unclaimedFees",
        "offset": 0,
        "slot": "764",
        "type": "t_uint256"
      },
      {
        "astId": 7544,
        "contract": "contracts/src/LToken.sol:LToken",
        "label": "totalQueued",
        "offset": 0,
        "slot": "765",
        "type": "t_uint256"
      },
      {
        "astId": 7547,
        "contract": "contracts/src/LToken.sol:LToken",
        "label": "usableUnderlyings",
        "offset": 0,
        "slot": "766",
        "type": "t_uint256"
      },
      {
        "astId": 7552,
        "contract": "contracts/src/LToken.sol:LToken",
        "label": "withdrawalQueue",
        "offset": 0,
        "slot": "767",
        "type": "t_array(t_struct(WithdrawalRequest)7501_storage)dyn_storage"
      },
      {
        "astId": 7555,
        "contract": "contracts/src/LToken.sol:LToken",
        "label": "withdrawalQueueCursor",
        "offset": 0,
        "slot": "768",
        "type": "t_uint256"
      },
      {
        "astId": 7560,
        "contract": "contracts/src/LToken.sol:LToken",
        "label": "frozenRequests",
        "offset": 0,
        "slot": "769",
        "type": "t_array(t_struct(WithdrawalRequest)7501_storage)dyn_storage"
      },
      {
        "astId": 7565,
        "contract": "contracts/src/LToken.sol:LToken",
        "label": "transfersListeners",
        "offset": 0,
        "slot": "770",
        "type": "t_array(t_contract(ITransfersListener)11682)dyn_storage"
      },
      {
        "astId": 7568,
        "contract": "contracts/src/LToken.sol:LToken",
        "label": "withdrawalFeeInEth",
        "offset": 0,
        "slot": "771",
        "type": "t_uint256"
      }
    ],
    "types": {
      "t_address": {
        "encoding": "inplace",
        "label": "address",
        "numberOfBytes": "20"
      },
      "t_address_payable": {
        "encoding": "inplace",
        "label": "address payable",
        "numberOfBytes": "20"
      },
      "t_array(t_address)dyn_storage": {
        "base": "t_address",
        "encoding": "dynamic_array",
        "label": "address[]",
        "numberOfBytes": "32"
      },
      "t_array(t_contract(ITransfersListener)11682)dyn_storage": {
        "base": "t_contract(ITransfersListener)11682",
        "encoding": "dynamic_array",
        "label": "contract ITransfersListener[]",
        "numberOfBytes": "32"
      },
      "t_array(t_struct(Pack)11701_storage)dyn_storage": {
        "base": "t_struct(Pack)11701_storage",
        "encoding": "dynamic_array",
        "label": "struct APRHistory.Pack[]",
        "numberOfBytes": "32"
      },
      "t_array(t_struct(WithdrawalRequest)7501_storage)dyn_storage": {
        "base": "t_struct(WithdrawalRequest)7501_storage",
        "encoding": "dynamic_array",
        "label": "struct LToken.WithdrawalRequest[]",
        "numberOfBytes": "32"
      },
      "t_array(t_uint16)4_storage": {
        "base": "t_uint16",
        "encoding": "inplace",
        "label": "uint16[4]",
        "numberOfBytes": "32"
      },
      "t_array(t_uint256)45_storage": {
        "base": "t_uint256",
        "encoding": "inplace",
        "label": "uint256[45]",
        "numberOfBytes": "1440"
      },
      "t_array(t_uint256)49_storage": {
        "base": "t_uint256",
        "encoding": "inplace",
        "label": "uint256[49]",
        "numberOfBytes": "1568"
      },
      "t_array(t_uint256)50_storage": {
        "base": "t_uint256",
        "encoding": "inplace",
        "label": "uint256[50]",
        "numberOfBytes": "1600"
      },
      "t_array(t_uint40)4_storage": {
        "base": "t_uint40",
        "encoding": "inplace",
        "label": "uint40[4]",
        "numberOfBytes": "32"
      },
      "t_bool": {
        "encoding": "inplace",
        "label": "bool",
        "numberOfBytes": "1"
      },
      "t_contract(GlobalBlacklist)6184": {
        "encoding": "inplace",
        "label": "contract GlobalBlacklist",
        "numberOfBytes": "20"
      },
      "t_contract(GlobalOwner)6231": {
        "encoding": "inplace",
        "label": "contract GlobalOwner",
        "numberOfBytes": "20"
      },
      "t_contract(GlobalPause)6307": {
        "encoding": "inplace",
        "label": "contract GlobalPause",
        "numberOfBytes": "20"
      },
      "t_contract(IERC20Upgradeable)1808": {
        "encoding": "inplace",
        "label": "contract IERC20Upgradeable",
        "numberOfBytes": "20"
      },
      "t_contract(ITransfersListener)11682": {
        "encoding": "inplace",
        "label": "contract ITransfersListener",
        "numberOfBytes": "20"
      },
      "t_contract(LDYStaking)7458": {
        "encoding": "inplace",
        "label": "contract LDYStaking",
        "numberOfBytes": "20"
      },
      "t_mapping(t_address,t_address)": {
        "encoding": "mapping",
        "key": "t_address",
        "label": "mapping(address => address)",
        "numberOfBytes": "32",
        "value": "t_address"
      },
      "t_mapping(t_address,t_array(t_address)dyn_storage)": {
        "encoding": "mapping",
        "key": "t_address",
        "label": "mapping(address => address[])",
        "numberOfBytes": "32",
        "value": "t_array(t_address)dyn_storage"
      },
      "t_mapping(t_address,t_mapping(t_address,t_uint256))": {
        "encoding": "mapping",
        "key": "t_address",
        "label": "mapping(address => mapping(address => uint256))",
        "numberOfBytes": "32",
        "value": "t_mapping(t_address,t_uint256)"
      },
      "t_mapping(t_address,t_struct(AccountDetails)10502_storage)": {
        "encoding": "mapping",
        "key": "t_address",
        "label": "mapping(address => struct InvestUpgradeable.AccountDetails)",
        "numberOfBytes": "32",
        "value": "t_struct(AccountDetails)10502_storage"
      },
      "t_mapping(t_address,t_uint256)": {
        "encoding": "mapping",
        "key": "t_address",
        "label": "mapping(address => uint256)",
        "numberOfBytes": "32",
        "value": "t_uint256"
      },
      "t_string_storage": {
        "encoding": "bytes",
        "label": "string",
        "numberOfBytes": "32"
      },
      "t_struct(AccountDetails)10502_storage": {
        "encoding": "inplace",
        "label": "struct InvestUpgradeable.AccountDetails",
        "members": [
          {
            "astId": 10499,
            "contract": "contracts/src/LToken.sol:LToken",
            "label": "period",
            "offset": 0,
            "slot": "0",
            "type": "t_struct(InvestmentPeriod)10496_storage"
          },
          {
            "astId": 10501,
            "contract": "contracts/src/LToken.sol:LToken",
            "label": "virtualBalance",
            "offset": 0,
            "slot": "3",
            "type": "t_uint256"
          }
        ],
        "numberOfBytes": "128"
      },
      "t_struct(InvestmentPeriod)10496_storage": {
        "encoding": "inplace",
        "label": "struct InvestUpgradeable.InvestmentPeriod",
        "members": [
          {
            "astId": 10492,
            "contract": "contracts/src/LToken.sol:LToken",
            "label": "timestamp",
            "offset": 0,
            "slot": "0",
            "type": "t_uint40"
          },
          {
            "astId": 10495,
            "contract": "contracts/src/LToken.sol:LToken",
            "label": "ref",
            "offset": 0,
            "slot": "1",
            "type": "t_struct(Reference)11706_storage"
          }
        ],
        "numberOfBytes": "96"
      },
      "t_struct(Pack)11701_storage": {
        "encoding": "inplace",
        "label": "struct APRHistory.Pack",
        "members": [
          {
            "astId": 11694,
            "contract": "contracts/src/LToken.sol:LToken",
            "label": "aprsUD7x3",
            "offset": 0,
            "slot": "0",
            "type": "t_array(t_uint16)4_storage"
          },
          {
            "astId": 11698,
            "contract": "contracts/src/LToken.sol:LToken",
            "label": "timestamps",
            "offset": 0,
            "slot": "1",
            "type": "t_array(t_uint40)4_storage"
          },
          {
            "astId": 11700,
            "contract": "contracts/src/LToken.sol:LToken",
            "label": "cursor",
            "offset": 0,
            "slot": "2",
            "type": "t_uint32"
          }
        ],
        "numberOfBytes": "96"
      },
      "t_struct(Reference)11706_storage": {
        "encoding": "inplace",
        "label": "struct APRHistory.Reference",
        "members": [
          {
            "astId": 11703,
            "contract": "contracts/src/LToken.sol:LToken",
            "label": "packIndex",
            "offset": 0,
            "slot": "0",
            "type": "t_uint256"
          },
          {
            "astId": 11705,
            "contract": "contracts/src/LToken.sol:LToken",
            "label": "cursorIndex",
            "offset": 0,
            "slot": "1",
            "type": "t_uint32"
          }
        ],
        "numberOfBytes": "64"
      },
      "t_struct(WithdrawalRequest)7501_storage": {
        "encoding": "inplace",
        "label": "struct LToken.WithdrawalRequest",
        "members": [
          {
            "astId": 7498,
            "contract": "contracts/src/LToken.sol:LToken",
            "label": "account",
            "offset": 0,
            "slot": "0",
            "type": "t_address"
          },
          {
            "astId": 7500,
            "contract": "contracts/src/LToken.sol:LToken",
            "label": "amount",
            "offset": 20,
            "slot": "0",
            "type": "t_uint96"
          }
        ],
        "numberOfBytes": "32"
      },
      "t_uint16": {
        "encoding": "inplace",
        "label": "uint16",
        "numberOfBytes": "2"
      },
      "t_uint256": {
        "encoding": "inplace",
        "label": "uint256",
        "numberOfBytes": "32"
      },
      "t_uint32": {
        "encoding": "inplace",
        "label": "uint32",
        "numberOfBytes": "4"
      },
      "t_uint40": {
        "encoding": "inplace",
        "label": "uint40",
        "numberOfBytes": "5"
      },
      "t_uint8": {
        "encoding": "inplace",
        "label": "uint8",
        "numberOfBytes": "1"
      },
      "t_uint96": {
        "encoding": "inplace",
        "label": "uint96",
        "numberOfBytes": "12"
      }
    }
  }
}