{
  "address": "0xa513E6E4b8f2a923D98304ec87F64353C4D5C853",
  "abi": [
    {
      "inputs": [
        {
          "internalType": "address",
          "name": "account",
          "type": "address"
        }
      ],
      "name": "tierOf",
      "outputs": [
        {
          "internalType": "uint256",
          "name": "tier",
          "type": "uint256"
        }
      ],
      "stateMutability": "pure",
      "type": "function"
    }
  ],
  "transactionHash": "0xdb433fbdd587108fe0f909a48e4363f881ae25e5ba677c3853e9a0d93f139d78",
  "args": [],
  "numDeployments": 1,
  "solcInputHash": "9bd765f05e22b5ec29de574541b9f3c7",
  "bytecode": "0x608060405234801561001057600080fd5b5060b48061001f6000396000f3fe6080604052348015600f57600080fd5b506004361060285760003560e01c8063c8f74bb814602d575b600080fd5b603e60383660046050565b50600090565b60405190815260200160405180910390f35b600060208284031215606157600080fd5b81356001600160a01b0381168114607757600080fd5b939250505056fea2646970667358221220dce56110b394e9a65bd8f8f13f0296b74e189ee1e4b1afe70da185148326fd5e64736f6c63430008120033",
  "devdoc": {
    "author": "Lila Rest (https://lila.rest)",
    "custom:security-contact": "security@ledgity.comsecurity@ledgity.com",
    "details": "This contract only implements tierOf() function from LDYStaking as it's the only one the LToken contract relies on.",
    "kind": "dev",
    "methods": {
      "tierOf(address)": {
        "details": "Dummy tierOf() function that always return that the given account is not ellgible to any LDY staking tier.",
        "params": {
          "account": "@"
        }
      }
    },
    "title": "LDYStaking",
    "version": 1
  },
  "userdoc": {
    "kind": "user",
    "methods": {},
    "notice": "Replacement of the LDYStaking until the $LDY token is available and the real LDYStaking contract is deployed.",
    "version": 1
  },
  "storageLayout": {
    "storage": [],
    "types": null
  }
}