{
  "address": "0x5FbDB2315678afecb367f032d93F642f64180aa3",
  "abi": [
    {
      "inputs": [],
      "stateMutability": "nonpayable",
      "type": "constructor"
    },
    {
      "anonymous": false,
      "inputs": [
        {
          "indexed": false,
          "internalType": "address",
          "name": "previousAdmin",
          "type": "address"
        },
        {
          "indexed": false,
          "internalType": "address",
          "name": "newAdmin",
          "type": "address"
        }
      ],
      "name": "AdminChanged",
      "type": "event"
    },
    {
      "anonymous": false,
      "inputs": [
        {
          "indexed": true,
          "internalType": "address",
          "name": "beacon",
          "type": "address"
        }
      ],
      "name": "BeaconUpgraded",
      "type": "event"
    },
    {
      "anonymous": false,
      "inputs": [
        {
          "indexed": false,
          "internalType": "uint8",
          "name": "version",
          "type": "uint8"
        }
      ],
      "name": "Initialized",
      "type": "event"
    },
    {
      "anonymous": false,
      "inputs": [
        {
          "indexed": true,
          "internalType": "address",
          "name": "previousOwner",
          "type": "address"
        },
        {
          "indexed": true,
          "internalType": "address",
          "name": "newOwner",
          "type": "address"
        }
      ],
      "name": "OwnershipTransferStarted",
      "type": "event"
    },
    {
      "anonymous": false,
      "inputs": [
        {
          "indexed": true,
          "internalType": "address",
          "name": "previousOwner",
          "type": "address"
        },
        {
          "indexed": true,
          "internalType": "address",
          "name": "newOwner",
          "type": "address"
        }
      ],
      "name": "OwnershipTransferred",
      "type": "event"
    },
    {
      "anonymous": false,
      "inputs": [
        {
          "indexed": true,
          "internalType": "address",
          "name": "implementation",
          "type": "address"
        }
      ],
      "name": "Upgraded",
      "type": "event"
    },
    {
      "inputs": [],
      "name": "acceptOwnership",
      "outputs": [],
      "stateMutability": "nonpayable",
      "type": "function"
    },
    {
      "inputs": [],
      "name": "initialize",
      "outputs": [],
      "stateMutability": "nonpayable",
      "type": "function"
    },
    {
      "inputs": [],
      "name": "owner",
      "outputs": [
        {
          "internalType": "address",
          "name": "",
          "type": "address"
        }
      ],
      "stateMutability": "view",
      "type": "function"
    },
    {
      "inputs": [],
      "name": "pendingOwner",
      "outputs": [
        {
          "internalType": "address",
          "name": "",
          "type": "address"
        }
      ],
      "stateMutability": "view",
      "type": "function"
    },
    {
      "inputs": [],
      "name": "proxiableUUID",
      "outputs": [
        {
          "internalType": "bytes32",
          "name": "",
          "type": "bytes32"
        }
      ],
      "stateMutability": "view",
      "type": "function"
    },
    {
      "inputs": [],
      "name": "renounceOwnership",
      "outputs": [],
      "stateMutability": "nonpayable",
      "type": "function"
    },
    {
      "inputs": [
        {
          "internalType": "address",
          "name": "newOwner",
          "type": "address"
        }
      ],
      "name": "transferOwnership",
      "outputs": [],
      "stateMutability": "nonpayable",
      "type": "function"
    },
    {
      "inputs": [
        {
          "internalType": "address",
          "name": "newImplementation",
          "type": "address"
        }
      ],
      "name": "upgradeTo",
      "outputs": [],
      "stateMutability": "nonpayable",
      "type": "function"
    },
    {
      "inputs": [
        {
          "internalType": "address",
          "name": "newImplementation",
          "type": "address"
        },
        {
          "internalType": "bytes",
          "name": "data",
          "type": "bytes"
        }
      ],
      "name": "upgradeToAndCall",
      "outputs": [],
      "stateMutability": "payable",
      "type": "function"
    }
  ],
  "transactionHash": "0xb752b2653b2f09f83a051ad9df8b9348a331144e74811fbb62a020b41cf61a00",
  "args": [],
  "numDeployments": 1,
  "solcInputHash": "ebb5f54f65cdb54946fa40b3124d0220",
  "bytecode": "0x60a06040523060805234801561001457600080fd5b5061001d610022565b6100e1565b600054610100900460ff161561008e5760405162461bcd60e51b815260206004820152602760248201527f496e697469616c697a61626c653a20636f6e747261637420697320696e697469604482015266616c697a696e6760c81b606482015260840160405180910390fd5b60005460ff908116146100df576000805460ff191660ff9081179091556040519081527f7f26b83ff96e1f2b6a682f133852f6798a09c465da95921460cefb38474024989060200160405180910390a15b565b608051610e2a610118600039600081816101a1015281816101ea01528181610289015281816102c9015261035c0152610e2a6000f3fe6080604052600436106100865760003560e01c806379ba50971161005957806379ba5097146100fd5780638129fc1c146101125780638da5cb5b14610127578063e30c397814610159578063f2fde38b1461017757600080fd5b80633659cfe61461008b5780634f1ef286146100ad57806352d1902d146100c0578063715018a6146100e8575b600080fd5b34801561009757600080fd5b506100ab6100a6366004610b4b565b610197565b005b6100ab6100bb366004610b7c565b61027f565b3480156100cc57600080fd5b506100d561034f565b6040519081526020015b60405180910390f35b3480156100f457600080fd5b506100ab610402565b34801561010957600080fd5b506100ab610416565b34801561011e57600080fd5b506100ab61048d565b34801561013357600080fd5b506097546001600160a01b03165b6040516001600160a01b0390911681526020016100df565b34801561016557600080fd5b5060c9546001600160a01b0316610141565b34801561018357600080fd5b506100ab610192366004610b4b565b6105a5565b6001600160a01b037f00000000000000000000000000000000000000000000000000000000000000001630036101e85760405162461bcd60e51b81526004016101df90610c3e565b60405180910390fd5b7f00000000000000000000000000000000000000000000000000000000000000006001600160a01b0316610231600080516020610dae833981519152546001600160a01b031690565b6001600160a01b0316146102575760405162461bcd60e51b81526004016101df90610c8a565b61026081610616565b6040805160008082526020820190925261027c9183919061061e565b50565b6001600160a01b037f00000000000000000000000000000000000000000000000000000000000000001630036102c75760405162461bcd60e51b81526004016101df90610c3e565b7f00000000000000000000000000000000000000000000000000000000000000006001600160a01b0316610310600080516020610dae833981519152546001600160a01b031690565b6001600160a01b0316146103365760405162461bcd60e51b81526004016101df90610c8a565b61033f82610616565b61034b8282600161061e565b5050565b6000306001600160a01b037f000000000000000000000000000000000000000000000000000000000000000016146103ef5760405162461bcd60e51b815260206004820152603860248201527f555550535570677261646561626c653a206d757374206e6f742062652063616c60448201527f6c6564207468726f7567682064656c656761746563616c6c000000000000000060648201526084016101df565b50600080516020610dae83398151915290565b61040a61078e565b61041460006107e8565b565b60c95433906001600160a01b031681146104845760405162461bcd60e51b815260206004820152602960248201527f4f776e61626c6532537465703a2063616c6c6572206973206e6f7420746865206044820152683732bb9037bbb732b960b91b60648201526084016101df565b61027c816107e8565b600054610100900460ff16158080156104ad5750600054600160ff909116105b806104c75750303b1580156104c7575060005460ff166001145b61052a5760405162461bcd60e51b815260206004820152602e60248201527f496e697469616c697a61626c653a20636f6e747261637420697320616c72656160448201526d191e481a5b9a5d1a585b1a5e995960921b60648201526084016101df565b6000805460ff19166001179055801561054d576000805461ff0019166101001790555b610555610801565b61055d610830565b801561027c576000805461ff0019169055604051600181527f7f26b83ff96e1f2b6a682f133852f6798a09c465da95921460cefb38474024989060200160405180910390a150565b6105ad61078e565b60c980546001600160a01b0383166001600160a01b031990911681179091556105de6097546001600160a01b031690565b6001600160a01b03167f38d16b8cac22d99fc7c124b9cd0de2d3fa1faef420bfe791d8c362d765e2270060405160405180910390a350565b61027c61078e565b7f4910fdfa16fed3260ed0e7147f7cc6da11a60208b5b9406d12a635614ffd91435460ff16156106565761065183610857565b505050565b826001600160a01b03166352d1902d6040518163ffffffff1660e01b8152600401602060405180830381865afa9250505080156106b0575060408051601f3d908101601f191682019092526106ad91810190610cd6565b60015b6107135760405162461bcd60e51b815260206004820152602e60248201527f45524331393637557067726164653a206e657720696d706c656d656e7461746960448201526d6f6e206973206e6f74205555505360901b60648201526084016101df565b600080516020610dae83398151915281146107825760405162461bcd60e51b815260206004820152602960248201527f45524331393637557067726164653a20756e737570706f727465642070726f786044820152681a58589b195555525160ba1b60648201526084016101df565b506106518383836108f3565b6097546001600160a01b031633146104145760405162461bcd60e51b815260206004820181905260248201527f4f776e61626c653a2063616c6c6572206973206e6f7420746865206f776e657260448201526064016101df565b60c980546001600160a01b031916905561027c8161091e565b600054610100900460ff166108285760405162461bcd60e51b81526004016101df90610cef565b610414610970565b600054610100900460ff166104145760405162461bcd60e51b81526004016101df90610cef565b6001600160a01b0381163b6108c45760405162461bcd60e51b815260206004820152602d60248201527f455243313936373a206e657720696d706c656d656e746174696f6e206973206e60448201526c1bdd08184818dbdb9d1c9858dd609a1b60648201526084016101df565b600080516020610dae83398151915280546001600160a01b0319166001600160a01b0392909216919091179055565b6108fc836109a0565b6000825111806109095750805b156106515761091883836109e0565b50505050565b609780546001600160a01b038381166001600160a01b0319831681179093556040519116919082907f8be0079c531659141344cd1fd0a4f28419497f9722a3daafe3b4186f6b6457e090600090a35050565b600054610100900460ff166109975760405162461bcd60e51b81526004016101df90610cef565b610414336107e8565b6109a981610857565b6040516001600160a01b038216907fbc7cd75a20ee27fd9adebab32041f755214dbc6bffa90cc0225b39da2e5c2d3b90600090a250565b6060610a058383604051806060016040528060278152602001610dce60279139610a0c565b9392505050565b6060600080856001600160a01b031685604051610a299190610d5e565b600060405180830381855af49150503d8060008114610a64576040519150601f19603f3d011682016040523d82523d6000602084013e610a69565b606091505b5091509150610a7a86838387610a84565b9695505050505050565b60608315610af3578251600003610aec576001600160a01b0385163b610aec5760405162461bcd60e51b815260206004820152601d60248201527f416464726573733a2063616c6c20746f206e6f6e2d636f6e747261637400000060448201526064016101df565b5081610afd565b610afd8383610b05565b949350505050565b815115610b155781518083602001fd5b8060405162461bcd60e51b81526004016101df9190610d7a565b80356001600160a01b0381168114610b4657600080fd5b919050565b600060208284031215610b5d57600080fd5b610a0582610b2f565b634e487b7160e01b600052604160045260246000fd5b60008060408385031215610b8f57600080fd5b610b9883610b2f565b9150602083013567ffffffffffffffff80821115610bb557600080fd5b818501915085601f830112610bc957600080fd5b813581811115610bdb57610bdb610b66565b604051601f8201601f19908116603f01168101908382118183101715610c0357610c03610b66565b81604052828152886020848701011115610c1c57600080fd5b8260208601602083013760006020848301015280955050505050509250929050565b6020808252602c908201527f46756e6374696f6e206d7573742062652063616c6c6564207468726f7567682060408201526b19195b1959d85d1958d85b1b60a21b606082015260800190565b6020808252602c908201527f46756e6374696f6e206d7573742062652063616c6c6564207468726f7567682060408201526b6163746976652070726f787960a01b606082015260800190565b600060208284031215610ce857600080fd5b5051919050565b6020808252602b908201527f496e697469616c697a61626c653a20636f6e7472616374206973206e6f74206960408201526a6e697469616c697a696e6760a81b606082015260800190565b60005b83811015610d55578181015183820152602001610d3d565b50506000910152565b60008251610d70818460208701610d3a565b9190910192915050565b6020815260008251806020840152610d99816040850160208701610d3a565b601f01601f1916919091016040019291505056fe360894a13ba1a3210667c828492db98dca3e2076cc3735a920a3ca505d382bbc416464726573733a206c6f772d6c6576656c2064656c65676174652063616c6c206661696c6564a264697066735822122072cd51db4339f0eed3f206b5ada3ea80b0aee9c88810c7901233300c0237755f64736f6c63430008120033",
  "devdoc": {
    "author": "Lila Rest (lila@ledgity.com)",
    "custom:security-contact": "security@ledgity.com",
    "details": "For further details, see \"GlobalOwner\" section of whitepaper.",
    "events": {
      "AdminChanged(address,address)": {
        "details": "Emitted when the admin account has changed."
      },
      "BeaconUpgraded(address)": {
        "details": "Emitted when the beacon is changed."
      },
      "Initialized(uint8)": {
        "details": "Triggered when the contract has been initialized or reinitialized."
      },
      "Upgraded(address)": {
        "details": "Emitted when the implementation is upgraded."
      }
    },
    "kind": "dev",
    "methods": {
      "acceptOwnership()": {
        "details": "The new owner accepts the ownership transfer."
      },
      "constructor": {
        "custom:oz-upgrades-unsafe-allow": "constructor",
        "details": "Prevents implementation contract from being initialized as recommended by OpenZeppelin. See: https://docs.openzeppelin.com/contracts/4.x/api/proxy#Initializable-_disableInitializers--"
      },
      "initialize()": {
        "details": "Replaces the constructor() function in context of an upgradeable contract. See: https://docs.openzeppelin.com/contracts/4.x/upgradeable"
      },
      "owner()": {
        "details": "Returns the address of the current owner."
      },
      "pendingOwner()": {
        "details": "Returns the address of the pending owner."
      },
      "proxiableUUID()": {
        "details": "Implementation of the ERC1822 {proxiableUUID} function. This returns the storage slot used by the implementation. It is used to validate the implementation's compatibility when performing an upgrade. IMPORTANT: A proxy pointing at a proxiable contract should not be considered proxiable itself, because this risks bricking a proxy that upgrades to it, by delegating to itself until out of gas. Thus it is critical that this function revert if invoked through a proxy. This is guaranteed by the `notDelegated` modifier."
      },
      "renounceOwnership()": {
        "details": "Leaves the contract without owner. It will not be possible to call `onlyOwner` functions. Can only be called by the current owner. NOTE: Renouncing ownership will leave the contract without an owner, thereby disabling any functionality that is only available to the owner."
      },
      "transferOwnership(address)": {
        "details": "Starts the ownership transfer of the contract to a new account. Replaces the pending transfer if there is one. Can only be called by the current owner."
      },
      "upgradeTo(address)": {
        "custom:oz-upgrades-unsafe-allow-reachable": "delegatecall",
        "details": "Upgrade the implementation of the proxy to `newImplementation`. Calls {_authorizeUpgrade}. Emits an {Upgraded} event."
      },
      "upgradeToAndCall(address,bytes)": {
        "custom:oz-upgrades-unsafe-allow-reachable": "delegatecall",
        "details": "Upgrade the implementation of the proxy to `newImplementation`, and subsequently execute the function call encoded in `data`. Calls {_authorizeUpgrade}. Emits an {Upgraded} event."
      }
    },
    "title": "GlobalOwner",
    "version": 1
  },
  "userdoc": {
    "kind": "user",
    "methods": {},
    "notice": "This contract is used to maintain an owner account shared by all contracts of this codebase. It is then read by all contracts that inherit from GlobalOwnableUpgradeable abstract contract to restrict access to some functions to owner of this contract.",
    "version": 1
  },
  "storageLayout": {
    "storage": [
      {
        "astId": 609,
        "contract": "contracts/src/GlobalOwner.sol:GlobalOwner",
        "label": "_initialized",
        "offset": 0,
        "slot": "0",
        "type": "t_uint8"
      },
      {
        "astId": 612,
        "contract": "contracts/src/GlobalOwner.sol:GlobalOwner",
        "label": "_initializing",
        "offset": 1,
        "slot": "0",
        "type": "t_bool"
      },
      {
        "astId": 591,
        "contract": "contracts/src/GlobalOwner.sol:GlobalOwner",
        "label": "__gap",
        "offset": 0,
        "slot": "1",
        "type": "t_array(t_uint256)50_storage"
      },
      {
        "astId": 906,
        "contract": "contracts/src/GlobalOwner.sol:GlobalOwner",
        "label": "__gap",
        "offset": 0,
        "slot": "51",
        "type": "t_array(t_uint256)50_storage"
      },
      {
        "astId": 2785,
        "contract": "contracts/src/GlobalOwner.sol:GlobalOwner",
        "label": "__gap",
        "offset": 0,
        "slot": "101",
        "type": "t_array(t_uint256)50_storage"
      },
      {
        "astId": 116,
        "contract": "contracts/src/GlobalOwner.sol:GlobalOwner",
        "label": "_owner",
        "offset": 0,
        "slot": "151",
        "type": "t_address"
      },
      {
        "astId": 236,
        "contract": "contracts/src/GlobalOwner.sol:GlobalOwner",
        "label": "__gap",
        "offset": 0,
        "slot": "152",
        "type": "t_array(t_uint256)49_storage"
      },
      {
        "astId": 25,
        "contract": "contracts/src/GlobalOwner.sol:GlobalOwner",
        "label": "_pendingOwner",
        "offset": 0,
        "slot": "201",
        "type": "t_address"
      },
      {
        "astId": 104,
        "contract": "contracts/src/GlobalOwner.sol:GlobalOwner",
        "label": "__gap",
        "offset": 0,
        "slot": "202",
        "type": "t_array(t_uint256)49_storage"
      }
    ],
    "types": {
      "t_address": {
        "encoding": "inplace",
        "label": "address",
        "numberOfBytes": "20"
      },
      "t_array(t_uint256)49_storage": {
        "base": "t_uint256",
        "encoding": "inplace",
        "label": "uint256[49]",
        "numberOfBytes": "1568"
      },
      "t_array(t_uint256)50_storage": {
        "base": "t_uint256",
        "encoding": "inplace",
        "label": "uint256[50]",
        "numberOfBytes": "1600"
      },
      "t_bool": {
        "encoding": "inplace",
        "label": "bool",
        "numberOfBytes": "1"
      },
      "t_uint256": {
        "encoding": "inplace",
        "label": "uint256",
        "numberOfBytes": "32"
      },
      "t_uint8": {
        "encoding": "inplace",
        "label": "uint8",
        "numberOfBytes": "1"
      }
    }
  }
}