{
  "address": "0xa513E6E4b8f2a923D98304ec87F64353C4D5C853",
  "abi": [
    {
      "anonymous": false,
      "inputs": [
        {
          "indexed": true,
          "internalType": "address",
          "name": "previousOwner",
          "type": "address"
        },
        {
          "indexed": true,
          "internalType": "address",
          "name": "newOwner",
          "type": "address"
        }
      ],
      "name": "OwnershipTransferStarted",
      "type": "event"
    },
    {
      "anonymous": false,
      "inputs": [
        {
          "indexed": true,
          "internalType": "address",
          "name": "previousOwner",
          "type": "address"
        },
        {
          "indexed": true,
          "internalType": "address",
          "name": "newOwner",
          "type": "address"
        }
      ],
      "name": "OwnershipTransferred",
      "type": "event"
    },
    {
      "inputs": [],
      "name": "acceptOwnership",
      "outputs": [],
      "stateMutability": "nonpayable",
      "type": "function"
    },
    {
      "inputs": [
        {
          "internalType": "address",
          "name": "",
          "type": "address"
        }
      ],
      "name": "highTierAccounts",
      "outputs": [
        {
          "internalType": "bool",
          "name": "",
          "type": "bool"
        }
      ],
      "stateMutability": "view",
      "type": "function"
    },
    {
      "inputs": [],
      "name": "owner",
      "outputs": [
        {
          "internalType": "address",
          "name": "",
          "type": "address"
        }
      ],
      "stateMutability": "view",
      "type": "function"
    },
    {
      "inputs": [],
      "name": "pendingOwner",
      "outputs": [
        {
          "internalType": "address",
          "name": "",
          "type": "address"
        }
      ],
      "stateMutability": "view",
      "type": "function"
    },
    {
      "inputs": [],
      "name": "renounceOwnership",
      "outputs": [],
      "stateMutability": "nonpayable",
      "type": "function"
    },
    {
      "inputs": [
        {
          "internalType": "address",
          "name": "account",
          "type": "address"
        },
        {
          "internalType": "bool",
          "name": "status",
          "type": "bool"
        }
      ],
      "name": "setHighTierAccount",
      "outputs": [],
      "stateMutability": "nonpayable",
      "type": "function"
    },
    {
      "inputs": [
        {
          "internalType": "address",
          "name": "account",
          "type": "address"
        }
      ],
      "name": "tierOf",
      "outputs": [
        {
          "internalType": "uint256",
          "name": "tier",
          "type": "uint256"
        }
      ],
      "stateMutability": "view",
      "type": "function"
    },
    {
      "inputs": [
        {
          "internalType": "address",
          "name": "newOwner",
          "type": "address"
        }
      ],
      "name": "transferOwnership",
      "outputs": [],
      "stateMutability": "nonpayable",
      "type": "function"
    }
  ],
  "transactionHash": "0x048e070ec91fbf0fb3f65d3aef9ee8e86654363859675d84b0b779416d7400a6",
  "args": [],
  "numDeployments": 1,
  "solcInputHash": "616c2bbfbbb38e0f66e1812240dc44b0",
  "bytecode": "0x608060405234801561001057600080fd5b5061001a3361001f565b610096565b600180546001600160a01b031916905561004381610046602090811b6102bc17901c565b50565b600080546001600160a01b038381166001600160a01b0319831681178455604051919092169283917f8be0079c531659141344cd1fd0a4f28419497f9722a3daafe3b4186f6b6457e09190a35050565b61042f806100a56000396000f3fe608060405234801561001057600080fd5b50600436106100885760003560e01c8063c66120f41161005b578063c66120f4146100dc578063c8f74bb81461010f578063e30c397814610130578063f2fde38b1461014157600080fd5b80634c1fa4b91461008d578063715018a6146100a257806379ba5097146100aa5780638da5cb5b146100b2575b600080fd5b6100a061009b36600461039b565b610154565b005b6100a0610187565b6100a061019b565b6000546001600160a01b03165b6040516001600160a01b0390911681526020015b60405180910390f35b6100ff6100ea3660046103d7565b60026020526000908152604090205460ff1681565b60405190151581526020016100d3565b61012261011d3660046103d7565b61021a565b6040519081526020016100d3565b6001546001600160a01b03166100bf565b6100a061014f3660046103d7565b61024b565b61015c61030c565b6001600160a01b03919091166000908152600260205260409020805460ff1916911515919091179055565b61018f61030c565b6101996000610366565b565b60015433906001600160a01b0316811461020e5760405162461bcd60e51b815260206004820152602960248201527f4f776e61626c6532537465703a2063616c6c6572206973206e6f7420746865206044820152683732bb9037bbb732b960b91b60648201526084015b60405180910390fd5b61021781610366565b50565b6001600160a01b03811660009081526002602052604081205460ff161561024357506003919050565b506000919050565b61025361030c565b600180546001600160a01b0383166001600160a01b031990911681179091556102846000546001600160a01b031690565b6001600160a01b03167f38d16b8cac22d99fc7c124b9cd0de2d3fa1faef420bfe791d8c362d765e2270060405160405180910390a350565b600080546001600160a01b038381166001600160a01b0319831681178455604051919092169283917f8be0079c531659141344cd1fd0a4f28419497f9722a3daafe3b4186f6b6457e09190a35050565b6000546001600160a01b031633146101995760405162461bcd60e51b815260206004820181905260248201527f4f776e61626c653a2063616c6c6572206973206e6f7420746865206f776e65726044820152606401610205565b600180546001600160a01b0319169055610217816102bc565b80356001600160a01b038116811461039657600080fd5b919050565b600080604083850312156103ae57600080fd5b6103b78361037f565b9150602083013580151581146103cc57600080fd5b809150509250929050565b6000602082840312156103e957600080fd5b6103f28261037f565b939250505056fea2646970667358221220cc392651bd74dffe7810caf42d1c481cf091a52f937f7d46f7f82c6a277d10f964736f6c63430008120033",
  "devdoc": {
    "author": "Lila Rest (https://lila.rest)",
    "custom:security-contact": "security@ledgity.comsecurity@ledgity.com",
    "details": "This contract only implements tierOf() function from LDYStaking as it's the only one the LToken contract relies on.",
    "kind": "dev",
    "methods": {
      "acceptOwnership()": {
        "details": "The new owner accepts the ownership transfer."
      },
      "owner()": {
        "details": "Returns the address of the current owner."
      },
      "pendingOwner()": {
        "details": "Returns the address of the pending owner."
      },
      "renounceOwnership()": {
        "details": "Leaves the contract without owner. It will not be possible to call `onlyOwner` functions. Can only be called by the current owner. NOTE: Renouncing ownership will leave the contract without an owner, thereby disabling any functionality that is only available to the owner."
      },
      "setHighTierAccount(address,bool)": {
        "params": {
          "account": "The account to update the high tier status of."
        }
      },
      "tierOf(address)": {
        "details": "Dummy tierOf() function that always return that the given account is not elligible to any LDY staking tier, except if the account is in the highTierAccounts mapping.",
        "params": {
          "account": "The account to check the tier of."
        }
      },
      "transferOwnership(address)": {
        "details": "Starts the ownership transfer of the contract to a new account. Replaces the pending transfer if there is one. Can only be called by the current owner."
      }
    },
    "stateVariables": {
      "highTierAccounts": {
        "details": "This is notably used to allow PreMining contracts to benefit from 0% withdrawal fees in L-Tokens contracts, when accounts unlock their funds."
      }
    },
    "title": "LDYStaking",
    "version": 1
  },
  "userdoc": {
    "kind": "user",
    "methods": {
      "highTierAccounts(address)": {
        "notice": "Holds a mapping of addresses that default to the highest staking tier."
      },
      "setHighTierAccount(address,bool)": {
        "notice": "Update high tier status of a given account."
      }
    },
    "notice": "This contract acts as a placeholder for the real LDYStaking contract until this one is deployed.",
    "version": 1
  },
  "storageLayout": {
    "storage": [
      {
        "astId": 2904,
        "contract": "contracts/src/DummyLDYStaking.sol:LDYStaking",
        "label": "_owner",
        "offset": 0,
        "slot": "0",
        "type": "t_address"
      },
      {
        "astId": 3017,
        "contract": "contracts/src/DummyLDYStaking.sol:LDYStaking",
        "label": "_pendingOwner",
        "offset": 0,
        "slot": "1",
        "type": "t_address"
      },
      {
        "astId": 4710,
        "contract": "contracts/src/DummyLDYStaking.sol:LDYStaking",
        "label": "highTierAccounts",
        "offset": 0,
        "slot": "2",
        "type": "t_mapping(t_address,t_bool)"
      }
    ],
    "types": {
      "t_address": {
        "encoding": "inplace",
        "label": "address",
        "numberOfBytes": "20"
      },
      "t_bool": {
        "encoding": "inplace",
        "label": "bool",
        "numberOfBytes": "1"
      },
      "t_mapping(t_address,t_bool)": {
        "encoding": "mapping",
        "key": "t_address",
        "label": "mapping(address => bool)",
        "numberOfBytes": "32",
        "value": "t_bool"
      }
    }
  }
}