{
  "address": "0x2279B7A0a67DB372996a5FaB50D91eAA73d2eBe6",
  "abi": [
    {
      "inputs": [],
      "stateMutability": "nonpayable",
      "type": "constructor"
    },
    {
      "anonymous": false,
      "inputs": [
        {
          "indexed": false,
          "internalType": "address",
          "name": "previousAdmin",
          "type": "address"
        },
        {
          "indexed": false,
          "internalType": "address",
          "name": "newAdmin",
          "type": "address"
        }
      ],
      "name": "AdminChanged",
      "type": "event"
    },
    {
      "anonymous": false,
      "inputs": [
        {
          "indexed": true,
          "internalType": "address",
          "name": "beacon",
          "type": "address"
        }
      ],
      "name": "BeaconUpgraded",
      "type": "event"
    },
    {
      "anonymous": false,
      "inputs": [
        {
          "indexed": false,
          "internalType": "uint8",
          "name": "version",
          "type": "uint8"
        }
      ],
      "name": "Initialized",
      "type": "event"
    },
    {
      "anonymous": false,
      "inputs": [
        {
          "indexed": false,
          "internalType": "uint256",
          "name": "rewardAmount",
          "type": "uint256"
        },
        {
          "indexed": false,
          "internalType": "uint256",
          "name": "rewardPerSec",
          "type": "uint256"
        }
      ],
      "name": "NotifiedRewardAmount",
      "type": "event"
    },
    {
      "anonymous": false,
      "inputs": [
        {
          "indexed": true,
          "internalType": "address",
          "name": "previousOwner",
          "type": "address"
        },
        {
          "indexed": true,
          "internalType": "address",
          "name": "newOwner",
          "type": "address"
        }
      ],
      "name": "OwnershipTransferred",
      "type": "event"
    },
    {
      "anonymous": false,
      "inputs": [
        {
          "indexed": false,
          "internalType": "address",
          "name": "account",
          "type": "address"
        }
      ],
      "name": "Paused",
      "type": "event"
    },
    {
      "anonymous": false,
      "inputs": [
        {
          "indexed": true,
          "internalType": "address",
          "name": "user",
          "type": "address"
        },
        {
          "indexed": false,
          "internalType": "uint256",
          "name": "stakeIndex",
          "type": "uint256"
        },
        {
          "indexed": false,
          "internalType": "uint256",
          "name": "reward",
          "type": "uint256"
        }
      ],
      "name": "RewardPaid",
      "type": "event"
    },
    {
      "anonymous": false,
      "inputs": [
        {
          "indexed": true,
          "internalType": "address",
          "name": "user",
          "type": "address"
        },
        {
          "indexed": false,
          "internalType": "uint256",
          "name": "stakeIndex",
          "type": "uint256"
        },
        {
          "indexed": false,
          "internalType": "uint256",
          "name": "amount",
          "type": "uint256"
        }
      ],
      "name": "Staked",
      "type": "event"
    },
    {
      "anonymous": false,
      "inputs": [
        {
          "indexed": false,
          "internalType": "address",
          "name": "account",
          "type": "address"
        }
      ],
      "name": "Unpaused",
      "type": "event"
    },
    {
      "anonymous": false,
      "inputs": [
        {
          "indexed": true,
          "internalType": "address",
          "name": "user",
          "type": "address"
        },
        {
          "indexed": false,
          "internalType": "uint256",
          "name": "stakeIndex",
          "type": "uint256"
        },
        {
          "indexed": false,
          "internalType": "uint256",
          "name": "amount",
          "type": "uint256"
        }
      ],
      "name": "Unstaked",
      "type": "event"
    },
    {
      "anonymous": false,
      "inputs": [
        {
          "indexed": true,
          "internalType": "address",
          "name": "implementation",
          "type": "address"
        }
      ],
      "name": "Upgraded",
      "type": "event"
    },
    {
      "inputs": [],
      "name": "MULTIPLIER_BASIS",
      "outputs": [
        {
          "internalType": "uint256",
          "name": "",
          "type": "uint256"
        }
      ],
      "stateMutability": "view",
      "type": "function"
    },
    {
      "inputs": [
        {
          "internalType": "address",
          "name": "account",
          "type": "address"
        },
        {
          "internalType": "uint256",
          "name": "stakeIndex",
          "type": "uint256"
        }
      ],
      "name": "earned",
      "outputs": [
        {
          "internalType": "uint256",
          "name": "",
          "type": "uint256"
        }
      ],
      "stateMutability": "view",
      "type": "function"
    },
    {
      "inputs": [],
      "name": "finishAt",
      "outputs": [
        {
          "internalType": "uint256",
          "name": "",
          "type": "uint256"
        }
      ],
      "stateMutability": "view",
      "type": "function"
    },
    {
      "inputs": [
        {
          "internalType": "address",
          "name": "account",
          "type": "address"
        }
      ],
      "name": "getEarnedUser",
      "outputs": [
        {
          "internalType": "uint256[]",
          "name": "",
          "type": "uint256[]"
        }
      ],
      "stateMutability": "view",
      "type": "function"
    },
    {
      "inputs": [
        {
          "internalType": "uint256",
          "name": "stakeIndex",
          "type": "uint256"
        }
      ],
      "name": "getReward",
      "outputs": [],
      "stateMutability": "nonpayable",
      "type": "function"
    },
    {
      "inputs": [
        {
          "internalType": "uint256",
          "name": "index",
          "type": "uint256"
        }
      ],
      "name": "getStakeDurationInfo",
      "outputs": [
        {
          "components": [
            {
              "internalType": "uint256",
              "name": "duration",
              "type": "uint256"
            },
            {
              "internalType": "uint256",
              "name": "multiplier",
              "type": "uint256"
            }
          ],
          "internalType": "struct LDYStaking.StakeDurationInfo",
          "name": "",
          "type": "tuple"
        }
      ],
      "stateMutability": "view",
      "type": "function"
    },
    {
      "inputs": [
        {
          "internalType": "address",
          "name": "account",
          "type": "address"
        }
      ],
      "name": "getUserStakes",
      "outputs": [
        {
          "components": [
            {
              "internalType": "uint256",
              "name": "stakedAmount",
              "type": "uint256"
            },
            {
              "internalType": "uint256",
              "name": "unStakeAt",
              "type": "uint256"
            },
            {
              "internalType": "uint256",
              "name": "duration",
              "type": "uint256"
            },
            {
              "internalType": "uint256",
              "name": "rewardPerTokenPaid",
              "type": "uint256"
            },
            {
              "internalType": "uint256",
              "name": "rewards",
              "type": "uint256"
            }
          ],
          "internalType": "struct LDYStaking.StakingInfo[]",
          "name": "",
          "type": "tuple[]"
        }
      ],
      "stateMutability": "view",
      "type": "function"
    },
    {
      "inputs": [],
      "name": "globalBlacklist",
      "outputs": [
        {
          "internalType": "address",
          "name": "",
          "type": "address"
        }
      ],
      "stateMutability": "view",
      "type": "function"
    },
    {
      "inputs": [],
      "name": "globalOwner",
      "outputs": [
        {
          "internalType": "address",
          "name": "",
          "type": "address"
        }
      ],
      "stateMutability": "view",
      "type": "function"
    },
    {
      "inputs": [],
      "name": "globalPause",
      "outputs": [
        {
          "internalType": "address",
          "name": "",
          "type": "address"
        }
      ],
      "stateMutability": "view",
      "type": "function"
    },
    {
      "inputs": [
        {
          "internalType": "address",
          "name": "",
          "type": "address"
        }
      ],
      "name": "highTierAccounts",
      "outputs": [
        {
          "internalType": "bool",
          "name": "",
          "type": "bool"
        }
      ],
      "stateMutability": "view",
      "type": "function"
    },
    {
      "inputs": [
        {
          "internalType": "address",
          "name": "globalOwner_",
          "type": "address"
        },
        {
          "internalType": "address",
          "name": "globalPause_",
          "type": "address"
        },
        {
          "internalType": "address",
          "name": "globalBlacklist_",
          "type": "address"
        },
        {
          "internalType": "address",
          "name": "stakeRewardToken_",
          "type": "address"
        },
        {
          "components": [
            {
              "internalType": "uint256",
              "name": "duration",
              "type": "uint256"
            },
            {
              "internalType": "uint256",
              "name": "multiplier",
              "type": "uint256"
            }
          ],
          "internalType": "struct LDYStaking.StakeDurationInfo[]",
          "name": "stakeDurationInfos_",
          "type": "tuple[]"
        },
        {
          "internalType": "uint256",
          "name": "stakeDurationForPerks_",
          "type": "uint256"
        },
        {
          "internalType": "uint256",
          "name": "stakeAmountForPerks_",
          "type": "uint256"
        }
      ],
      "name": "initialize",
      "outputs": [],
      "stateMutability": "nonpayable",
      "type": "function"
    },
    {
      "inputs": [],
      "name": "lastTimeRewardApplicable",
      "outputs": [
        {
          "internalType": "uint256",
          "name": "",
          "type": "uint256"
        }
      ],
      "stateMutability": "view",
      "type": "function"
    },
    {
      "inputs": [],
      "name": "lastUpdateTime",
      "outputs": [
        {
          "internalType": "uint256",
          "name": "",
          "type": "uint256"
        }
      ],
      "stateMutability": "view",
      "type": "function"
    },
    {
      "inputs": [
        {
          "internalType": "uint256",
          "name": "amount",
          "type": "uint256"
        }
      ],
      "name": "notifyRewardAmount",
      "outputs": [],
      "stateMutability": "nonpayable",
      "type": "function"
    },
    {
      "inputs": [],
      "name": "owner",
      "outputs": [
        {
          "internalType": "address",
          "name": "",
          "type": "address"
        }
      ],
      "stateMutability": "view",
      "type": "function"
    },
    {
      "inputs": [],
      "name": "paused",
      "outputs": [
        {
          "internalType": "bool",
          "name": "",
          "type": "bool"
        }
      ],
      "stateMutability": "view",
      "type": "function"
    },
    {
      "inputs": [],
      "name": "proxiableUUID",
      "outputs": [
        {
          "internalType": "bytes32",
          "name": "",
          "type": "bytes32"
        }
      ],
      "stateMutability": "view",
      "type": "function"
    },
    {
      "inputs": [
        {
          "components": [
            {
              "internalType": "uint256",
              "name": "duration",
              "type": "uint256"
            },
            {
              "internalType": "uint256",
              "name": "multiplier",
              "type": "uint256"
            }
          ],
          "internalType": "struct LDYStaking.StakeDurationInfo",
          "name": "durationInfo",
          "type": "tuple"
        }
      ],
      "name": "pushStakeDurationInfo",
      "outputs": [],
      "stateMutability": "nonpayable",
      "type": "function"
    },
    {
      "inputs": [
        {
          "internalType": "address",
          "name": "tokenAddress",
          "type": "address"
        },
        {
          "internalType": "uint256",
          "name": "amount",
          "type": "uint256"
        }
      ],
      "name": "recoverERC20",
      "outputs": [],
      "stateMutability": "nonpayable",
      "type": "function"
    },
    {
      "inputs": [],
      "name": "renounceOwnership",
      "outputs": [],
      "stateMutability": "view",
      "type": "function"
    },
    {
      "inputs": [],
      "name": "rewardPerToken",
      "outputs": [
        {
          "internalType": "uint256",
          "name": "",
          "type": "uint256"
        }
      ],
      "stateMutability": "view",
      "type": "function"
    },
    {
      "inputs": [],
      "name": "rewardPerTokenStored",
      "outputs": [
        {
          "internalType": "uint256",
          "name": "",
          "type": "uint256"
        }
      ],
      "stateMutability": "view",
      "type": "function"
    },
    {
      "inputs": [],
      "name": "rewardRatePerSec",
      "outputs": [
        {
          "internalType": "uint256",
          "name": "",
          "type": "uint256"
        }
      ],
      "stateMutability": "view",
      "type": "function"
    },
    {
      "inputs": [],
      "name": "rewardsDuration",
      "outputs": [
        {
          "internalType": "uint256",
          "name": "",
          "type": "uint256"
        }
      ],
      "stateMutability": "view",
      "type": "function"
    },
    {
      "inputs": [
        {
          "internalType": "uint256",
          "name": "duration",
          "type": "uint256"
        }
      ],
      "name": "setRewardsDuration",
      "outputs": [],
      "stateMutability": "nonpayable",
      "type": "function"
    },
    {
      "inputs": [
        {
          "internalType": "uint256",
          "name": "stakeAmountForPerks_",
          "type": "uint256"
        }
      ],
      "name": "setStakeAmountForPerks",
      "outputs": [],
      "stateMutability": "nonpayable",
      "type": "function"
    },
    {
      "inputs": [
        {
          "internalType": "uint256",
          "name": "stakeDurationForPerks_",
          "type": "uint256"
        }
      ],
      "name": "setStakeDurationForPerks",
      "outputs": [],
      "stateMutability": "nonpayable",
      "type": "function"
    },
    {
      "inputs": [
        {
          "internalType": "uint256",
          "name": "amount",
          "type": "uint256"
        },
        {
          "internalType": "uint8",
          "name": "stakeDurationIndex",
          "type": "uint8"
        }
      ],
      "name": "stake",
      "outputs": [],
      "stateMutability": "nonpayable",
      "type": "function"
    },
    {
      "inputs": [],
      "name": "stakeAmountForPerks",
      "outputs": [
        {
          "internalType": "uint256",
          "name": "",
          "type": "uint256"
        }
      ],
      "stateMutability": "view",
      "type": "function"
    },
    {
      "inputs": [],
      "name": "stakeDurationForPerks",
      "outputs": [
        {
          "internalType": "uint256",
          "name": "",
          "type": "uint256"
        }
      ],
      "stateMutability": "view",
      "type": "function"
    },
    {
      "inputs": [
        {
          "internalType": "uint256",
          "name": "",
          "type": "uint256"
        }
      ],
      "name": "stakeDurationInfos",
      "outputs": [
        {
          "internalType": "uint256",
          "name": "duration",
          "type": "uint256"
        },
        {
          "internalType": "uint256",
          "name": "multiplier",
          "type": "uint256"
        }
      ],
      "stateMutability": "view",
      "type": "function"
    },
    {
      "inputs": [],
      "name": "stakeRewardToken",
      "outputs": [
        {
          "internalType": "contract IERC20Upgradeable",
          "name": "",
          "type": "address"
        }
      ],
      "stateMutability": "view",
      "type": "function"
    },
    {
      "inputs": [
        {
          "internalType": "address",
          "name": "account",
          "type": "address"
        }
      ],
      "name": "tierOf",
      "outputs": [
        {
          "internalType": "uint256",
          "name": "tier",
          "type": "uint256"
        }
      ],
      "stateMutability": "view",
      "type": "function"
    },
    {
      "inputs": [],
      "name": "totalRewards",
      "outputs": [
        {
          "internalType": "uint256",
          "name": "",
          "type": "uint256"
        }
      ],
      "stateMutability": "view",
      "type": "function"
    },
    {
      "inputs": [],
      "name": "totalStaked",
      "outputs": [
        {
          "internalType": "uint256",
          "name": "",
          "type": "uint256"
        }
      ],
      "stateMutability": "view",
      "type": "function"
    },
    {
      "inputs": [],
      "name": "totalWeightedStake",
      "outputs": [
        {
          "internalType": "uint256",
          "name": "",
          "type": "uint256"
        }
      ],
      "stateMutability": "view",
      "type": "function"
    },
    {
      "inputs": [
        {
          "internalType": "address",
          "name": "newOwner",
          "type": "address"
        }
      ],
      "name": "transferOwnership",
      "outputs": [],
      "stateMutability": "view",
      "type": "function"
    },
    {
      "inputs": [
        {
          "internalType": "uint256",
          "name": "amount",
          "type": "uint256"
        },
        {
          "internalType": "uint256",
          "name": "stakeIndex",
          "type": "uint256"
        }
      ],
      "name": "unstake",
      "outputs": [],
      "stateMutability": "nonpayable",
      "type": "function"
    },
    {
      "inputs": [
        {
          "internalType": "address",
          "name": "newImplementation",
          "type": "address"
        }
      ],
      "name": "upgradeTo",
      "outputs": [],
      "stateMutability": "nonpayable",
      "type": "function"
    },
    {
      "inputs": [
        {
          "internalType": "address",
          "name": "newImplementation",
          "type": "address"
        },
        {
          "internalType": "bytes",
          "name": "data",
          "type": "bytes"
        }
      ],
      "name": "upgradeToAndCall",
      "outputs": [],
      "stateMutability": "payable",
      "type": "function"
    },
    {
      "inputs": [
        {
          "internalType": "address",
          "name": "",
          "type": "address"
        },
        {
          "internalType": "uint256",
          "name": "",
          "type": "uint256"
        }
      ],
      "name": "userStakingInfo",
      "outputs": [
        {
          "internalType": "uint256",
          "name": "stakedAmount",
          "type": "uint256"
        },
        {
          "internalType": "uint256",
          "name": "unStakeAt",
          "type": "uint256"
        },
        {
          "internalType": "uint256",
          "name": "duration",
          "type": "uint256"
        },
        {
          "internalType": "uint256",
          "name": "rewardPerTokenPaid",
          "type": "uint256"
        },
        {
          "internalType": "uint256",
          "name": "rewards",
          "type": "uint256"
        }
      ],
      "stateMutability": "view",
      "type": "function"
    }
  ],
  "transactionHash": "0xfabe47b8ba31dad71e029260b84976aae25abb4d07b9752d5e94886744ddecea",
  "args": [],
  "numDeployments": 1,
  "solcInputHash": "08ddb93411e2a1f8f8b878ec7ebf111c",
  "bytecode": "0x60a0604052306080523480156200001557600080fd5b506200002062000030565b6200002a62000030565b620000f1565b600054610100900460ff16156200009d5760405162461bcd60e51b815260206004820152602760248201527f496e697469616c697a61626c653a20636f6e747261637420697320696e697469604482015266616c697a696e6760c81b606482015260840160405180910390fd5b60005460ff90811614620000ef576000805460ff191660ff9081179091556040519081527f7f26b83ff96e1f2b6a682f133852f6798a09c465da95921460cefb38474024989060200160405180910390a15b565b6080516130c06200012960003960008181610b1501528181610b5501528181610f8601528181610fc6015261103e01526130c06000f3fe6080604052600436106102515760003560e01c8063817b1cd211610139578063c8f33c91116100b6578063df136d651161007a578063df136d65146106e5578063eed9da1f146106fc578063f12d54d814610713578063f2fde38b14610732578063f6c3565014610752578063f762e7341461077357600080fd5b8063c8f33c9114610662578063c8f74bb814610679578063cc1a378f14610699578063cd3daf9d146106b9578063cedaf639146106ce57600080fd5b80639e2c8a5b116100fd5780639e2c8a5b1461059f578063a029e898146105bf578063bddff592146105fa578063be01d6c714610611578063c66120f41461063157600080fd5b8063817b1cd21461050f578063842e2981146105265780638980f11f146105535780638da5cb5b146105735780639b602f0a1461058857600080fd5b80634f1ef286116101d257806367d3b4881161019657806367d3b48814610459578063715018a614610470578063793e875e146104855780637b2cca38146104a55780637c2edb16146104d257806380faa57d146104fa57600080fd5b80634f1ef286146103b757806352d1902d146103ca5780635c046e66146103df5780635c975abb1461041457806363d071201461043957600080fd5b8063386a952511610219578063386a95251461032a5780633c6b16ab146103415780633e491d471461036157806340a8d39f146103815780634a7f48041461039757600080fd5b806304d978f1146102565780630e15561a146102a357806310087fb1146102c85780631c4b774b146102ea5780633659cfe61461030a575b600080fd5b34801561026257600080fd5b50610276610271366004612984565b610791565b604080519586526020860194909452928401919091526060830152608082015260a0015b60405180910390f35b3480156102af57600080fd5b506102ba6102365481565b60405190815260200161029a565b3480156102d457600080fd5b506102e86102e33660046129b0565b6107e0565b005b3480156102f657600080fd5b506102e86103053660046129e6565b610a7e565b34801561031657600080fd5b506102e86103253660046129ff565b610b0b565b34801561033657600080fd5b506102ba61022e5481565b34801561034d57600080fd5b506102e861035c3660046129e6565b610bd0565b34801561036d57600080fd5b506102ba61037c366004612984565b610e6c565b34801561038d57600080fd5b506102ba61271081565b3480156103a357600080fd5b506102e86103b23660046129e6565b610f6e565b6102e86103c5366004612a63565b610f7c565b3480156103d657600080fd5b506102ba611031565b3480156103eb57600080fd5b506103ff6103fa3660046129e6565b6110df565b6040805192835260208301919091520161029a565b34801561042057600080fd5b5061042961110e565b604051901515815260200161029a565b34801561044557600080fd5b506102e8610454366004612b5a565b611182565b34801561046557600080fd5b506102ba61022f5481565b34801561047c57600080fd5b506102e861132a565b34801561049157600080fd5b506102e86104a0366004612c6b565b611360565b3480156104b157600080fd5b506104c56104c03660046129ff565b6113d2565b60405161029a9190612c87565b3480156104de57600080fd5b50610161546001600160a01b03165b60405161029a9190612ccb565b34801561050657600080fd5b506102ba611480565b34801561051b57600080fd5b506102ba6102335481565b34801561053257600080fd5b506105466105413660046129ff565b61148f565b60405161029a9190612cdf565b34801561055f57600080fd5b506102e861056e366004612984565b611537565b34801561057f57600080fd5b506104ed611633565b34801561059457600080fd5b506102ba61022c5481565b3480156105ab57600080fd5b506102e86105ba366004612d4d565b6116a1565b3480156105cb57600080fd5b506105df6105da3660046129e6565b611b86565b6040805182518152602092830151928101929092520161029a565b34801561060657600080fd5b506102ba6102315481565b34801561061d57600080fd5b506102e861062c3660046129e6565b611c30565b34801561063d57600080fd5b5061042961064c3660046129ff565b6102376020526000908152604090205460ff1681565b34801561066e57600080fd5b506102ba6102305481565b34801561068557600080fd5b506102ba6106943660046129ff565b611c3e565b3480156106a557600080fd5b506102e86106b43660046129e6565b611c70565b3480156106c557600080fd5b506102ba611cd0565b3480156106da57600080fd5b506102ba61022b5481565b3480156106f157600080fd5b506102ba6102325481565b34801561070857600080fd5b506102ba6102345481565b34801561071f57600080fd5b5061012e546001600160a01b03166104ed565b34801561073e57600080fd5b506102e861074d3660046129ff565b611d37565b34801561075e57600080fd5b5061022a546104ed906001600160a01b031681565b34801561077f57600080fd5b5060fb546001600160a01b03166104ed565b61023560205281600052604060002081815481106107ae57600080fd5b600091825260209091206005909102018054600182015460028301546003840154600490940154929550909350919085565b6107e8611d6c565b6107f0611dc7565b336107fa81611e11565b156108205760405162461bcd60e51b815260040161081790612d6f565b60405180910390fd5b600083116108405760405162461bcd60e51b815260040161081790612d8b565b61022d5461085090600190612dc5565b8260ff16111561089b5760405162461bcd60e51b8152602060048201526016602482015275125b9d985b1a59081cdd185ada5b99c81c195c9a5bd960521b6044820152606401610817565b6108a6600080611e84565b600061022d8360ff16815481106108bf576108bf612dd8565b600091825260208083206040805180820182526002909402909101805484526001015483830152805160a08101909152878152825192945091908201906109069042612dee565b815283516020820152610232546040820152600060609091015261022b5483519192501180159061093a575061022c548510155b1561095b5733600090815261023760205260409020805460ff191660011790555b3360008181526102356020908152604080832080546001808201835582865284862088516005909302019182559387015181850155918601516002830155606086015160038301556080860151600490920191909155928252915490916109c191612dc5565b905060006127108460200151886109d89190612e01565b6109e29190612e18565b90508061023460008282546109f79190612dee565b92505081905550866102336000828254610a119190612dee565b909155505061022a54610a2f906001600160a01b031633308a611f49565b604080518381526020810189905233917f1449c6dd7851abc30abf37f57715f492010519147cc2652fbc38202c18a6ee90910160405180910390a25050505050610a7a60016101f855565b5050565b610a86611d6c565b33610a9081611e11565b15610aad5760405162461bcd60e51b815260040161081790612d6f565b610ab8826001612dee565b33600090815261023560205260409020541015610ae75760405162461bcd60e51b815260040161081790612e3a565b610af2335b83611e84565b610afc3383611fba565b50610b0860016101f855565b50565b6001600160a01b037f0000000000000000000000000000000000000000000000000000000000000000163003610b535760405162461bcd60e51b815260040161081790612e66565b7f00000000000000000000000000000000000000000000000000000000000000006001600160a01b0316610b856120bb565b6001600160a01b031614610bab5760405162461bcd60e51b815260040161081790612eb2565b610bb4816120d7565b60408051600080825260208201909252610b08918391906120df565b610bd861224a565b600061022e5411610c2b5760405162461bcd60e51b815260206004820152601b60248201527f72657761726473206475726174696f6e206973206e6f742073657400000000006044820152606401610817565b60008111610c4b5760405162461bcd60e51b815260040161081790612d8b565b610c56600080611e84565b61022f544210610c775761022e54610c6e9082612e18565b61023155610cb7565b6000610231544261022f54610c8c9190612dc5565b610c969190612e01565b61022e54909150610ca78284612dee565b610cb19190612e18565b61023155505b60006102315411610cfc5760405162461bcd60e51b815260206004820152600f60248201526e07265776172642072617465203d203608c1b6044820152606401610817565b61022e546102335461022a546040516370a0823160e01b815284916001600160a01b0316906370a0823190610d35903090600401612ccb565b602060405180830381865afa158015610d52573d6000803e3d6000fd5b505050506040513d601f19601f82011682018060405250810190610d769190612efe565b610d809190612dee565b610d8a9190612dc5565b610d949190612e18565b610231541115610de05760405162461bcd60e51b815260206004820152601760248201527672657761726420616d6f756e74203e2062616c616e636560481b6044820152606401610817565b61022e54610dee9042612dee565b61022f5542610230556102368054829190600090610e0d908490612dee565b909155505061022a54610e2b906001600160a01b0316333084611f49565b610231546040805183815260208101929092527fc3ed9e2a55e03c1173986e2799c70b4a5654ed43739f79f1ad3833683dad9f7f910160405180910390a150565b6001600160a01b038216600090815261023560205260408120805482919084908110610e9a57610e9a612dd8565b90600052602060002090600502016040518060a00160405290816000820154815260200160018201548152602001600282015481526020016003820154815260200160048201548152505090506000610ef682604001516122a9565b90506000612710828460000151610f0d9190612e01565b610f179190612e18565b90506000670de0b6b3a76400008460600151610f31611cd0565b610f3b9190612dc5565b610f459084612e01565b610f4f9190612e18565b9050836080015181610f619190612dee565b9450505050505b92915050565b610f7661224a565b61022b55565b6001600160a01b037f0000000000000000000000000000000000000000000000000000000000000000163003610fc45760405162461bcd60e51b815260040161081790612e66565b7f00000000000000000000000000000000000000000000000000000000000000006001600160a01b0316610ff66120bb565b6001600160a01b03161461101c5760405162461bcd60e51b815260040161081790612eb2565b611025826120d7565b610a7a828260016120df565b6000306001600160a01b037f000000000000000000000000000000000000000000000000000000000000000016146110cc5760405162461bcd60e51b815260206004820152603860248201527f555550535570677261646561626c653a206d757374206e6f742062652063616c6044820152771b1959081d1a1c9bdd59da0819195b1959d85d1958d85b1b60421b6064820152608401610817565b5060008051602061304483398151915290565b61022d81815481106110f057600080fd5b60009182526020909120600290910201805460019091015490915082565b61012e5460408051635c975abb60e01b815290516000926001600160a01b031691635c975abb9160048083019260209291908290030181865afa158015611159573d6000803e3d6000fd5b505050506040513d601f19601f8201168201806040525081019061117d9190612f17565b905090565b600054610100900460ff16158080156111a25750600054600160ff909116105b806111bc5750303b1580156111bc575060005460ff166001145b61121f5760405162461bcd60e51b815260206004820152602e60248201527f496e697469616c697a61626c653a20636f6e747261637420697320616c72656160448201526d191e481a5b9a5d1a585b1a5e995960921b6064820152608401610817565b6000805460ff191660011790558015611242576000805461ff0019166101001790555b61124d888888612333565b61022a80546001600160a01b0319166001600160a01b038716179055835160005b818110156112cc5761022d86828151811061128b5761128b612dd8565b6020908102919091018101518254600181810185556000948552938390208251600290920201908155910151910155806112c481612f39565b91505061126e565b505061022b83905561022c8290558015611320576000805461ff0019169055604051600181527f7f26b83ff96e1f2b6a682f133852f6798a09c465da95921460cefb38474024989060200160405180910390a15b5050505050505050565b61133261224a565b60405162461bcd60e51b81526020600482015260036024820152624c363560e81b6044820152606401610817565b61136861224a565b61022d805460018101825560009190915281517fcbe5eb94ee31c6183f3d82fc7ed725908f7d7e2da0ee28e8d5e09973be5efd3d6002909202918201556020909101517fcbe5eb94ee31c6183f3d82fc7ed725908f7d7e2da0ee28e8d5e09973be5efd3e90910155565b6001600160a01b038116600090815261023560205260408120546060918167ffffffffffffffff81111561140857611408612a1c565b604051908082528060200260200182016040528015611431578160200160208202803683370190505b50905060005b82811015611478576114498582610e6c565b82828151811061145b5761145b612dd8565b60209081029190910101528061147081612f39565b915050611437565b509392505050565b600061117d61022f544261238d565b6001600160a01b038116600090815261023560209081526040808320805482518185028101850190935280835260609492939192909184015b8282101561152c57838290600052602060002090600502016040518060a001604052908160008201548152602001600182015481526020016002820154815260200160038201548152602001600482015481525050815260200190600101906114c8565b505050509050919050565b61153f61224a565b600081116115755760405162461bcd60e51b815260206004820152600360248201526204c31360ec1b6044820152606401610817565b6040516370a0823160e01b8152829082906001600160a01b038316906370a08231906115a5903090600401612ccb565b602060405180830381865afa1580156115c2573d6000803e3d6000fd5b505050506040513d601f19601f820116820180604052508101906115e69190612efe565b101561161a5760405162461bcd60e51b81526020600482015260036024820152624c313160e81b6044820152606401610817565b61162e6001600160a01b03821633846123a6565b505050565b60fb5460408051638da5cb5b60e01b815290516000926001600160a01b031691638da5cb5b9160048083019260209291908290030181865afa15801561167d573d6000803e3d6000fd5b505050506040513d601f19601f8201168201806040525081019061117d9190612f52565b6116a9611d6c565b336116b381611e11565b156116d05760405162461bcd60e51b815260040161081790612d6f565b600083116116f05760405162461bcd60e51b815260040161081790612d8b565b6116fb826001612dee565b3360009081526102356020526040902054101561172a5760405162461bcd60e51b815260040161081790612e3a565b3360009081526102356020526040902080548390811061174c5761174c612dd8565b9060005260206000209060050201600101544210156117b95760405162461bcd60e51b8152602060048201526024808201527f43616e6e6f7420756e7374616b6520647572696e67207374616b696e672070656044820152631c9a5bd960e21b6064820152608401610817565b336000908152610235602052604090208054839081106117db576117db612dd8565b90600052602060002090600502016000015483111561183c5760405162461bcd60e51b815260206004820152601b60248201527f496e73756666696369656e7420756e7374616b6520616d6f756e7400000000006044820152606401610817565b61184533610aec565b33600090815261023560205260408120805461188391908590811061186c5761186c612dd8565b9060005260206000209060050201600201546122a9565b905060006127106118948387612e01565b61189e9190612e18565b90508061023460008282546118b39190612dc5565b925050819055508461023360008282546118cd9190612dc5565b9091555050336000908152610235602052604090208054869190869081106118f7576118f7612dd8565b906000526020600020906005020160000160008282546119179190612dc5565b909155505061022b543360009081526102356020526040902080548690811061194257611942612dd8565b90600052602060002090600502016002015410158015611997575061022c543360009081526102356020526040902080548690811061198357611983612dd8565b906000526020600020906005020160000154105b156119b55733600090815261023760205260409020805460ff191690555b336000908152610235602052604090208054859081106119d7576119d7612dd8565b906000526020600020906005020160000154600003611b25576119fa3385611fba565b336000908152610235602052604090208054611a1890600190612dc5565b81548110611a2857611a28612dd8565b90600052602060002090600502016102356000611a423390565b6001600160a01b03166001600160a01b031681526020019081526020016000208581548110611a7357611a73612dd8565b906000526020600020906005020160008201548160000155600182015481600101556002820154816002015560038201548160030155600482015481600401559050506102356000611ac23390565b6001600160a01b03166001600160a01b03168152602001908152602001600020805480611af157611af1612f6f565b6000828152602081206005600019909301928302018181556001810182905560028101829055600381018290556004015590555b611b3d3361022a546001600160a01b031690876123a6565b604080518581526020810187905233917f7fc4727e062e336010f2c282598ef5f14facb3de68cf8195c2f23e1454b2b74e910160405180910390a2505050610a7a60016101f855565b604080518082019091526000808252602082015261022d548290611bac90600190612dc5565b1015611be85760405162461bcd60e51b815260206004820152600b60248201526a0eee4dedcce40d2dcc8caf60ab1b6044820152606401610817565b61022d8281548110611bfc57611bfc612dd8565b9060005260206000209060020201604051806040016040529081600082015481526020016001820154815250509050919050565b611c3861224a565b61022c55565b6001600160a01b0381166000908152610237602052604081205460ff1615611c6857506003919050565b506000919050565b611c7861224a565b4261022f5410611cca5760405162461bcd60e51b815260206004820152601f60248201527f726577617264206475726174696f6e206973206e6f742066696e6973686564006044820152606401610817565b61022e55565b600061023354600003611ce557506102325490565b6102345461023054611cf5611480565b611cff9190612dc5565b61023154611d0d9190612e01565b611d1f90670de0b6b3a7640000612e01565b611d299190612e18565b6102325461117d9190612dee565b611d3f61224a565b60405162461bcd60e51b8152602060048201526002602482015261098760f31b6044820152606401610817565b60026101f85403611dbf5760405162461bcd60e51b815260206004820152601f60248201527f5265656e7472616e637947756172643a207265656e7472616e742063616c6c006044820152606401610817565b60026101f855565b611dcf61110e565b15611e0f5760405162461bcd60e51b815260206004820152601060248201526f14185d5cd8589b194e881c185d5cd95960821b6044820152606401610817565b565b6101615460405163fe575a8760e01b81526000916001600160a01b03169063fe575a8790611e43908590600401612ccb565b602060405180830381865afa158015611e60573d6000803e3d6000fd5b505050506040513d601f19601f82011682018060405250810190610f689190612f17565b611e8c611cd0565b61023255611e98611480565b610230556001600160a01b03821615610a7a57611eb58282610e6c565b6001600160a01b038316600090815261023560205260409020805483908110611ee057611ee0612dd8565b906000526020600020906005020160040181905550610232546102356000846001600160a01b03166001600160a01b031681526020019081526020016000208281548110611f3057611f30612dd8565b9060005260206000209060050201600301819055505050565b6040516001600160a01b0380851660248301528316604482015260648101829052611fb49085906323b872dd60e01b906084015b60408051601f198184030181529190526020810180516001600160e01b03166001600160e01b0319909316929092179091526123d6565b50505050565b6001600160a01b038216600090815261023560205260408120805483908110611fe557611fe5612dd8565b9060005260206000209060050201600401549050600081111561162e576001600160a01b03831660009081526102356020526040812080548490811061202d5761202d612dd8565b9060005260206000209060050201600401819055508061023660008282546120559190612dc5565b909155505061022a54612072906001600160a01b031684836123a6565b60408051838152602081018390526001600160a01b038516917fd6f2c8500df5b44f11e9e48b91ff9f1b9d81bc496d55570c2b1b75bf65243f51910160405180910390a2505050565b600080516020613044833981519152546001600160a01b031690565b610b0861224a565b7f4910fdfa16fed3260ed0e7147f7cc6da11a60208b5b9406d12a635614ffd91435460ff16156121125761162e836124ab565b826001600160a01b03166352d1902d6040518163ffffffff1660e01b8152600401602060405180830381865afa92505050801561216c575060408051601f3d908101601f1916820190925261216991810190612efe565b60015b6121cf5760405162461bcd60e51b815260206004820152602e60248201527f45524331393637557067726164653a206e657720696d706c656d656e7461746960448201526d6f6e206973206e6f74205555505360901b6064820152608401610817565b600080516020613044833981519152811461223e5760405162461bcd60e51b815260206004820152602960248201527f45524331393637557067726164653a20756e737570706f727465642070726f786044820152681a58589b195555525160ba1b6064820152608401610817565b5061162e838383612547565b33612253611633565b6001600160a01b031614611e0f5760405162461bcd60e51b815260206004820181905260248201527f4f776e61626c653a2063616c6c6572206973206e6f7420746865206f776e65726044820152606401610817565b61022d54600090815b8181101561232957600061022d82815481106122d0576122d0612dd8565b9060005260206000209060020201604051806040016040529081600082015481526020016001820154815250509050806000015185036123165760200151949350505050565b508061232181612f39565b9150506122b2565b5060009392505050565b600054610100900460ff1661235a5760405162461bcd60e51b815260040161081790612f85565b61236261256c565b61236b83612593565b6123736125c3565b61237c826125f2565b6123858161263c565b61162e61256c565b60008183111561239d578161239f565b825b9392505050565b6040516001600160a01b03831660248201526044810182905261162e90849063a9059cbb60e01b90606401611f7d565b600061242b826040518060400160405280602081526020017f5361666545524332303a206c6f772d6c6576656c2063616c6c206661696c6564815250856001600160a01b03166126869092919063ffffffff16565b905080516000148061244c57508080602001905181019061244c9190612f17565b61162e5760405162461bcd60e51b815260206004820152602a60248201527f5361666545524332303a204552433230206f7065726174696f6e20646964206e6044820152691bdd081cdd58d8d9595960b21b6064820152608401610817565b6001600160a01b0381163b6125185760405162461bcd60e51b815260206004820152602d60248201527f455243313936373a206e657720696d706c656d656e746174696f6e206973206e60448201526c1bdd08184818dbdb9d1c9858dd609a1b6064820152608401610817565b60008051602061304483398151915280546001600160a01b0319166001600160a01b0392909216919091179055565b6125508361269d565b60008251118061255d5750805b1561162e57611fb483836126dd565b600054610100900460ff16611e0f5760405162461bcd60e51b815260040161081790612f85565b600054610100900460ff166125ba5760405162461bcd60e51b815260040161081790612f85565b610b0881612702565b600054610100900460ff166125ea5760405162461bcd60e51b815260040161081790612f85565b611e0f61274b565b600054610100900460ff166126195760405162461bcd60e51b815260040161081790612f85565b61012e80546001600160a01b0319166001600160a01b0392909216919091179055565b600054610100900460ff166126635760405162461bcd60e51b815260040161081790612f85565b61016180546001600160a01b0319166001600160a01b0392909216919091179055565b6060612695848460008561277e565b949350505050565b6126a6816124ab565b6040516001600160a01b038216907fbc7cd75a20ee27fd9adebab32041f755214dbc6bffa90cc0225b39da2e5c2d3b90600090a250565b606061239f838360405180606001604052806027815260200161306460279139612859565b600054610100900460ff166127295760405162461bcd60e51b815260040161081790612f85565b60fb80546001600160a01b0319166001600160a01b0392909216919091179055565b600054610100900460ff166127725760405162461bcd60e51b815260040161081790612f85565b6097805460ff19169055565b6060824710156127df5760405162461bcd60e51b815260206004820152602660248201527f416464726573733a20696e73756666696369656e742062616c616e636520666f6044820152651c8818d85b1b60d21b6064820152608401610817565b600080866001600160a01b031685876040516127fb9190612ff4565b60006040518083038185875af1925050503d8060008114612838576040519150601f19603f3d011682016040523d82523d6000602084013e61283d565b606091505b509150915061284e878383876128d1565b979650505050505050565b6060600080856001600160a01b0316856040516128769190612ff4565b600060405180830381855af49150503d80600081146128b1576040519150601f19603f3d011682016040523d82523d6000602084013e6128b6565b606091505b50915091506128c7868383876128d1565b9695505050505050565b60608315612940578251600003612939576001600160a01b0385163b6129395760405162461bcd60e51b815260206004820152601d60248201527f416464726573733a2063616c6c20746f206e6f6e2d636f6e74726163740000006044820152606401610817565b5081612695565b61269583838151156129555781518083602001fd5b8060405162461bcd60e51b81526004016108179190613010565b6001600160a01b0381168114610b0857600080fd5b6000806040838503121561299757600080fd5b82356129a28161296f565b946020939093013593505050565b600080604083850312156129c357600080fd5b82359150602083013560ff811681146129db57600080fd5b809150509250929050565b6000602082840312156129f857600080fd5b5035919050565b600060208284031215612a1157600080fd5b813561239f8161296f565b634e487b7160e01b600052604160045260246000fd5b604051601f8201601f1916810167ffffffffffffffff81118282101715612a5b57612a5b612a1c565b604052919050565b60008060408385031215612a7657600080fd5b8235612a818161296f565b915060208381013567ffffffffffffffff80821115612a9f57600080fd5b818601915086601f830112612ab357600080fd5b813581811115612ac557612ac5612a1c565b612ad7601f8201601f19168501612a32565b91508082528784828501011115612aed57600080fd5b80848401858401376000848284010152508093505050509250929050565b600060408284031215612b1d57600080fd5b6040516040810181811067ffffffffffffffff82111715612b4057612b40612a1c565b604052823581526020928301359281019290925250919050565b600080600080600080600060e0888a031215612b7557600080fd5b8735612b808161296f565b9650602088810135612b918161296f565b9650604089810135612ba28161296f565b965060608a0135612bb28161296f565b955060808a013567ffffffffffffffff80821115612bcf57600080fd5b818c0191508c601f830112612be357600080fd5b813581811115612bf557612bf5612a1c565b612c03858260051b01612a32565b818152858101925060069190911b83018501908e821115612c2357600080fd5b928501925b81841015612c4957612c3a8f85612b0b565b83529284019291850191612c28565b9b9e9a9d50989b979a9960a0890135995060c090980135979650505050505050565b600060408284031215612c7d57600080fd5b61239f8383612b0b565b6020808252825182820181905260009190848201906040850190845b81811015612cbf57835183529284019291840191600101612ca3565b50909695505050505050565b6001600160a01b0391909116815260200190565b602080825282518282018190526000919060409081850190868401855b82811015612d405781518051855286810151878601528581015186860152606080820151908601526080908101519085015260a09093019290850190600101612cfc565b5091979650505050505050565b60008060408385031215612d6057600080fd5b50508035926020909101359150565b6020808252600290820152614c3960f01b604082015260600190565b6020808252600a90820152690616d6f756e74203d20360b41b604082015260600190565b634e487b7160e01b600052601160045260246000fd5b81810381811115610f6857610f68612daf565b634e487b7160e01b600052603260045260246000fd5b80820180821115610f6857610f68612daf565b8082028115828204841417610f6857610f68612daf565b600082612e3557634e487b7160e01b600052601260045260246000fd5b500490565b602080825260129082015271092dcecc2d8d2c840e6e8c2d6ca92dcc8caf60731b604082015260600190565b6020808252602c908201527f46756e6374696f6e206d7573742062652063616c6c6564207468726f7567682060408201526b19195b1959d85d1958d85b1b60a21b606082015260800190565b6020808252602c908201527f46756e6374696f6e206d7573742062652063616c6c6564207468726f7567682060408201526b6163746976652070726f787960a01b606082015260800190565b600060208284031215612f1057600080fd5b5051919050565b600060208284031215612f2957600080fd5b8151801515811461239f57600080fd5b600060018201612f4b57612f4b612daf565b5060010190565b600060208284031215612f6457600080fd5b815161239f8161296f565b634e487b7160e01b600052603160045260246000fd5b6020808252602b908201527f496e697469616c697a61626c653a20636f6e7472616374206973206e6f74206960408201526a6e697469616c697a696e6760a81b606082015260800190565b60005b83811015612feb578181015183820152602001612fd3565b50506000910152565b60008251613006818460208701612fd0565b9190910192915050565b602081526000825180602084015261302f816040850160208701612fd0565b601f01601f1916919091016040019291505056fe360894a13ba1a3210667c828492db98dca3e2076cc3735a920a3ca505d382bbc416464726573733a206c6f772d6c6576656c2064656c65676174652063616c6c206661696c6564a2646970667358221220dd8f5718c929011317fcd87e89f5583d4a3d3bab40cf01666a792f08e3afe72d64736f6c63430008120033",
  "devdoc": {
    "custom:security-contact": "security@ledgity.comsecurity@ledgity.com",
    "details": "This contract implements tierOf() function from LDYStaking as it's the only one the LToken contract relies on.",
    "events": {
      "AdminChanged(address,address)": {
        "details": "Emitted when the admin account has changed."
      },
      "BeaconUpgraded(address)": {
        "details": "Emitted when the beacon is changed."
      },
      "Initialized(uint8)": {
        "details": "Triggered when the contract has been initialized or reinitialized."
      },
      "NotifiedRewardAmount(uint256,uint256)": {
        "params": {
          "rewardAmount": "Reward amount added by admin.",
          "rewardPerSec": "RewardRatePerSec updated."
        }
      },
      "Paused(address)": {
        "details": "Emitted when the pause is triggered by `account`."
      },
      "RewardPaid(address,uint256,uint256)": {
        "params": {
          "reward": "Reward token amount",
          "stakeIndex": "User staking pool index",
          "user": "User address"
        }
      },
      "Staked(address,uint256,uint256)": {
        "params": {
          "amount": "Staked amount",
          "stakeIndex": "Latest index of user staking pool",
          "user": "User address"
        }
      },
      "Unpaused(address)": {
        "details": "Emitted when the pause is lifted by `account`."
      },
      "Unstaked(address,uint256,uint256)": {
        "params": {
          "amount": "Staked amount",
          "stakeIndex": "User staking pool index",
          "user": "User address"
        }
      },
      "Upgraded(address)": {
        "details": "Emitted when the implementation is upgraded."
      }
    },
    "kind": "dev",
    "methods": {
      "constructor": {
        "custom:oz-upgrades-unsafe-allow": "constructor"
      },
      "earned(address,uint256)": {
        "params": {
          "account": "Address of the user.",
          "stakeIndex": "Index of the stakePool"
        },
        "returns": {
          "_0": "Return earned amounts"
        }
      },
      "getEarnedUser(address)": {
        "params": {
          "account": "Address of the user."
        },
        "returns": {
          "_0": "Return earned rewards array for a user."
        }
      },
      "getReward(uint256)": {
        "details": "Emits a `RewardPaid` event upon successful reward claim.",
        "params": {
          "stakeIndex": "The index of user staking pool."
        }
      },
      "getStakeDurationInfo(uint256)": {
        "params": {
          "index": "Index of StakeDurationInfos."
        },
        "returns": {
          "_0": "StakeDurationInfo."
        }
      },
      "getUserStakes(address)": {
        "params": {
          "account": "The address of user."
        },
        "returns": {
          "_0": "StakingInfo array."
        }
      },
      "globalBlacklist()": {
        "returns": {
          "_0": "The address of the GlobalBlacklist contract."
        }
      },
      "globalOwner()": {
        "returns": {
          "_0": "The address of the GlobalOwner contract."
        }
      },
      "globalPause()": {
        "returns": {
          "_0": "The address of the GlobalPause contract."
        }
      },
      "initialize(address,address,address,address,(uint256,uint256)[],uint256,uint256)": {
        "details": "This function is intended for setting initial values for the contract's state variables.",
        "params": {
          "globalBlacklist_": "The address of the GlobalBlacklist contract.",
          "globalOwner_": "The address of the GlobalOwner contract.",
          "globalPause_": "The address of the GlobalPause contract.",
          "stakeAmountForPerks_": "Minimal staking amount for perks.",
          "stakeDurationForPerks_": "Minimal staking duration for perks.",
          "stakeDurationInfos_": "Available Staking Durations.",
          "stakeRewardToken_": "The address of stake and reward token(LDY token)."
        }
      },
      "lastTimeRewardApplicable()": {
        "returns": {
          "_0": "Timestamp of the most recent rewards calculation."
        }
      },
      "notifyRewardAmount(uint256)": {
        "details": "Only callable by owner.",
        "params": {
          "amount": "The amount of reward to be distributed."
        }
      },
      "owner()": {
        "returns": {
          "_0": "The address of the owner"
        }
      },
      "paused()": {
        "returns": {
          "_0": "Whether the contract is paused or not."
        }
      },
      "proxiableUUID()": {
        "details": "Implementation of the ERC1822 {proxiableUUID} function. This returns the storage slot used by the implementation. It is used to validate the implementation's compatibility when performing an upgrade. IMPORTANT: A proxy pointing at a proxiable contract should not be considered proxiable itself, because this risks bricking a proxy that upgrades to it, by delegating to itself until out of gas. Thus it is critical that this function revert if invoked through a proxy. This is guaranteed by the `notDelegated` modifier."
      },
      "pushStakeDurationInfo((uint256,uint256))": {
        "details": "Only callable by owner."
      },
      "recoverERC20(address,uint256)": {
        "params": {
          "amount": "The amount of token to recover.",
          "tokenAddress": "The address of the token to recover."
        }
      },
      "rewardPerToken()": {
        "returns": {
          "_0": "Current reward per token."
        }
      },
      "setRewardsDuration(uint256)": {
        "details": "Only callable by owner, and setting available only after rewards period.",
        "params": {
          "duration": "New reward duration in seconds."
        }
      },
      "setStakeAmountForPerks(uint256)": {
        "details": "Only callable by owner.",
        "params": {
          "stakeAmountForPerks_": "New stakeDurationForPerks."
        }
      },
      "setStakeDurationForPerks(uint256)": {
        "details": "Only callable by owner.",
        "params": {
          "stakeDurationForPerks_": "New stakeDurationForPerks."
        }
      },
      "stake(uint256,uint8)": {
        "details": "Emits a `Staked` event upon successful staking.",
        "params": {
          "amount": "The amount of tokens to stake.",
          "stakeDurationIndex": "The Index of stakeDurationInfos array."
        }
      },
      "tierOf(address)": {
        "details": "tierOf() function that always return that the given account is not elligible to any LDY staking tier, except if the account is in the highTierAccounts mapping.",
        "params": {
          "account": "The account to check the tier of."
        }
      },
      "unstake(uint256,uint256)": {
        "details": "Emits a `Unstaked` event upon successful withdrawal. On full withdrawal, userStakingInfo removes stake pool for stakeIndex.",
        "params": {
          "amount": "The amount of tokens to withdraw.",
          "stakeIndex": "The index of user staking pool"
        }
      },
      "upgradeTo(address)": {
        "custom:oz-upgrades-unsafe-allow-reachable": "delegatecall",
        "details": "Upgrade the implementation of the proxy to `newImplementation`. Calls {_authorizeUpgrade}. Emits an {Upgraded} event."
      },
      "upgradeToAndCall(address,bytes)": {
        "custom:oz-upgrades-unsafe-allow-reachable": "delegatecall",
        "details": "Upgrade the implementation of the proxy to `newImplementation`, and subsequently execute the function call encoded in `data`. Calls {_authorizeUpgrade}. Emits an {Upgraded} event."
      }
    },
    "stateVariables": {
      "highTierAccounts": {
        "details": "This is notably used to allow PreMining contracts to benefit from 0% withdrawal fees in L-Tokens contracts, when accounts unlock their funds."
      }
    },
    "title": "LDYStaking",
    "version": 1
  },
  "userdoc": {
    "events": {
      "NotifiedRewardAmount(uint256,uint256)": {
        "notice": "Emitted when admin add rewards."
      },
      "RewardPaid(address,uint256,uint256)": {
        "notice": "Emitted when users claim rewards"
      },
      "Staked(address,uint256,uint256)": {
        "notice": "Emitted when users stake token"
      },
      "Unstaked(address,uint256,uint256)": {
        "notice": "Emitted when users unstake token"
      }
    },
    "kind": "user",
    "methods": {
      "MULTIPLIER_BASIS()": {
        "notice": "Decimals of multiplier"
      },
      "earned(address,uint256)": {
        "notice": "Calculate the user's stake pool earnings"
      },
      "finishAt()": {
        "notice": "Timestamp of when the rewards finish."
      },
      "getEarnedUser(address)": {
        "notice": "Get the earned rewards array for a user."
      },
      "getReward(uint256)": {
        "notice": "Claim pending rewards."
      },
      "getStakeDurationInfo(uint256)": {
        "notice": "Get StakeDurationInfo."
      },
      "getUserStakes(address)": {
        "notice": "Get User Stake Data."
      },
      "globalBlacklist()": {
        "notice": "Retrieves the address of GlobalBlacklist contract."
      },
      "globalOwner()": {
        "notice": "Retrieves the address of GlobalOwner contract."
      },
      "globalPause()": {
        "notice": "Retrieves the address of GlobalPause contract."
      },
      "highTierAccounts(address)": {
        "notice": "Holds a mapping of addresses that default to the highest staking tier."
      },
      "initialize(address,address,address,address,(uint256,uint256)[],uint256,uint256)": {
        "notice": "Initializes the contract and sets the initial state variables. This is called by the proxy and should only be called once."
      },
      "lastTimeRewardApplicable()": {
        "notice": "Get the last time when rewards were applicable for the specified reward token."
      },
      "lastUpdateTime()": {
        "notice": "Timestamp of the reward updated."
      },
      "notifyRewardAmount(uint256)": {
        "notice": "Notify the contract about the amount of rewards to be distributed and update reward parameters."
      },
      "owner()": {
        "notice": "Override of OwnableUpgradeable.owner() that retrieves the owner's address from the GlobalOwner contract instead."
      },
      "paused()": {
        "notice": "Override of PausableUpgradeable.pause() that retrieves the pause state from the GlobalPause contract instead."
      },
      "pushStakeDurationInfo((uint256,uint256))": {
        "notice": "Push stakeDurationInfo"
      },
      "recoverERC20(address,uint256)": {
        "notice": "Recovers a specified amount of a given token address. Will fail if the contract doesn't hold enough tokens."
      },
      "renounceOwnership()": {
        "notice": "Override of OwnableUpgradeable.renounceOwnership() that always reverts. Ownership is managed by the GlobalOwner contract and must be modified there."
      },
      "rewardPerToken()": {
        "notice": "Calculate the reward per token for a given reward token."
      },
      "rewardPerTokenStored()": {
        "notice": "Reward per token stored, sum of (reward rate * dt * 1e18 / total supply)."
      },
      "rewardRatePerSec()": {
        "notice": "Reward per second(total rewards / duration)."
      },
      "rewardsDuration()": {
        "notice": "Duration of the rewards (in seconds)."
      },
      "setRewardsDuration(uint256)": {
        "notice": "Update Rewards Duration."
      },
      "setStakeAmountForPerks(uint256)": {
        "notice": "Update stakeAmountForPerks"
      },
      "setStakeDurationForPerks(uint256)": {
        "notice": "Update stakeDurationForPerks"
      },
      "stake(uint256,uint8)": {
        "notice": "Staked tokens cannot be withdrawn during the stakeDuration period and are eligible to claim rewards."
      },
      "stakeAmountForPerks()": {
        "notice": "Minimal stake amount for perks."
      },
      "stakeDurationForPerks()": {
        "notice": "Minimal stake duration for perks."
      },
      "stakeDurationInfos(uint256)": {
        "notice": "Stake durations info array."
      },
      "stakeRewardToken()": {
        "notice": "Stake and Reward token."
      },
      "totalRewards()": {
        "notice": "Total rewards amount."
      },
      "totalStaked()": {
        "notice": "Total staked amounts."
      },
      "transferOwnership(address)": {
        "notice": "Override of OwnableUpgradeable.transferOwnership() that always reverts. Ownership is managed by the GlobalOwner contract and must be modified there."
      },
      "unstake(uint256,uint256)": {
        "notice": "Withdraw staked tokens after stakeDuration has passed."
      },
      "userStakingInfo(address,uint256)": {
        "notice": "User stakingInfo map, user address => array of the staking info"
      }
    },
    "version": 1
  },
  "storageLayout": {
    "storage": [
      {
        "astId": 609,
        "contract": "contracts/src/LDYStaking.sol:LDYStaking",
        "label": "_initialized",
        "offset": 0,
        "slot": "0",
        "type": "t_uint8"
      },
      {
        "astId": 612,
        "contract": "contracts/src/LDYStaking.sol:LDYStaking",
        "label": "_initializing",
        "offset": 1,
        "slot": "0",
        "type": "t_bool"
      },
      {
        "astId": 591,
        "contract": "contracts/src/LDYStaking.sol:LDYStaking",
        "label": "__gap",
        "offset": 0,
        "slot": "1",
        "type": "t_array(t_uint256)50_storage"
      },
      {
        "astId": 906,
        "contract": "contracts/src/LDYStaking.sol:LDYStaking",
        "label": "__gap",
        "offset": 0,
        "slot": "51",
        "type": "t_array(t_uint256)50_storage"
      },
      {
        "astId": 2869,
        "contract": "contracts/src/LDYStaking.sol:LDYStaking",
        "label": "__gap",
        "offset": 0,
        "slot": "101",
        "type": "t_array(t_uint256)50_storage"
      },
      {
        "astId": 928,
        "contract": "contracts/src/LDYStaking.sol:LDYStaking",
        "label": "_paused",
        "offset": 0,
        "slot": "151",
        "type": "t_bool"
      },
      {
        "astId": 1033,
        "contract": "contracts/src/LDYStaking.sol:LDYStaking",
        "label": "__gap",
        "offset": 0,
        "slot": "152",
        "type": "t_array(t_uint256)49_storage"
      },
      {
        "astId": 116,
        "contract": "contracts/src/LDYStaking.sol:LDYStaking",
        "label": "_owner",
        "offset": 0,
        "slot": "201",
        "type": "t_address"
      },
      {
        "astId": 236,
        "contract": "contracts/src/LDYStaking.sol:LDYStaking",
        "label": "__gap",
        "offset": 0,
        "slot": "202",
        "type": "t_array(t_uint256)49_storage"
      },
      {
        "astId": 8981,
        "contract": "contracts/src/LDYStaking.sol:LDYStaking",
        "label": "_globalOwner",
        "offset": 0,
        "slot": "251",
        "type": "t_contract(GlobalOwner)5028"
      },
      {
        "astId": 9065,
        "contract": "contracts/src/LDYStaking.sol:LDYStaking",
        "label": "__gap",
        "offset": 0,
        "slot": "252",
        "type": "t_array(t_uint256)50_storage"
      },
      {
        "astId": 9083,
        "contract": "contracts/src/LDYStaking.sol:LDYStaking",
        "label": "_globalPause",
        "offset": 0,
        "slot": "302",
        "type": "t_contract(GlobalPause)5104"
      },
      {
        "astId": 9142,
        "contract": "contracts/src/LDYStaking.sol:LDYStaking",
        "label": "__gap",
        "offset": 0,
        "slot": "303",
        "type": "t_array(t_uint256)50_storage"
      },
      {
        "astId": 9156,
        "contract": "contracts/src/LDYStaking.sol:LDYStaking",
        "label": "_globalBlacklist",
        "offset": 0,
        "slot": "353",
        "type": "t_contract(GlobalBlacklist)4981"
      },
      {
        "astId": 9230,
        "contract": "contracts/src/LDYStaking.sol:LDYStaking",
        "label": "__gap",
        "offset": 0,
        "slot": "354",
        "type": "t_array(t_uint256)50_storage"
      },
      {
        "astId": 10249,
        "contract": "contracts/src/LDYStaking.sol:LDYStaking",
        "label": "__gap",
        "offset": 0,
        "slot": "404",
        "type": "t_array(t_uint256)50_storage"
      },
      {
        "astId": 10340,
        "contract": "contracts/src/LDYStaking.sol:LDYStaking",
        "label": "__gap",
        "offset": 0,
        "slot": "454",
        "type": "t_array(t_uint256)50_storage"
      },
      {
        "astId": 1048,
        "contract": "contracts/src/LDYStaking.sol:LDYStaking",
        "label": "_status",
        "offset": 0,
        "slot": "504",
        "type": "t_uint256"
      },
      {
        "astId": 1117,
        "contract": "contracts/src/LDYStaking.sol:LDYStaking",
        "label": "__gap",
        "offset": 0,
        "slot": "505",
        "type": "t_array(t_uint256)49_storage"
      },
      {
        "astId": 5178,
        "contract": "contracts/src/LDYStaking.sol:LDYStaking",
        "label": "stakeRewardToken",
        "offset": 0,
        "slot": "554",
        "type": "t_contract(IERC20Upgradeable)1808"
      },
      {
        "astId": 5181,
        "contract": "contracts/src/LDYStaking.sol:LDYStaking",
        "label": "stakeDurationForPerks",
        "offset": 0,
        "slot": "555",
        "type": "t_uint256"
      },
      {
        "astId": 5184,
        "contract": "contracts/src/LDYStaking.sol:LDYStaking",
        "label": "stakeAmountForPerks",
        "offset": 0,
        "slot": "556",
        "type": "t_uint256"
      },
      {
        "astId": 5189,
        "contract": "contracts/src/LDYStaking.sol:LDYStaking",
        "label": "stakeDurationInfos",
        "offset": 0,
        "slot": "557",
        "type": "t_array(t_struct(StakeDurationInfo)5170_storage)dyn_storage"
      },
      {
        "astId": 5192,
        "contract": "contracts/src/LDYStaking.sol:LDYStaking",
        "label": "rewardsDuration",
        "offset": 0,
        "slot": "558",
        "type": "t_uint256"
      },
      {
        "astId": 5195,
        "contract": "contracts/src/LDYStaking.sol:LDYStaking",
        "label": "finishAt",
        "offset": 0,
        "slot": "559",
        "type": "t_uint256"
      },
      {
        "astId": 5198,
        "contract": "contracts/src/LDYStaking.sol:LDYStaking",
        "label": "lastUpdateTime",
        "offset": 0,
        "slot": "560",
        "type": "t_uint256"
      },
      {
        "astId": 5201,
        "contract": "contracts/src/LDYStaking.sol:LDYStaking",
        "label": "rewardRatePerSec",
        "offset": 0,
        "slot": "561",
        "type": "t_uint256"
      },
      {
        "astId": 5204,
        "contract": "contracts/src/LDYStaking.sol:LDYStaking",
        "label": "rewardPerTokenStored",
        "offset": 0,
        "slot": "562",
        "type": "t_uint256"
      },
      {
        "astId": 5207,
        "contract": "contracts/src/LDYStaking.sol:LDYStaking",
        "label": "totalStaked",
        "offset": 0,
        "slot": "563",
        "type": "t_uint256"
      },
      {
        "astId": 5209,
        "contract": "contracts/src/LDYStaking.sol:LDYStaking",
        "label": "totalWeightedStake",
        "offset": 0,
        "slot": "564",
        "type": "t_uint256"
      },
      {
        "astId": 5216,
        "contract": "contracts/src/LDYStaking.sol:LDYStaking",
        "label": "userStakingInfo",
        "offset": 0,
        "slot": "565",
        "type": "t_mapping(t_address,t_array(t_struct(StakingInfo)5165_storage)dyn_storage)"
      },
      {
        "astId": 5219,
        "contract": "contracts/src/LDYStaking.sol:LDYStaking",
        "label": "totalRewards",
        "offset": 0,
        "slot": "566",
        "type": "t_uint256"
      },
      {
        "astId": 5258,
        "contract": "contracts/src/LDYStaking.sol:LDYStaking",
        "label": "highTierAccounts",
        "offset": 0,
        "slot": "567",
        "type": "t_mapping(t_address,t_bool)"
      }
    ],
    "types": {
      "t_address": {
        "encoding": "inplace",
        "label": "address",
        "numberOfBytes": "20"
      },
      "t_array(t_struct(StakeDurationInfo)5170_storage)dyn_storage": {
        "base": "t_struct(StakeDurationInfo)5170_storage",
        "encoding": "dynamic_array",
        "label": "struct LDYStaking.StakeDurationInfo[]",
        "numberOfBytes": "32"
      },
      "t_array(t_struct(StakingInfo)5165_storage)dyn_storage": {
        "base": "t_struct(StakingInfo)5165_storage",
        "encoding": "dynamic_array",
        "label": "struct LDYStaking.StakingInfo[]",
        "numberOfBytes": "32"
      },
      "t_array(t_uint256)49_storage": {
        "base": "t_uint256",
        "encoding": "inplace",
        "label": "uint256[49]",
        "numberOfBytes": "1568"
      },
      "t_array(t_uint256)50_storage": {
        "base": "t_uint256",
        "encoding": "inplace",
        "label": "uint256[50]",
        "numberOfBytes": "1600"
      },
      "t_bool": {
        "encoding": "inplace",
        "label": "bool",
        "numberOfBytes": "1"
      },
      "t_contract(GlobalBlacklist)4981": {
        "encoding": "inplace",
        "label": "contract GlobalBlacklist",
        "numberOfBytes": "20"
      },
      "t_contract(GlobalOwner)5028": {
        "encoding": "inplace",
        "label": "contract GlobalOwner",
        "numberOfBytes": "20"
      },
      "t_contract(GlobalPause)5104": {
        "encoding": "inplace",
        "label": "contract GlobalPause",
        "numberOfBytes": "20"
      },
      "t_contract(IERC20Upgradeable)1808": {
        "encoding": "inplace",
        "label": "contract IERC20Upgradeable",
        "numberOfBytes": "20"
      },
      "t_mapping(t_address,t_array(t_struct(StakingInfo)5165_storage)dyn_storage)": {
        "encoding": "mapping",
        "key": "t_address",
        "label": "mapping(address => struct LDYStaking.StakingInfo[])",
        "numberOfBytes": "32",
        "value": "t_array(t_struct(StakingInfo)5165_storage)dyn_storage"
      },
      "t_mapping(t_address,t_bool)": {
        "encoding": "mapping",
        "key": "t_address",
        "label": "mapping(address => bool)",
        "numberOfBytes": "32",
        "value": "t_bool"
      },
      "t_struct(StakeDurationInfo)5170_storage": {
        "encoding": "inplace",
        "label": "struct LDYStaking.StakeDurationInfo",
        "members": [
          {
            "astId": 5167,
            "contract": "contracts/src/LDYStaking.sol:LDYStaking",
            "label": "duration",
            "offset": 0,
            "slot": "0",
            "type": "t_uint256"
          },
          {
            "astId": 5169,
            "contract": "contracts/src/LDYStaking.sol:LDYStaking",
            "label": "multiplier",
            "offset": 0,
            "slot": "1",
            "type": "t_uint256"
          }
        ],
        "numberOfBytes": "64"
      },
      "t_struct(StakingInfo)5165_storage": {
        "encoding": "inplace",
        "label": "struct LDYStaking.StakingInfo",
        "members": [
          {
            "astId": 5156,
            "contract": "contracts/src/LDYStaking.sol:LDYStaking",
            "label": "stakedAmount",
            "offset": 0,
            "slot": "0",
            "type": "t_uint256"
          },
          {
            "astId": 5158,
            "contract": "contracts/src/LDYStaking.sol:LDYStaking",
            "label": "unStakeAt",
            "offset": 0,
            "slot": "1",
            "type": "t_uint256"
          },
          {
            "astId": 5160,
            "contract": "contracts/src/LDYStaking.sol:LDYStaking",
            "label": "duration",
            "offset": 0,
            "slot": "2",
            "type": "t_uint256"
          },
          {
            "astId": 5162,
            "contract": "contracts/src/LDYStaking.sol:LDYStaking",
            "label": "rewardPerTokenPaid",
            "offset": 0,
            "slot": "3",
            "type": "t_uint256"
          },
          {
            "astId": 5164,
            "contract": "contracts/src/LDYStaking.sol:LDYStaking",
            "label": "rewards",
            "offset": 0,
            "slot": "4",
            "type": "t_uint256"
          }
        ],
        "numberOfBytes": "160"
      },
      "t_uint256": {
        "encoding": "inplace",
        "label": "uint256",
        "numberOfBytes": "32"
      },
      "t_uint8": {
        "encoding": "inplace",
        "label": "uint8",
        "numberOfBytes": "1"
      }
    }
  }
}