{
  "address": "0x3c640693058329e6a2819b20141d971b675365C4",
  "abi": [
    {
      "inputs": [],
      "stateMutability": "nonpayable",
      "type": "constructor"
    },
    {
      "inputs": [],
      "name": "AmountMustBeGreaterThanZero",
      "type": "error"
    },
    {
      "inputs": [],
      "name": "ContractLocked",
      "type": "error"
    },
    {
      "inputs": [
        {
          "internalType": "uint256",
          "name": "requested",
          "type": "uint256"
        },
        {
          "internalType": "uint256",
          "name": "available",
          "type": "uint256"
        }
      ],
      "name": "InsufficientBalance",
      "type": "error"
    },
    {
      "inputs": [
        {
          "internalType": "uint256",
          "name": "requestedEpochs",
          "type": "uint256"
        },
        {
          "internalType": "uint256",
          "name": "availableEpochs",
          "type": "uint256"
        }
      ],
      "name": "InsufficientClaimableEpochs",
      "type": "error"
    },
    {
      "inputs": [
        {
          "internalType": "uint256",
          "name": "provided",
          "type": "uint256"
        },
        {
          "internalType": "uint256",
          "name": "required",
          "type": "uint256"
        }
      ],
      "name": "InsufficientFundsReturned",
      "type": "error"
    },
    {
      "inputs": [
        {
          "internalType": "uint256",
          "name": "provided",
          "type": "uint256"
        },
        {
          "internalType": "uint256",
          "name": "required",
          "type": "uint256"
        }
      ],
      "name": "InsufficientStake",
      "type": "error"
    },
    {
      "inputs": [
        {
          "internalType": "uint256",
          "name": "requestedEpochs",
          "type": "uint256"
        }
      ],
      "name": "InvalidEpochsToClaim",
      "type": "error"
    },
    {
      "inputs": [],
      "name": "NoActiveStake",
      "type": "error"
    },
    {
      "inputs": [],
      "name": "NoRewardToClaim",
      "type": "error"
    },
    {
      "inputs": [],
      "name": "NoRewardsToAllocate",
      "type": "error"
    },
    {
      "inputs": [],
      "name": "NoStakeToExit",
      "type": "error"
    },
    {
      "inputs": [],
      "name": "NotWithdrawable",
      "type": "error"
    },
    {
      "inputs": [],
      "name": "RewardsAlreadyAllocated",
      "type": "error"
    },
    {
      "inputs": [],
      "name": "TransferFailed",
      "type": "error"
    },
    {
      "inputs": [],
      "name": "UnClaimableRewards",
      "type": "error"
    },
    {
      "inputs": [
        {
          "internalType": "string",
          "name": "",
          "type": "string"
        }
      ],
      "name": "WrongPhase",
      "type": "error"
    },
    {
      "anonymous": false,
      "inputs": [
        {
          "indexed": false,
          "internalType": "address",
          "name": "previousAdmin",
          "type": "address"
        },
        {
          "indexed": false,
          "internalType": "address",
          "name": "newAdmin",
          "type": "address"
        }
      ],
      "name": "AdminChanged",
      "type": "event"
    },
    {
      "anonymous": false,
      "inputs": [
        {
          "indexed": true,
          "internalType": "address",
          "name": "beacon",
          "type": "address"
        }
      ],
      "name": "BeaconUpgraded",
      "type": "event"
    },
    {
      "anonymous": false,
      "inputs": [
        {
          "indexed": true,
          "internalType": "uint256",
          "name": "epochNumber",
          "type": "uint256"
        },
        {
          "indexed": false,
          "internalType": "uint256",
          "name": "timestamp",
          "type": "uint256"
        }
      ],
      "name": "EpochOpened",
      "type": "event"
    },
    {
      "anonymous": false,
      "inputs": [
        {
          "indexed": true,
          "internalType": "uint256",
          "name": "epochNumber",
          "type": "uint256"
        },
        {
          "indexed": false,
          "internalType": "uint256",
          "name": "timestamp",
          "type": "uint256"
        },
        {
          "indexed": false,
          "internalType": "uint256",
          "name": "totalValueLocked",
          "type": "uint256"
        }
      ],
      "name": "EpochRunning",
      "type": "event"
    },
    {
      "anonymous": false,
      "inputs": [
        {
          "indexed": true,
          "internalType": "uint256",
          "name": "epochNumber",
          "type": "uint256"
        },
        {
          "indexed": false,
          "internalType": "uint256",
          "name": "timestamp",
          "type": "uint256"
        }
      ],
      "name": "EpochTerminated",
      "type": "event"
    },
    {
      "anonymous": false,
      "inputs": [
        {
          "indexed": false,
          "internalType": "address",
          "name": "oldFundWallet",
          "type": "address"
        },
        {
          "indexed": false,
          "internalType": "address",
          "name": "newFundWallet",
          "type": "address"
        }
      ],
      "name": "FundWalletChanged",
      "type": "event"
    },
    {
      "anonymous": false,
      "inputs": [
        {
          "indexed": false,
          "internalType": "uint256",
          "name": "amount",
          "type": "uint256"
        },
        {
          "indexed": true,
          "internalType": "uint256",
          "name": "epochId",
          "type": "uint256"
        }
      ],
      "name": "FundsTransferredToFundWallet",
      "type": "event"
    },
    {
      "anonymous": false,
      "inputs": [
        {
          "indexed": false,
          "internalType": "uint8",
          "name": "version",
          "type": "uint8"
        }
      ],
      "name": "Initialized",
      "type": "event"
    },
    {
      "anonymous": false,
      "inputs": [
        {
          "indexed": false,
          "internalType": "bool",
          "name": "locked",
          "type": "bool"
        }
      ],
      "name": "LockingContract",
      "type": "event"
    },
    {
      "anonymous": false,
      "inputs": [
        {
          "indexed": false,
          "internalType": "uint256",
          "name": "oldMinimumStake",
          "type": "uint256"
        },
        {
          "indexed": false,
          "internalType": "uint256",
          "name": "newMinimumStake",
          "type": "uint256"
        }
      ],
      "name": "MinimumStakeChanged",
      "type": "event"
    },
    {
      "anonymous": false,
      "inputs": [
        {
          "indexed": true,
          "internalType": "address",
          "name": "previousOwner",
          "type": "address"
        },
        {
          "indexed": true,
          "internalType": "address",
          "name": "newOwner",
          "type": "address"
        }
      ],
      "name": "OwnershipTransferred",
      "type": "event"
    },
    {
      "anonymous": false,
      "inputs": [
        {
          "indexed": true,
          "internalType": "uint256",
          "name": "epochNumber",
          "type": "uint256"
        },
        {
          "indexed": false,
          "internalType": "uint256",
          "name": "rewardAmount",
          "type": "uint256"
        }
      ],
      "name": "RewardsAllocated",
      "type": "event"
    },
    {
      "anonymous": false,
      "inputs": [
        {
          "indexed": false,
          "internalType": "bool",
          "name": "claimable",
          "type": "bool"
        }
      ],
      "name": "RewardsClaimabilityChanged",
      "type": "event"
    },
    {
      "anonymous": false,
      "inputs": [
        {
          "indexed": true,
          "internalType": "address",
          "name": "implementation",
          "type": "address"
        }
      ],
      "name": "Upgraded",
      "type": "event"
    },
    {
      "anonymous": false,
      "inputs": [
        {
          "indexed": true,
          "internalType": "address",
          "name": "user",
          "type": "address"
        },
        {
          "indexed": false,
          "internalType": "uint256",
          "name": "amount",
          "type": "uint256"
        },
        {
          "indexed": false,
          "internalType": "uint256",
          "name": "epochNumber",
          "type": "uint256"
        }
      ],
      "name": "UserDeposit",
      "type": "event"
    },
    {
      "anonymous": false,
      "inputs": [
        {
          "indexed": true,
          "internalType": "address",
          "name": "user",
          "type": "address"
        },
        {
          "indexed": false,
          "internalType": "uint256",
          "name": "amount",
          "type": "uint256"
        },
        {
          "indexed": false,
          "internalType": "uint256",
          "name": "epochNumber",
          "type": "uint256"
        }
      ],
      "name": "UserRewardClaim",
      "type": "event"
    },
    {
      "anonymous": false,
      "inputs": [
        {
          "indexed": true,
          "internalType": "address",
          "name": "user",
          "type": "address"
        },
        {
          "indexed": false,
          "internalType": "uint256",
          "name": "amount",
          "type": "uint256"
        },
        {
          "indexed": false,
          "internalType": "uint256",
          "name": "epochNumber",
          "type": "uint256"
        }
      ],
      "name": "UserWithdraw",
      "type": "event"
    },
    {
      "inputs": [],
      "name": "allocateRewards",
      "outputs": [],
      "stateMutability": "payable",
      "type": "function"
    },
    {
      "inputs": [
        {
          "internalType": "address",
          "name": "_user",
          "type": "address"
        }
      ],
      "name": "calculateRewards",
      "outputs": [
        {
          "internalType": "uint256",
          "name": "",
          "type": "uint256"
        }
      ],
      "stateMutability": "view",
      "type": "function"
    },
    {
      "inputs": [],
      "name": "claimRewards",
      "outputs": [],
      "stateMutability": "nonpayable",
      "type": "function"
    },
    {
      "inputs": [
        {
          "internalType": "uint256",
          "name": "_numberOfEpochs",
          "type": "uint256"
        }
      ],
      "name": "claimRewardsForEpochs",
      "outputs": [],
      "stateMutability": "nonpayable",
      "type": "function"
    },
    {
      "inputs": [],
      "name": "claimableRewards",
      "outputs": [
        {
          "internalType": "bool",
          "name": "",
          "type": "bool"
        }
      ],
      "stateMutability": "view",
      "type": "function"
    },
    {
      "inputs": [],
      "name": "currentEpochId",
      "outputs": [
        {
          "internalType": "uint256",
          "name": "",
          "type": "uint256"
        }
      ],
      "stateMutability": "view",
      "type": "function"
    },
    {
      "inputs": [],
      "name": "currentEpochStatus",
      "outputs": [
        {
          "internalType": "enum EthVault.EpochStatus",
          "name": "",
          "type": "uint8"
        }
      ],
      "stateMutability": "view",
      "type": "function"
    },
    {
      "inputs": [],
      "name": "enter",
      "outputs": [],
      "stateMutability": "payable",
      "type": "function"
    },
    {
      "inputs": [
        {
          "internalType": "uint256",
          "name": "",
          "type": "uint256"
        }
      ],
      "name": "epochs",
      "outputs": [
        {
          "internalType": "uint256",
          "name": "totalValueLocked",
          "type": "uint256"
        },
        {
          "internalType": "uint256",
          "name": "totalEpochRewards",
          "type": "uint256"
        }
      ],
      "stateMutability": "view",
      "type": "function"
    },
    {
      "inputs": [
        {
          "internalType": "uint256",
          "name": "_amount",
          "type": "uint256"
        }
      ],
      "name": "exit",
      "outputs": [],
      "stateMutability": "nonpayable",
      "type": "function"
    },
    {
      "inputs": [],
      "name": "fundWallet",
      "outputs": [
        {
          "internalType": "address",
          "name": "",
          "type": "address"
        }
      ],
      "stateMutability": "view",
      "type": "function"
    },
    {
      "inputs": [],
      "name": "getAllEpochs",
      "outputs": [
        {
          "components": [
            {
              "internalType": "uint256",
              "name": "totalValueLocked",
              "type": "uint256"
            },
            {
              "internalType": "uint256",
              "name": "totalEpochRewards",
              "type": "uint256"
            }
          ],
          "internalType": "struct EthVault.Epoch[]",
          "name": "",
          "type": "tuple[]"
        }
      ],
      "stateMutability": "view",
      "type": "function"
    },
    {
      "inputs": [],
      "name": "getCurrentEpoch",
      "outputs": [
        {
          "components": [
            {
              "internalType": "uint256",
              "name": "totalValueLocked",
              "type": "uint256"
            },
            {
              "internalType": "uint256",
              "name": "totalEpochRewards",
              "type": "uint256"
            }
          ],
          "internalType": "struct EthVault.Epoch",
          "name": "",
          "type": "tuple"
        }
      ],
      "stateMutability": "view",
      "type": "function"
    },
    {
      "inputs": [],
      "name": "getEpochCount",
      "outputs": [
        {
          "internalType": "uint256",
          "name": "",
          "type": "uint256"
        }
      ],
      "stateMutability": "view",
      "type": "function"
    },
    {
      "inputs": [
        {
          "internalType": "address",
          "name": "_user",
          "type": "address"
        }
      ],
      "name": "getEpochLengthToClaim",
      "outputs": [
        {
          "internalType": "uint256",
          "name": "",
          "type": "uint256"
        }
      ],
      "stateMutability": "view",
      "type": "function"
    },
    {
      "inputs": [
        {
          "internalType": "address",
          "name": "_user",
          "type": "address"
        }
      ],
      "name": "hasClaimableRewards",
      "outputs": [
        {
          "internalType": "bool",
          "name": "",
          "type": "bool"
        }
      ],
      "stateMutability": "view",
      "type": "function"
    },
    {
      "inputs": [
        {
          "internalType": "address",
          "name": "_fundWallet",
          "type": "address"
        }
      ],
      "name": "initialize",
      "outputs": [],
      "stateMutability": "nonpayable",
      "type": "function"
    },
    {
      "inputs": [],
      "name": "lockFundsAndRunCurrentEpoch",
      "outputs": [],
      "stateMutability": "nonpayable",
      "type": "function"
    },
    {
      "inputs": [
        {
          "internalType": "bool",
          "name": "_locked",
          "type": "bool"
        }
      ],
      "name": "lockOrUnlockContract",
      "outputs": [],
      "stateMutability": "nonpayable",
      "type": "function"
    },
    {
      "inputs": [],
      "name": "locked",
      "outputs": [
        {
          "internalType": "bool",
          "name": "",
          "type": "bool"
        }
      ],
      "stateMutability": "view",
      "type": "function"
    },
    {
      "inputs": [],
      "name": "mininmumStake",
      "outputs": [
        {
          "internalType": "uint256",
          "name": "",
          "type": "uint256"
        }
      ],
      "stateMutability": "view",
      "type": "function"
    },
    {
      "inputs": [],
      "name": "owner",
      "outputs": [
        {
          "internalType": "address",
          "name": "",
          "type": "address"
        }
      ],
      "stateMutability": "view",
      "type": "function"
    },
    {
      "inputs": [],
      "name": "proxiableUUID",
      "outputs": [
        {
          "internalType": "bytes32",
          "name": "",
          "type": "bytes32"
        }
      ],
      "stateMutability": "view",
      "type": "function"
    },
    {
      "inputs": [],
      "name": "renounceOwnership",
      "outputs": [],
      "stateMutability": "nonpayable",
      "type": "function"
    },
    {
      "inputs": [
        {
          "internalType": "address",
          "name": "_fundWallet",
          "type": "address"
        }
      ],
      "name": "setFundWallet",
      "outputs": [],
      "stateMutability": "nonpayable",
      "type": "function"
    },
    {
      "inputs": [
        {
          "internalType": "uint256",
          "name": "_mininmumStake",
          "type": "uint256"
        }
      ],
      "name": "setMinimumStake",
      "outputs": [],
      "stateMutability": "nonpayable",
      "type": "function"
    },
    {
      "inputs": [],
      "name": "terminateCurrentAndOpenNextEpoch",
      "outputs": [],
      "stateMutability": "payable",
      "type": "function"
    },
    {
      "inputs": [
        {
          "internalType": "address",
          "name": "newOwner",
          "type": "address"
        }
      ],
      "name": "transferOwnership",
      "outputs": [],
      "stateMutability": "nonpayable",
      "type": "function"
    },
    {
      "inputs": [
        {
          "internalType": "address",
          "name": "newImplementation",
          "type": "address"
        }
      ],
      "name": "upgradeTo",
      "outputs": [],
      "stateMutability": "nonpayable",
      "type": "function"
    },
    {
      "inputs": [
        {
          "internalType": "address",
          "name": "newImplementation",
          "type": "address"
        },
        {
          "internalType": "bytes",
          "name": "data",
          "type": "bytes"
        }
      ],
      "name": "upgradeToAndCall",
      "outputs": [],
      "stateMutability": "payable",
      "type": "function"
    },
    {
      "inputs": [
        {
          "internalType": "address",
          "name": "",
          "type": "address"
        }
      ],
      "name": "userStakes",
      "outputs": [
        {
          "internalType": "uint256",
          "name": "amount",
          "type": "uint256"
        },
        {
          "internalType": "uint256",
          "name": "lastEpochClaimedAt",
          "type": "uint256"
        }
      ],
      "stateMutability": "view",
      "type": "function"
    }
  ],
  "transactionHash": "0x67d05e0e2852a2868f8d356113c52563c576436b8f77f25630c5093007f95b4c",
  "args": [],
  "numDeployments": 1,
  "solcInputHash": "b511f805b735a9c66cb65ade3dc5aa55",
  "bytecode": "0x60a0604052306080523480156200001557600080fd5b506200002062000026565b620000e7565b600054610100900460ff1615620000935760405162461bcd60e51b815260206004820152602760248201527f496e697469616c697a61626c653a20636f6e747261637420697320696e697469604482015266616c697a696e6760c81b606482015260840160405180910390fd5b60005460ff90811614620000e5576000805460ff191660ff9081179091556040519081527f7f26b83ff96e1f2b6a682f133852f6798a09c465da95921460cefb38474024989060200160405180910390a15b565b60805161271f6200011f600039600081816108c30152818161090301528181610a0a01528181610a4a0152610ac6015261271f6000f3fe6080604052600436106101985760003560e01c80638da5cb5b116100e2578063c6b61e4c11610085578063c6b61e4c14610478578063cd237a4114610498578063cf309012146104b8578063e6c47bc5146104d3578063e97dcb62146104e9578063eacdc5ff146104f1578063f2fde38b14610507578063f567244c1461052757600080fd5b80638da5cb5b1461036b5780638da7ad2314610389578063a17d97f3146103d2578063a3bc61a5146103e7578063a72b05bc146103ef578063b6ff493414610416578063b97dd9e214610436578063c4d66de81461045857600080fd5b806352d1902d1161014a57806352d1902d1461026b57806355ce3b9a146102805780635f75659f146102a057806364ab8675146102a8578063664a1ad6146102c85780636c003a9b14610305578063715018a6146103365780637f8661a11461034b57600080fd5b8063233e99031461019d5780632387d32c146101bf5780632697f03a146101e35780632aa3a2bc146102035780633659cfe614610223578063372500ab146102435780634f1ef28614610258575b600080fd5b3480156101a957600080fd5b506101bd6101b83660046122d0565b610549565b005b3480156101cb57600080fd5b5060fc545b6040519081526020015b60405180910390f35b3480156101ef57600080fd5b506101bd6101fe3660046122d0565b610597565b34801561020f57600080fd5b506101d061021e366004612300565b6107f9565b34801561022f57600080fd5b506101bd61023e366004612300565b6108b9565b34801561024f57600080fd5b506101bd610981565b6101bd610266366004612331565b610a00565b34801561027757600080fd5b506101d0610ab9565b34801561028c57600080fd5b506101bd61029b366004612300565b610b67565b6101bd610bd7565b3480156102b457600080fd5b506101d06102c3366004612300565b610e64565b3480156102d457600080fd5b5060fb546102ed9061010090046001600160a01b031681565b6040516001600160a01b0390911681526020016101da565b34801561031157600080fd5b5060fb5461032690600160a81b900460ff1681565b60405190151581526020016101da565b34801561034257600080fd5b506101bd610f5d565b34801561035757600080fd5b506101bd6103663660046122d0565b610f6f565b34801561037757600080fd5b506097546001600160a01b03166102ed565b34801561039557600080fd5b506103bd6103a4366004612300565b60fe602052600090815260409020805460019091015482565b604080519283526020830191909152016101da565b3480156103de57600080fd5b506101bd611194565b6101bd611349565b3480156103fb57600080fd5b5060fb546104099060ff1681565b6040516101da9190612409565b34801561042257600080fd5b50610326610431366004612300565b6114c9565b34801561044257600080fd5b5061044b6115ad565b6040516101da9190612431565b34801561046457600080fd5b506101bd610473366004612300565b611608565b34801561048457600080fd5b506103bd6104933660046122d0565b611830565b3480156104a457600080fd5b506101bd6104b3366004612448565b61185e565b3480156104c457600080fd5b50610100546103269060ff1681565b3480156104df57600080fd5b506101d060ff5481565b6101bd611915565b3480156104fd57600080fd5b506101d060fd5481565b34801561051357600080fd5b506101bd610522366004612300565b611acd565b34801561053357600080fd5b5061053c611b43565b6040516101da9190612471565b610551611bb6565b60ff80549082905560408051828152602081018490527fdc4a0b2dc1fa27da98de2ac6f8fa373b4be405e1bf69fc3976597b6d56b79abc91015b60405180910390a15050565b806000036105c0576040516362541df360e01b8152600481018290526024015b60405180910390fd5b60fb54600160a81b900460ff166105e95760405162f4f7c560e11b815260040160405180910390fd5b6105f2336114c9565b61060f57604051635aa9184d60e01b815260040160405180910390fd5b33600090815260fe60205260408120600180820154919291610630916124de565b905060008060fb5460ff16600181111561064c5761064c6123f3565b146106595760fd54610668565b600160fd5461066891906124f1565b905060008282101561067b576000610690565b61068583836124f1565b6106909060016124de565b9050808511156106bd57604051632fe9914b60e21b815260048101869052602481018290526044016105b7565b600060016106cb87866124de565b6106d591906124f1565b90506000845b82811161074357600060fc82815481106106f7576106f7612504565b906000526020600020906002020190506000610720896000015483600101548460000154611c10565b905061072c81856124de565b93505050808061073b9061251a565b9150506106db565b5060018601829055604051600090339083908381818185875af1925050503d806000811461078d576040519150601f19603f3d011682016040523d82523d6000602084013e610792565b606091505b50509050806107b4576040516312171d8360e31b815260040160405180910390fd5b604080518381526020810185905233917ff0a79ba53601e311de7e03ea2c22463403a62c3d42cec4b256a0f74e1259dae5910160405180910390a25050505050505050565b6001600160a01b038116600090815260fe6020526040812054810361082057506000919050565b6001600160a01b038216600090815260fe60205260408120600190810154829161084a91906124de565b905060008060fb5460ff166001811115610866576108666123f3565b0361088157600160fd5461087a91906124f1565b9050610886565b5060fd545b815b8181116108af57836108998161251a565b94505080806108a79061251a565b915050610888565b5091949350505050565b6001600160a01b037f00000000000000000000000000000000000000000000000000000000000000001630036109015760405162461bcd60e51b81526004016105b790612533565b7f00000000000000000000000000000000000000000000000000000000000000006001600160a01b0316610933611c36565b6001600160a01b0316146109595760405162461bcd60e51b81526004016105b79061257f565b61096281611c52565b6040805160008082526020820190925261097e91839190611c5a565b50565b6101005460ff16156109a6576040516337affdbf60e11b815260040160405180910390fd5b60fb54600160a81b900460ff166109cf5760405162f4f7c560e11b815260040160405180910390fd5b6109d8336114c9565b6109f557604051635aa9184d60e01b815260040160405180910390fd5b6109fe33611dca565b565b6001600160a01b037f0000000000000000000000000000000000000000000000000000000000000000163003610a485760405162461bcd60e51b81526004016105b790612533565b7f00000000000000000000000000000000000000000000000000000000000000006001600160a01b0316610a7a611c36565b6001600160a01b031614610aa05760405162461bcd60e51b81526004016105b79061257f565b610aa982611c52565b610ab582826001611c5a565b5050565b6000306001600160a01b037f00000000000000000000000000000000000000000000000000000000000000001614610b545760405162461bcd60e51b815260206004820152603860248201527f555550535570677261646561626c653a206d757374206e6f742062652063616c6044820152771b1959081d1a1c9bdd59da0819195b1959d85d1958d85b1b60421b60648201526084016105b7565b506000805160206126a383398151915290565b610b6f611bb6565b60fb80546001600160a01b03838116610100908102610100600160a81b03198416179384905560408051938290048316808552919094049091166020830152917f9c41a9a969e821894638b441dcdf78c0573277c91b8ac63440d790f5634a2b0b910161058b565b610bdf611bb6565b600160fb5460ff166001811115610bf857610bf86123f3565b14610c565760405163fcbfb2b160e01b815260206004820152602760248201527f454e442045504f43483a2063616e206f6e6c7920656e6420612072756e6e696e6044820152660ce40cae0dec6d60cb1b60648201526084016105b7565b60fb54600160a81b900460ff16610cd65760405163fcbfb2b160e01b815260206004820152603c60248201527f454e442045504f43483a2072657761726473206d75737420626520616c6c6f6360448201527f61746564206265666f726520656e64696e67207468652065706f63680000000060648201526084016105b7565b600060fc60fd5481548110610ced57610ced612504565b906000526020600020906002020160000154905080341015610d2b5760405163082e13a160e31b8152346004820152602481018290526044016105b7565b600060fc60fd5481548110610d4257610d42612504565b9060005260206000209060020201905060008160000154905060fd547f64570abbb448406f773ac3a0c62178ed95f93e5465f64860899859bbe490fb4242604051610d8f91815260200190565b60405180910390a260fd8054906000610da78361251a565b90915550506040805180820182528281526000602080830182815260fc8054600181018255935292517f371f36870d18f32a11fea0f144b021c8b407bb50f8e0267c711123f454b963c060029093029283015591517f371f36870d18f32a11fea0f144b021c8b407bb50f8e0267c711123f454b963c19091015560fb805460ff1916905560fd5491514281527f3011a2cb7316f75847dafe7f596d9728f2bcb38e662b785f36bc7ea76e4e714291015b60405180910390a2505050565b6000610e6f826114c9565b610e7b57506000919050565b6001600160a01b038216600090815260fe602052604081206001908101548291610ea591906124de565b905060008060fb5460ff166001811115610ec157610ec16123f3565b03610edc57600160fd54610ed591906124f1565b9050610ee1565b5060fd545b815b8181116108af57600060fc8281548110610eff57610eff612504565b600091825260208083206001600160a01b038b16845260fe90915260408320546002929092020160018101548154919450610f3a9291611c10565b9050610f4681876124de565b955050508080610f559061251a565b915050610ee3565b610f65611bb6565b6109fe6000611eea565b610f77611f3c565b6101005460ff1615610f9c576040516337affdbf60e11b815260040160405180910390fd5b600060fb5460ff166001811115610fb557610fb56123f3565b1461100f5760405163fcbfb2b160e01b8152602060048201526024808201527f455849543a206f6e6c7920616c6c6f77656420647572696e67206f70656e20706044820152636861736560e01b60648201526084016105b7565b33600090815260fe60205260409020805482111561104d57805460405163cf47918160e01b81526105b7918491600401918252602082015260400190565b8160000361106e57604051635e85ae7360e01b815260040160405180910390fd5b611077336114c9565b156110855761108533611dca565b8181600001600082825461109991906124f1565b925050819055508160fc60fd54815481106110b6576110b6612504565b906000526020600020906002020160000160008282546110d691906124f1565b9091555050604051600090339084908381818185875af1925050503d806000811461111d576040519150601f19603f3d011682016040523d82523d6000602084013e611122565b606091505b5050905080611144576040516312171d8360e31b815260040160405180910390fd5b60fd5460405133917fd2263e970e3552b8e14c013f4d6af030894ef3ae6f025607042368db047a44189161118091878252602082015260400190565b60405180910390a2505061097e600160c955565b61119c611bb6565b600060fb5460ff1660018111156111b5576111b56123f3565b1461121d5760405163fcbfb2b160e01b815260206004820152603160248201527f52554e2045504f43483a2063616e206f6e6c792073746172742072756e6e696e604482015270672066726f6d206f70656e20706861736560781b60648201526084016105b7565b60fb805460ff60ff60a81b011916600117905560fd5460fc805460009290811061124957611249612504565b600091825260208220600291909102015460fb5460405191935061010090046001600160a01b03169083908381818185875af1925050503d80600081146112ac576040519150601f19603f3d011682016040523d82523d6000602084013e6112b1565b606091505b50509050806112d3576040516312171d8360e31b815260040160405180910390fd5b60fd5460408051428152602081018590527f52c5abe9e004b5b25ca01e93c14fc741f8f6f73683e7299cbb65a18b8c6296a2910160405180910390a260fd546040518381527f04ded3f62ae2ab4717c7253fd9d8a4b3f253afc40fd5280a272755ce344d1cc69060200160405180910390a25050565b611351611bb6565b600160fb5460ff16600181111561136a5761136a6123f3565b146113cb5760405163fcbfb2b160e01b815260206004820152602a60248201527f414c4c4f4341544520524557415244533a206d75737420626520696e2072756e6044820152696e696e6720706861736560b01b60648201526084016105b7565b346000036113ec57604051634891ab2560e11b815260040160405180910390fd5b600060fc60fd548154811061140357611403612504565b90600052602060002090600202019050806001015460001461143857604051630ec94ce560e41b815260040160405180910390fd5b346001820181905560fb805460ff60a81b1916600160a81b17905560fd5460405190917ff9ecaf62687e41c2eb3b9f3bb3e5562b198859fda05aed70e3cc7e3a060e8c9d9161148991815260200190565b60405180910390a2604051600181527fbba732616e420f73d99f0db8b286a4d23e682e7317282ff0723f9dc8daf98809906020015b60405180910390a150565b6001600160a01b038116600090815260fe602052604081205481036114f057506000919050565b60fd54600114801561150c575060fb54600160a81b900460ff16155b1561151957506000919050565b600060fb5460ff166001811115611532576115326123f3565b1480156115675750600160fd5461154991906124f1565b6001600160a01b038316600090815260fe6020526040902060010154145b1561157457506000919050565b60fd546001600160a01b038316600090815260fe6020526040902060010154036115a057506000919050565b506001919050565b919050565b604080518082019091526000808252602082015260fc60fd54815481106115d6576115d6612504565b906000526020600020906002020160405180604001604052908160008201548152602001600182015481525050905090565b600054610100900460ff16158080156116285750600054600160ff909116105b806116425750303b158015611642575060005460ff166001145b6116a55760405162461bcd60e51b815260206004820152602e60248201527f496e697469616c697a61626c653a20636f6e747261637420697320616c72656160448201526d191e481a5b9a5d1a585b1a5e995960921b60648201526084016105b7565b6000805460ff1916600117905580156116c8576000805461ff0019166101001790555b6116d0611f9c565b6116d8611fcb565b6116e0611ffa565b6040805180820182526000808252602080830182815260fc80546001808201835582865295517f371f36870d18f32a11fea0f144b021c8b407bb50f8e0267c711123f454b963c060029283028181019290925593517f371f36870d18f32a11fea0f144b021c8b407bb50f8e0267c711123f454b963c191820155875180890189528681528086018781528454808a01865594909752519290910292830191909155925192019190915560fb80546001600160a81b03191660ff196101006001600160a01b038916021617905560fd82905566b1a2bc2ec5000060ff55915142815290917f3011a2cb7316f75847dafe7f596d9728f2bcb38e662b785f36bc7ea76e4e7142910160405180910390a28015610ab5576000805461ff0019169055604051600181527f7f26b83ff96e1f2b6a682f133852f6798a09c465da95921460cefb38474024989060200161058b565b60fc818154811061184057600080fd5b60009182526020909120600290910201805460019091015490915082565b611866611bb6565b6101005481151560ff9091161515036118cd5760405162461bcd60e51b815260206004820152602360248201527f436f6e747261637420616c726561647920696e2072657175657374656420737460448201526261746560e81b60648201526084016105b7565b610100805460ff191682151590811790915560405160ff909116151581527fe02150678eb6624ed499094e86e8c4a31d3b37225e9a835c9193964d5eb1eec7906020016114be565b61191d611f3c565b6101005460ff1615611942576040516337affdbf60e11b815260040160405180910390fd5b600060fb5460ff16600181111561195b5761195b6123f3565b146119b75760405163fcbfb2b160e01b815260206004820152602560248201527f454e5445523a206f6e6c7920616c6c6f77656420647572696e67206f70656e20604482015264706861736560d81b60648201526084016105b7565b60ff543410156119e75760ff546040516322df051360e11b815234600482015260248101919091526044016105b7565b33600081815260fe6020526040902090611a00906114c9565b15611a1357611a0e33611dca565b611a28565b600160fd54611a2291906124f1565b60018201555b34816000016000828254611a3c91906124de565b925050819055503460fc60fd5481548110611a5957611a59612504565b90600052602060002090600202016000016000828254611a7991906124de565b909155505060fd5460405133917f2f1a7fda57b5fd5cb62770aebd7fc9a8a0a834c5ff558eb7562f85f2b28c437591611aba91348252602082015260400190565b60405180910390a2506109fe600160c955565b611ad5611bb6565b6001600160a01b038116611b3a5760405162461bcd60e51b815260206004820152602660248201527f4f776e61626c653a206e6577206f776e657220697320746865207a65726f206160448201526564647265737360d01b60648201526084016105b7565b61097e81611eea565b606060fc805480602002602001604051908101604052809291908181526020016000905b82821015611bad57838290600052602060002090600202016040518060400160405290816000820154815260200160018201548152505081526020019060010190611b67565b50505050905090565b6097546001600160a01b031633146109fe5760405162461bcd60e51b815260206004820181905260248201527f4f776e61626c653a2063616c6c6572206973206e6f7420746865206f776e657260448201526064016105b7565b82820283158482048414178202611c2f5763ad251c276000526004601cfd5b0492915050565b6000805160206126a3833981519152546001600160a01b031690565b61097e611bb6565b7f4910fdfa16fed3260ed0e7147f7cc6da11a60208b5b9406d12a635614ffd91435460ff1615611c9257611c8d83612021565b505050565b826001600160a01b03166352d1902d6040518163ffffffff1660e01b8152600401602060405180830381865afa925050508015611cec575060408051601f3d908101601f19168201909252611ce9918101906125cb565b60015b611d4f5760405162461bcd60e51b815260206004820152602e60248201527f45524331393637557067726164653a206e657720696d706c656d656e7461746960448201526d6f6e206973206e6f74205555505360901b60648201526084016105b7565b6000805160206126a38339815191528114611dbe5760405162461bcd60e51b815260206004820152602960248201527f45524331393637557067726164653a20756e737570706f727465642070726f786044820152681a58589b195555525160ba1b60648201526084016105b7565b50611c8d8383836120bd565b6000611dd582610e64565b9050600060fb5460ff166001811115611df057611df06123f3565b03611e2557600160fd54611e0491906124f1565b6001600160a01b038316600090815260fe6020526040902060010155611e45565b60fd546001600160a01b038316600090815260fe60205260409020600101555b604051600090339083908381818185875af1925050503d8060008114611e87576040519150601f19603f3d011682016040523d82523d6000602084013e611e8c565b606091505b5050905080611eae576040516312171d8360e31b815260040160405180910390fd5b60fd5460405133917ff0a79ba53601e311de7e03ea2c22463403a62c3d42cec4b256a0f74e1259dae591610e5791868252602082015260400190565b609780546001600160a01b038381166001600160a01b0319831681179093556040519116919082907f8be0079c531659141344cd1fd0a4f28419497f9722a3daafe3b4186f6b6457e090600090a35050565b600260c95403611f8e5760405162461bcd60e51b815260206004820152601f60248201527f5265656e7472616e637947756172643a207265656e7472616e742063616c6c0060448201526064016105b7565b600260c955565b600160c955565b600054610100900460ff16611fc35760405162461bcd60e51b81526004016105b7906125e4565b6109fe6120e8565b600054610100900460ff16611ff25760405162461bcd60e51b81526004016105b7906125e4565b6109fe612118565b600054610100900460ff166109fe5760405162461bcd60e51b81526004016105b7906125e4565b6001600160a01b0381163b61208e5760405162461bcd60e51b815260206004820152602d60248201527f455243313936373a206e657720696d706c656d656e746174696f6e206973206e60448201526c1bdd08184818dbdb9d1c9858dd609a1b60648201526084016105b7565b6000805160206126a383398151915280546001600160a01b0319166001600160a01b0392909216919091179055565b6120c68361213f565b6000825111806120d35750805b15611c8d576120e2838361217f565b50505050565b600054610100900460ff1661210f5760405162461bcd60e51b81526004016105b7906125e4565b6109fe33611eea565b600054610100900460ff16611f955760405162461bcd60e51b81526004016105b7906125e4565b61214881612021565b6040516001600160a01b038216907fbc7cd75a20ee27fd9adebab32041f755214dbc6bffa90cc0225b39da2e5c2d3b90600090a250565b60606121a483836040518060600160405280602781526020016126c3602791396121ad565b90505b92915050565b6060600080856001600160a01b0316856040516121ca9190612653565b600060405180830381855af49150503d8060008114612205576040519150601f19603f3d011682016040523d82523d6000602084013e61220a565b606091505b509150915061221b86838387612225565b9695505050505050565b6060831561229457825160000361228d576001600160a01b0385163b61228d5760405162461bcd60e51b815260206004820152601d60248201527f416464726573733a2063616c6c20746f206e6f6e2d636f6e747261637400000060448201526064016105b7565b508161229e565b61229e83836122a6565b949350505050565b8151156122b65781518083602001fd5b8060405162461bcd60e51b81526004016105b7919061266f565b6000602082840312156122e257600080fd5b5035919050565b80356001600160a01b03811681146115a857600080fd5b60006020828403121561231257600080fd5b6121a4826122e9565b634e487b7160e01b600052604160045260246000fd5b6000806040838503121561234457600080fd5b61234d836122e9565b9150602083013567ffffffffffffffff8082111561236a57600080fd5b818501915085601f83011261237e57600080fd5b8135818111156123905761239061231b565b604051601f8201601f19908116603f011681019083821181831017156123b8576123b861231b565b816040528281528860208487010111156123d157600080fd5b8260208601602083013760006020848301015280955050505050509250929050565b634e487b7160e01b600052602160045260246000fd5b602081016002831061242b57634e487b7160e01b600052602160045260246000fd5b91905290565b8151815260208083015190820152604081016121a7565b60006020828403121561245a57600080fd5b8135801515811461246a57600080fd5b9392505050565b602080825282518282018190526000919060409081850190868401855b828110156124bb576124ab84835180518252602090810151910152565b928401929085019060010161248e565b5091979650505050505050565b634e487b7160e01b600052601160045260246000fd5b808201808211156121a7576121a76124c8565b818103818111156121a7576121a76124c8565b634e487b7160e01b600052603260045260246000fd5b60006001820161252c5761252c6124c8565b5060010190565b6020808252602c908201527f46756e6374696f6e206d7573742062652063616c6c6564207468726f7567682060408201526b19195b1959d85d1958d85b1b60a21b606082015260800190565b6020808252602c908201527f46756e6374696f6e206d7573742062652063616c6c6564207468726f7567682060408201526b6163746976652070726f787960a01b606082015260800190565b6000602082840312156125dd57600080fd5b5051919050565b6020808252602b908201527f496e697469616c697a61626c653a20636f6e7472616374206973206e6f74206960408201526a6e697469616c697a696e6760a81b606082015260800190565b60005b8381101561264a578181015183820152602001612632565b50506000910152565b6000825161266581846020870161262f565b9190910192915050565b602081526000825180602084015261268e81604085016020870161262f565b601f01601f1916919091016040019291505056fe360894a13ba1a3210667c828492db98dca3e2076cc3735a920a3ca505d382bbc416464726573733a206c6f772d6c6576656c2064656c65676174652063616c6c206661696c6564a2646970667358221220c24aaf3a659457f3c3ea54830689a118cad32d0efb47507d781c48d8bcd8c52264736f6c63430008120033",
  "devdoc": {
    "author": "torof",
    "custom:warning": "claiming entails the use of a loop, if too many epochs to claim, it may fail                 the gas cost of the call and the success or failure should be estimated before calling                 a security function is present to break down claiming in chunks.",
    "details": "The contract allows users to stake funds, which are locked for a period of time (an epoch).      The contract has a lifecycle that includes opening, running, and terminating epochs, distributing      rewards, and claiming rewards.      Adding and withdrawing funds is possible only when the epoch status is \"Open\".      Claiming rewards is always possible EXCEPT during the timeframe between when an epoch      starts running and when rewards are allocated for that epoch.",
    "events": {
      "AdminChanged(address,address)": {
        "details": "Emitted when the admin account has changed."
      },
      "BeaconUpgraded(address)": {
        "details": "Emitted when the beacon is changed."
      },
      "Initialized(uint8)": {
        "details": "Triggered when the contract has been initialized or reinitialized."
      },
      "Upgraded(address)": {
        "details": "Emitted when the implementation is upgraded."
      }
    },
    "kind": "dev",
    "methods": {
      "constructor": {
        "custom:oz-upgrades-unsafe-allow": "constructor"
      },
      "owner()": {
        "details": "Returns the address of the current owner."
      },
      "proxiableUUID()": {
        "details": "Implementation of the ERC1822 {proxiableUUID} function. This returns the storage slot used by the implementation. It is used to validate the implementation's compatibility when performing an upgrade. IMPORTANT: A proxy pointing at a proxiable contract should not be considered proxiable itself, because this risks bricking a proxy that upgrades to it, by delegating to itself until out of gas. Thus it is critical that this function revert if invoked through a proxy. This is guaranteed by the `notDelegated` modifier."
      },
      "renounceOwnership()": {
        "details": "Leaves the contract without owner. It will not be possible to call `onlyOwner` functions. Can only be called by the current owner. NOTE: Renouncing ownership will leave the contract without an owner, thereby disabling any functionality that is only available to the owner."
      },
      "transferOwnership(address)": {
        "details": "Transfers ownership of the contract to a new account (`newOwner`). Can only be called by the current owner."
      },
      "upgradeTo(address)": {
        "custom:oz-upgrades-unsafe-allow-reachable": "delegatecall",
        "details": "Upgrade the implementation of the proxy to `newImplementation`. Calls {_authorizeUpgrade}. Emits an {Upgraded} event."
      },
      "upgradeToAndCall(address,bytes)": {
        "custom:oz-upgrades-unsafe-allow-reachable": "delegatecall",
        "details": "Upgrade the implementation of the proxy to `newImplementation`, and subsequently execute the function call encoded in `data`. Calls {_authorizeUpgrade}. Emits an {Upgraded} event."
      }
    },
    "title": "Ledgity ETH Vault Contract",
    "version": 1
  },
  "userdoc": {
    "kind": "user",
    "methods": {},
    "notice": "This contract implements a ETH staking and reward distribution system operating in epochs.         Users can provide funds that will be used for derivatives (short put and call options) operations, and in return,         they will receive yield proportionally to their stake.",
    "version": 1
  },
  "storageLayout": {
    "storage": [
      {
        "astId": 503,
        "contract": "contracts/src/EthVault.sol:EthVault",
        "label": "_initialized",
        "offset": 0,
        "slot": "0",
        "type": "t_uint8"
      },
      {
        "astId": 506,
        "contract": "contracts/src/EthVault.sol:EthVault",
        "label": "_initializing",
        "offset": 1,
        "slot": "0",
        "type": "t_bool"
      },
      {
        "astId": 485,
        "contract": "contracts/src/EthVault.sol:EthVault",
        "label": "__gap",
        "offset": 0,
        "slot": "1",
        "type": "t_array(t_uint256)50_storage"
      },
      {
        "astId": 800,
        "contract": "contracts/src/EthVault.sol:EthVault",
        "label": "__gap",
        "offset": 0,
        "slot": "51",
        "type": "t_array(t_uint256)50_storage"
      },
      {
        "astId": 1256,
        "contract": "contracts/src/EthVault.sol:EthVault",
        "label": "__gap",
        "offset": 0,
        "slot": "101",
        "type": "t_array(t_uint256)50_storage"
      },
      {
        "astId": 10,
        "contract": "contracts/src/EthVault.sol:EthVault",
        "label": "_owner",
        "offset": 0,
        "slot": "151",
        "type": "t_address"
      },
      {
        "astId": 130,
        "contract": "contracts/src/EthVault.sol:EthVault",
        "label": "__gap",
        "offset": 0,
        "slot": "152",
        "type": "t_array(t_uint256)49_storage"
      },
      {
        "astId": 815,
        "contract": "contracts/src/EthVault.sol:EthVault",
        "label": "_status",
        "offset": 0,
        "slot": "201",
        "type": "t_uint256"
      },
      {
        "astId": 884,
        "contract": "contracts/src/EthVault.sol:EthVault",
        "label": "__gap",
        "offset": 0,
        "slot": "202",
        "type": "t_array(t_uint256)49_storage"
      },
      {
        "astId": 1399,
        "contract": "contracts/src/EthVault.sol:EthVault",
        "label": "currentEpochStatus",
        "offset": 0,
        "slot": "251",
        "type": "t_enum(EpochStatus)1396"
      },
      {
        "astId": 1401,
        "contract": "contracts/src/EthVault.sol:EthVault",
        "label": "fundWallet",
        "offset": 1,
        "slot": "251",
        "type": "t_address"
      },
      {
        "astId": 1403,
        "contract": "contracts/src/EthVault.sol:EthVault",
        "label": "claimableRewards",
        "offset": 21,
        "slot": "251",
        "type": "t_bool"
      },
      {
        "astId": 1407,
        "contract": "contracts/src/EthVault.sol:EthVault",
        "label": "epochs",
        "offset": 0,
        "slot": "252",
        "type": "t_array(t_struct(Epoch)1388_storage)dyn_storage"
      },
      {
        "astId": 1409,
        "contract": "contracts/src/EthVault.sol:EthVault",
        "label": "currentEpochId",
        "offset": 0,
        "slot": "253",
        "type": "t_uint256"
      },
      {
        "astId": 1414,
        "contract": "contracts/src/EthVault.sol:EthVault",
        "label": "userStakes",
        "offset": 0,
        "slot": "254",
        "type": "t_mapping(t_address,t_struct(UserStake)1393_storage)"
      },
      {
        "astId": 1416,
        "contract": "contracts/src/EthVault.sol:EthVault",
        "label": "mininmumStake",
        "offset": 0,
        "slot": "255",
        "type": "t_uint256"
      },
      {
        "astId": 1418,
        "contract": "contracts/src/EthVault.sol:EthVault",
        "label": "locked",
        "offset": 0,
        "slot": "256",
        "type": "t_bool"
      }
    ],
    "types": {
      "t_address": {
        "encoding": "inplace",
        "label": "address",
        "numberOfBytes": "20"
      },
      "t_array(t_struct(Epoch)1388_storage)dyn_storage": {
        "base": "t_struct(Epoch)1388_storage",
        "encoding": "dynamic_array",
        "label": "struct EthVault.Epoch[]",
        "numberOfBytes": "32"
      },
      "t_array(t_uint256)49_storage": {
        "base": "t_uint256",
        "encoding": "inplace",
        "label": "uint256[49]",
        "numberOfBytes": "1568"
      },
      "t_array(t_uint256)50_storage": {
        "base": "t_uint256",
        "encoding": "inplace",
        "label": "uint256[50]",
        "numberOfBytes": "1600"
      },
      "t_bool": {
        "encoding": "inplace",
        "label": "bool",
        "numberOfBytes": "1"
      },
      "t_enum(EpochStatus)1396": {
        "encoding": "inplace",
        "label": "enum EthVault.EpochStatus",
        "numberOfBytes": "1"
      },
      "t_mapping(t_address,t_struct(UserStake)1393_storage)": {
        "encoding": "mapping",
        "key": "t_address",
        "label": "mapping(address => struct EthVault.UserStake)",
        "numberOfBytes": "32",
        "value": "t_struct(UserStake)1393_storage"
      },
      "t_struct(Epoch)1388_storage": {
        "encoding": "inplace",
        "label": "struct EthVault.Epoch",
        "members": [
          {
            "astId": 1385,
            "contract": "contracts/src/EthVault.sol:EthVault",
            "label": "totalValueLocked",
            "offset": 0,
            "slot": "0",
            "type": "t_uint256"
          },
          {
            "astId": 1387,
            "contract": "contracts/src/EthVault.sol:EthVault",
            "label": "totalEpochRewards",
            "offset": 0,
            "slot": "1",
            "type": "t_uint256"
          }
        ],
        "numberOfBytes": "64"
      },
      "t_struct(UserStake)1393_storage": {
        "encoding": "inplace",
        "label": "struct EthVault.UserStake",
        "members": [
          {
            "astId": 1390,
            "contract": "contracts/src/EthVault.sol:EthVault",
            "label": "amount",
            "offset": 0,
            "slot": "0",
            "type": "t_uint256"
          },
          {
            "astId": 1392,
            "contract": "contracts/src/EthVault.sol:EthVault",
            "label": "lastEpochClaimedAt",
            "offset": 0,
            "slot": "1",
            "type": "t_uint256"
          }
        ],
        "numberOfBytes": "64"
      },
      "t_uint256": {
        "encoding": "inplace",
        "label": "uint256",
        "numberOfBytes": "32"
      },
      "t_uint8": {
        "encoding": "inplace",
        "label": "uint8",
        "numberOfBytes": "1"
      }
    }
  }
}