{
  "address": "0x38B8465cE54B771F09441321DB39A8664EB5808a",
  "abi": [
    {
      "inputs": [],
      "stateMutability": "nonpayable",
      "type": "constructor"
    },
    {
      "inputs": [],
      "name": "AmountMustBeGreaterThanZero",
      "type": "error"
    },
    {
      "inputs": [],
      "name": "ContractLocked",
      "type": "error"
    },
    {
      "inputs": [
        {
          "internalType": "uint256",
          "name": "requested",
          "type": "uint256"
        },
        {
          "internalType": "uint256",
          "name": "available",
          "type": "uint256"
        }
      ],
      "name": "InsufficientBalance",
      "type": "error"
    },
    {
      "inputs": [
        {
          "internalType": "uint256",
          "name": "requestedEpochs",
          "type": "uint256"
        },
        {
          "internalType": "uint256",
          "name": "availableEpochs",
          "type": "uint256"
        }
      ],
      "name": "InsufficientClaimableEpochs",
      "type": "error"
    },
    {
      "inputs": [
        {
          "internalType": "uint256",
          "name": "provided",
          "type": "uint256"
        },
        {
          "internalType": "uint256",
          "name": "required",
          "type": "uint256"
        }
      ],
      "name": "InsufficientFundsReturned",
      "type": "error"
    },
    {
      "inputs": [
        {
          "internalType": "uint256",
          "name": "provided",
          "type": "uint256"
        },
        {
          "internalType": "uint256",
          "name": "required",
          "type": "uint256"
        }
      ],
      "name": "InsufficientStake",
      "type": "error"
    },
    {
      "inputs": [
        {
          "internalType": "uint256",
          "name": "requestedEpochs",
          "type": "uint256"
        }
      ],
      "name": "InvalidEpochsToClaim",
      "type": "error"
    },
    {
      "inputs": [],
      "name": "NoActiveStake",
      "type": "error"
    },
    {
      "inputs": [],
      "name": "NoRewardToClaim",
      "type": "error"
    },
    {
      "inputs": [],
      "name": "NoRewardsToAllocate",
      "type": "error"
    },
    {
      "inputs": [],
      "name": "NoStakeToExit",
      "type": "error"
    },
    {
      "inputs": [],
      "name": "NotFundwallet",
      "type": "error"
    },
    {
      "inputs": [],
      "name": "NotWithdrawable",
      "type": "error"
    },
    {
      "inputs": [],
      "name": "RewardsAlreadyAllocated",
      "type": "error"
    },
    {
      "inputs": [],
      "name": "TransferFailed",
      "type": "error"
    },
    {
      "inputs": [],
      "name": "UnClaimableRewards",
      "type": "error"
    },
    {
      "inputs": [
        {
          "internalType": "string",
          "name": "",
          "type": "string"
        }
      ],
      "name": "WrongPhase",
      "type": "error"
    },
    {
      "anonymous": false,
      "inputs": [
        {
          "indexed": false,
          "internalType": "address",
          "name": "previousAdmin",
          "type": "address"
        },
        {
          "indexed": false,
          "internalType": "address",
          "name": "newAdmin",
          "type": "address"
        }
      ],
      "name": "AdminChanged",
      "type": "event"
    },
    {
      "anonymous": false,
      "inputs": [
        {
          "indexed": true,
          "internalType": "address",
          "name": "beacon",
          "type": "address"
        }
      ],
      "name": "BeaconUpgraded",
      "type": "event"
    },
    {
      "anonymous": false,
      "inputs": [
        {
          "indexed": true,
          "internalType": "uint256",
          "name": "epochNumber",
          "type": "uint256"
        },
        {
          "indexed": false,
          "internalType": "uint256",
          "name": "timestamp",
          "type": "uint256"
        }
      ],
      "name": "EpochOpened",
      "type": "event"
    },
    {
      "anonymous": false,
      "inputs": [
        {
          "indexed": true,
          "internalType": "uint256",
          "name": "epochNumber",
          "type": "uint256"
        },
        {
          "indexed": false,
          "internalType": "uint256",
          "name": "timestamp",
          "type": "uint256"
        },
        {
          "indexed": false,
          "internalType": "uint256",
          "name": "totalValueLocked",
          "type": "uint256"
        }
      ],
      "name": "EpochRunning",
      "type": "event"
    },
    {
      "anonymous": false,
      "inputs": [
        {
          "indexed": true,
          "internalType": "uint256",
          "name": "epochNumber",
          "type": "uint256"
        },
        {
          "indexed": false,
          "internalType": "uint256",
          "name": "timestamp",
          "type": "uint256"
        }
      ],
      "name": "EpochTerminated",
      "type": "event"
    },
    {
      "anonymous": false,
      "inputs": [
        {
          "indexed": false,
          "internalType": "address",
          "name": "oldFundWallet",
          "type": "address"
        },
        {
          "indexed": false,
          "internalType": "address",
          "name": "newFundWallet",
          "type": "address"
        }
      ],
      "name": "FundWalletChanged",
      "type": "event"
    },
    {
      "anonymous": false,
      "inputs": [
        {
          "indexed": false,
          "internalType": "uint256",
          "name": "amount",
          "type": "uint256"
        },
        {
          "indexed": true,
          "internalType": "uint256",
          "name": "epochId",
          "type": "uint256"
        }
      ],
      "name": "FundsTransferredToFundWallet",
      "type": "event"
    },
    {
      "anonymous": false,
      "inputs": [
        {
          "indexed": false,
          "internalType": "uint8",
          "name": "version",
          "type": "uint8"
        }
      ],
      "name": "Initialized",
      "type": "event"
    },
    {
      "anonymous": false,
      "inputs": [
        {
          "indexed": false,
          "internalType": "bool",
          "name": "locked",
          "type": "bool"
        }
      ],
      "name": "LockingContract",
      "type": "event"
    },
    {
      "anonymous": false,
      "inputs": [
        {
          "indexed": false,
          "internalType": "uint256",
          "name": "oldMinimumStake",
          "type": "uint256"
        },
        {
          "indexed": false,
          "internalType": "uint256",
          "name": "newMinimumStake",
          "type": "uint256"
        }
      ],
      "name": "MinimumStakeChanged",
      "type": "event"
    },
    {
      "anonymous": false,
      "inputs": [
        {
          "indexed": true,
          "internalType": "address",
          "name": "previousOwner",
          "type": "address"
        },
        {
          "indexed": true,
          "internalType": "address",
          "name": "newOwner",
          "type": "address"
        }
      ],
      "name": "OwnershipTransferred",
      "type": "event"
    },
    {
      "anonymous": false,
      "inputs": [
        {
          "indexed": true,
          "internalType": "uint256",
          "name": "epochNumber",
          "type": "uint256"
        },
        {
          "indexed": false,
          "internalType": "uint256",
          "name": "rewardAmount",
          "type": "uint256"
        }
      ],
      "name": "RewardsAllocated",
      "type": "event"
    },
    {
      "anonymous": false,
      "inputs": [
        {
          "indexed": false,
          "internalType": "bool",
          "name": "claimable",
          "type": "bool"
        }
      ],
      "name": "RewardsClaimabilityChanged",
      "type": "event"
    },
    {
      "anonymous": false,
      "inputs": [
        {
          "indexed": true,
          "internalType": "address",
          "name": "implementation",
          "type": "address"
        }
      ],
      "name": "Upgraded",
      "type": "event"
    },
    {
      "anonymous": false,
      "inputs": [
        {
          "indexed": true,
          "internalType": "address",
          "name": "user",
          "type": "address"
        },
        {
          "indexed": false,
          "internalType": "uint256",
          "name": "amount",
          "type": "uint256"
        },
        {
          "indexed": false,
          "internalType": "uint256",
          "name": "epochNumber",
          "type": "uint256"
        }
      ],
      "name": "UserDeposit",
      "type": "event"
    },
    {
      "anonymous": false,
      "inputs": [
        {
          "indexed": true,
          "internalType": "address",
          "name": "user",
          "type": "address"
        },
        {
          "indexed": false,
          "internalType": "uint256",
          "name": "amount",
          "type": "uint256"
        },
        {
          "indexed": false,
          "internalType": "uint256",
          "name": "epochNumber",
          "type": "uint256"
        }
      ],
      "name": "UserRewardClaim",
      "type": "event"
    },
    {
      "anonymous": false,
      "inputs": [
        {
          "indexed": true,
          "internalType": "address",
          "name": "user",
          "type": "address"
        },
        {
          "indexed": false,
          "internalType": "uint256",
          "name": "amount",
          "type": "uint256"
        },
        {
          "indexed": false,
          "internalType": "uint256",
          "name": "epochNumber",
          "type": "uint256"
        }
      ],
      "name": "UserWithdraw",
      "type": "event"
    },
    {
      "inputs": [],
      "name": "allocateRewards",
      "outputs": [],
      "stateMutability": "payable",
      "type": "function"
    },
    {
      "inputs": [
        {
          "internalType": "address",
          "name": "_user",
          "type": "address"
        }
      ],
      "name": "calculateRewards",
      "outputs": [
        {
          "internalType": "uint256",
          "name": "",
          "type": "uint256"
        }
      ],
      "stateMutability": "view",
      "type": "function"
    },
    {
      "inputs": [],
      "name": "claimRewards",
      "outputs": [],
      "stateMutability": "nonpayable",
      "type": "function"
    },
    {
      "inputs": [
        {
          "internalType": "uint256",
          "name": "_numberOfEpochs",
          "type": "uint256"
        }
      ],
      "name": "claimRewardsForEpochs",
      "outputs": [],
      "stateMutability": "nonpayable",
      "type": "function"
    },
    {
      "inputs": [],
      "name": "claimableRewards",
      "outputs": [
        {
          "internalType": "bool",
          "name": "",
          "type": "bool"
        }
      ],
      "stateMutability": "view",
      "type": "function"
    },
    {
      "inputs": [],
      "name": "currentEpochId",
      "outputs": [
        {
          "internalType": "uint256",
          "name": "",
          "type": "uint256"
        }
      ],
      "stateMutability": "view",
      "type": "function"
    },
    {
      "inputs": [],
      "name": "currentEpochStatus",
      "outputs": [
        {
          "internalType": "enum EthVault.EpochStatus",
          "name": "",
          "type": "uint8"
        }
      ],
      "stateMutability": "view",
      "type": "function"
    },
    {
      "inputs": [],
      "name": "enter",
      "outputs": [],
      "stateMutability": "payable",
      "type": "function"
    },
    {
      "inputs": [
        {
          "internalType": "uint256",
          "name": "",
          "type": "uint256"
        }
      ],
      "name": "epochs",
      "outputs": [
        {
          "internalType": "uint256",
          "name": "totalValueLocked",
          "type": "uint256"
        },
        {
          "internalType": "uint256",
          "name": "totalEpochRewards",
          "type": "uint256"
        }
      ],
      "stateMutability": "view",
      "type": "function"
    },
    {
      "inputs": [
        {
          "internalType": "uint256",
          "name": "_amount",
          "type": "uint256"
        }
      ],
      "name": "exit",
      "outputs": [],
      "stateMutability": "nonpayable",
      "type": "function"
    },
    {
      "inputs": [],
      "name": "fundWallet",
      "outputs": [
        {
          "internalType": "address",
          "name": "",
          "type": "address"
        }
      ],
      "stateMutability": "view",
      "type": "function"
    },
    {
      "inputs": [],
      "name": "getAllEpochs",
      "outputs": [
        {
          "components": [
            {
              "internalType": "uint256",
              "name": "totalValueLocked",
              "type": "uint256"
            },
            {
              "internalType": "uint256",
              "name": "totalEpochRewards",
              "type": "uint256"
            }
          ],
          "internalType": "struct EthVault.Epoch[]",
          "name": "",
          "type": "tuple[]"
        }
      ],
      "stateMutability": "view",
      "type": "function"
    },
    {
      "inputs": [],
      "name": "getCurrentEpoch",
      "outputs": [
        {
          "components": [
            {
              "internalType": "uint256",
              "name": "totalValueLocked",
              "type": "uint256"
            },
            {
              "internalType": "uint256",
              "name": "totalEpochRewards",
              "type": "uint256"
            }
          ],
          "internalType": "struct EthVault.Epoch",
          "name": "",
          "type": "tuple"
        }
      ],
      "stateMutability": "view",
      "type": "function"
    },
    {
      "inputs": [
        {
          "internalType": "address",
          "name": "_user",
          "type": "address"
        }
      ],
      "name": "getEpochLengthToClaim",
      "outputs": [
        {
          "internalType": "uint256",
          "name": "",
          "type": "uint256"
        }
      ],
      "stateMutability": "view",
      "type": "function"
    },
    {
      "inputs": [
        {
          "internalType": "address",
          "name": "_user",
          "type": "address"
        }
      ],
      "name": "hasClaimableRewards",
      "outputs": [
        {
          "internalType": "bool",
          "name": "",
          "type": "bool"
        }
      ],
      "stateMutability": "view",
      "type": "function"
    },
    {
      "inputs": [
        {
          "internalType": "address",
          "name": "_fundWallet",
          "type": "address"
        }
      ],
      "name": "initialize",
      "outputs": [],
      "stateMutability": "nonpayable",
      "type": "function"
    },
    {
      "inputs": [],
      "name": "lockFundsAndRunCurrentEpoch",
      "outputs": [],
      "stateMutability": "nonpayable",
      "type": "function"
    },
    {
      "inputs": [
        {
          "internalType": "bool",
          "name": "_locked",
          "type": "bool"
        }
      ],
      "name": "lockOrUnlockContract",
      "outputs": [],
      "stateMutability": "nonpayable",
      "type": "function"
    },
    {
      "inputs": [],
      "name": "locked",
      "outputs": [
        {
          "internalType": "bool",
          "name": "",
          "type": "bool"
        }
      ],
      "stateMutability": "view",
      "type": "function"
    },
    {
      "inputs": [],
      "name": "mininmumStake",
      "outputs": [
        {
          "internalType": "uint256",
          "name": "",
          "type": "uint256"
        }
      ],
      "stateMutability": "view",
      "type": "function"
    },
    {
      "inputs": [],
      "name": "owner",
      "outputs": [
        {
          "internalType": "address",
          "name": "",
          "type": "address"
        }
      ],
      "stateMutability": "view",
      "type": "function"
    },
    {
      "inputs": [],
      "name": "proxiableUUID",
      "outputs": [
        {
          "internalType": "bytes32",
          "name": "",
          "type": "bytes32"
        }
      ],
      "stateMutability": "view",
      "type": "function"
    },
    {
      "inputs": [],
      "name": "renounceOwnership",
      "outputs": [],
      "stateMutability": "nonpayable",
      "type": "function"
    },
    {
      "inputs": [
        {
          "internalType": "address",
          "name": "_fundWallet",
          "type": "address"
        }
      ],
      "name": "setFundWallet",
      "outputs": [],
      "stateMutability": "nonpayable",
      "type": "function"
    },
    {
      "inputs": [
        {
          "internalType": "uint256",
          "name": "_mininmumStake",
          "type": "uint256"
        }
      ],
      "name": "setMinimumStake",
      "outputs": [],
      "stateMutability": "nonpayable",
      "type": "function"
    },
    {
      "inputs": [],
      "name": "terminateCurrentAndOpenNextEpoch",
      "outputs": [],
      "stateMutability": "payable",
      "type": "function"
    },
    {
      "inputs": [
        {
          "internalType": "address",
          "name": "newOwner",
          "type": "address"
        }
      ],
      "name": "transferOwnership",
      "outputs": [],
      "stateMutability": "nonpayable",
      "type": "function"
    },
    {
      "inputs": [
        {
          "internalType": "address",
          "name": "newImplementation",
          "type": "address"
        }
      ],
      "name": "upgradeTo",
      "outputs": [],
      "stateMutability": "nonpayable",
      "type": "function"
    },
    {
      "inputs": [
        {
          "internalType": "address",
          "name": "newImplementation",
          "type": "address"
        },
        {
          "internalType": "bytes",
          "name": "data",
          "type": "bytes"
        }
      ],
      "name": "upgradeToAndCall",
      "outputs": [],
      "stateMutability": "payable",
      "type": "function"
    },
    {
      "inputs": [
        {
          "internalType": "address",
          "name": "",
          "type": "address"
        }
      ],
      "name": "userStakes",
      "outputs": [
        {
          "internalType": "uint256",
          "name": "amount",
          "type": "uint256"
        },
        {
          "internalType": "uint256",
          "name": "lastEpochClaimedAt",
          "type": "uint256"
        }
      ],
      "stateMutability": "view",
      "type": "function"
    }
  ],
  "transactionHash": "0x6327b49c6f6e1e0cc23d74c0c05e85d66d66abd46d55c1e529124cbe921aaade",
  "args": [],
  "numDeployments": 1,
  "solcInputHash": "11de3d09755603a1541c5b7993381a85",
  "bytecode": "0x60a0604052306080523480156200001557600080fd5b506200002062000026565b620000e7565b600054610100900460ff1615620000935760405162461bcd60e51b815260206004820152602760248201527f496e697469616c697a61626c653a20636f6e747261637420697320696e697469604482015266616c697a696e6760c81b606482015260840160405180910390fd5b60005460ff90811614620000e5576000805460ff191660ff9081179091556040519081527f7f26b83ff96e1f2b6a682f133852f6798a09c465da95921460cefb38474024989060200160405180910390a15b565b60805161275b6200011f600039600081816108a2015281816108e2015281816109e801528181610a280152610aa4015261275b6000f3fe60806040526004361061018d5760003560e01c80638da7ad23116100d7578063c6b61e4c11610085578063c6b61e4c14610456578063cd237a4114610476578063cf30901214610496578063e6c47bc5146104b1578063e97dcb62146104c8578063eacdc5ff146104d0578063f2fde38b146104e6578063f567244c1461050657600080fd5b80638da7ad2314610367578063a17d97f3146103b0578063a3bc61a5146103c5578063a72b05bc146103cd578063b6ff4934146103f4578063b97dd9e214610414578063c4d66de81461043657600080fd5b806355ce3b9a1161013f57806355ce3b9a146102645780635f75659f1461028457806364ab86751461028c578063664a1ad6146102ac5780636c003a9b146102e4578063715018a6146103145780637f8661a1146103295780638da5cb5b1461034957600080fd5b8063233e9903146101925780632697f03a146101b45780632aa3a2bc146101d45780633659cfe614610207578063372500ab146102275780634f1ef2861461023c57806352d1902d1461024f575b600080fd5b34801561019e57600080fd5b506101b26101ad36600461230c565b610528565b005b3480156101c057600080fd5b506101b26101cf36600461230c565b610577565b3480156101e057600080fd5b506101f46101ef36600461233c565b6107d8565b6040519081526020015b60405180910390f35b34801561021357600080fd5b506101b261022236600461233c565b610898565b34801561023357600080fd5b506101b2610960565b6101b261024a36600461236d565b6109de565b34801561025b57600080fd5b506101f4610a97565b34801561027057600080fd5b506101b261027f36600461233c565b610b45565b6101b2610ba7565b34801561029857600080fd5b506101f46102a736600461233c565b610e56565b3480156102b857600080fd5b5060fd546102cc906001600160a01b031681565b6040516001600160a01b0390911681526020016101fe565b3480156102f057600080fd5b506101015461030490610100900460ff1681565b60405190151581526020016101fe565b34801561032057600080fd5b506101b2610f4f565b34801561033557600080fd5b506101b261034436600461230c565b610f61565b34801561035557600080fd5b506097546001600160a01b03166102cc565b34801561037357600080fd5b5061039b61038236600461233c565b60fe602052600090815260409020805460019091015482565b604080519283526020830191909152016101fe565b3480156103bc57600080fd5b506101b2611186565b6101b261135f565b3480156103d957600080fd5b5060fb546103e79060ff1681565b6040516101fe9190612445565b34801561040057600080fd5b5061030461040f36600461233c565b6114ff565b34801561042057600080fd5b506104296115e2565b6040516101fe919061246d565b34801561044257600080fd5b506101b261045136600461233c565b61163d565b34801561046257600080fd5b5061039b61047136600461230c565b61186a565b34801561048257600080fd5b506101b2610491366004612484565b611898565b3480156104a257600080fd5b50610101546103049060ff1681565b3480156104bd57600080fd5b506101f46101005481565b6101b261194f565b3480156104dc57600080fd5b506101f460ff5481565b3480156104f257600080fd5b506101b261050136600461233c565b611b09565b34801561051257600080fd5b5061051b611b7f565b6040516101fe91906124ad565b610530611bf2565b61010080549082905560408051828152602081018490527fdc4a0b2dc1fa27da98de2ac6f8fa373b4be405e1bf69fc3976597b6d56b79abc91015b60405180910390a15050565b806000036105a0576040516362541df360e01b8152600481018290526024015b60405180910390fd5b61010154610100900460ff166105c85760405162f4f7c560e11b815260040160405180910390fd5b6105d1336114ff565b6105ee57604051635aa9184d60e01b815260040160405180910390fd5b33600090815260fe6020526040812060018082015491929161060f9161251a565b905060008060fb5460ff16600181111561062b5761062b61242f565b146106385760ff54610647565b600160ff54610647919061252d565b905060008282101561065a57600061066f565b610664838361252d565b61066f90600161251a565b90508085111561069c57604051632fe9914b60e21b81526004810186905260248101829052604401610597565b600060016106aa878661251a565b6106b4919061252d565b90506000845b82811161072257600060fc82815481106106d6576106d6612540565b9060005260206000209060020201905060006106ff896000015483600101548460000154611c4c565b905061070b818561251a565b93505050808061071a90612556565b9150506106ba565b5060018601829055604051600090339083908381818185875af1925050503d806000811461076c576040519150601f19603f3d011682016040523d82523d6000602084013e610771565b606091505b5050905080610793576040516312171d8360e31b815260040160405180910390fd5b604080518381526020810185905233917ff0a79ba53601e311de7e03ea2c22463403a62c3d42cec4b256a0f74e1259dae5910160405180910390a25050505050505050565b6001600160a01b038116600090815260fe602052604081205481036107ff57506000919050565b6001600160a01b038216600090815260fe602052604081206001908101548291610829919061251a565b905060008060fb5460ff1660018111156108455761084561242f565b0361086057600160ff54610859919061252d565b9050610865565b5060ff545b815b81811161088e578361087881612556565b945050808061088690612556565b915050610867565b5091949350505050565b6001600160a01b037f00000000000000000000000000000000000000000000000000000000000000001630036108e05760405162461bcd60e51b81526004016105979061256f565b7f00000000000000000000000000000000000000000000000000000000000000006001600160a01b0316610912611c72565b6001600160a01b0316146109385760405162461bcd60e51b8152600401610597906125bb565b61094181611c8e565b6040805160008082526020820190925261095d91839190611c96565b50565b6101015460ff1615610985576040516337affdbf60e11b815260040160405180910390fd5b61010154610100900460ff166109ad5760405162f4f7c560e11b815260040160405180910390fd5b6109b6336114ff565b6109d357604051635aa9184d60e01b815260040160405180910390fd5b6109dc33611e06565b565b6001600160a01b037f0000000000000000000000000000000000000000000000000000000000000000163003610a265760405162461bcd60e51b81526004016105979061256f565b7f00000000000000000000000000000000000000000000000000000000000000006001600160a01b0316610a58611c72565b6001600160a01b031614610a7e5760405162461bcd60e51b8152600401610597906125bb565b610a8782611c8e565b610a9382826001611c96565b5050565b6000306001600160a01b037f00000000000000000000000000000000000000000000000000000000000000001614610b325760405162461bcd60e51b815260206004820152603860248201527f555550535570677261646561626c653a206d757374206e6f742062652063616c6044820152771b1959081d1a1c9bdd59da0819195b1959d85d1958d85b1b60421b6064820152608401610597565b506000805160206126df83398151915290565b610b4d611bf2565b60fd80546001600160a01b038381166001600160a01b031983168117909355604080519190921680825260208201939093527f9c41a9a969e821894638b441dcdf78c0573277c91b8ac63440d790f5634a2b0b910161056b565b60fd546001600160a01b03163314610bd257604051632b3cd49d60e21b815260040160405180910390fd5b600160fb5460ff166001811115610beb57610beb61242f565b14610c495760405163fcbfb2b160e01b815260206004820152602760248201527f454e442045504f43483a2063616e206f6e6c7920656e6420612072756e6e696e6044820152660ce40cae0dec6d60cb1b6064820152608401610597565b61010154610100900460ff16610cc85760405163fcbfb2b160e01b815260206004820152603c60248201527f454e442045504f43483a2072657761726473206d75737420626520616c6c6f6360448201527f61746564206265666f726520656e64696e67207468652065706f6368000000006064820152608401610597565b600060fc60ff5481548110610cdf57610cdf612540565b906000526020600020906002020160000154905080341015610d1d5760405163082e13a160e31b815234600482015260248101829052604401610597565b600060fc60ff5481548110610d3457610d34612540565b9060005260206000209060020201905060008160000154905060ff547f64570abbb448406f773ac3a0c62178ed95f93e5465f64860899859bbe490fb4242604051610d8191815260200190565b60405180910390a260ff8054906000610d9983612556565b90915550506040805180820182528281526000602080830182815260fc8054600181018255935292517f371f36870d18f32a11fea0f144b021c8b407bb50f8e0267c711123f454b963c060029093029283015591517f371f36870d18f32a11fea0f144b021c8b407bb50f8e0267c711123f454b963c19091015560fb805460ff1916905560ff5491514281527f3011a2cb7316f75847dafe7f596d9728f2bcb38e662b785f36bc7ea76e4e714291015b60405180910390a2505050565b6000610e61826114ff565b610e6d57506000919050565b6001600160a01b038216600090815260fe602052604081206001908101548291610e97919061251a565b905060008060fb5460ff166001811115610eb357610eb361242f565b03610ece57600160ff54610ec7919061252d565b9050610ed3565b5060ff545b815b81811161088e57600060fc8281548110610ef157610ef1612540565b600091825260208083206001600160a01b038b16845260fe90915260408320546002929092020160018101548154919450610f2c9291611c4c565b9050610f38818761251a565b955050508080610f4790612556565b915050610ed5565b610f57611bf2565b6109dc6000611f26565b610f69611f78565b6101015460ff1615610f8e576040516337affdbf60e11b815260040160405180910390fd5b600060fb5460ff166001811115610fa757610fa761242f565b146110015760405163fcbfb2b160e01b8152602060048201526024808201527f455849543a206f6e6c7920616c6c6f77656420647572696e67206f70656e20706044820152636861736560e01b6064820152608401610597565b33600090815260fe60205260409020805482111561103f57805460405163cf47918160e01b8152610597918491600401918252602082015260400190565b8160000361106057604051635e85ae7360e01b815260040160405180910390fd5b611069336114ff565b156110775761107733611e06565b8181600001600082825461108b919061252d565b925050819055508160fc60ff54815481106110a8576110a8612540565b906000526020600020906002020160000160008282546110c8919061252d565b9091555050604051600090339084908381818185875af1925050503d806000811461110f576040519150601f19603f3d011682016040523d82523d6000602084013e611114565b606091505b5050905080611136576040516312171d8360e31b815260040160405180910390fd5b60ff5460405133917fd2263e970e3552b8e14c013f4d6af030894ef3ae6f025607042368db047a44189161117291878252602082015260400190565b60405180910390a2505061095d600160c955565b60fd546001600160a01b031633146111b157604051632b3cd49d60e21b815260040160405180910390fd5b600060fb5460ff1660018111156111ca576111ca61242f565b146112325760405163fcbfb2b160e01b815260206004820152603160248201527f52554e2045504f43483a2063616e206f6e6c792073746172742072756e6e696e604482015270672066726f6d206f70656e20706861736560781b6064820152608401610597565b60fb805460ff19166001179055610101805461ff001916905560ff5460fc805460009290811061126457611264612540565b600091825260208220600291909102015460fd546040519193506001600160a01b03169083908381818185875af1925050503d80600081146112c2576040519150601f19603f3d011682016040523d82523d6000602084013e6112c7565b606091505b50509050806112e9576040516312171d8360e31b815260040160405180910390fd5b60ff5460408051428152602081018590527f52c5abe9e004b5b25ca01e93c14fc741f8f6f73683e7299cbb65a18b8c6296a2910160405180910390a260ff546040518381527f04ded3f62ae2ab4717c7253fd9d8a4b3f253afc40fd5280a272755ce344d1cc69060200160405180910390a25050565b60fd546001600160a01b0316331461138a57604051632b3cd49d60e21b815260040160405180910390fd5b600160fb5460ff1660018111156113a3576113a361242f565b146114045760405163fcbfb2b160e01b815260206004820152602a60248201527f414c4c4f4341544520524557415244533a206d75737420626520696e2072756e6044820152696e696e6720706861736560b01b6064820152608401610597565b3460000361142557604051634891ab2560e11b815260040160405180910390fd5b600060fc60ff548154811061143c5761143c612540565b90600052602060002090600202019050806001015460001461147157604051630ec94ce560e41b815260040160405180910390fd5b3460018201819055610101805461ff00191661010017905560ff5460405190917ff9ecaf62687e41c2eb3b9f3bb3e5562b198859fda05aed70e3cc7e3a060e8c9d916114bf91815260200190565b60405180910390a2604051600181527fbba732616e420f73d99f0db8b286a4d23e682e7317282ff0723f9dc8daf98809906020015b60405180910390a150565b6001600160a01b038116600090815260fe6020526040812054810361152657506000919050565b60ff546001148015611541575061010154610100900460ff16155b1561154e57506000919050565b600060fb5460ff1660018111156115675761156761242f565b14801561159c5750600160ff5461157e919061252d565b6001600160a01b038316600090815260fe6020526040902060010154145b156115a957506000919050565b60ff546001600160a01b038316600090815260fe6020526040902060010154036115d557506000919050565b506001919050565b919050565b604080518082019091526000808252602082015260fc60ff548154811061160b5761160b612540565b906000526020600020906002020160405180604001604052908160008201548152602001600182015481525050905090565b600054610100900460ff161580801561165d5750600054600160ff909116105b806116775750303b158015611677575060005460ff166001145b6116da5760405162461bcd60e51b815260206004820152602e60248201527f496e697469616c697a61626c653a20636f6e747261637420697320616c72656160448201526d191e481a5b9a5d1a585b1a5e995960921b6064820152608401610597565b6000805460ff1916600117905580156116fd576000805461ff0019166101001790555b611705611fd8565b61170d612007565b611715612036565b6040805180820182526000808252602080830182815260fc805460018082018355828652955160029182027f371f36870d18f32a11fea0f144b021c8b407bb50f8e0267c711123f454b963c08181019290925593517f371f36870d18f32a11fea0f144b021c8b407bb50f8e0267c711123f454b963c194850155875180890189528681528086018781528454808a01865594909752519290910290810191909155925192019190915560fd80546001600160a01b0387166001600160a01b031990911617905560fb805460ff1916905560ff82905566b1a2bc2ec5000061010055915142815290917f3011a2cb7316f75847dafe7f596d9728f2bcb38e662b785f36bc7ea76e4e7142910160405180910390a28015610a93576000805461ff0019169055604051600181527f7f26b83ff96e1f2b6a682f133852f6798a09c465da95921460cefb38474024989060200161056b565b60fc818154811061187a57600080fd5b60009182526020909120600290910201805460019091015490915082565b6118a0611bf2565b6101015481151560ff9091161515036119075760405162461bcd60e51b815260206004820152602360248201527f436f6e747261637420616c726561647920696e2072657175657374656420737460448201526261746560e81b6064820152608401610597565b610101805460ff191682151590811790915560405160ff909116151581527fe02150678eb6624ed499094e86e8c4a31d3b37225e9a835c9193964d5eb1eec7906020016114f4565b611957611f78565b6101015460ff161561197c576040516337affdbf60e11b815260040160405180910390fd5b600060fb5460ff1660018111156119955761199561242f565b146119f15760405163fcbfb2b160e01b815260206004820152602560248201527f454e5445523a206f6e6c7920616c6c6f77656420647572696e67206f70656e20604482015264706861736560d81b6064820152608401610597565b61010054341015611a2357610100546040516322df051360e11b81523460048201526024810191909152604401610597565b33600081815260fe6020526040902090611a3c906114ff565b15611a4f57611a4a33611e06565b611a64565b600160ff54611a5e919061252d565b60018201555b34816000016000828254611a78919061251a565b925050819055503460fc60ff5481548110611a9557611a95612540565b90600052602060002090600202016000016000828254611ab5919061251a565b909155505060ff5460405133917f2f1a7fda57b5fd5cb62770aebd7fc9a8a0a834c5ff558eb7562f85f2b28c437591611af691348252602082015260400190565b60405180910390a2506109dc600160c955565b611b11611bf2565b6001600160a01b038116611b765760405162461bcd60e51b815260206004820152602660248201527f4f776e61626c653a206e6577206f776e657220697320746865207a65726f206160448201526564647265737360d01b6064820152608401610597565b61095d81611f26565b606060fc805480602002602001604051908101604052809291908181526020016000905b82821015611be957838290600052602060002090600202016040518060400160405290816000820154815260200160018201548152505081526020019060010190611ba3565b50505050905090565b6097546001600160a01b031633146109dc5760405162461bcd60e51b815260206004820181905260248201527f4f776e61626c653a2063616c6c6572206973206e6f7420746865206f776e65726044820152606401610597565b82820283158482048414178202611c6b5763ad251c276000526004601cfd5b0492915050565b6000805160206126df833981519152546001600160a01b031690565b61095d611bf2565b7f4910fdfa16fed3260ed0e7147f7cc6da11a60208b5b9406d12a635614ffd91435460ff1615611cce57611cc98361205d565b505050565b826001600160a01b03166352d1902d6040518163ffffffff1660e01b8152600401602060405180830381865afa925050508015611d28575060408051601f3d908101601f19168201909252611d2591810190612607565b60015b611d8b5760405162461bcd60e51b815260206004820152602e60248201527f45524331393637557067726164653a206e657720696d706c656d656e7461746960448201526d6f6e206973206e6f74205555505360901b6064820152608401610597565b6000805160206126df8339815191528114611dfa5760405162461bcd60e51b815260206004820152602960248201527f45524331393637557067726164653a20756e737570706f727465642070726f786044820152681a58589b195555525160ba1b6064820152608401610597565b50611cc98383836120f9565b6000611e1182610e56565b9050600060fb5460ff166001811115611e2c57611e2c61242f565b03611e6157600160ff54611e40919061252d565b6001600160a01b038316600090815260fe6020526040902060010155611e81565b60ff546001600160a01b038316600090815260fe60205260409020600101555b604051600090339083908381818185875af1925050503d8060008114611ec3576040519150601f19603f3d011682016040523d82523d6000602084013e611ec8565b606091505b5050905080611eea576040516312171d8360e31b815260040160405180910390fd5b60ff5460405133917ff0a79ba53601e311de7e03ea2c22463403a62c3d42cec4b256a0f74e1259dae591610e4991868252602082015260400190565b609780546001600160a01b038381166001600160a01b0319831681179093556040519116919082907f8be0079c531659141344cd1fd0a4f28419497f9722a3daafe3b4186f6b6457e090600090a35050565b600260c95403611fca5760405162461bcd60e51b815260206004820152601f60248201527f5265656e7472616e637947756172643a207265656e7472616e742063616c6c006044820152606401610597565b600260c955565b600160c955565b600054610100900460ff16611fff5760405162461bcd60e51b815260040161059790612620565b6109dc612124565b600054610100900460ff1661202e5760405162461bcd60e51b815260040161059790612620565b6109dc612154565b600054610100900460ff166109dc5760405162461bcd60e51b815260040161059790612620565b6001600160a01b0381163b6120ca5760405162461bcd60e51b815260206004820152602d60248201527f455243313936373a206e657720696d706c656d656e746174696f6e206973206e60448201526c1bdd08184818dbdb9d1c9858dd609a1b6064820152608401610597565b6000805160206126df83398151915280546001600160a01b0319166001600160a01b0392909216919091179055565b6121028361217b565b60008251118061210f5750805b15611cc95761211e83836121bb565b50505050565b600054610100900460ff1661214b5760405162461bcd60e51b815260040161059790612620565b6109dc33611f26565b600054610100900460ff16611fd15760405162461bcd60e51b815260040161059790612620565b6121848161205d565b6040516001600160a01b038216907fbc7cd75a20ee27fd9adebab32041f755214dbc6bffa90cc0225b39da2e5c2d3b90600090a250565b60606121e083836040518060600160405280602781526020016126ff602791396121e9565b90505b92915050565b6060600080856001600160a01b031685604051612206919061268f565b600060405180830381855af49150503d8060008114612241576040519150601f19603f3d011682016040523d82523d6000602084013e612246565b606091505b509150915061225786838387612261565b9695505050505050565b606083156122d05782516000036122c9576001600160a01b0385163b6122c95760405162461bcd60e51b815260206004820152601d60248201527f416464726573733a2063616c6c20746f206e6f6e2d636f6e74726163740000006044820152606401610597565b50816122da565b6122da83836122e2565b949350505050565b8151156122f25781518083602001fd5b8060405162461bcd60e51b815260040161059791906126ab565b60006020828403121561231e57600080fd5b5035919050565b80356001600160a01b03811681146115dd57600080fd5b60006020828403121561234e57600080fd5b6121e082612325565b634e487b7160e01b600052604160045260246000fd5b6000806040838503121561238057600080fd5b61238983612325565b9150602083013567ffffffffffffffff808211156123a657600080fd5b818501915085601f8301126123ba57600080fd5b8135818111156123cc576123cc612357565b604051601f8201601f19908116603f011681019083821181831017156123f4576123f4612357565b8160405282815288602084870101111561240d57600080fd5b8260208601602083013760006020848301015280955050505050509250929050565b634e487b7160e01b600052602160045260246000fd5b602081016002831061246757634e487b7160e01b600052602160045260246000fd5b91905290565b8151815260208083015190820152604081016121e3565b60006020828403121561249657600080fd5b813580151581146124a657600080fd5b9392505050565b602080825282518282018190526000919060409081850190868401855b828110156124f7576124e784835180518252602090810151910152565b92840192908501906001016124ca565b5091979650505050505050565b634e487b7160e01b600052601160045260246000fd5b808201808211156121e3576121e3612504565b818103818111156121e3576121e3612504565b634e487b7160e01b600052603260045260246000fd5b60006001820161256857612568612504565b5060010190565b6020808252602c908201527f46756e6374696f6e206d7573742062652063616c6c6564207468726f7567682060408201526b19195b1959d85d1958d85b1b60a21b606082015260800190565b6020808252602c908201527f46756e6374696f6e206d7573742062652063616c6c6564207468726f7567682060408201526b6163746976652070726f787960a01b606082015260800190565b60006020828403121561261957600080fd5b5051919050565b6020808252602b908201527f496e697469616c697a61626c653a20636f6e7472616374206973206e6f74206960408201526a6e697469616c697a696e6760a81b606082015260800190565b60005b8381101561268657818101518382015260200161266e565b50506000910152565b600082516126a181846020870161266b565b9190910192915050565b60208152600082518060208401526126ca81604085016020870161266b565b601f01601f1916919091016040019291505056fe360894a13ba1a3210667c828492db98dca3e2076cc3735a920a3ca505d382bbc416464726573733a206c6f772d6c6576656c2064656c65676174652063616c6c206661696c6564a264697066735822122052c062967abdba8ac0414655a4b0c26a4bc45b30171ff4d901e156afbee8875664736f6c63430008120033",
  "devdoc": {
    "author": "torof",
    "custom:warning": "claiming entails the use of a loop, if too many epochs to claim, it may fail                 the gas cost of the call and the success or failure should be estimated before calling                 a security function is present to break down claiming in chunks.",
    "details": "The contract allows users to stake funds, which are locked for a period of time (an epoch).      The contract has a lifecycle that includes opening, running, and terminating epochs, distributing      rewards, and claiming rewards.      Adding and withdrawing funds is possible only when the epoch status is \"Open\".      Claiming rewards is always possible EXCEPT during the timeframe between when an epoch      starts running and when rewards are allocated for that epoch.",
    "events": {
      "AdminChanged(address,address)": {
        "details": "Emitted when the admin account has changed."
      },
      "BeaconUpgraded(address)": {
        "details": "Emitted when the beacon is changed."
      },
      "Initialized(uint8)": {
        "details": "Triggered when the contract has been initialized or reinitialized."
      },
      "Upgraded(address)": {
        "details": "Emitted when the implementation is upgraded."
      }
    },
    "kind": "dev",
    "methods": {
      "calculateRewards(address)": {
        "params": {
          "_user": "The address of the user"
        },
        "returns": {
          "_0": "uint256 The total rewards for the user"
        }
      },
      "claimRewardsForEpochs(uint256)": {
        "details": "this is a secutiry function to avoid out of gas errors for the main claim function",
        "params": {
          "_numberOfEpochs": "The number of epochs to claim rewards for"
        }
      },
      "constructor": {
        "custom:oz-upgrades-unsafe-allow": "constructor"
      },
      "exit(uint256)": {
        "params": {
          "_amount": "The amount of ETH to withdraw"
        }
      },
      "getAllEpochs()": {
        "returns": {
          "_0": "Epoch[] An array of all epochs"
        }
      },
      "getCurrentEpoch()": {
        "returns": {
          "_0": "Epoch The current epoch"
        }
      },
      "getEpochLengthToClaim(address)": {
        "params": {
          "_user": "The address of the user"
        },
        "returns": {
          "_0": "uint256 The number of epochs the user can claim rewards for"
        }
      },
      "hasClaimableRewards(address)": {
        "params": {
          "_user": "The address of the user"
        },
        "returns": {
          "_0": "bool indicating if the user has claimable rewards"
        }
      },
      "initialize(address)": {
        "params": {
          "_fundWallet": "The address of the fund wallet"
        }
      },
      "lockOrUnlockContract(bool)": {
        "params": {
          "_locked": "The new lock state"
        }
      },
      "owner()": {
        "details": "Returns the address of the current owner."
      },
      "proxiableUUID()": {
        "details": "Implementation of the ERC1822 {proxiableUUID} function. This returns the storage slot used by the implementation. It is used to validate the implementation's compatibility when performing an upgrade. IMPORTANT: A proxy pointing at a proxiable contract should not be considered proxiable itself, because this risks bricking a proxy that upgrades to it, by delegating to itself until out of gas. Thus it is critical that this function revert if invoked through a proxy. This is guaranteed by the `notDelegated` modifier."
      },
      "renounceOwnership()": {
        "details": "Leaves the contract without owner. It will not be possible to call `onlyOwner` functions. Can only be called by the current owner. NOTE: Renouncing ownership will leave the contract without an owner, thereby disabling any functionality that is only available to the owner."
      },
      "setFundWallet(address)": {
        "params": {
          "_fundWallet": "The new fund wallet address"
        }
      },
      "setMinimumStake(uint256)": {
        "params": {
          "_mininmumStake": "The new minimum stake amount"
        }
      },
      "transferOwnership(address)": {
        "details": "Transfers ownership of the contract to a new account (`newOwner`). Can only be called by the current owner."
      },
      "upgradeTo(address)": {
        "custom:oz-upgrades-unsafe-allow-reachable": "delegatecall",
        "details": "Upgrade the implementation of the proxy to `newImplementation`. Calls {_authorizeUpgrade}. Emits an {Upgraded} event."
      },
      "upgradeToAndCall(address,bytes)": {
        "custom:oz-upgrades-unsafe-allow-reachable": "delegatecall",
        "details": "Upgrade the implementation of the proxy to `newImplementation`, and subsequently execute the function call encoded in `data`. Calls {_authorizeUpgrade}. Emits an {Upgraded} event."
      }
    },
    "title": "Ledgity ETH Vault Contract",
    "version": 1
  },
  "userdoc": {
    "kind": "user",
    "methods": {
      "allocateRewards()": {
        "notice": "Allocates rewards for the current epoch"
      },
      "calculateRewards(address)": {
        "notice": "Calculates the rewards for a user"
      },
      "claimRewards()": {
        "notice": "Allows users to claim their rewards"
      },
      "claimRewardsForEpochs(uint256)": {
        "notice": "Allows users to claim rewards for a specific number of epochs"
      },
      "enter()": {
        "notice": "Allows users to enter the vault by staking ETH"
      },
      "exit(uint256)": {
        "notice": "Allows users to exit the vault by withdrawing their stake"
      },
      "getAllEpochs()": {
        "notice": "Gets all epochs"
      },
      "getCurrentEpoch()": {
        "notice": "Gets the current epoch"
      },
      "getEpochLengthToClaim(address)": {
        "notice": "Gets the number of epochs a user can claim rewards for"
      },
      "hasClaimableRewards(address)": {
        "notice": "Checks if a user has claimable rewards"
      },
      "initialize(address)": {
        "notice": "Initializes the contract"
      },
      "lockFundsAndRunCurrentEpoch()": {
        "notice": "Locks funds and starts running the current epoch"
      },
      "lockOrUnlockContract(bool)": {
        "notice": "Locks or unlocks the contract"
      },
      "setFundWallet(address)": {
        "notice": "Sets the fund wallet address"
      },
      "setMinimumStake(uint256)": {
        "notice": "Sets the minimum stake amount"
      },
      "terminateCurrentAndOpenNextEpoch()": {
        "notice": "Terminates the current epoch and opens the next one by giving back the funds from the fundwallet"
      }
    },
    "notice": "This contract implements a ETH staking and reward distribution system operating in epochs.         Users can provide funds that will be used for derivatives (short put and call options) operations, and in return,         they will receive yield proportionally to their stake.",
    "version": 1
  },
  "storageLayout": {
    "storage": [
      {
        "astId": 503,
        "contract": "contracts/src/EthVault.sol:EthVault",
        "label": "_initialized",
        "offset": 0,
        "slot": "0",
        "type": "t_uint8"
      },
      {
        "astId": 506,
        "contract": "contracts/src/EthVault.sol:EthVault",
        "label": "_initializing",
        "offset": 1,
        "slot": "0",
        "type": "t_bool"
      },
      {
        "astId": 485,
        "contract": "contracts/src/EthVault.sol:EthVault",
        "label": "__gap",
        "offset": 0,
        "slot": "1",
        "type": "t_array(t_uint256)50_storage"
      },
      {
        "astId": 800,
        "contract": "contracts/src/EthVault.sol:EthVault",
        "label": "__gap",
        "offset": 0,
        "slot": "51",
        "type": "t_array(t_uint256)50_storage"
      },
      {
        "astId": 1256,
        "contract": "contracts/src/EthVault.sol:EthVault",
        "label": "__gap",
        "offset": 0,
        "slot": "101",
        "type": "t_array(t_uint256)50_storage"
      },
      {
        "astId": 10,
        "contract": "contracts/src/EthVault.sol:EthVault",
        "label": "_owner",
        "offset": 0,
        "slot": "151",
        "type": "t_address"
      },
      {
        "astId": 130,
        "contract": "contracts/src/EthVault.sol:EthVault",
        "label": "__gap",
        "offset": 0,
        "slot": "152",
        "type": "t_array(t_uint256)49_storage"
      },
      {
        "astId": 815,
        "contract": "contracts/src/EthVault.sol:EthVault",
        "label": "_status",
        "offset": 0,
        "slot": "201",
        "type": "t_uint256"
      },
      {
        "astId": 884,
        "contract": "contracts/src/EthVault.sol:EthVault",
        "label": "__gap",
        "offset": 0,
        "slot": "202",
        "type": "t_array(t_uint256)49_storage"
      },
      {
        "astId": 1399,
        "contract": "contracts/src/EthVault.sol:EthVault",
        "label": "currentEpochStatus",
        "offset": 0,
        "slot": "251",
        "type": "t_enum(EpochStatus)1396"
      },
      {
        "astId": 1403,
        "contract": "contracts/src/EthVault.sol:EthVault",
        "label": "epochs",
        "offset": 0,
        "slot": "252",
        "type": "t_array(t_struct(Epoch)1388_storage)dyn_storage"
      },
      {
        "astId": 1405,
        "contract": "contracts/src/EthVault.sol:EthVault",
        "label": "fundWallet",
        "offset": 0,
        "slot": "253",
        "type": "t_address"
      },
      {
        "astId": 1410,
        "contract": "contracts/src/EthVault.sol:EthVault",
        "label": "userStakes",
        "offset": 0,
        "slot": "254",
        "type": "t_mapping(t_address,t_struct(UserStake)1393_storage)"
      },
      {
        "astId": 1412,
        "contract": "contracts/src/EthVault.sol:EthVault",
        "label": "currentEpochId",
        "offset": 0,
        "slot": "255",
        "type": "t_uint256"
      },
      {
        "astId": 1414,
        "contract": "contracts/src/EthVault.sol:EthVault",
        "label": "mininmumStake",
        "offset": 0,
        "slot": "256",
        "type": "t_uint256"
      },
      {
        "astId": 1416,
        "contract": "contracts/src/EthVault.sol:EthVault",
        "label": "locked",
        "offset": 0,
        "slot": "257",
        "type": "t_bool"
      },
      {
        "astId": 1418,
        "contract": "contracts/src/EthVault.sol:EthVault",
        "label": "claimableRewards",
        "offset": 1,
        "slot": "257",
        "type": "t_bool"
      }
    ],
    "types": {
      "t_address": {
        "encoding": "inplace",
        "label": "address",
        "numberOfBytes": "20"
      },
      "t_array(t_struct(Epoch)1388_storage)dyn_storage": {
        "base": "t_struct(Epoch)1388_storage",
        "encoding": "dynamic_array",
        "label": "struct EthVault.Epoch[]",
        "numberOfBytes": "32"
      },
      "t_array(t_uint256)49_storage": {
        "base": "t_uint256",
        "encoding": "inplace",
        "label": "uint256[49]",
        "numberOfBytes": "1568"
      },
      "t_array(t_uint256)50_storage": {
        "base": "t_uint256",
        "encoding": "inplace",
        "label": "uint256[50]",
        "numberOfBytes": "1600"
      },
      "t_bool": {
        "encoding": "inplace",
        "label": "bool",
        "numberOfBytes": "1"
      },
      "t_enum(EpochStatus)1396": {
        "encoding": "inplace",
        "label": "enum EthVault.EpochStatus",
        "numberOfBytes": "1"
      },
      "t_mapping(t_address,t_struct(UserStake)1393_storage)": {
        "encoding": "mapping",
        "key": "t_address",
        "label": "mapping(address => struct EthVault.UserStake)",
        "numberOfBytes": "32",
        "value": "t_struct(UserStake)1393_storage"
      },
      "t_struct(Epoch)1388_storage": {
        "encoding": "inplace",
        "label": "struct EthVault.Epoch",
        "members": [
          {
            "astId": 1385,
            "contract": "contracts/src/EthVault.sol:EthVault",
            "label": "totalValueLocked",
            "offset": 0,
            "slot": "0",
            "type": "t_uint256"
          },
          {
            "astId": 1387,
            "contract": "contracts/src/EthVault.sol:EthVault",
            "label": "totalEpochRewards",
            "offset": 0,
            "slot": "1",
            "type": "t_uint256"
          }
        ],
        "numberOfBytes": "64"
      },
      "t_struct(UserStake)1393_storage": {
        "encoding": "inplace",
        "label": "struct EthVault.UserStake",
        "members": [
          {
            "astId": 1390,
            "contract": "contracts/src/EthVault.sol:EthVault",
            "label": "amount",
            "offset": 0,
            "slot": "0",
            "type": "t_uint256"
          },
          {
            "astId": 1392,
            "contract": "contracts/src/EthVault.sol:EthVault",
            "label": "lastEpochClaimedAt",
            "offset": 0,
            "slot": "1",
            "type": "t_uint256"
          }
        ],
        "numberOfBytes": "64"
      },
      "t_uint256": {
        "encoding": "inplace",
        "label": "uint256",
        "numberOfBytes": "32"
      },
      "t_uint8": {
        "encoding": "inplace",
        "label": "uint8",
        "numberOfBytes": "1"
      }
    }
  }
}